:1010000000000420751300005D1300005F13000052
:10101000611300006313000065130000000000006E
:10102000000000000000000000000000E9D80000FF
:1010300069130000000000006B1300006D13000036
:101040006F1300006F1300006F1300006F13000098
:10105000415100006F13000005D200006F13000023
:101060006F1300006F1300006F1300006F13000078
:101070006F1300006F1300006F1300006F13000068
:101080006F130000F1AA00006F1300006F1300003F
:1010900031AB00006F130000ADD700006F130000EC
:1010A0006F1300006F1300006F1300006F13000038
:1010B0006F1300006F13000000000000000000002C
:1010C0006F1300006F1300006F1300006F13000018
:1010D0006F1300006F1300006F1300006F13000008
:1010E0006F1300006F1300006F130000000000007A
:1010F000000000006F130000000000006F130000EC
:1011000000000000000000000000000000000000DF
:1011100000000000000000000000000000000000CF
:1011200000000000000000000000000000000000BF
:1011300000000000000000000000000000000000AF
:10114000000000000000000000000000000000009F
:10115000000000000000000000000000000000008F
:10116000000000000000000000000000000000007F
:10117000000000000000000000000000000000006F
:10118000000000000000000000000000000000005F
:10119000000000000000000000000000000000004F
:1011A000000000000000000000000000000000003F
:1011B000000000000000000000000000000000002F
:1011C000000000000000000000000000000000001F
:1011D000000000000000000000000000000000000F
:1011E00000000000000000000000000000000000FF
:1011F00000000000000000000000000000000000EF
:10120000354936480A1A02D0072291438D4634499F
:1012100034480A1A06D00722914381F30988022232
:1012200082F3148830483149314A00F044F831489B
:101230003149324A00F03FF831483249324A00F031
:101240003AF832483249334A00F035F832483349E7
:10125000334A00F030F833483349344A00F02BF871
:1012600033483449344A00F026F8344834490022DF
:1012700000F02CF833483449002200F027F83348B6
:101280003349091A082902DB002202604160314A11
:1012900090471F481F49884205D00268043003B4B4
:1012A000904703BCF7E700208646EC46002000216B
:1012B000294A9047FEE7884207D0521A05D00378A2
:1012C00001300B700131013AF9D17047884202D0E8
:1012D00002700130FAE770470000042000E00320AC
:1012E0000000042000000420C013010008000020BA
:1012F0005C030020D4130000D413000050F400005D
:10130000C0130100080000200800002030F5000094
:1013100030F5000030F5000030F5000030F5000039
:1013200030F5000030F5000030F50000C01301007A
:10133000141701005C0300205C0300205C03002004
:1013400078150020781500207C1500207C150020E1
:101350007C3500209D130000DD600000FEE7FEE705
:10136000FEE7FEE7FEE7FEE7FEE7FEE7FEE7FEE755
:10137000704700BF1048804710484FF0070188436E
:1013800085460F4880470F48016841F470010160AD
:10139000BFF34F8FBFF36F8FFFF732BF0A480B4980
:1013A0000B4A884207D0521A05D0037801300B70DF
:1013B0000131013AF9D17047711300000000042097
:1013C0005963000088ED00E030F5000008000020BF
:0413D00008000020F1
:1013D40000487047701500200CF092BF00B583B030
:1013E4001F4B0193019B02221A61019B02225A6145
:1013F400019B1C4A9A61019B1B4ADA61019B4FF4D1
:1014040000721A62019B00229A62019B00225A62B6
:10141400019B0022DA62019B124A9A64019B134ADF
:10142400DA64019B10221A65019B00229A65019BD4
:1014340000225A65019B0022DA65019B07330C499F
:1014440018460CF009FF019B0A4918460CF004FFEA
:10145400019B20229A7100BF03B05DF804FB00BF1A
:101464005C03002030F50000D4030020D4050020E4
:101474003CF5000040F5000000B589B003900291EE
:10148400019200230693039BDB680593039B1B696E
:101494000493049A059B9A4205D9049A059BD31A8E
:1014A400013B079307E0039B9A680499059BCB1AB9
:1014B4001344013B0793039B9A68059BD31A079A2D
:1014C400934228BF13460793079A019B934228BF70
:1014D40013460793039B5A68059B1344079A029982
:1014E40018460CF05DFE069A079B13440693029A75
:1014F400079B13440293019A079BD31A0193059AFD
:10150400079B13440593039B9B68059A9A4201D158
:1015140000230593039B059ADA60019B002BB5D148
:10152400069B184609B05DF804FB00B589B003902A
:1015340002910192039BDB680793039B9A68079BC4
:10154400D31A0693069A019B9A420ED9039B5A68B2
:10155400079B1344019A029918460CF021FE079A3E
:10156400019B1A44039BDA601AE0069B0593039BD4
:101574005A68079B1344059A029918460CF010FE0A
:10158400019A069BD31A0593039B5868029A069BFB
:101594001344059A19460CF003FE039B059ADA607E
:1015A40000BF09B05DF804FB86B00190019B1B6984
:1015B4000493019BDB680393049A039B9A4208D823
:1015C400019B9A68039BD21A049B1344013B059325
:1015D40004E0049A039BD31A013B0593059B184628
:1015E40006B0704700B589B0039002910192029B46
:1015F4000693039B5A1C13465B001344DB001F4AEB
:1016040013440593059B5B69012B17D0002B02D073
:10161400022B23D029E00598FFF7C6FF0490049A13
:10162400019B9A4202D20023079321E0019B079376
:10163400019A06990598FFF778FF19E00598FFF7D6
:10164400B3FF0490019A049B934228BF1346079367
:10165400079A06990598FFF768FF09E0019A069929
:101664000598FFF709FF079002E00023079300BFE6
:10167400079B184609B05DF804FB00BF5C0300201B
:1016840008B5FFF7ABFE00BF08BD82B00190009122
:1016940000BF02B07047000010B584B003900291FF
:1016A400039BDB88002B0AD0039BDB881A461F4B65
:1016B400009313461E4A1F49029801F05BFE039BE8
:1016C4001B7A052B2ED0039B5B7A002B12D0039B35
:1016D4009B881A46039B1B7A1946104600F024FC8B
:1016E40003461A46144B53F822301A4613490298FB
:1016F40001F040FE039B1B6819460298FFF7C5FFE3
:10170400039B1B7A1A460E4B53F82240039B9B887B
:101714000021184600F0E8FB0346224609490298D6
:1017240001F028FE00BF04B010BD00BF68F5000042
:1017340078F50000B0F500001C000020C8F500009A
:1017440008000020CCF5000000B585B0039002919C
:1017540013468DF80730039B1B7A052B0FD0039B90
:101764005B7A002B06D00D4B1B681A460C49029875
:1017740001F000FE0B49029801F0FCFD07E09DF822
:101784000730002B03D00749029801F0F3FD0298BB
:1017940001F0CEFD00BF05B05DF804FB1C00002085
:1017A400C8F50000D8F5000030B58BB0079006915D
:1017B400059204930E9B1B7B8DF827300E9B002211
:1017C4001A730E990498FFF767FF059B062B7FD8C1
:1017D40001A252F823F000BFF9170000031800001B
:1017E4001318000027180000451800006D180000A9
:1017F4009D18000007990E9801F0BCFD69E0069B56
:101804001B681A4607990E9801F0B4FD61E0069B27
:101814001A68069B04331B6807990E9801F0AAFD09
:1018240057E0069B1A68069B04331968069B083325
:101834001B6800930B4607990E9801F09BFD48E046
:10184400069B1968069B04331868069B08331B68BB
:10185400069A0C3212680192009303460A460799CD
:101864000E9801F087FD34E0069B1868069B04334C
:101874001C68069B08331B68069A0C32126806998A
:101884001031096802910192009323460246079998
:101894000E9801F06FFD1CE0069B1C68069B043348
:1018A4001D68069B08331B68069A0C321268069959
:1018B400103109680698143000680390029101926F
:1018C40000932B46224607990E9801F053FD00E041
:1018D40000BF00220E990498FFF736FF0E9B9DF877
:1018E40027201A7300BF0BB030BD00BF00B587B00E
:1018F4000390029101920093029B082B60D8009BF5
:101904001B7B8DF81330009B00221A7300990198F9
:10191400FFF7C2FE0023059314E0059A029B9A4246
:1019240009D2039A059B13441B781A46264900984A
:1019340001F020FD03E02549009801F01BFD059B03
:1019440001330593059B072BE7D92149009801F042
:1019540011FD0023059326E0059A029B9A421BD2AF
:10196400039A059B13441B788DF812309DF81230AE
:101974007E2B0AD89DF8123018460CF0BBFB0346A8
:10198400002B02D09DF8123000E02E231A46114994
:10199400009801F0EFFC03E00F49009801F0EAFC25
:1019A400059B01330593059B072BD5D9012200998B
:1019B4000198FFF7C9FE009B9DF813201A7300E0FD
:1019C40000BF07B05DF804FBDCF50000E4F500009F
:1019D400E8F50000ECF50000F0F5000082B001909D
:1019E400019BDB6801225A7100BF02B070470000FE
:1019F40000B583B04FF0FF33019300F044F80421A5
:101A0400084800F059FF0190019B002B03DA0649B6
:101A1400412003F045FC0348FFF7E0FF00BF03B09B
:101A24005DF804FB20F5000004F6000000B585B065
:101A34000190019B002B0AD0074B43F00103039351
:101A4400019B9B010293039B0298984700E000BF0F
:101A540005B05DF804FB00BFB0F6000000B583B02C
:101A64000190019B002B0AD04FF47A70FFF7DEFF40
:101A7400019B013B0193019B002BF5D100E000BFCA
:101A840003B05DF804FB08B5FFF7FAFD00BF08BD1D
:101A940000B589B0039002910192019B002B33D0D1
:101AA4000023079303230693029A079B1344019A86
:101AB40019460020FFF796FD0590079A059B1344ED
:101AC4000793019A059BD31A0193059B002B13D10D
:101AD4000F4B1B7883F00103DBB2002B13D10120E1
:101AE400FFF7BCFF069B013B0693069B002B03D12B
:101AF400074B00221A7007E0054B01221A70019B64
:101B0400002BD1D100E000BF00BF09B05DF804FB99
:101B1400E405002000B585B003900291054B0093C5
:101B24004023054A0299039800F012F800BF05B05B
:101B34005DF804FB951A0000E805002082B00190CE
:101B440000BF02B0704782B0019000BF02B070477E
:101B540000B5A1B00590049103920293049802F099
:101B6400D2F8039B1593029B16930023179300232B
:101B74008DF8603000231993229B1A9300231F933E
:101B84000FA91F9B0822049802F096F908231F93BB
:101B9400119B1293BDF84030ADF84C30BDF8423083
:101BA400ADF84E3000238DF851309DF83C3003F0F1
:101BB4000303DBB2012B26D10F9BC3F395231D93A3
:101BC4009DF83C30C3F3C203DBB28DF85030BDF84E
:101BD4003C30C3F38313DBB21C931C9B9A0009A90A
:101BE4001F9B049802F068F91C9B9B001F9A1344E6
:101BF4001F9312AA09A915AB009313461C9A1D98AA
:101C0400FFF7D2FD2FE09DF83C3003F00303DBB275
:101C1400022B28D1BDF83E30C3F389139BB21E9327
:101C24009DF83C30C3F3C203DBB28DF850301E9BE9
:101C3400082B28BF08231B9307A91F9B1B9A0498F2
:101C440002F03AF91F9A1B9B13441F931E9A1B9B85
:101C5400D31A1E9315AB12AA07A81B99FFF746FEC9
:101C64001E9B002BE3D1049802F05CF800BF21B066
:101C74005DF804FB00B583B001900091019B1B68E3
:101C84001B6800990198984700BF03B05DF804FBF6
:101C940000B583B00190019B1B685B68019898476D
:101CA40000BF03B05DF804FB00B583B00190019B55
:101CB4001B689B680198984700BF03B05DF804FB5C
:101CC40082B001900B468DF80330019BDB689DF8D0
:101CD40003201A7100BF02B0704782B00190019BCB
:101CE400DB681B79184602B0704782B00190019BF3
:101CF400DB6801225A7100BF02B0704782B00190C4
:101D0400019BDB685B79184602B0704710B487B05A
:101D140001900091019B009A53E8004F104643E85C
:101D2400000191F0000FF7D1059404900391059BF5
:101D3400184607B05DF8044B704710B487B00190A3
:101D44000091019B009A53E8004F44EA020043E8E3
:101D5400000191F0000FF6D1059404900391049BC7
:101D6400184607B05DF8044B704710B487B0019073
:101D74000091019B009A53E8004F04EA020043E8F3
:101D8400000191F0000FF6D1059404900391059B96
:101D9400184607B05DF8044B704710B487B0019043
:101DA4000091019B009A53E8004F04EB020043E8C2
:101DB400000191F0000FF6D1059404900391049B67
:101DC400184607B05DF8044B704700B583B0019026
:101DD40001210198FFF7B1FF0346184603B05DF8EF
:101DE40004FB00B583B0019000210198FFF7BDFF0B
:101DF4000346184603B05DF804FB000000B585B047
:101E040001900091154BFF229A60144B00221A6036
:101E1400124B00225A60114B0022C3F818240F4BB6
:101E24000022C3F814240D4B002283F820240C480C
:101E340001F0CEFE0390039B002B01D0039B08E02E
:101E4400084802F059F8084A084BD31ADB080293F1
:101E54000023184605B05DF804FB00BF900700207E
:101E6400B8F60000CCF6000020F50000B8F400003D
:101E7400024A034BD31ADB081846704720F50000CA
:101E8400B8F4000000B587B001900B468DF803301C
:101E94009DF80330002B1FD0FFF7EAFF04900023C6
:101EA400059313E0059B9B000E4A13440393039B85
:101EB4001B881A46019B1B689A4204D1019B059A10
:101EC4001A60002309E0059B01330593059A049BDE
:101ED4009A42E7D3052300E00023184607B05DF8D3
:101EE40004FB00BF0800002000B585B001900B463C
:101EF4008DF803309DF8032001AB11461846FFF717
:101F0400C1FF0346002B07D1019BDB00054A1344A4
:101F14000393039B1B6800E00023184605B05DF89B
:101F240004FB00BFB8F4000084B001900B468DF8A8
:101F34000330019BDB00174A134402939DF80330DE
:101F4400013B032B1CD801A252F823F0611F0000AF
:101F5400691F0000711F00007B1F000002238DF821
:101F64000F3011E004238DF80F300DE0029B1B7934
:101F74008DF80F3008E0029B5B798DF80F3003E099
:101F840000238DF80F3000BF9DF80F30184604B0C1
:101F9400704700BFB8F4000084B0019000910023A2
:101FA4008DF80F30019B1B7803F00403DBB2002B88
:101FB40024D0019B1B78C3F30103DBB2012B02D0B5
:101FC400022B0CD017E0009B1B68019A1288C2F305
:101FD4008312D2B213449A1C009B1A600BE0009B3C
:101FE4001B68019A5288C2F3891292B213449A1C54
:101FF400009B1A6000BF01238DF80F309DF80F304D
:10200400184604B07047000000B58BB00023ADF84B
:1020140026303E48FFF7D9FE3D48FFF7D6FE3D4B3C
:102024005B6804933B4B9B680693049A069B13409E
:1020340002339B00374A13440433089304AB194614
:102044000898FFF7A9FF0346002B09D0049A069BC2
:10205400134002339B002F4A134404330893EDE7E3
:1020640000BF0023079311E0049B5A1C0492069AB4
:102074001340079A920001A90A44264902339B009F
:102084000B445B681360079B01330793079B012B89
:10209400EAD99DF80430C3F30103DBB2012B10D05D
:1020A400022B1CD1BDF80A30ADF82630BDF806303D
:1020B400C3F389139BB203339A08049B1344049318
:1020C40013E0BDF80A30ADF82630BDF80430C3F390
:1020D4008313DBB21A46049B1344049305E00E49B0
:1020E40040F27F1003F0DCF800BF0948FFF779FEE7
:1020F4000590059B002B02D0049B064A5360BDF853
:10210400263018460BB05DF804FB00BFA80B002076
:10211400A40B002090070020DCF6000000B585B079
:1021240000210748FFF7F2FD0390039B0293029BF3
:1021340083F310030193019B184605B05DF804FB7B
:10214400AC0B002000B589B003900291019200937A
:10215400039B1B0C0793FFF7E1FF0690FFF788FE34
:102164000246079B934204D321494FF4D27003F0F3
:1021740097F8069B1904009B5A1C0A9B1340079A64
:102184000A431C4902339B000B445A60009A0A9B81
:10219400134002339B00174A134404330593039BF3
:1021A40003F00703D9B2059A137861F3C5031370DA
:1021B400019B03F00F03D9B2059A138861F38913C5
:1021C4001380029BC3F31501059A136861F39F23DF
:1021D4001360059A1378012161F301031370059AC2
:1021E40013786FF38203137000BF09B05DF804FB2A
:1021F400DCF600009007002000B58DB0039002913A
:1022040013468DF80730039B02330A9301238DF89C
:10221400273000238DF81B300DF11B03184600F006
:1022240031FF404B1A68029B1A603E4B9A683D4B43
:1022340059683C4B1B68CB1A134401330B9314E0CD
:1022440001213948FFF7A9FDFFF7DEFE0890089940
:102254003548FFF7A2FD334B9A68324B5968314B2E
:102264001B68CB1A134401330B930A9A0B9B9A42B3
:10227400E6D89DF82730002B48D0002305939DF81D
:102284000730002B17D09DF81430012262F30103AC
:102294008DF814309DF8143043F004038DF8143095
:1022A400039B03F00F03DAB2BDF8143062F3891311
:1022B400ADF8143016E09DF81430022262F30103E5
:1022C4008DF814309DF8143043F004038DF8143065
:1022D400039BC3F309039AB2BDF8163062F38F135C
:1022E400ADF816300F4B1A680E4B9B68134002333F
:1022F4009B000C4A134404330793059A079B1A6006
:10230400084B1A680A9B1344064A13609DF81B3055
:10231400184600F0CBFE9DF8273018460DB05DF846
:1023240004FB00BF90070020AC0B002000B58BB06D
:1023340005900491039202931F4B9B68079306AB8D
:10234400012219460298FFF757FF0346002B24D0B9
:10235400069B023309930023089311E0089B9B001A
:10236400039A1A44099B591C099107990B40126856
:10237400114902339B000B445A60089B01330893B4
:10238400089A029B9A42E9D3069A079B0093134644
:10239400029A04990598FFF7D5FE074B93F8203469
:1023A400002B05D000BF00F081F80346002BFAD1C2
:1023B40000BF0BB05DF804FB9007002000B583B0AC
:1023C400019000910023002200990198FFF7AEFFCD
:1023D40000BF03B05DF804FB00B587B00390029121
:1023E4000192019B059305AA012302990398FFF723
:1023F4009DFF00BF07B05DF804FB00B587B00390F4
:10240400029101920093019B0493009B059304AAFB
:10241400022302990398FFF789FF00BF07B05DF814
:1024240004FB00B58BB00390029101920093019BD1
:102434000593009B06930C9B07930D9B08930E9B9F
:10244400099305AA052302990398FFF76FFF00BFBC
:102454000BB05DF804FB00B58BB0039002910192C0
:102464000093019B0493009B05930C9B06930D9B87
:1024740007930E9B08930F9B099304AA06230299C2
:102484000398FFF753FF00BF0BB05DF804FB000097
:10249400054B5A68044B1B689A420CBF0123002366
:1024A400DBB21846704700BF9007002000B599B012
:1024B400FFF7EEFF0346002B01D00023BCE19A4B4B
:1024C4000022C3F81824BFF34F8F974B5B68049323
:1024D400954B9B681093049A109B134002339B0006
:1024E400914A134404331193002317930023169342
:1024F40000230F9304AB19461198FFF74DFD0346D3
:10250400002B19D0884BD3F81834002B14D1864BE8
:102514001A68049B9A4205D8834B1B68824A53600D
:10252400002389E1049A109B134002339B007E4AE6
:10253400134404331193DDE70023159311E0049B46
:102544005A1C0492109A1340159A920001A90A4445
:10255400754902339B000B445B681360159B013380
:102564001593159B012BEAD99DF8043003F003035E
:10257400DBB2022B40F09C80BDF80630C3F3891314
:102584009BB20E93BDF80630C3F389139BB2502B54
:1025940028BF50239BB20D930D9BC3F309039AB23A
:1025A400BDF8063062F38F13ADF806300D9B083387
:1025B4000C939DF80430C3F3C203DBB20F930C9960
:1025C4005A4801F010FB1790179B002B00F0D080A5
:1025D400179801F098FB01A9169B0822179801F09F
:1025E4004DFC169B08331693049BDA43109B13404F
:1025F40001339B000B930D9A0B9B9A4242D90B9B80
:10260400002B08D0049A109B134002339B00464AC7
:102614001344043300E0464B0A930B9B002B02D077
:102624000B9BDBB201E00D9BDBB28DF827300B9BDB
:10263400002B01D03E4B00E0002308930B9B002BA2
:1026440006D00D9BDAB20B9BDBB2D31ADBB200E0EF
:1026540000238DF81F309DF82720169B0A991798A0
:1026640001F00CFC9DF82730169A13441693089B2E
:10267400002B16D09DF81F20169B0899179801F07F
:10268400FDFB0EE0049A109B134002339B00264A84
:10269400134404330693169B0D9A0699179801F078
:1026A400EDFB0E9B03339A08049B134404935FE0F1
:1026B4009DF8043003F00303DBB2012B58D1BDF8BD
:1026C4000430C3F38313DBB2062B28BF0623DAB22C
:1026D400BDF8043062F38913ADF80430BDF804305A
:1026E400C3F38313DBB2023305939DF80430C3F3C1
:1026F400C203DBB20F93059B9B0019460B4801F004
:1027040072FA1790179B002B32D0179801F0FBFA3E
:1027140001A9169B0822179801F0B0FB169B0833F9
:102724001693002315931AE090070020B8F60000D2
:102734009C070020049B5A1C0492109A13400233F5
:102744009B003F4A1344191D169B0422179801F05D
:1027540095FB169B04331693159B01331593BDF813
:102764000430C3F38313DBB21A46159B9342E1D3BF
:10277400179B002B40D0324BD3F810341493304BBA
:10278400D3F81834002B1BD0179801F0CBFA4DE086
:1027940000238DF84F301498FFF7B0FA0346002B4E
:1027A40002D001238DF84F309DF84F30002B03D019
:1027B40017991498FFF75EFA149BDB681B6814934F
:1027C400149B002BE4D1179801F0ACFA00238DF888
:1027D40003300DF10303184600F054FC184BD3F8F2
:1027E4001834002B02D1049B154A53609DF8033022
:1027F400184600F05BFC19E0114BD3F81034129327
:1028040006E01298FFF750FA129BDB681B681293DC
:10281400129B002BF5D10B4A0B4BD31ADB081B047C
:1028240043F0020309491846FFF7C8FDFFF730FEDD
:10283400034683F00103DBB2184619B05DF804FBCC
:1028440090070020C0F40000B8F4000068F700000E
:1028540000B585B00023039323E0164BD3F810345E
:10286400029301238DF807300FE00298FFF735FA41
:1028740003461A46039B934203D100238DF8073085
:1028840006E0029BDB681B680293029B002BECD1E1
:102894009DF80730002B01D0039B07E0039B013315
:1028A4000393039B092BD8DD4FF0FF33184605B083
:1028B4005DF804FB9007002000B585B001900B463D
:1028C4008DF80330FFF7C4FF0390039BB3F1FF3F80
:1028D40001D1039B22E0039BDBB219460198FFF769
:1028E400EFF9104BD3F81034002B08D10D4A019B9B
:1028F400C2F81034019BDB6800221A600DE0094B1A
:10290400D3F81034DA68019BDB6812681A60054B4F
:10291400D3F81034DB68019A1A60039B184605B09B
:102924005DF804FB9007002000B583B00C4BD3F88E
:10293400103401930A4B012283F8202409E0019802
:10294400FFF7D3F90198FFF7A3F9019BDB681B6834
:102954000193019B002BF2D100BF03B05DF804FB8F
:102964009007002000B583B00190019B1B682F2BBA
:1029740004D90B494FF4F37002F092FC019B1B68DD
:102984001F2B02D84FF0A04306E0019B1B6803F005
:102994001F02019B1A60034B184603B05DF804FB49
:1029A4007CF700000003005000B585B00190084694
:1029B40011461A4603468DF803300B468DF8023053
:1029C40013468DF8013001AB1846FFF7CBFF039097
:1029D4009DF803209DF802305B001A439DF80130F6
:1029E4009B001A439DF818301B0242EA03019DF82C
:1029F4001C301B04019A1943039B02F5E07243F84F
:102A0400221000BF05B05DF804FB00B585B003904B
:102A14000023019300230093002301220121039842
:102A2400FFF7C2FF00BF05B05DF804FB00B585B039
:102A340003900B468DF80B309DF80B200023019377
:102A4400002300931346002200210398FFF7ACFFF4
:102A540000BF05B05DF804FB00B585B0019001AB83
:102A64001846FFF77FFF0390019B012202FA03F34C
:102A74001946039800F086F800BF05B05DF804FB22
:102A840000B585B0019001AB1846FFF76BFF0390CA
:102A9400019B012202FA03F31946039800F07CF823
:102AA40000BF05B05DF804FB00B585B0019001AB33
:102AB4001846FFF757FF0390039BD3F8043502939E
:102AC400029BDA43019B012101FA03F31A40039BA1
:102AD400C3F80825019B01229A40029B1A40039BDC
:102AE400C3F80C2500BF05B05DF804FB00B583B046
:102AF40001900091009B002B03D10198FFF7C0FFC8
:102B040002E00198FFF7A8FF00BF03B05DF804FBE3
:102B140000B585B0019001AB1846FFF723FF039081
:102B2400039800F01FF80246019B22FA03F303F016
:102B34000103184605B05DF804FB00B585B00190AB
:102B440001AB1846FFF70EFF0390039800F012F84C
:102B54000246019B22FA03F303F00103184605B071
:102B64005DF804FB82B00190019BD3F81035184640
:102B740002B0704782B00190019BD3F80435184627
:102B840002B0704782B001900091019B009AC3F893
:102B9400082500BF02B0704782B001900091019BEC
:102BA400009AC3F80C2500BF02B0704700B585B089
:102BB4000190019B032B03D911493A2002F070FBC9
:102BC400104A019B13441B781846FFF7B6FF0346CF
:102BD400002B14BF012300238DF80F309DF80F3014
:102BE400002B14BF01230023DBB283F00103DBB20B
:102BF40003F00103DBB2184605B05DF804FB00BF27
:102C0400ACF7000024F8000000B583B00190019BEC
:102C1400032B03D90749412002F042FB064A019BDA
:102C240013441B7800211846FFF760FF00BF03B070
:102C34005DF804FBACF7000024F8000000B583B095
:102C44000190019B032B03D90749472002F028FB7D
:102C5400064A019B13441B7801211846FFF746FFDF
:102C640000BF03B05DF804FBACF7000024F80000DB
:102C740000B583B00023019305E00198FFF7DEFF60
:102C8400019B01330193019B032BF6D900BF03B0D1
:102C94005DF804FB00B583B00023019305E00198BF
:102CA400FFF7B2FF019B01330193019B032BF6D97C
:102CB40000BF03B05DF804FB00B583B00190019B35
:102CC400032B03D907495F2002F0EAFA064A019B65
:102CD40013441B781846FFF7E7FE00BF03B05DF806
:102CE40004FB00BFACF7000024F8000000B583B07B
:102CF4000023019309E0094A019B13441B781846F9
:102D0400FFF783FE019B01330193019B032BF2D94F
:102D1400FFF7AEFF00BF03B05DF804FB24F800002A
:102D240000B585B00190019B032B03D91149AC2058
:102D340002F0B6FA104A019B13441B781846FFF7B9
:102D4400E7FE0346002B14BF012300238DF80F3048
:102D54009DF80F30002B14BF01230023DBB283F056
:102D64000103DBB203F00103DBB2184605B05DF8E2
:102D740004FB00BFACF7000028F8000000B583B0E6
:102D8400002301930AE0094A019B13441B780321A1
:102D94001846FFF74BFE019B01330193019B032B64
:102DA400F1D900BF03B05DF804FB00BF28F80000B0
:102DB40084B001904FF0FF330293002303930DE09E
:102DC4000A4A039B13441B781A46019B934202D17F
:102DD400039B029305E0039B01330393039B032BA3
:102DE400EED9029B184604B0704700BF28F80000D3
:102DF40000B583B00190019B032B03D90549CB2077
:102E040002F04EFA044A019B13441B78184603B09F
:102E14005DF804FBACF7000028F8000000B583B0AF
:102E24000190019B03F00103002B01D0FFF75EFF2B
:102E3400019B03F00203002B01D0FFF79FFF00BFAB
:102E440003B05DF804FB000086B003900291019288
:102E540001238DF817309DF81730204A039B136027
:102E64001E4A029B53601D4A019B9360039B44F2DC
:102E74000102934213D0039B44F20202934221D1F4
:102E8400019B164AD360154BDB681B881A46134B0B
:102E94009A61124BDB685B68104AD36112E0019BB4
:102EA4000E4A13610D4B1B699B680C4A53610B4B13
:102EB4001B691B68094A9361084B1B695B68074AD5
:102EC400D36100BF72B600BF9DF81730DBB2002B90
:102ED400FAD162B600BF06B0704700BFB40B002041
:102EE40000B583B002900091019244F20100714652
:102EF4006A4600F003F803B000BD00BF30B58BB0E4
:102F040007900691059272B6FFF70EFD00BFFFF71A
:102F1400CDFA0346002BFAD1079B41F201029342FA
:102F24001FD0079B41F20102934203D8079B012B58
:102F34000BD061E0079B44F2010293422FD0079B20
:102F440044F20202934218D056E0394A394BD31A5C
:102F5400DB081B0443F0010337491846FFF72EFA38
:102F640057E0334A334BD31ADB081B0443F0010305
:102F740032491846FFF722FA4BE0059B09932C4A85
:102F84002C4BD31ADB081B0443F00100099B5B683C
:102F94001A46099B1B882A49FFF72FFA39E0059B3B
:102FA4000893234A234BD31ADB081B0443F0010480
:102FB400089B9D68089B9B68184600F0BBFF03466E
:102FC4001846089B5B681946089B1B68069A029280
:102FD4000193009103462A461A492046FFF721FA35
:102FE400134A144BD31ADB081B0443F0010316499C
:102FF4001846FFF7E3F90CE00D4A0E4BD31ADB0831
:103004001B0443F00103069A10491846FFF7E4F93C
:1030140000BF0F4B1B6803F00103002B00D000BE60
:10302400059A06990798FFF70FFF00BF0BB030BD54
:10303400C0F40000B8F400002CF800004CF80000C4
:1030440070F800008CF80000B4F80000C8F8000024
:10305400F0ED00E072B6034B1B680133014A1360C4
:1030640000BF7047D40B0020054B1B68013B044A8A
:103074001360034B1B68002B00D162B600BF70477E
:10308400D40B002000B583B0019000F025F803466E
:10309400012B03D00449432002F002F9FFF7DAFFC1
:1030A40000BF03B05DF804FBE0F8000000B583B096
:1030B40003468DF8073000F00FF80346012B03D0C8
:1030C4000449512002F0ECF8FFF7CEFF00BF03B033
:1030D4005DF804FBE0F8000084B0EFF3058301938E
:1030E400019BC3F308030393039B002B0DD1EFF360
:1030F40014830093009B0293029B03F00103002BB3
:103104000CBF01230023DBB200E00123184604B006
:103114007047000000B583B001900B468DF8033072
:10312400019B002B03D10849E82002F0B9F8019B68
:10313400DA689DF803300199098A01FB03F313440B
:10314400184603B05DF804FB6CF9000000B583B0C9
:1031540001900091019B002B03D10849F52002F056
:103164009FF8009B019AD2689B1A019A128AB3FBBA
:10317400F2F3DBB2184603B05DF804FB6CF900000F
:1031840000B585B00190019B002B01D10E234CE0CA
:10319400019B1B68002B03D12649FF2002F080F815
:1031A400019B5B68002B04D122494FF4807002F02C
:1031B40077F8019B9B68002B04D11E4940F2011053
:1031C40002F06EF8019BDB68002B04D119494FF41F
:1031D400817002F065F8019B1B8A002B04D115490C
:1031E40040F2031002F05CF8019B9A68019B5B6853
:1031F400D31A8DF80F30019B1B68019A52681A602C
:1032040007E0019B1A681368591C11609DF80F2090
:103214001A709DF80F305A1E8DF80F20002BF0D134
:10322400019B1B6800221A710023184605B05DF843
:1032340004FB00BF6CF9000000B585B00190019B50
:10324400002B04D11F494FF4927002F029F8002397
:10325400039300238DF80A300DF10A031846FFF793
:1032640011FF019B1B681A68019B5B689A421FD976
:10327400019B1B681A68013A1A601B681B7819467F
:103284000198FFF747FF0390019B9A68019B1B6815
:103294001B68D31A8DF80B30019B1B681B799DF8B2
:1032A4000B209A4204D9019B1B689DF80B201A71CC
:1032B4009DF80A301846FFF7F9FE039B184605B03F
:1032C4005DF804FB6CF9000010B584B00190009126
:1032D400019B002B04D1154940F2471001F0E0FF97
:1032E400009B002B04D111494FF4A47001F0D8FFC6
:1032F400009B039300238DF80B300DF10B0318464C
:10330400FFF7C0FE019B1B681C68621C1A600399CE
:103314000198FFF71BFF034623709DF80B301846F6
:10332400FFF7C4FE00BF04B010BD00BF6CF900007D
:1033340000B583B00190019B002B03D10C493120CF
:1033440001F0AEFF019B9B68002B0CD0019B5B69D5
:10335400019A1069019A1168019A92689847019B31
:1033640000229A6000E000BF03B05DF804FB00BFD8
:10337400F0F900000EB400B584B00190019B002B5D
:1033840003D11849422001F08BFF019B5B69002B9C
:1033940003D11449432001F083FF019B1B68002BD8
:1033A40003D11049442001F07BFF019B5B68002B93
:1033B40003D10C49452001F073FF059B002B0AD073
:1033C4000023039306AB039303AB1A4605990198B4
:1033D40000F0B0F900E000BF04B05DF804EB03B006
:1033E400704700BFF0F9000000B583B001900B46B0
:1033F4008DF80330019B1A68019B9B68581C019946
:10340400886013449DF803201A70019B9A68019BFD
:103414005B689A4202D30198FFF78AFF00BF03B0AA
:103424005DF804FB00B587B003900291019200930C
:1034340000230593009B03F00103002B24D00BE031
:10344400029B01330293059B013305939DF81330CE
:1034540019460398FFF7C8FF029B1B788DF81330B9
:103464009DF81330002BEBD106E0019B013B019347
:1034740020210398FFF7B8FF019A059B9A422ED9A1
:10348400019B002BF1D12AE0029B002B0BD0029868
:103494000AF004FF059006E0019B013B0193202103
:1034A4000398FFF7A1FF019A059B9A420FD9019B4C
:1034B400002BF1D10BE0029B01330293059B0133F6
:1034C40005939DF8133019460398FFF78DFF029B6F
:1034D4001B788DF813309DF81330002BEBD100BF0F
:1034E40007B05DF804FB000000B589B003900291B9
:1034F40001920093029B07930123069307E0079A26
:10350400019BB2FBF3F30793069B01330693079ADF
:10351400019B9A42F3D2009A069B9A4201D9009BDE
:1035240006930B9B03F00103002B22D10A9B002B73
:103534001FD00B9B03F00203002B06D0009B002B33
:1035440003D130238DF8173002E020238DF8173093
:1035540008E00A9B013B0A939DF81730194603982B
:10356400FFF742FF0A9B002B03D0069A0A9B9A425C
:10357400EFD301230793009B012B03D9009B013B4D
:10358400009309E0029A079BB2FBF3F30493049AB5
:10359400019B9A4200D205E0079B019A02FB03F3C8
:1035A4000793E8E7029A079BB2FBF3F30493049BA7
:1035B400079A02FB03F3029AD31A0293154A049B57
:1035C40013441B7819460398FFF70EFF079A019BD3
:1035D400B2FBF3F30793079B002BE3D10B9B03F0A0
:1035E4000103002B11D00A9B002B0ED006E00A9B8E
:1035F400013B0A9320210398FFF7F6FE0A9B002B58
:1036040003D0069A0A9B9A42F1D300BF09B05DF831
:1036140004FB00BFF0FA000000B589B005900491E6
:1036240003920293049B002BB8BF5B4206930123D1
:10363400079307E0039B069A92FBF3F30693079B19
:1036440001330793039B069A9A42F3DA029A079B83
:103654009A4201D9029B07930A9B002B0AD0049B30
:10366400002B04DB0B9B03F00403002B02D00A9B0A
:10367400013B0A930B9B03F00203002B02D0029B35
:10368400002B16D00B9B03F00103002B11D10A9BD6
:10369400002B0ED006E00A9B013B0A9320210598DB
:1036A400FFF7A2FE0A9B002B03D0079A0A9B9A42BB
:1036B400F1D3049B002B07DA049B5B4204932D2176
:1036C4000598FFF791FE08E00B9B03F00403002B21
:1036D40003D02B210598FFF787FE0B9B03F0020311
:1036E400002B19D00B9B03F00103002B14D1029B78
:1036F400002B11D10A9B002B0ED006E00A9B013B44
:103704000A9330210598FFF76FFE0A9B002B03D024
:10371400079A0A9B9A42F1D304990B9B01930A9B43
:103724000093029B039A0598FFF7DEFE00BF09B0E1
:103734005DF804FB00B58FB0059004910392059BDE
:10374400002B04D1C8494FF4A27001F0A9FD059BD8
:103754005B69002B04D1C4494FF4A37001F0A0FDB0
:10376400059B1B68002B04D1BF4940F2471001F0B0
:1037740097FD059B5B68002B04D1BB494FF4A470F3
:1037840001F08EFD049B002B00F0ED81049B1B785F
:103794008DF83730049B013304939DF83730002BA8
:1037A40000F0D8819DF83730252B40F0C7810023E5
:1037B4000A9301230C93049B1B788DF837309DF8F2
:1037C40037302D2B04D0302B0AD02B2B10D017E000
:1037D4000A9B43F001030A93049B0133049312E010
:1037E4000A9B43F002030A93049B013304930AE007
:1037F4000A9B43F004030A93049B0133049302E0FD
:1038040000230C9300BF0C9B002BD4D100230993FD
:103814009DF837302A2B0CD1039B1B68191D039A82
:1038240011601B68099A13440993049B01330493A0
:103834001AE0049B1B788DF837309DF837302F2B16
:1038440012D99DF83730392B0ED8049B01330493D9
:10385400099A13469B0013445B001A469DF83730BF
:103864001344303B0993D3E700230B93049B1B7849
:103874008DF837309DF837302E2B1DD1049B013342
:103884000493049B1B788DF837309DF837302F2B29
:1038940012D99DF83730392B0ED8049B0133049389
:1038A4000B9A13469B0013445B001A469DF837306D
:1038B4001344303B0B93E4E7049B1B788DF83730BB
:1038C4009DF837306C2B03D09DF83730682B07D127
:1038D400049B01330493049B1B788DF83730EFE786
:1038E4009DF83730253B532B00F2238101A252F877
:1038F40023F000BF2D3B0000373B0000373B0000A6
:10390400373B0000373B0000373B0000373B0000EB
:10391400373B0000373B0000373B0000373B0000DB
:10392400373B0000373B0000373B0000373B0000CB
:10393400373B0000373B0000373B0000373B0000BB
:10394400373B0000373B0000373B0000373B0000AB
:10395400373B0000373B0000373B0000373B00009B
:10396400373B0000373B0000373B0000373B00008B
:10397400373B0000373B0000373B0000373B00007B
:10398400373B0000373B0000373B0000373B00006B
:10399400373B0000373B0000373B0000373B00005B
:1039A400373B0000373B0000373B0000373B00004B
:1039B400373B0000373B0000373B0000373B00003B
:1039C400B93A0000373B0000373B0000373B0000AA
:1039D400373B0000373B0000373B0000373B00001B
:1039E400373B0000373B0000373B0000493A0000FA
:1039F400713A0000373B0000373B0000373B0000C2
:103A0400373B0000713A0000373B0000373B0000B1
:103A1400373B0000373B0000373B0000373B0000DA
:103A2400F93A0000373B0000373B0000DD3A000064
:103A3400373B0000953A0000373B0000373B00005D
:103A4400B93A0000039B1B68191D039A11601B6897
:103A54000C930C9B8DF823309DF823301946059860
:103A6400FFF7C2FC66E000BF6CFA0000039B1B6812
:103A7400191D039A11601B680C930A9B0193099BFF
:103A840000930B9B0A220C990598FFF7C5FD51E0A2
:103A9400039B1B68191D039A11601B680C930C99F6
:103AA4000A9B0193099B00930B9B0A220598FFF73D
:103AB4001BFD3FE0039B1B68191D039A11601B68E3
:103AC4000C930C990A9B0193099B00930B9B102266
:103AD4000598FFF709FD2DE0039B1B68191D039A48
:103AE40011601B6807930A9B099A07990598FFF7C9
:103AF40099FC1FE0039B1B68191D039A11601B6846
:103B04000C9330210598FFF76FFC78210598FFF797
:103B14006BFC0C99002301930823009308231022C3
:103B24000598FFF7E1FC05E025210598FFF75CFC0B
:103B340000E000BF049B0133049305E09DF8373097
:103B440019460598FFF750FC049B1B78002B7FF463
:103B54001DAE00E000BF059B1B7B002B04D0059825
:103B6400FFF7E6FB00E000BF0FB05DF804FB00BF09
:103B740010B487B001900091019B009A53E8004F64
:103B840004EB020043E8000191F0000FF6D1059424
:103B940004900391049B184607B05DF8044B7047EA
:103BA40010B487B001900091019B009A53E8004F34
:103BB400A4EB020043E8000191F0000FF6D1059454
:103BC40004900391049B184607B05DF8044B7047BA
:103BD40000B583B001900198FFF7D2FA0346184666
:103BE40003B05DF804FB00B58BB001900091019B1C
:103BF4001B8A043B0793009A079B1344DA1C079B18
:103C0400B2FBF3F38DF81B300198FFF715FB059019
:103C1400059B002B01D1002338E0059B00221A717B
:103C2400059B01225A71079B9AB2059BDA80059B7A
:103C340009939DF81B30013B0493099B019A1A6078
:103C4400002308931DE00198FFF7F6FA0390039B05
:103C5400002B0ED0059B5B790133DAB2059B5A71B8
:103C6400099B039A1A60039B019A1A60039B0993A8
:103C740004E0059800F00EF8002307E0089B0133E8
:103C84000893089A049B9A42DDD3059B18460BB00F
:103C94005DF804FB00B58BB00190019B0793079B73
:103CA4005B798DF81B30019B08939DF81B30013B19
:103CB40005930023099305E0089B1B680893099B5F
:103CC40001330993099A059B9A42F5D3089B1B6813
:103CD4000493019B0893002309930BE0089B1B6842
:103CE400039308990498FFF7EFFA039B0893099B41
:103CF400013309939DF81B30099A9A42EED300BF11
:103D04000BB05DF804FB00B585B00190019B0393F3
:103D1400039B043301211846FFF72AFF00BF05B0B7
:103D24005DF804FB00B587B00190019B0593059BEA
:103D3400043301211846FFF733FF0346039303AB13
:103D44000493049B1B78002B02D10198FFF7A2FF78
:103D540000BF07B05DF804FB00B591B00390029179
:103D640001920093039B002B03D14349B62001F039
:103D740097FA039B0993039B0F93099BDB881A46CD
:103D8400099B5B7903FB02F3043B0893009A089BAD
:103D94009A4203D33849C42001F082FA099BDB8894
:103DA4000793009B1A1D079BB2FBF3F30E93009B32
:103DB4000433079AB3FBF2F2079901FB02F29B1A50
:103DC4000D93019B1A68009B1344089A9A4203D2EC
:103DD400089A009BD31A01E0019B1B680C93019B7A
:103DE4000C9A1A6005E00F9B1B680F930E9B013B16
:103DF4000E930E9B002BF6D100230B93079A0D9B79
:103E0400D31A0A930A9A0C9B934228BF13460A9327
:103E14002AE0029A0B9B134406930F9A0D9B1344BA
:103E2400043305939DF84830002B05D00A9A059970
:103E340006980AF0B5F904E00A9A069905980AF07A
:103E4400AFF900230D930F9B1B680F930C9A0A9BE9
:103E5400D31A0C930B9A0A9B13440B93079A0C9B4B
:103E6400934228BF13460A930C9B002BD1D100BF69
:103E740011B05DF804FB00BF00FB000000B589B081
:103E84000590049103920293039B079307AA0023CE
:103E94000093029B04990598FFF75EFF079B039A22
:103EA4009A4203D00349F62001F0FAF900BF09B0A1
:103EB4005DF804FB00FB000000B589B00590049197
:103EC40003920293039B079307AA01230093029B87
:103ED40004990598FFF740FF079B039A9A4204D080
:103EE40004494FF4807001F0DBF900BF09B05DF8BC
:103EF40004FB00BF00FB000082B00190019B9B68A3
:103F040000229A60019B9B6800221A61019B9B68B6
:103F140000225A61019B9B680022DA60019B9B6826
:103F240000225A60019B9B6800221A6000BF02B005
:103F34007047000000B585B00190019800F00EF8BC
:103F44000390039B002B01D0039B00E0024B184617
:103F540005B05DF804FB00BF84FB000086B001904F
:103F6400164B0593164B04931FE0049A059BD31A32
:103F7400DB10DA0F13445B10DB00059A1344039340
:103F8400039B1B680293029A019B9A4202D9039BEA
:103F940004930AE0029A019B9A4203D2039B0833DA
:103FA400059302E0039B5B6804E0059A049B9A4234
:103FB400DBD30023184606B0704700BF58FF00004B
:103FC4007000010000B585B00190019B03930422A9
:103FD4000399192000F03EF90346184605B05DF830
:103FE40004FB00B585B00190019B0393039B1B78F0
:103FF4001946372000F076F90346184605B05DF8F7
:1040040004FB00B583B000F0E3F80190019B002BA2
:1040140001D0019B19E007238DF803309DF803308C
:104024001946682000F05EF90190019B002B01D035
:10403400019B0AE001216B2000F054F90190019BDF
:10404400002B01D0019B00E00023184603B05DF86B
:1040540004FB00B589B0019003AB062219463B204E
:1040640000F082F90590059B002B01D0059B1CE014
:10407400019B079300238DF81B3011E09DF81B3042
:10408400C3F1050308AA134413F8142C079B1A70F0
:10409400079B013307939DF81B3001338DF81B30C8
:1040A4009DF81B30052BE9D90023184609B05DF8AB
:1040B40004FB00B589B0019003AB062219464320E6
:1040C40000F052F90590059B002B01D0059B1CE0E4
:1040D400019B079300238DF81B3011E09DF81B30E2
:1040E400C3F1050308AA134413F8142C079B1A7090
:1040F400079B013307939DF81B3001338DF81B3068
:104104009DF81B30052BE9D90023184609B05DF84A
:1041140004FB00B587B0019003AB01221946372098
:1041240000F022F905909DF80C3043F002038DF85D
:104134000C3003AB1846FFF754FF0590059B002B8A
:1041440001D0059B08E0019B0493049B1B7819464E
:104154000A2000F06BF90346184607B05DF804FB2B
:1041640082B001900091019B1B78012B24D0022B7B
:1041740024D0002B24D1019B1B79032B1AD801A234
:1041840052F823F099410000A9410000B141000018
:10419400A14100000C4B01221A700CE00A4B0122D1
:1041A4001A7008E0094B01221A7004E0074B01223F
:1041B4001A7000E000BF04E000BF02E000BF00E0AE
:1041C40000BF00BF02B07047D80B0020D90B0020FD
:1041D40000B587B001AB00221A605A609A60DA60B9
:1041E40003230193042302934FF0CD63039302232B
:1041F4008DF8103001A90023084A094800F06EFB2D
:104204000590059B002B01D0059B03E0044800F0BA
:10421400F1FB0023184607B05DF804FB654100007C
:104224007000010000B585B00390019200930B4625
:104234008DF80B30039B9DF80B201A70039B013300
:10424400009A0199184609F0ABFF00BF05B05DF86C
:1042540004FB000000B58BB00346029101928DF877
:104264000F3042F2107309939DF80F10019B029ACC
:104274001948FFF7D7FF68238DF8153000238DF810
:104284001430019BDBB20133DBB28DF81630124BD4
:10429400069305AB00221946104800F0B1FD0890C2
:1042A40000BF0F4B1B78DBB283F00103DBB2002BA2
:1042B40005D0099B013B0993099B002BF1D1099B74
:1042C400002B01D10D2303E0054B00221A70089B3B
:1042D40018460BB05DF804FBDC0B002070000100F5
:1042E400D80B002000B589B003460A468DF80F307C
:1042F40013468DF80E3042F2107307939DF80F3079
:104304008DF814309DF80E308DF8153005AA002371
:10431400009302236821124800F0AEFD0690069B2C
:10432400002B01D0069B17E000BF0E4B1B78DBB2BD
:1043340083F00103DBB2002B05D0079B013B0793FD
:10434400079B002BF1D1079B002B01D10D2303E028
:10435400044B00221A70069B184609B05DF804FB52
:1043640070000100D80B002000B589B00346049109
:1043740003928DF8173042F2107307930DF1170270
:104384000023009301236821254800F075FD069061
:10439400069B002B01D0069B3EE000BF214B1B78FF
:1043A400DBB283F00103DBB2002B05D0079B013B9A
:1043B4000793079B002BF1D1079B002B01D10D2301
:1043C4002AE0184B00221A70039BDBB2049A68217E
:1043D400134800F07CFD0690069B002B01D0069B41
:1043E4001AE042F21073079300BF0F4B1B78DBB245
:1043F40083F00103DBB2002B05D0079B013B07933D
:10440400079B002BF1D1079B002B01D10D2303E067
:10441400054B00221A70069B184609B05DF804FB90
:1044240070000100D80B0020D90B002000B589B022
:1044340003460A468DF80F3013468DF80E3042F2CB
:10444400107307939DF80F308DF814309DF80E30DB
:104454008DF8153005AA0023009302230C2112487D
:1044640000F00AFD0690069B002B01D0069B17E086
:1044740000BF0E4B1B78DBB283F00103DBB2002BD1
:1044840005D0079B013B0793079B002BF1D1079BAA
:10449400002B01D10D2303E0044B00221A70069B6C
:1044A400184609B05DF804FB70000100D80B002029
:1044B40000B585B00190019B002B0AD0074B43F057
:1044C40001030393019B9B010293039B029898476A
:1044D40000E000BF05B05DF804FB00BF200101004F
:1044E40082B001900B468DF803309DF80330019A99
:1044F400134401221A6000BF02B0704784B00190D7
:104504000B46ADF80230BDF80230019A1344002284
:104514001A60BDF80230019A13441B680393039B8D
:1045240000BF04B0704782B001900B46ADF8023072
:10453400BDF80230019A13441B68002B14BF0123F9
:104544000023DBB2184602B0704782B0019000919C
:10455400019B009AC3F8042300BF02B0704782B0E5
:1045640001900091019B009AC3F8082300BF02B098
:10457400704782B00190019B0622C3F8002500BF5A
:1045840002B0704784B0039002910192039B029A97
:10459400C3F80825039B019AC3F80C2500BF04B097
:1045A400704782B001900091019B009AC3F82425C2
:1045B40000BF02B0704784B00190019BD3F8C434AB
:1045C4000393019B039AC3F8C424039B184604B0C5
:1045D400704782B001900B468DF803309DF803209C
:1045E400019BC3F8882500BF02B0704784B00390D4
:1045F40002910192029A039BC3F84425039B019AFA
:10460400C3F8482500BF04B0704784B003900291FA
:104614000192029A039BC3F83425039B019AC3F8C1
:10462400382500BF04B0704782B001900091019B0F
:10463400009AC3F8002200BF02B0704782B0019014
:10464400019BD3F84C35184602B0704782B00190F4
:10465400019BD3F83C35184602B0704782B00190F4
:10466400019B0122C3F8502500BF02B0704782B0FD
:104674000190019B0022C3F8502500BF02B070478F
:1046840082B00190019B0122C3F8402500BF02B013
:10469400704782B00190019B0022C3F8402500BFFF
:1046A40002B0704784B00190019B1B0B8DF80F3052
:1046B4009DF90F30184604B0704782B00190019BF9
:1046C40003F06043B3F1005F0CBF01230023DBB2AE
:1046D400184602B07047000000B583B00190019BFA
:1046E4001B682F2B04D90B494FF4F37000F0D8FD4D
:1046F400019B1B681F2B02D84FF0A04306E0019BCF
:104704001B6803F01F02019B1A60034B184603B099
:104714005DF804FB780001000003005000B585B08B
:10472400019001AB1846FFF7D7FF0390019B0122CC
:1047340002FA03F31946039800F035F800BF05B0F8
:104744005DF804FB00B585B0019001AB1846FFF796
:10475400C3FF0390019B012202FA03F31946039855
:1047640000F02BF800BF05B05DF804FB00B585B080
:10477400019001AB1846FFF7AFFF0390039800F0D8
:104784000AF80246019B22FA03F303F001031846D8
:1047940005B05DF804FB82B00190019BD3F810359D
:1047A400184602B0704782B001900091019B009AB4
:1047B400C3F8082500BF02B0704782B00190009191
:1047C400019B009AC3F80C2500BF02B0704784B067
:1047D400019003230393019B03F00203002B02D0F7
:1047E40048F201230393019B03F00403002B02D03E
:1047F40048F202230393039B184604B0704700B5A4
:1048040085B001904FF0A042019B1B6803F5E07353
:1048140040F20C6142F823104FF0A042019B5B6808
:1048240003F5E07340F20C6142F82310019B1B680E
:104834001846FFF773FF019B5B681846FFF76EFF8E
:104844004FF0A042019B1B6803F5E07340F20D6139
:1048540042F823104FF0A042019B5B6803F5E0731C
:1048640040F20D6142F823100420FFF721FE0023DB
:1048740003931EE0019B5B681846FFF777FF03462E
:10488400002B03D0039B002B17D124E0019B1B6852
:104894001846FFF757FF0420FFF70AFE019B1B6829
:1048A4001846FFF73BFF0420FFF702FE039B01338A
:1048B4000393039B082BDDDD00E000BF019B5B68D5
:1048C4001846FFF73FFF0420FFF7F2FD019B5B68EA
:1048D4001846FFF723FF05B05DF804FB00B589B067
:1048E4000390029101920093029B002B03D13F4954
:1048F400F52000F0D5FC029B1A68029B5B689A4283
:1049040003D13A49F62000F0CBFC039B1B791A46ED
:1049140013469B001344DB00354A13440793079B5B
:1049240093F82230002B03D008230693069B59E00A
:10493400079B019A1A60079B009A5A60079B002202
:104944009A60079B002283F82520079B002283F8A6
:104954002420029B9A7B079B83F82720029B5B7B86
:10496400002B02D00298FFF74AFF4FF0A042029BAF
:104974001B6803F5E07340F20C6142F823104FF01A
:10498400A042029B5B6803F5E07340F20C6142F8BD
:104994002310039B1B680593029B1968029B5B68A9
:1049A4001A460598FFF7EEFD029B9B681946059889
:1049B400FFF7F7FD079B1B68002B0CD0039B1B68BC
:1049C4001846FFF76FFE03461A46029B1B7B1946E7
:1049D400104600F013FC079B012283F822200023D9
:1049E4000693069B184609B05DF804FBAC00010071
:1049F400EC0B002000B585B00190019B1B791A4691
:104A040013469B001344DB000D4A13440393039B9A
:104A140093F82230012B04D00A4940F2771000F0B9
:104A24003FFC019B1B6802930298FFF7A2FD039BC6
:104A3400022283F8222000BF05B05DF804FB00BF0A
:104A4400EC0B0020AC00010000B583B00190009194
:104A5400009B03F00103002B03D00198FFF7FEFD38
:104A640002E00198FFF703FE009B03F00203002B12
:104A740003D00198FFF704FE02E00198FFF709FE56
:104A840000BF03B05DF804FB00B589B00390029148
:104A9400019200930023079308238DF81B304FF4F1
:104AA4008273ADF81830019B5B681846FFF705FE6A
:104AB400034683F00103DBB2002B03D010230793DA
:104AC400079B95E14FF0FF310298FFF748FD039BE8
:104AD40093F82430DBB2002B09D0039B9B68194662
:104AE4000298FFF732FD11230793079B80E1009B97
:104AF40003F00403002B06D1009B03F01003002BEA
:104B040001D1012300E0002303F00103DAB2039B87
:104B140083F82420039B019A0C3307CA83E8070017
:104B2400009B1B0903F00103002B14BF0123002386
:104B3400DAB2039B83F82520019B5B78194602981F
:104B4400FFF747FD4FF482710298FFF7D7FC4FF44B
:104B540092710298FFF7D2FC00990298FFF774FF54
:104B6400019B1B78032B00F2E88001A252F823F08A
:104B7400B34C00000D4D0000614C0000854B00005B
:104B8400009B03F01003002B04D09B4940F2353006
:104B940000F086FB009B03F00803002B04D0964929
:104BA40040F2363000F07CFB009B03F00403002B42
:104BB40004D0914940F2373000F072FB019B9B68AE
:104BC4001846FFF77AFD034683F00103DBB2002B9E
:104BD40003D010230793079B0AE14FF480710298D6
:104BE400FFF722FD019B5968019B9B781A460298A6
:104BF400FFF7FCFC4FF4A8710298FFF77FFC4FF419
:104C0400B0710298FFF77AFC4FF4A4710298FFF791
:104C140075FC20210298FFF763FC08210298FFF736
:104C24005FFC00BF4FF4A8710298FFF77CFC0346B9
:104C340083F00103DBB2002BF4D14FF4A871029886
:104C4400FFF75CFC019B9968019BDB781A4602988C
:104C5400FFF7CCFC039B694A9A6071E0019B596899
:104C6400019B9B781A460298FFF7C0FC019B9B6846
:104C74001846FFF722FD034683F00103DBB2002B45
:104C840003D010230793079BB2E0019B9968019B13
:104C9400DB781A460298FFF7B8FC4FF48451029867
:104CA400FFF7C2FC039B40F202229A6048E0019B9A
:104CB4005968019B9B781A460298FFF797FC009B62
:104CC40003F02003002B11D04FF480710298FFF7FA
:104CD400ABFC039B494A9A604FF4A4710298FFF716
:104CE4000DFC4FF4A473ADF8183008E04FF40071D4
:104CF4000298FFF799FC039B40F202229A6020215C
:104D04000298FFF7EDFB1BE0019B5968019B9B7820
:104D14001A460298FFF779FC4FF480510298FFF786
:104D240083FC039B40F202229A6000238DF81B301F
:104D340020210298FFF7D4FB02E00723079300BF6A
:104D4400009B03F00803002B09D1019B1B78032B64
:104D540005D09DF81B3019460298FFF7C1FB039B51
:104D64001B68002B28D0009B03F00403002B03D006
:104D7400039B4FF400729A60039B9B681946029848
:104D8400FFF7E3FB33E04FF492710298FFF7CBFB9C
:104D94000346002B10D04FF492710298FFF7AEFB3C
:104DA40020210298FFF79CFB14210298FFF798FB3F
:104DB4004FF48273ADF81830BDF8183019460298D4
:104DC400FFF7B1FB034683F00103DBB2002BDAD11A
:104DD4000298FFF7F0FB0590039B002283F8242040
:104DE400059B002B03D00598FFF7F1FC0790079B68
:104DF400184609B05DF804FBAC0001000002040091
:104E040000B587B003900291019200230593039BA0
:104E14001B791A4613469B001344DB00144A1344BF
:104E24000493049B1B68002B08D1029B1B78022B64
:104E340004D1104940F2B73000F032FA049B1B68E9
:104E4400002B08D1029B1B78032B04D109494FF492
:104E54006E7000F025FA039B1968019B029A04986E
:104E6400FFF712FE0590059B184607B05DF804FB9A
:104E7400EC0B0020AC00010000B589B00390019256
:104E84001A460B468DF80B3013468DF80A3005ABE5
:104E940000221A605A609A609DF80B308DF8153024
:104EA4009DF80A308DF81630019B06939DF8283042
:104EB400002B01D0202200E0002205AB1946039804
:104EC400FFF79EFF0346184609B05DF804FB00B5E2
:104ED40089B0039001921A460B468DF80B301346A5
:104EE4008DF80A3005AB00221A605A609A600123DB
:104EF4008DF814309DF80B308DF815309DF80A307C
:104F04008DF81630019B069305AB002219460398D1
:104F1400FFF776FF0346184609B05DF804FB00006E
:104F240000B589B001900091009B1B68002B04D14F
:104F3400814940F2324000F0B3F94FF49271019884
:104F4400FFF7F1FA0346002B27D04FF49271019832
:104F5400FFF7D4FA4FF482710198FFF7E4FA03469D
:104F640083F00103DBB2002B17D0009B9B6819462A
:104F74000198FFF7F4FA009B02229A60009B9B6859
:104F840019460198FFF7E1FA20210198FFF7A8FAE2
:104F940014210198FFF7A4FACAE04FF48271019832
:104FA400FFF7C1FA0346002B55D04FF482710198E4
:104FB400FFF7A4FA009A04AB0C3207CA83E807008F
:104FC400009B93F82330002B21D0009B1B7B012BEB
:104FD40005D10198FFF73AFB0346DBB204E00198E0
:104FE400FFF72CFB0346DBB28DF81230009B1B7BD2
:104FF400022B05D10198FFF729FB0346DBB204E03D
:105004000198FFF71BFB0346DBB28DF813304FF416
:10501400B0710198FFF772FA4FF4AE710198FFF77F
:105024006DFA009B93F8253083F00103DBB2002B6B
:1050340004D1009B93F82330002B4DD0002101981C
:10504400FFF7F2FA009B00229A604FF0FF310198BB
:10505400FFF785FA40E04FF4A4710198FFF74EFA88
:10506400009B1B7B002B1AD1009A04AB0C3207CA9D
:1050740083E80700009B93F8253083F00103DBB23B
:10508400002B29D000210198FFF7CEFA009B0022C3
:105094009A604FF0FF310198FFF761FA1CE04FF47A
:1050A40000710198FFF7C0FA009B40F202229A6057
:1050B4004FF0FF310198FFF752FA009B9B681946A5
:1050C4000198FFF742FA08210198FFF709FA202115
:1050D4000198FFF705FA2BE00198FFF76CFA0790A7
:1050E400079B03F00203002B03D001238DF80C303F
:1050F4000BE0079B03F00403002B03D002238DF87D
:105104000C3002E000238DF80C30009B93F825301E
:1051140083F00103DBB2002B03D0009B002283F851
:105124002420009B1B68009A516803AA10469847E4
:1051340009B05DF804FB00BFAC00010008B50349E9
:105144004FF04020FFF7ECFE00BF08BDEC0B002041
:1051540082B003468DF807309DF8073003F01F0234
:1051640005499DF907305B09012000FA02F241F874
:10517400232000BF02B0704700E100E082B0034684
:105184008DF807309DF8073003F01F0206499DF99A
:1051940007305B09012000FA02F2603341F8232052
:1051A40000BF02B0704700BF00E100E082B00346D8
:1051B40000918DF807309DF90730002B0CDA009B25
:1051C400DAB20C499DF8073003F00F03043B520197
:1051D400D2B20B441A7609E0009BDAB206499DF973
:1051E40007305201D2B20B4483F8002300BF02B04F
:1051F400704700BF00ED00E000E100E000B583B0BF
:1052040003460A468DF8073013468DF806309DF89C
:105214000630012B03D99DF80630032B0CD99DF8D9
:105224000630042B03D99DF80630072B04D90D4909
:105234004FF4927000F034F89DF806209DF9073081
:1052440011461846FFF7B2FF9DF907301846FFF7DD
:1052540095FF9DF907301846FFF77AFF00BF03B0AA
:105264005DF804FB2801010076DF704700BF184693
:105274007ADF704700BF18467CDF704700BF1846CE
:105284007FDF704700BF18468FDF704700BF1846A6
:10529400B1DF704700BF184633DF704700BF1846C0
:1052A40000B583B003460091ADF80630BDF8063072
:1052B400009A19460348FDF713FE00BF03B05DF8DA
:1052C40004FB00BFEFBEADDE00B583B001900199D1
:1052D400034803F0E4FF00BF03B05DF804FB00BF24
:1052E400140C002000B583B0084803F023FE01909D
:1052F400019B0093009B002B04D0054A6721009872
:10530400FDF7EEFD00BF03B05DF804FBCD520000D5
:105314009C01010000B585B00F4806F033F80390F6
:10532400039B0293029B002B04D00C4A6F2102982A
:10533400FDF7D6FD012006F077FC0390039B019353
:10534400019B002B04D0054A72210198FDF7C8FD8A
:1053540000BF05B05DF804FBA00E00209C01010015
:1053640070B58AB00590059B1B78062B04D0072BDB
:1053740010D0042B33D041E0059B5B680993099B53
:105384000893089B002B38D01E4A7F210898FDF70C
:10539400A7FD32E0059B5B6807931B4A1B4BD31A9E
:1053A400DB081B0443F00300079B5B781D46079B47
:1053B4009B781E46079BDB781A46079B1B79194688
:1053C400079B5B791C46079B9B790393029401918D
:1053D400009233462A460E49FDF73DF80EE00A4A8C
:1053E4000A4BD31ADB081B0443F00303094918468C
:1053F400FCF7E4FFFFF78EFF00E000BF00BF0AB038
:1054040070BD00BF9C010100C0F40000B8F40000AE
:105414001C0201004C02010000B587B06B4610224B
:105424000021184608F0E5FE01238DF8043001231D
:105434008DF80C306B460A4A19460A4805F050FFAD
:105444000590059B0493049B002B04D0064AA721D6
:105454000498FDF745FD00BF07B05DF804FB00BFED
:1054640065530000A00E00209C01010000B587B028
:105474009DF80030012262F303038DF800309DF89B
:105484000030012262F307138DF800301D4808F044
:1054940005FF03469AB26B461A491846FFF7ECFE1D
:1054A4000590059B0493049B002B04D0164AB52158
:1054B4000498FDF715FD01AB08220021184608F0F9
:1054C40098FE1023ADF804303C23ADF806300023D9
:1054D400ADF808304FF4C873ADF80A3001AB184684
:1054E400FFF7C6FE0590059B0393039B002B04D096
:1054F400054ABF210398FDF7F3FC00BF07B05DF830
:1055040004FB00BF5C0201009C01010000B583B0F4
:105514000190044AC4210198FDF7E2FC00BF03B0E6
:105524005DF804FB9C01010000B587B00190019B6C
:105534001B78002B3FD1002303932AE0019B1A69B7
:10554400039B13441B7819461D4808F0E3FD059B93
:10555400002B18D0059B112B15D01A4A1A4BD31ABD
:10556400DB081B0443F00103059A18491846FCF7AD
:1055740033FF059B0493049B002B04D0144AD921C8
:105584000498FDF7ADFC059B112BD7D0039B013389
:105594000393019B9B8A1A46039B9342CED3019BA0
:1055A4001A69019B9B8A013B13441B780D2B02D182
:1055B400084808F0AFFD00BF07B05DF804FB00BF6A
:1055C40068020100C0F40000B8F400006C0201009D
:1055D4009C0101009802010000B587B000230193EB
:1055E400164B019301AB1946154804F0A3FC059032
:1055F400059B0493049B002B04D0124AEF210498CA
:10560400FDF76EFC02AB04220021184608F0F1FD00
:105614000D4B029302AB19460C4805F0A9FC05900A
:10562400059B0393039B002B04D0064AF7210398A0
:10563400FDF756FC00BF07B05DF804FB11550000F0
:105644003C0C00209C0101002D550000500000205E
:1056540000B585B00190019B1B78002B11D10B4B39
:105664001B883B211846FFF7FFFD0390039B029321
:10567400029B002B05D0064A4FF481710298FDF776
:105684002FFC00BF05B05DF804FB00BF3803002009
:105694009C01010000B583B00190054A40F20D1150
:1056A4000198FDF71DFC00BF03B05DF804FB00BFCB
:1056B4009C01010000B58BB001AB1C2200211846EF
:1056C40008F097FD002301934FF4203302934FF425
:1056D4007023039303238DF810300023ADF81230A8
:1056E40000238DF814300C4B06930C4B079301AB3D
:1056F400184602F0D7FB0990099B0893089B002BDE
:1057040005D0074A4FF492710898FDF7E9FB00BFF2
:105714000BB05DF804FB00BF55560000995600001D
:105724009C01010000B585B0002006F07DFA0390CD
:10573400039B0293029B002B05D0134A40F22F11C6
:105744000298FDF7CDFB06F0F8FB0390039B019351
:10575400019B002B05D00C4A40F233110198FDF750
:10576400BFFBFFF799FD0390039B0093009B002B65
:1057740005D0054A40F237110098FDF7B1FB00BF90
:1057840005B05DF804FB00BF9C01010000B585B0C5
:1057940003468DF807309DF80730002B11D0032BFA
:1057A40012D1022006F040FA0390039B0293029B5D
:1057B400002B0BD0084A40F249110298FDF790FBE8
:1057C40004E0FFF7AFFF02E000BF00E000BF00BF4E
:1057D40005B05DF804FB00BF9C01010000B58DB06D
:1057E40001900091019B1B88103B462B00F25181D4
:1057F40001A252F823F000BF195900007D5900009E
:10580400975A0000D1590000975A0000975A000097
:10581400975A0000975A0000975A0000975A0000C0
:10582400975A0000975A0000975A00006D5A0000DA
:10583400975A0000975A0000975A00009D5900009B
:10584400975A0000975A0000975A0000975A000090
:10585400975A0000975A0000975A0000975A000080
:10586400975A0000975A0000975A0000975A000070
:10587400975A0000975A0000975A0000975A000060
:10588400975A0000975A0000975A0000975A000050
:10589400975A0000975A0000975A0000975A000040
:1058A400975A0000215A0000975A0000975A0000A6
:1058B400975A0000975A0000975A0000975A000020
:1058C400975A0000975A0000975A0000975A000010
:1058D400975A0000975A0000975A0000975A000000
:1058E400975A0000975A0000975A0000975A0000F0
:1058F400975A0000975A0000975A0000975A0000E0
:10590400F9590000975A0000975A0000975A00006E
:10591400475A0000684A694BD31ADB081B0443F05A
:10592400030367491846FCF749FD072006F07CF994
:105934000B900B9B0A930A9B002B05D0614A4FF4F2
:10594400B1710A98FDF7CCFA019B9A885E4B1A80D4
:105954005D4B1B8819465D4804F00EFB0B900B9BB6
:105964000993099B002B00F09680564A40F265117A
:105974000998FDF7B5FA8EE04F4A504BD31ADB086D
:105984001B0443F0030352491846FCF717FD4E4B22
:105994004FF6FF721A808BE000238DF80C30002341
:1059A4008DF80D30019B9B8803AA11461846FFF71A
:1059B4006BFC0B900B9B0893089B002B6DD0414A0A
:1059C40040F277110898FDF78BFA66E03E4B188891
:1059D400002300228521FFF753FC0B900B9B0793B8
:1059E400079B002B5BD0374A40F27D110798FDF7E7
:1059F40077FA54E0344B1888002300220021FFF783
:105A040047FC0B900B9B0693069B002B49D02D4A19
:105A140040F283110698FDF763FA42E0019B9B88EC
:105A240013211846FFF720FC0B900B9B0593059B55
:105A3400002B38D0234A4FF4C5710598FDF750FA6E
:105A440031E0019B9B8813211846FFF70DFC0B9056
:105A54000B9B0493049B002B27D01A4A40F291110C
:105A64000498FDF73DFA20E0019B93F91B20194BA4
:105A740093F900309A421ADD019B93F91B20154BD0
:105A84001A70019B0B3306221946134808F088FB51
:105A94000DE000BF0CE000BF0AE000BF08E000BF5B
:105AA40006E000BF04E000BF02E000BF00E000BF6A
:105AB40000BF0DB05DF804FBC0F40000B8F40000B2
:105AC4009C0201009C010100380300203C0C0020D2
:105AD400A80201003C030020E80E002000B587B0B6
:105AE40001900B46ADF80230002305932CE0019A97
:105AF400059B13441B7819462D4808F00BFB002323
:105B04000493049B002B19D0049B112B16D0294A13
:105B1400294BD31ADB081B0443F00103059A2749D8
:105B24001846FCF759FC049B0393039B002B05D0F8
:105B3400234A4FF4DE710398FDF7D2F9049B112B2D
:105B4400D5D0059B01330593BDF80230059A9A42DE
:105B5400CDD3BDF80230013B019A13441B780D2BC1
:105B640002D1184808F0D6FA049B002B19D0049BE4
:105B7400112B16D00F4A104BD31ADB081B0443F029
:105B84000103049A10491846FCF726FC049B02936F
:105B9400029B002B05D00A4A40F2CD110298FDF772
:105BA4009FF9049B112BDFD000BF07B05DF804FB05
:105BB40068020100C0F40000B8F40000B80201005B
:105BC4009C01010098020100E002010000B587B0C9
:105BD40001900091009B1B78012B3DD0022B44D0F7
:105BE400002B50D12A4A2B4BD31ADB081B0443F059
:105BF400030329491846FCF7E1FB009B5988009BE5
:105C04000E331A46019803F0B3FC0590059B0493E8
:105C1400049B002B05D0214A40F2DD110498FDF7C6
:105C24005FF9019803F083FC0590059B0393039BA4
:105C3400002B05D0194A4FF4F0710398FDF750F981
:105C4400134A144BD31ADB081B0443F0030314490F
:105C54001846FCF7B3FB16E0009B9A68009B9B89EF
:105C640019461046FFF73AFF0DE0094A094BD31ACB
:105C7400DB081B0443F003030A491846FCF79EFBA8
:105C8400FFF748FB00BF00BF07B05DF804FB00BF8F
:105C9400C0F40000B8F400000C0301009C010100F2
:105CA400200301005003010000B587B007F002FD96
:105CB4000590059B0493049B002B05D0164A40F2E3
:105CC400F9110498FDF70CF90023019301AB19466F
:105CD400012006F0EDFB0590059B0393039B002B2D
:105CE40005D00D4A40F2FF110398FDF7F9F801AB16
:105CF400184606F0D1FC0590059B0293029B002BED
:105D040005D0054A40F203210298FDF7E9F800BFE7
:105D140007B05DF804FB00BF9C01010000B583B02F
:105D240001900091009B5A880E4B1B889A4214D113
:105D3400009B1B8840F6772293420ED10A4A0B4BF4
:105D4400D31ADB081B0443F00300094B1B881A46D3
:105D5400074B1B880749FCF750FB00BF03B05DF8F5
:105D640004FB00BF38030020C0F40000B8F40000B6
:105D74003A0300206003010000B585B019491A48B0
:105D840003F0EAFF0390039B0293029B002B05D0D0
:105D9400164A40F21E210298FDF7A2F81721124874
:105DA40004F021F80390039B0193019B002B05D081
:105DB4000E4A40F221210198FDF792F817210A4872
:105DC40003F0F5FF0390039B0093009B002B05D089
:105DD400064A4FF409710098FDF782F800BF05B038
:105DE4005DF804FB215D0000280C00209C010100EB
:105DF40000B587B003468DF807309DF80730072BB0
:105E04001DD00A2B02D0042B03D034E0FFF78AFC08
:105E140031E01B4B1B8813211846FFF725FA059028
:105E2400059B082B24D0059B0493049B002B1FD0B7
:105E3400144A40F239210498FDF752F818E0104B47
:105E44001B884FF6FF72934214D10F4801F0ACFE49
:105E54000590059B082B0DD0059B0393039B002BFA
:105E640008D0084A40F243210398FDF739F801E0CD
:105E740000BF00E000BF00BF07B05DF804FB00BF37
:105E8400380300209C010100480C002000B5AFB08D
:105E940001ABAC220021184608F0ABF902238DF8BF
:105EA400043000238DF8063006238DF807300123D3
:105EB400ADF85030114B159301238DF880304023F9
:105EC4002393002324930E4B2A9301AB19460D48C8
:105ED40001F03FFC2D902D9B2C932C9B002B05D087
:105EE400094A40F263212C98FCF7FAFF0121054886
:105EF40001F022FC00BF2FB05DF804FB400300203A
:105F040091570000480C00209C01010000B587B0A7
:105F140001901749032005F0A1FE0590059B049309
:105F2400049B002B05D0134A40F272210498FCF71D
:105F3400D7FF0DF10B031946002006F061F8059018
:105F4400059B0393039B002B05D00A4A40F275215D
:105F54000398FCF7C5FF9DF80B30022B0CBF0123FF
:105F64000023DAB2019B1A7000BF07B05DF804FB8E
:105F7400F55D00009C01010000B583B007F030FC22
:105F84000190019B0093009B002B05D0044A40F232
:105F94007E210098FCF7A4FF00BF03B05DF804FB6A
:105FA4009C01010000B585B00B4B019301AB194670
:105FB4000A4803F007FA0390039B0293029B002B09
:105FC40005D0074A40F289210298FCF789FF00BFF7
:105FD40005B05DF804FB00BFD15B0000140C002089
:105FE4009C01010000B583B04FF400410020FBF791
:105FF40005FF0190019B0093009B002B05D0064AEE
:1060040040F293210098FCF76BFFFBF7F1FC00BF13
:1060140003B05DF804FB00BF9C01010000B587B02C
:10602400FDF7EFFF0590059B0493049B002B05D01F
:10603400284A40F29E210498FCF752FF0023019362
:1060440007238DF804309DF80530012262F3020322
:106054008DF805309DF8063043F018038DF80630AE
:106064009DF8073043F018038DF8073013238DF89B
:1060740004309DF807306FF3C4038DF8073001AB8B
:106084001846FDF79FFF0590059B0393039B002B88
:1060940005D0104A40F2A5210398FCF721FF9DF892
:1060A4000030062262F303038DF800306B46184675
:1060B400FEF72FF80590059B0293029B002B05D059
:1060C400044A4FF42B710298FCF70AFF00BF07B093
:1060D4005DF804FB9C0101002DE9F04397B008AF83
:1060E4007F4808F017F8FFF77DFF7E4A7E4BD31AEE
:1060F400DB081B0443F003037C491846FCF75EF9F4
:10610400FFF73AFFFFF7EEF8794808F003F8FFF7D6
:10611400CBFD784807F0FEFFFFF7A8F9FFF72CFE48
:10612400FFF740FFFFF778F9FFF756FA724807F0D8
:10613400F1FFFFF7ABFEFFF7BDFA07F11B031846AB
:10614400FFF7E4FE6D4807F0E5FFFFF767FF6C48D3
:1061540007F0E0FF00237B630A2387F8333097F8C6
:106164003330013BFB6297F833104FF000024FF0DD
:1061740000034FF00004D40044EA5174CB0097F8B4
:1061840033104FF000024FF000034FF00004D4002E
:1061940044EA5174CB0097F833300733DB08DB0053
:1061A400ADEB030D08AB0033BB62BB6A97F8332039
:1061B4000021184608F01DF8FCF778F9034683F02F
:1061C4000103DBB2002BF7D007F114031846FDF7E7
:1061D40040FF78627B6A3B623B6A002B05D0494AE8
:1061E40040F2E721386AFCF77BFE07F10C031846FE
:1061F400FDF75FFF78627B6AFB61FB69002B05D0CA
:10620400404A40F2EA21F869FCF76AFEB7F918300F
:10621400184607F098FB02460B4607F0E8FB0346D6
:106224000C46184621464FF00002374B07F024FD78
:1062340003460C469846A146B7F91630184607F0AF
:1062440082FB02460B4607F0D2FB03460C46184677
:1062540021464FF000022C4B07F00EFD03460C467E
:1062640025461C46B7F91430184607F06CFB024665
:106274000B4607F0BCFB02460B46104619464FF08E
:106284000002214B07F0F8FC02460B46B7F9101048
:10629400B7F90E00B7F90C60069605900491CDE9A4
:1062A4000223CDE9004542464B46184807F032FF29
:1062B400174B93F900301A460023059301230493E6
:1062C40002230393032302930423019305230093DE
:1062D400134605220F49104807F03CFF6CE700BF46
:1062E4007C030100C0F40000B8F400008003010046
:1062F4008C03010090030100940301009803010042
:106304009C0301009C0101000000E040A003010087
:106314003D030020BC030100F00E0020BFF34F8FAB
:10632400054BDB6803F4E0620349044B1343CB6081
:10633400BFF34F8F00BFFDE700ED00E00400FA0556
:10634400024B034A1A6000BF704700BF4403002099
:106354000090D00308B500F025F90346002B0ED0B9
:106364004FF080430022C3F80C214FF080430022F9
:10637400C3F810214FF080430022C3F8382500F001
:1063840035F90346002B76D04FF080537C4AD3F87E
:106394000434C2F820354FF08053794AD3F80834D6
:1063A400C2F824354FF08053754AD3F80C34C2F840
:1063B40028354FF08053724AD3F81034C2F82C3584
:1063C4004FF080536E4AD3F81434C2F830354FF08E
:1063D40080536B4AD3F81834C2F834354FF08053E5
:1063E400674AD3F81C34C2F840354FF08053644AEE
:1063F400D3F82034C2F844354FF08053604AD3F8C0
:106404002434C2F848354FF080535D4AD3F8283419
:10641400C2F84C354FF08053594AD3F82C34C2F8A3
:1064240050354FF08053564AD3F83034C2F85435BF
:106434004FF08053524AD3F83434C2F860354FF0E9
:1064440080534F4AD3F83834C2F864354FF0805340
:106454004B4AD3F83C34C2F868354FF08053484A6D
:10646400D3F84034C2F86C354FF08053444AD3F823
:106474004434C2F8703500F0DDF80346002B02D036
:10648400404B414A1A6000F0E7F80346002B03D062
:106494003E4BFB22C3F8182500F0F0F80346002B0E
:1064A4000AD03B4B1B6823F00F023A4B1B6803F0E6
:1064B4000F03374913430B6000F0F2F80346002B37
:1064C40003D0354B4FF400721A6000F0FBF803461A
:1064D400002B0DD04FF08043D3F8003403F00103B8
:1064E400002B05D04FF080436FF00102C3F8002465
:1064F4002A4BD3F88830294A43F47003C2F8883011
:10650400BFF34F8FBFF36F8F4FF01023D3F80032D8
:10651400002B05DB4FF01023D3F80432002B2BDAC9
:106524001F4B0122C3F8042500BF1D4BD3F80034D0
:10653400002BFAD04FF010231222C3F8002200BF20
:10654400174BD3F80034002BFAD04FF0102312224B
:10655400C3F8042200BF124BD3F80034002BFAD046
:106564000F4B0022C3F8042500BF0D4BD3F80034B1
:10657400002BFAD0FFF7D2FEFFF7E2FE00BF08BD02
:1065840000C000408C5600404881030000F00040E9
:10659400E40E0040580200104096024000ED00E076
:1065A40000E001400F4B1B68082B17D10E4B1B68F2
:1065B400002B01D1012312E00B4B1B68012B01D1ED
:1065C40001230CE0084B1B68022B01D1012306E0D8
:1065D400054B1B68032B01D1012300E0012318465E
:1065E400704700BF30010010340100100F4B1B68CE
:1065F400082B17D10E4B1B68002B01D1012312E08D
:106604000B4B1B68012B01D101230CE0084B1B68C9
:10661400022B01D1012306E0054B1B68032B01D19A
:10662400012300E001231846704700BF3001001029
:1066340034010010064B1B68082B05D1054B1B6861
:10664400002B01D1012300E000231846704700BF4E
:106654003001001034010010064B1B68082B05D1D3
:10666400054B1B68002B01D1012300E000231846D1
:10667400704700BF3001001034010010064B1B6846
:10668400082B05D1054B1B68002B01D1012300E029
:1066940000231846704700BF300100103401001079
:1066A400064B1B68082B05D1054B1B68002B01D139
:1066B400012300E000231846704700BF300100109A
:1066C400340100100F4B1B68082B17D10E4B1B68AD
:1066D400002B01D1012312E00B4B1B68012B01D1CC
:1066E40001230CE0084B1B68022B01D1012306E0B7
:1066F400054B1B68032B01D1012300E0012318463D
:10670400704700BF30010010340100106DDF704786
:1067140000BF184679DF704700BF18467DDF704719
:1067240000BF184664DF704700BF184682B00346B6
:106734000091ADF80630BDF80630DAB2009B1A704D
:10674400BDF806301B0A9AB2009B0133D2B21A700C
:106754000223184602B0704700B589B00390029135
:106764001346ADF80630029B1B8803F10902BDF8FD
:1067740006309A4201D90C2353E004AB1846FFF7C4
:10678400C5FF0790079B0693069B002B01D0069B31
:1067940047E0029B1B881A46039B134408221A7085
:1067A400029B1B8801339AB2029B1A80029B1B88AE
:1067B4001A46039B13441B221A70029B1B88013345
:1067C4009AB2029B1A80029B1B881A46039B981854
:1067D40004AB01330622194607F0E2FC029B1B8836
:1067E40006339AB2029B1A809DF8103023F00103FD
:1067F400DBB2002B07D1029B1B881A46039B134470
:1068040000221A7006E0029B1B881A46039B13445D
:1068140001221A70029B1B8801339AB2029B1A80D0
:106824000023184609B05DF804FB00B589B0039055
:1068340002910192ADF80230039B1B78012B05D124
:10684400039B5B78002B01D1072392E0019B1B88FB
:106854009A1CBDF802309A420ED8039B1B78012B78
:106864000CD1019B1B881A46039B5B7813449A1C2A
:10687400BDF802309A4201D90C237AE0019B1B88AF
:10688400BDF80220D31A9BB2023BADF81C30BDF810
:106894001C30ADF81230019B1B880233029A13445A
:1068A4000DF1120211461846FFF738FF0690069BB9
:1068B4000593059B002B01D0059B5AE0039B1B7895
:1068C400022B06D0039B5B789AB2BDF812309A4231
:1068D40009D3BDF81230BDF81C209A4203D3092312
:1068E4008DF81F3017E008238DF81F30039B1B78A9
:1068F400012B0CD1039B5B789BB2BDF81C209A4200
:1069040005D3039B5B789BB2ADF8123003E0BDF86E
:106914001C30ADF81230BDF81230FE2B01D90C2317
:1069240027E0BDF81230DAB2019B1B881946029B9E
:106934000B440132D2B21A70019B1B8801339AB204
:10694400019B1A80019B1B881A46029B13449DF8E5
:106954001F201A70019B1B8801339AB2019B1A8075
:10696400019B1A88BDF8123013449AB2019B1A8015
:106974000023184609B05DF804FB00B589B0039004
:1069840002911346ADF80630029B1B881A1DBDF810
:1069940006309A4201D90C233BE00DF11603184648
:1069A400FFF7B8FE0790079B0693069B002B01D0C8
:1069B400069B2EE0029B1B881A46039B134403226A
:1069C4001A70029B1B8801339AB2029B1A80029BA5
:1069D4001B881A46039B134419221A70029B1B88B6
:1069E40001339AB2029B1A80BDF81620029B1B88C1
:1069F4001946039B0B4419461046FFF797FE0346BE
:106A04001946029B1A888BB213449AB2029B1A80CD
:106A14000023184609B05DF804FB84B0029101928A
:106A24001A4603468DF80F301346ADF80C30019B1F
:106A34001B88DA1CBDF80C309A4201D90C2328E0DB
:106A4400019B1B881A46029B134402221A70019B65
:106A54001B8801339AB2019B1A80019B1B881A463A
:106A6400029B134401221A70019B1B8801339AB2C2
:106A7400019B1A80019B1B881A46029B13449DF8B4
:106A84000F201A70019B1B8801339AB2019B1A8054
:106A94000023184604B0704784B0029101921A464C
:106AA40003468DF80F301346ADF80C30019B1B885C
:106AB400DA1CBDF80C309A4201D90C2328E0019B62
:106AC4001B881A46029B134402221A70019B1B88DE
:106AD40001339AB2019B1A80019B1B881A46029BC0
