:020000022000DC
:1060000000000420756302005D6302005F6302000C
:106010006163020063630200656302000000000028
:1060200000000000000000000000000067630200A4
:1060300069630200000000006B6302006D630200F0
:10604000E99802006F630200A19D02006F630200E5
:106050006F6302006F630200F59B02006F63020032
:106060006F6302006F6302006F6302006F630200E0
:106070006F6302006F6302006F6302006F630200D0
:106080006F6302006D7102006F6302006F630200B4
:10609000097202006F63020099FE02006F63020042
:1060A0006F6302006F6302006F6302006F630200A0
:1060B0006F6302006F630200000000000000000038
:1060C0006F6302006F6302006F6302006F63020080
:1060D0006F6302006F6302006F6302006F63020070
:1060E0006F6302006F6302006F6302000000000034
:1060F000000000006F630200000000006F630200F8
:10610000000000000000000000000000000000008F
:10611000000000000000000000000000000000007F
:10612000000000000000000000000000000000006F
:10613000000000000000000000000000000000005F
:10614000000000000000000000000000000000004F
:10615000000000000000000000000000000000003F
:10616000000000000000000000000000000000002F
:10617000000000000000000000000000000000001F
:10618000000000000000000000000000000000000F
:1061900000000000000000000000000000000000FF
:1061A00000000000000000000000000000000000EF
:1061B00000000000000000000000000000000000DF
:1061C00000000000000000000000000000000000CF
:1061D00000000000000000000000000000000000BF
:1061E00000000000000000000000000000000000AF
:1061F000000000000000000000000000000000009F
:10620000354936480A1A02D0072291438D4634494F
:1062100034480A1A06D00722914381F309880222E2
:1062200082F3148830483149314A00F044F831484B
:106230003149324A00F03FF831483249324A00F0E1
:106240003AF832483249334A00F035F83248334997
:10625000334A00F030F833483349344A00F02BF821
:1062600033483449344A00F026F83448344900228F
:1062700000F02CF833483449002200F027F8334866
:106280003349091A082902DB002202604160314AC1
:1062900090471F481F49884205D00268043003B464
:1062A000904703BCF7E700208646EC46002000211B
:1062B000294A9047FEE7884207D0521A05D0037852
:1062C00001300B700131013AF9D17047884202D098
:1062D00002700130FAE770470000042000E003205C
:1062E0000000042000000420A8290300242200202C
:1062F00088220020D4630200D46302004404030017
:10630000A82903002422002024220020C405030021
:10631000C4050300C4050300C4050300C40503004D
:10632000C4050300C4050300C4050300A829030035
:106330000C2A0300882200208822002088220020C6
:106340006A3400206C3400206C3400206C3400204F
:106350006C5400209D63020081AF0200FEE7FEE75F
:10636000FEE7FEE7FEE7FEE7FEE7FEE7FEE7FEE705
:10637000704700BF1048804710484FF0070188431E
:1063800085460F4880470F48016841F4700101605D
:10639000BFF34F8FBFF36F8FFFF732BF0A480B4930
:1063A0000B4A884207D0521A05D0037801300B708F
:1063B0000131013AF9D170477163020000000420F5
:1063C0006193020088ED00E0B00503001022002078
:0463D0002422002063
:1063D400F0B595B01C46164608460D4602F0CEFEB2
:1063E4001A9B0D93CDE9086400242346082205A9CD
:1063F40028460A948DF82C400C9402F0DCFE079B8E
:106404000293069B03939DF814308DF8114003F01A
:106414000302012A1DD1BDF81440059EC3F3C20333
:10642400C4F383148DF81030A20008230EA9284663
:1064340002F0C1FEC6F3952608AB0093224602ABD8
:106444000EA9304600F0F0FB284602F09BFE15B082
:10645400F0BD022AF8D1BDF81640C3F3C203A40963
:106464008DF810300827082C264628BF08263B46FE
:1064740032460EA9284602F09EFEA41B08AB02AACF
:1064840031460EA8374400F033FC002CEBD1DBE797
:10649400014B01221A707047C92200207047000086
:1064A40070B50E4D06460FCD88B06C460FC495E806
:1064B4000F00002E84E80F004FF00603084A094835
:1064C400009308BF0022694603F0A4F908B100F064
:1064D4009DFD054B1E7008B070BD00BFC4050300D0
:1064E40095640200242200208822002007B5044B72
:1064F4000093044A4023FFF76BFF03B05DF804FBED
:106504000D6502008922002038B50D4B0D4D002089
:1065140018700D4804782D5DD2B21C4665B1043064
:1065240004F09EF808B100F071FD084B1A7812B11E
:106534002378002BFBD038BD0C3003F079FEF1E753
:10654400C9220020D02B00202422002088220020F1
:1065540008B50848084A0378D35C3BB1043004F01A
:1065640029F80020BDE80840FFF79ABF0C3003F07B
:1065740009FEF6E724220020D02B00200120FFF79B
:106584008FBF000008B5FFF7F9FF0421034800F0AE
:10659400B9FA034B01225A7108BD00BFA0050300DC
:1065A40038220020037813F0040216D003F003030A
:1065B400012B03D0022B09D0012070470A68008800
:1065C4000232C0F3831002440A60F5E70B68428884
:1065D400023303EB92130B60EEE7104670470000A2
:1065E4002DE9F04F87B000230446851C0DF1070008
:1065F4000F4690468DF8073000F0F6FF45480668D0
:106604003E60D0E90132134401339B1B824600F201
:106614001C4600F5836900F21447AB421BD30022E9
:10662400B8F1000F70D0052363F3070264F38912F5
:10663400DAF80010DAF808309DF807000B4003334D
:106644000D444AF82320CAF8005000F0F1FF01205D
:1066540007B0BDE8F08F0121304602F010F848463B
:1066640002F026F8384602F023F8DAF80400DAF8E3
:1066740008B0029000EA0B0003300AEB800002A984
:10668400FFF790FF029B50BB0BEA03020AEB820266
:1066940003F1020CD2680392013303EA0B0B0AEBF9
:1066A4008B0B02F00302012ACDF808C0DBF80C10B2
:1066B40022D0022A16D08346384601F0FCFF10B1DE
:1066C400029BCAF804305946304601F0D8FFDAE993
:1066D40001231344DAF8002001339B1A9DE70BEAE7
:1066E4000300C9E7BDF80E309B0903334FEA114B91
:1066F4000CEB93030293DFE7BDF80C30C3F3831371
:106704004FEA114B6344F5E7062363F3070264F38E
:106714009F528DE79C2300200B4B0C48FF2210B5A1
:106724009A600022C3F81824C3E90022C3F8142491
:1067340083F8202402F0DBFC044610B9044802F07C
:1067440083FD204610BD00BF9C230020D404030019
:106754000406030030B50A4C71B10A4A0A49121BF7
:10676400D20800239A4201D1002030BD31F82350D1
:10677400854202D00133F5E7034654F83300F4E7C9
:10678400E8040300A005030024220020094B01397A
:1067940003EBC000032909D8DFE801F00A0204066C
:1067A4000420704700797047407970470020704793
:1067B40002207047E8040300034BD3E90030C31AF6
:1067C40058425841704700BF9C2300202DE9F043F4
:1067D40087B0FFF7F1FF0646002840F0FB807E4DAE
:1067E400C5F81804BFF34F8F6868AC680290204066
:1067F400033005EB800002A9FFF7D4FE029B18B119
:10680400D5F81824002A5FD004EA0302991C013346
:1068140005EB8202234005EB8303D268DB68049313
:1068240002F00303022B0392029162D1BDF80E30F1
:106834006A484FEA9318B8F1500FC14628BF4FF089
:10684400500969F38F1309F10801ADF80E3002F015
:1068540066FC0746002800F0A88002F08FFC03A91C
:1068640000230822384602F09CFC029924EA01061F
:106874000136B600B14535D95FFA89F97EB3F6B26F
:10688400A9EB0609214003315FFA89F4B146544E5D
:1068940005EB810108234A46384602F082FC36B1F2
:1068A40009F1080322463146384602F07AFC029B7D
:1068B40008F1030803EB98030293D5F81834002B6E
:1068C4004BD1D5F810445BE02A689A4204D86A6038
:1068D400304607B0BDE8F08304EA030088E7404986
:1068E4003446D7E72140033108234A4605EB8101AA
:1068F400DAE7012B59D1BDF80C303848C3F38311C2
:10690400062928BF062161F3891302318900ADF8F5
:106914000C3002F004FC0746002846D002F02EFC9E
:106924000023082203A9384602F03BFC0026BDF8E8
:106934000C20C2F38312B300964203F10803BCD2C5
:1069440002994A1C21400331029205EB8101042281
:10695400384602F026FC0136E9E7384602F012FC1C
:10696400FFF72AFF80F00100C6B2B1E7E3685B7964
:1069740023B1236839461B6820469847E3681C689E
:10698400002CF3D1384602F0FDFB0DF107008DF821
:10699400074000F029FED5F818340BB9029B6B6050
:1069A4009DF8070000F044FEDAE7D5F8104454B926
:1069B4000C4B0D480D49C01AC008000440F00200F9
:1069C40000F06EF8CCE7236820469B689847E3689C
:1069D4001C68ECE700267BE79C230020D40403001A
:1069E400A8230020E8040300100503001006030098
:1069F4002DE9F74F284C80460F46924601A9012203
:106A040018469B46D4F80890FFF7EAFD80B3019D31
:106A14000026A91C5E4506EB010233D100211F4864
:106A240001F0ECFD80F310006A1C02EA090204EB99
:106A34008202000405EA0903033340EA1840D060E7
:106A440014F8232068F3C50204F8232034F8232023
:106A540066F3891224F8232054F8232067F39F2235
:106A640044F8232002F0F80242F0010204F8232043
:106A740094F820341BB1FFF7A9FE0028FBD103B022
:106A8400BDE8F08F09EA020204EB82025AF82630CC
:106A9400D3600136BEE700BF9C230020B827002046
:106AA40000231A46FFF7A4BF07B50123019201AAE8
:106AB400FFF79EFF03B05DF804FB07B5CDE90023A3
:106AC40002236A46FFF794FF03B05DF804FB1FB589
:106AD400CDE90123069B039301AA0323FFF788FF53
:106AE40005B05DF804FB1FB5CDE90023069B0293B6
:106AF400079B03936A460423FFF77AFF05B05DF80A
:106B040004FB000030B50F49D1F8102400231446CB
:106B14003CB9C468237152B9C1F810042260184604
:106B240030BDE46825799D4206D02468F0E7D26838
:106B3400116821601060F2E701330A2BE7D14FF0AE
:106B4400FF33ECE79C230020094A38B50123D2F82F
:106B5400104482F820341D4604B938BDE3685D71E1
:106B6400236820465B689847E3681C68F4E700BF25
:106B74009C230020037A052B10B50C460FD0437AD2
:106B840023B1084A0849204601F0F8FD0749204688
:106B940001F0F4FD2046BDE8104001F0E4BD002AF8
:106BA400F8D0F3E75B060300671D03007D060300CE
:106BB400C38873B504460D4633B1144A0092144990
:106BC400144A284601F0DAFD217A05291CD0637A9B
:106BD4004BB1A088FFF7DAFD0F4B104953F8202082
:106BE400284601F0CBFD227A0D4BA08853F8226091
:106BF4000021FFF7AFFD0B4903463246284602B099
:106C0400BDE8704001F0BABD02B070BD5B06030080
:106C1400680603006006030028060300671D0300DE
:106C24008C060300800603002DE9F04385B01F465F
:106C34000C9D002306460C46904695F80C902B7349
:106C440029463846FFF7B4FFB8F1060F09D8DFE844
:106C540008F00412181F283340003146284601F07A
:106C64008DFD002229463846FFF784FF85F80C90F5
:106C740005B0BDE8F08322683146284601F07EFD68
:106C8400EFE7D4E900233146284601F077FDE8E731
:106C9400A36800933146D4E90023284601F06EFD31
:106CA400DFE7E3680193A36800933146D4E9002346
:106CB400284601F063FDD4E723690293E368019356
:106CC400A36800933146D4E90023284601F056FD19
:106CD400C7E76369039323690293E3680193A36895
:106CE40000933146D4E90023284601F047FDB8E774
:106CF40008292DE9F84F80460E4617461C463AD817
:106D0400002593F80C901D7319461046FFF750FFA9
:106D1400DFF884A0DFF884B0AE422ED918F805203D
:106D24005946204601F02AFD0135082DF4D11849B1
:106D3400DFF86CB0204601F021FD4FF0000A564503
:106D440020D918F80A507E2D03D8284609F0ACFA49
:106D540000B92E252A465946204601F00FFD0AF1B6
:106D6400010ABAF1080FEAD1012221463846FFF799
:106D740001FF84F80C90BDE8F88F5146204601F0DD
:106D8400FDFCD1E70349204601F0F8FCE7E700BF2A
:106D94005606030054060300520603004C06030083
:106DA400580603002DE9F04F394E87B04FF0000923
:106DB400384B1B785FFA89F5AB4202D807B0BDE8BF
:106DC400F08F354BD3F800A01AF835000124D6E92A
:106DD400001EA0F12002C0F1200304FA02F224FAFA
:106DE40003F3134304FA00FC009301EA0C03029337
:106DF400009B0EEA03030393DDE9022313430AEB2A
:106E0400C50B41D0009B21EA0C012EEA0303C6E91D
:106E1400001302F0DFFE1AF835502049A5F12002D4
:106E2400C5F1200304FA02F224FA03F31343D1E96F
:106E340000C2AC40134004EA0C0105930024C3B221
:106E4400CDE90034009A0491C5F12003A5F1200195
:106E540022FA03F302FA01F848EA03081346AB40A6
:106E64001F46DDE90434444508BFBB420CD1DBF8BE
:106E740004304BB19BF801104A1E51425141081A8B
:106E8400414241412846984709F1010990E700BF72
:106E940088280020582800209028002080280020DE
:106EA4002DE9F0418046204800F08EFBD0BB01253F
:106EB400A8F12004C8F1200325FA03F305FA04F429
:106EC4001C431A4BD3E9001205FA08F501EA05063A
:106ED40002EA040756EA07001E461DD1404602F0A6
:106EE40079FE134BD3E9001288B129432243C3E945
:106EF4000012D6E900231C430E4B0B4819681543B6
:106F0400C6E900540022BDE8F04100F017BB21EAB5
:106F1400050122EA0402EAE721EA050522EA04045B
:106F2400C3E90054BDE8F0816028002088280020CF
:106F3400802800205C280020042A2DE9F34105461E
:106F44000C4616463AD902F075FDD8B11C4B1D49C2
:106F54001D601D4BDFF884801C701C4B00221E60DA
:106F64000023C1E900231A49C1E90023013CE4B22A
:106F740000260327FF2C0CD1164A1748002100F0E5
:106F8400CBFA03E002F01EFD0028DFD002B0BDE81A
:106F9400F08123B205EBC30201A992788DF8052094
:106FA40015F833008DF8066042468DF8047002F03F
:106FB4004BFD013CE4B20028DCD0E7E70720E5E71D
:106FC4009028002080280020582800205C280020D9
:106FD40088280020A96D0200EC060300A56E0200BB
:106FE40070B5084D084E00242B789C4201D3002034
:106FF40070BD3368012113F8340002F0A1FD01349F
:10700400F2E700BF58280020902800201FB5002177
:10701400039001AA44F20100CDE9011100F004F843
:1070240005B05DF804FB000010B572B6FFF78CFDE7
:10703400FFF7CCFB0028FBD1104B114C1149E41A8B
:10704400E408240444F00100FFF72AFD0E4B1B68FA
:10705400DB0700D500BE0D4944F00200FFF720FD18
:10706400BFF34F8F0A490B4BCA6802F4E062134323
:10707400CB60BFF34F8F00BFFDE700BFE804030000
:1070840010050300F0060300F0ED00E0FC06030029
:1070940000ED00E00400FA05094A537891780133C1
:1070A400DBB2994208BF0023117899421FBF0370D5
:1070B4005078182303FB002014BF043000207047CD
:1070C4009428002073B5054600240DF107000E46F0
:1070D4008DF8074000F088FA0DF10600FFF7DCFF99
:1070E40090B10670094B9DF8062045605A709DF8D2
:1070F400070000F09DFA24B9054B4FF48012C3F841
:107104000021204602B070BD0424F0E7942800203A
:1071140000E100E0024B4FF43C6043F001031847E8
:107124001007030038B50C4B0C4C4FF40032C3F875
:10713400802001254FF48033C4F84833C4F8083361
:107144006560FFF7E7FF064BA56000241C60FFF7AE
:10715400E1FF044B1C7038BD00E100E00010014069
:10716400B0290020A1290020F8B51F4B1F491B6836
:107174000025C1F84051C1F84451C1F84851C1F843
:107184004C51C1F80051C1F804514BB3D1F8044536
:1071940017490968641A24F07F442F461A68A242EA
:1071A40009D8A41A15441A7CDE691AB11F74D3E9EC
:1071B40005209047AEB90F4A0F4B11781B788B42CC
:1071C40005D10133DBB2022B08BF00231370127800
:1071D4000A4B43F822500A4B4FF48012C3F80021A3
:1071E400F8BD3346DAE700BFB4290020001001409F
:1071F400B0290020AD290020AC290020A4290020BA
:1072040000E100E02DE9F04FA04AA1491378097884
:10721400A04D994285B03CD00133DBB2022B08BFAC
:10722400002313709C4912789C4B0F6853F822007A
:107234003B1823F07F4300220B602B68164614464C
:10724400944613B942B12B6006E0196881420ED905
:1072540002B12B60091A19604FF001082B68DFF89E
:1072640044A201930027BEB9DFF840B266E0401A99
:107274000C44D968C3F800C0D3F81CE031B13A1902
:1072840022F07F42C3E90121DE611E4601227346DA
:10729400D7E70026B046E1E73446F6697E4A6368DC
:1072A4001268DFF80CC2A068991A21F07F41614589
:1072B40000F2A58001442160012222742A6800237F
:1072C400C4E90133E361002A40F0A2802C60CAE7DC
:1072D4005A1C9BF80210D2B291428BF8002004BFD2
:1072E40000228BF80020182202FB03B31A799C6851
:1072F400022A1CD0032A12D0012A1FD1207CE8B90B
:10730400D3E90312A2605A69E2609A69644BA261EC
:107314001B78002B0CBF0B4603466360BEE70022BC
:107324002B681146002B66D142B12B6006E0296818
:107334000A468946002A59D1002323749BF8003059
:107344009BF801209A42C3D12B682FB9019A9A4223
:1073540002D1B8F1000F43D0002B73D0D3F800A0B2
:10736400504D4D4BD5F804751C68DFF848813E1B21
:1073740098F8003026F07F4603369BB94FF48033EB
:10738400C5F84433C5F80433474B4FF400324FF08B
:107394000109C3F880211A60C5F80090FFF7BAFE0E
:1073A40088F80090B2452CBF5444A41924F07F44BB
:1073B400C5F84045D5F80435DB1B23F07F43E41BB7
:1073C400033324F07F44A3420AD9D5F80435C5F821
:1073D4004035FFF79FFE344B4FF40032C3F80021D1
:1073E4002F4B00221A7005B0BDE8F08F94422CD0C8
:1073F4009146D2699EE719740122DB6992E7D31A98
:1074040023F07F43834234BFC31A0023236053E72E
:1074140021681368994213D8591A1160E26155E73B
:10742400091AD8691A4638B1034618688842F7D34E
:10743400401A1860184613462160E061DC6112E7C7
:107444001346F2E7FFF76EFECAE74C4511D1CB694C
:107454002B6073B9DFF840E00120CDE90212CAF8CD
:107464000800CEF800300E4B1870FFF753FEDDE92C
:1074740002121368D269C9F81C2012B110680344BF
:1074840013602B68994218BF012755E7AC290020E7
:10749400AD290020B4290020B0290020A42900200F
:1074A400A02900200010014000E100E09428002001
:1074B400FEFF7F00A129002008B5FFF733FE104B23
:1074C40000200B2218809A700E4B18600E4B187017
:1074D4000E4B18700E4B4FF48012C021C3F880215C
:1074E40083F814131A6002F18042A2F56F22C2F8E5
:1074F400080583F81113074BD2F804251A6008BD58
:1075040094280020B4290020AC290020AD290020B3
:1075140000E100E0B0290020074B9B784BB132B169
:1075240028B10368187C20B959745A617047072040
:1075340070470820704700BF942800202DE9F743C6
:107544001E4FBB7805460E469046A3B398B3042954
:107554002FD943697BB3437C0024012B0DF1070031
:107564000CBF8946A1468DF8074000F03DF80DF1A7
:107574000600FFF791FDD0B101230370104B456065
:10758400D3F80435C0E90498C0E902369DF8063002
:107594007B709DF8070000F04BF824B9094B4FF4B9
:1075A4008012C3F80021204603B0BDE8F083042410
:1075B400EFE70724F7E70824F5E700BF9428002045
:1075C4000010014000E100E0064A92783AB130B17F
:1075D400426922B1002202740221FFF773BD082020
:1075E400704700BF9428002070B5EFF3108672B680
:1075F4000C4A946801239CB993600B4B0B4DD3F850
:10760400801029401160C3F88050D3F88410516071
:107614004FF0FF32C3F88420047006B962B670BD1F
:107624000370FAE7B829002000E100E0FC06FFBD82
:10763400084B9A6810B55AB150B9EFF3108172B67D
:10764400054A1C6814605C685460986001B962B6AD
:1076540010BD00BFB829002000E100E070B5064D60
:107664000646002455F8043B0BB1304698470134D4
:10767400042CF7D170BD00BFD0290020033080B2A4
:1076840040F2FD33984230B51FD8124B1A783AB9FC
:107694001C895D892C440444A4B2B4F5806F0AD3D8
:1076A4001A7DA2B99A8BDC8B2244024492B2B2F5C1
:1076B400806F0CD201220A801446142202FB043388
:1076C4005A8910445881002030BD0920FCE7072066
:1076D400FAE700BF042A00200B4A0C4B51881420FF
:1076E40000FB0131CB6833B90420496810700122D2
:1076F400074801F0C7BA05230649137002238B809B
:10770400012200230968F3E7E8290020042A002065
:1077140010220020CC2A002007B50023054900933D
:10772400054A09680548082301F016FA03B05DF814
:1077340004FB00BFCC2A00202407030010220020F1
:1077440007B50023009301460823034A034801F0C8
:1077540003FA03B05DF804FB1C07030010220020A9
:1077640013B500230C46009301460423074A084836
:1077740001F0F2F938B9074B142202FB0434012357
:10778400237402B010BD0E20FBE700BF18070300EE
:1077940010220020042A002037B50A480A4B426808
:1077A4009C88196853880325033305709BB2002015
:1077B40000909B0001EB8401044801F0CDF903B073
:1077C40030BD00BFE8290020CC2A00201022002070
:1077D40010B50146044800F045FE1C220446002171
:1077E40008F0CBFD204610BDB82A002068B102681D
:1077F400084B9A4209D14068074B984207D001339D
:1078040098420CBF012003207047032070470020DA
:10781400704700BFDEC0ADDEFE011EF143880333B6
:1078240000EB8303994209D382884FF6FF739A428F
:1078340006D00088B0FA80F04009704702207047F3
:10784400012070472DE9F8430223DFF860800B80A4
:107854000D46174600F5805600F108044FF0010963
:10786400B4420FD2236801330CD031462046FFF7CF
:10787400D5FF48B10FB187F8009002280BD14FF41F
:1078840080632B80BDE8F883A368D8F80020934276
:1078940001D9C8F800302B886288033313442B8045
:1078A4006388033304EB8304DAE700BFFC29002078
:1078B400154A142303FB002070B50B6844680D4679
:1078C40004F58056ABB15C88033403EB8404B44202
:1078D4000DD2236801330AD031462046FFF79EFFBC
:1078E40001280BD010F0FF0F05D00228EFD10020A3
:1078F40003E00834EBE72C60012070BD6388033398
:1079040004EB8304E3E700BF042A0020436873B553
:1079140004460D466BB3244AD1688B4229D31269BD
:10792400934226D813F0030223D120490089098900
:1079340088421ED12068996888421AD11C49486837
:10794400834203D900F5805083420ED38A6993425F
:107954000DD902F58052934209D201232B800020D5
:10796400B0FA80F0400902B070BD1346F6E70A2071
:10797400F6E700232B801E46019601A92888FFF70D
:1079840097FF30B92B8801339BB2012B2B80F3D99D
:10799400E9E7019B226899689142EED16360034B49
:1079A4001B892381DFE700BF10220020E829002083
:1079B400042A00202DE9F8431C461C4B1B7806467C
:1079C4000F4615466BB372B36CB3DFF868804FF0A3
:1079D4001409A388012B01D90A2020E009FB03F331
:1079E40018F803302BB92146A088FFF761FF20B9AE
:1079F4002060A3880133A380EBE723681EB1998834
:107A040032889142EFD11FB119883A889142EAD164
:107A14009A68C5E90023064B1B892B810020BDE829
:107A2400F8830220FBE70520F9E700BFE0290020E6
:107A3400E8290020042A002008B5074B191D58889E
:107A4400FFF736FF18B1BDE80840FFF7A5BEBDE853
:107A54000840FFF741BE00BFE82900202DE9F04FA0
:107A6400A04FDFF8A49289B00646B8463B6823B914
:107A740049469D4800F030FD3860D8F80050297818
:107A84004B1E052B00F2FA80DFE813F006005E00BF
:107A94005E00EE00EE005C0126B1944B00225A60B9
:107AA4000124ECE02B79032B1DD8DFE803F0150249
:107AB4002A358F490B78022B084619D00B7D022BEF
:107AC4004FF0010316D114225343C2180020C854A6
:107AD4005068FFF735FE03E001232B71FFF71CFE0E
:107AE400002800F0BC80814B00225A600E24C6E0BE
:107AF4000023E8E77D4A13700023536041F61D54C8
:107B0400BDE07C497C48002302222B718A8001223B
:107B1400096801F0B7F8E3E7764C00262E71206877
:107B2400734DFFF70DFE754BD4F800C05A8814232B
:107B34005343EA18EE5451682160A188C2F804C086
:107B440011810222A280CBE7B5F814A0AA7DDFF848
:107B5400A0B1AEB1022AEB8806D9142101FB0AB107
:107B6400DA1C088902440A81142202FB0ABAC3F50A
:107B74007F43BAF80A20FD331344AAF80A308FE78A
:107B8400142303FB0AB318895C6804EB8004062AF7
:107B940068D8DFE802F0274D35431D59040041F64B
:107BA4001D54AA7DEB88022A06D9142101FB0AB1CF
:107BB400DA1C088902440A81142202FB0ABAC3F5BA
:107BC4007F43BAF80A20FD331344AAF80A3056E07A
:107BD4004B484C4900234360AB690360FFF796FEB2
:107BE400002871D00223AB75002300930423EA1804
:107BF4002146414800F0B0FF002830D00E24D0E7E1
:107C04002B69002B14BF03230123AB7500230093BE
:107C140005F10C02042304F10801EAE70123AB7522
:107C24000022EB8800929B002A6904F10C01E0E732
:107C340003290CBF05230623AB75002300930423FB
:107C440005F10802E118D4E70623AB752D4B19881A
:107C54002B4B5868FFF784FD04460028A1D109B0D6
:107C6400BDE8F08F0F249CE7002E7FF419AF2B7929
:107C7400012B4BD0E3B1022B3FF440AF0F2414226D
:107C8400002103A808F079FB41F61D539C4208BF6C
:107C94000024D8F8003004941A78023A042A00F236
:107CA4000581DFE812F0E600F20015011D01240150
:107CB40002232B710DF10A01EB68039303A8CDE9AC
:107CC4000466FFF723FE08B90A24D8E70498BDF830
:107CD4000A108388EB8003882B81FFF741FD04465B
:107CE40027E000BF002A0020B82A0020E029002055
:107CF400042A0020CC2A002010220020E829002099
:107D0400C4290020D82A0020F8290020DFF8FCA18B
:107D140003AA53463146A81DFFF74CFE044658B942
:107D2400BAF804100498FFF71BFD04460A2C3FF42C
:107D3400E5AE002CA3D192E708223146504608F064
:107D44001CFBF3E7002E7FF4ABAE6B4B1A7BAAB19E
:107D54001E731A78013A062A90D801A151F822F02C
:107D64000B7E0200317E02004F7E0200557E02002F
:107D7400817C02005B7E02006D7E02001A78072A75
:107D8400E7D801A151F822F0AD7D0200577D020031
:107D9400577D0200D37D0200E77D0200077E0200CA
:107DA400077E0200CF7D02001A89544901321A81EC
:107DB40000225A801A730A78B2FA82F252099A722D
:107DC4000A7DB2FA82F25209DA72012207E04C49C2
:107DD40058688A884088033202448A8002221A70D2
:107DE400B7E7464C5A884649142505FB0242086801
:107DF400546850608888108102228A800C600622B0
:107E0400EDE70722EBE79A7A32B9DA7A8AB90022E7
:107E14001A705A805A6071E6384900229A72CA6808
:107E2400002AF2D1097C0029EFD05A80FFF704FE22
:107E340055E70022DA72314A116A0029E7D192F833
:107E44002420002AE3D00122EFE7FFF7A5FC46E750
:107E5400FFF742FC43E7294A5B88142101FB032313
:107E64005868FFF76DFC3AE700225A60FFF754FCAC
:107E740035E701228DF80C201A89ADF818209A886C
:107E8400DB68ADF81A20059310E002228DF80C206F
:107E94001A89ADF818209A88ADF81A20DA689B7D03
:107EA40005929A1F534253418DF81C3003A8FFF7E3
:107EB400D5FB002649461348C8F8006000F037FB9C
:107EC4000121114800F0E6FB00287FF4CFADC6E69F
:107ED40003228DF80C20DA88ADF818201A89CFE730
:107EE4000422DB888DF80C20ADF81830DEE705237A
:107EF4008DF80C30DAE700BFE8290020042A0020BE
:107F0400CC2A0020B82A0020C82A0020DC2A00201D
:107F14004068FFF7A3BD000008B50121044800F044
:107F2400A3FB18B9BDE80840FFF798BD08BD00BF22
:107F3400C82A00202DE9F3419846354B1B780646A4
:107F44000D46002B5BD000295BD009884FF6FF73E8
:107F5400994258D06B88002B55D06B689B0754D13D
:107F64004AB92F890DF102013846FFF787FB30B17A
:107F740002B0BDE8F08113885788ADF8023001A83B
:107F8400FFF726FC044658B9BDF80230214A1421F3
:107F940001FB032358890338C01B58810820E7E7F5
:107FA40000238375BDF8023083826B68036180F817
:107FB40000800121184800F062FB2B882381B8F16E
:107FC400030F6B88A38004BF0423A3754FF000053F
:107FD40008BF3368E06008BFA361E780658101A939
:107FE4000E4800F069FA36B1E36833600C4B7560F3
:107FF4001B89B5723381FFF78FFF0020B8E7022099
:10800400B6E70520B4E70420B2E70320B0E700BFD9
:10801400E0290020042A0020FC290020B82A00209E
:10802400E829002008B5084B1A68042A09D0196801
:10803400064A42F821000121184600F020FB0020E6
:1080440008BD0C20FCE700BFD42A0020D029002062
:108054002DE9F04F14228BB000210DEB020008F043
:108064008CF9764A137803F0FF01CDE901123BB194
:1080740005A8FFF7F3FA002738460BB0BDE8F08FE8
:10808400029B181D00F011FB0028F4D140F6F87390
:108094004FF080521B685C1C08BF694B694C08BFD9
:1080A4001B6811695269581C08BF02FB01F3236164
:1080B4000022A3F540536449E360204600F018FD14
:1080C400039407460028D7D11C238C225F496048BB
:1080D400DFF88891DFF8888100F08FF93D46BA46D1
:1080E4004FF0030B3C46039BDE6856443046314652
:1080F400FFF77CFB01284DD042B2002A36D003287A
:1081040022D106F580520868013040F08A8004319B
:108114008A42F8D1D9F800203AB902220123C9F8D9
:108124000060A9F8042001930CE0142262430220A9
:1081340008EB020108F80200464A4E6054800134FC
:108144000881A4B245F001050AF5805ABAF5405FEA
:10815400C9D1BBF1010F98BF0025EDB2022D03D0A8
:10816400062D35D0002D3CD10B2785E71421614322
:1081740008EB010008F8012001F110020831466003
:10818400424441443046FFF75DFB45F002050134AB
:10819400A4B2D9E7019B63B11422624308EB020144
:1081A400022008F802000134D9F800204A6008814E
:1081B400A4B200222849C9F800603046FFF742FB08
:1081C400B9F80420022A0CBF042208221543BBE795
:1081D400029A0123137005A800235360FFF73EFAA7
:1081E4004AE704A8FFF7F4FAC8B10123013D03707C
:1081F4000A2D09D8DFE805F006080608070807086D
:108204000F110F000023037104A9114800F054F961
:10821400FFF782FE30E70323F5E70223F3E708279D
:108224002AE70BF1FF321FFA82FB1422624308EBA8
:1082340002014E60032108F80210A8E7E02900209B
:108244001410001010220020180903002C2A00200A
:10825400B82A0020E8290020D02A0020CC2A0020B7
:10826400042A002073B50D460446C8B1C1B10DF10E
:108274000601FFF74BFBA8B10B4BBDF8060066687F
:10828400142202FB003001210C3000F0F8F963687D
:108294002E600C336B600123A372002002B070BD0A
:1082A4000520FBE70A20F9E7042A002013B5044659
:1082B400A8B10DF10601FFF729FB90B10B4ABDF8F7
:1082C4000630142101FB0323DA6862B1A27A52B1A9
:1082D400DA680020013ADA60A07202B010BD05200D
:1082E400FBE70A20F9E70620F7E700BF042A00208D
:1082F40002230022FFF71EBE18B103230022FFF75A
:1083040019BE052070470000104B1B7813B50446B6
:10831400ABB14FF6FF73984213D001A8FFF758FA98
:1083240088B10523037001230371C48001A908489F
:1083340000F0C2F8FFF7F0FD002002B010BD0220EB
:10834400FBE70420F9E70820F7E700BFE029002055
:10835400B82A00200E4B1B7807B5A3B101A8FFF77C
:1083640037FA90B10623037001A90A4800F0A4F873
:10837400094B1A780AB101221A73FFF7CDFD0020C8
:1083840003B05DF804FB0220FAE70820F8E700BF19
:10839400E0290020B82A0020E829002007B5ADF81C
:1083A4000600ADF804100DF1060001A9FFF702FB69
:1083B40003B05DF804FB07B51346ADF806000A46A2
:1083C40000200DF10601FFF7F5FA03B05DF804FB98
:1083D40007B51346ADF806000A460DF10600002164
:1083E400FFF7E8FA03B05DF804FB20B119B10368A4
:1083F4000B60002070470520704710B561B1B2FBD7
:10840400F3F403FB1424A4B244B9C0E90014846057
:108414008281C381204610BD0E20FCE70920FAE7C3
:1084240082B050E8022FC188B2EB324F4FF0000304
:1084340017BF92B241EA014142EA014104E04268B5
:10844400B2EB324F08BF012340E80212002AE8D100
:108454008DF807309DF80730002B0CBF1120002049
:1084640002B0704737B550E8013F9DB2C489254436
:108474008489A54228BF2D1B0489A54202BFBFF3EE
:108484002F8F002207E0C5EA030540E80154002CC1
:10849400E9D14FF001028DF803200193019B9DF86F
:1084A40003200B6002F0FF0322B10B88006818441C
:1084B40003B030BD1846FBE70A884B889A4209D1BD
:1084C40050E8012FC2EA024240E80123002BF7D111
:1084D400012070470020704737B550E8023F1FFA6B
:1084E400A3F5C488A54202BFBFF32F8F00220DE07D
:1084F400C48925448489A54228BF2D1BC3EA0545A8
:1085040040E80254002CE8D14FF001028DF803201A
:108514000193019B9DF803200B6002F0FF0322B13D
:108524004B880068184403B030BD1846FBE70A883E
:108534004B889A4209D150E8022FC2EA224240E80D
:108544000223002BF7D1012070470020704701F06F
:108554001F024B090121914000EB830000F063B836
:108564004B0910B501F01F040121A14000EB830069
:1085740000F04EF8E04000F0010010BD01F01F03D0
:1085840001229A404B0900EB8300D14300F061B80B
:108594004B0901F01F0150F82300C84000F001000E
:1085A40070472DE9F0474E1E760980460F46013686
:1085B400002558F8254008EB8509E44394FAA4F40F
:1085C400B4FA84F44FEA451A202C06D10135AE42A0
:1085D400EFD83C462046BDE8F0875444A742F5D97D
:1085E40021464046FFF7BCFF0028F3D0D9F80040ED
:1085F400E44394FAA4F4B4FA84F4E5E750E8002FD1
:108604000B4640E8003C9CF0000FF7D11046704741
:1086140050E8002F42EA010340E8003C9CF0000FC0
:10862400F6D11046704750E8003F43EA010240E8A3
:10863400002C9CF0000FF6D11046704750E8002F34
:1086440002EA010340E8003C9CF0000FF6D110461A
:10865400704750E8003F03EA010240E8002C9CF018
:10866400000FF6D11046704750E8002F02EB0103CB
:1086740040E8003C9CF0000FF6D11046704750E8EB
:10868400003F03EB010240E8002C9CF0000FF6D100
:108694001046704750E8003FA3EB010240E8002C6D
:1086A4009CF0000FF6D1104670470121FFF7B0BFD0
:1086B4000121FFF7B8BF0021FFF7C0BF10B590B18B
:1086C400D0E9012301689B1ADBB20A60013BDBB2EB
:1086D400FF2B026802D10020107110BD11684C1CE0
:1086E40014600B70F2E70E20F7E737B50546002457
:1086F4000DF107008DF80740FEF776FF2A686B68D6
:10870400116899420ED9481E106011F8014CEB68AB
:10871400298A01FB0434AB6811791B1ADBB2994234
:1087240038BF13719DF80700FEF782FF204603B09F
:1087340030BD37B5054600230DF107000C468DF812
:108744000730FEF751FF2A681368591C1160E96865
:10875400641A298AB4FBF1F41C709DF80700FEF733
:1087640067FF03B030BD826810B504462AB143697F
:108774000168006998470023A36010BD0EB403B5D7
:10878400039921B104AB01AA019300F075F802B07A
:108794005DF804EB03B070470A2938B504460D466A
:1087A40002D10D21FFF7F8FFA3682268591CA160CC
:1087B400D554D4E901329A4204D32046BDE8384066
:1087C400FFF7D1BF38BD00002DE9F84F9946DDE928
:1087D4000A431746824688460A460126BA420FD201
:1087E4004E4538BF4E4613F0010B01D164B9002445
:1087F4000125B9F1010F1AD909F1FF397D43F8E7D1
:10880400B2FBF7F20136E9E79B070ED5B9F1000F89
:108814000CBF30252025A642EAD2013C2946504609
:10882400FFF7BAFF002CF6D1E1E72025F3E7B8FB08
:10883400F5F39F42E2D9DFF83C90B8FBF5F35046DC
:1088440019F8031005FB1388FFF7A6FFB5FBF7F330
:10885400BD4207D2BBF1000F02D00CB1A64203D334
:10886400BDE8F88F1D46E8E720215046013CFFF79C
:1088740093FFF2E72C0703002DE9F74F054617464F
:108884008846002900F0318118F8011B49B92B7B77
:10889400002B00F02A81284603B0BDE8F04FFFF713
:1088A40062BF252940F0C080002698F800302D2BA7
:1088B400424608F1010823D0302B24D02B2B25D09D
:1088C40000242A2B02F1010123D13B681A1D1B68E5
:1088D4003A601C440A4613782E2B26D101324FF0FD
:1088E400000A104610F8011BA1F1300CBCF1090F6D
:1088F4001DD80A2303FB0A13A3F1300A0246F0E74A
:1089040046F00106D1E746F00206CEE746F004063B
:10891400CBE711F8013CA3F130000928DBD80A2287
:1089240002FB0434303C0A46CBE74FF0000A12F84D
:10893400011B01F0FB0068289046F8D069290ED08D
:108944004AD8582964D006D825296DD098F8003023
:10895400002B99D19BE7632962D06429F6D13A6848
:10896400D2F80090111D89EAE9723960A2EBE9722C
:108974004FF0010B092A5BDCD34538BFD3462CB139
:10898400B9F1000F01DB710700D5013CB20702D534
:10899400BAF1000F04D0F30702D4002C4ED1002406
:1089A400B9F1000F52DAC9F100092D212846FFF769
:1089B400F3FE06F00302022A05D1BAF1000F02D138
:1089C400002C47D10024CDE9004653460A224946EB
:1089D4002846FFF7F9FEB9E773294CD014D870295B
:1089E400B4D13B681A1D3A60302128461C68FFF751
:1089F400D3FE78212846FFF7CFFE00220823CDE9D5
:108A0400003221461022E3E775292BD078299DD125
:108A140039680A1D3A60CDE900465346102228E021
:108A24003B681A1D19783A602846FFF7B5FE8DE7B2
:108A34000A230BF1010BB2FBF3F29BE7A345AFD280
:108A440020212846013CFFF7A7FEA6E77007B0D512
:108A54002B21ABE7A345B6D230212846013CFFF7D2
:108A64009BFEADE73968CDE900460A1D3A605346DE
:108A74000A220968ACE73B681A1D3A60F107D3F88B
:108A8400009020D4B9F1000F25D0484607F0A8FC87
:108A94000646B44200D9C4B909F1FF3920E028469A
:108AA4000136FFF779FE19F806100029F7D1A6421E
:108AB400BFF44CAF002C3FF449AF20212846013CC1
:108AC400FFF76AFEF3E70026EDE720212846013C84
:108AD400FFF762FEDDE74E46DBE72846FFF75CFE64
:108AE40019F8011F0029F8D130E703B0BDE8F08F71
:108AF40007B50B4688B9124B1248134AC01A0E2305
:108B0400C0080093114B0004114940F00100FDF727
:108B1400DEFF0E2003B05DF804FB4BB9084B094897
:108B24000C4AC01AC0080E2300930004074BEBE75D
:108B340003601B68114603B05DF804EB184700BFDF
:108B4400E804030030050300E90703003C070300C1
:108B5400EE070300650803002DE9F34188B93D4B96
:108B64003D483E4AC01AC0080E243D4B0094000400
:108B74003C4940F00100FDF7AAFF204602B0BDE8E1
:108B8400F0814AB9334B3448374AC01AC0080E241E
:108B940000040094324BEBE7D0F800C0BCF1000FA6
:108BA40009D12C4B2C48314AC01AC00808240004AF
:108BB40000942B4BDCE74BB9264B27482C4AC01AB0
:108BC400C008092400040094254BD1E74768D7F86E
:108BD4000480B3FBF8F708FB17374FB11D4B1E4851
:108BE400244AC01AC0080924000400941C4BBFE79F
:108BF4008F0709D0174B18481F4AC01AC008102401
:108C040000040094164BB3E712F0030F09D0114B84
:108C140011481A4AC01AC008102400040094104BCA
:108C2400A6E7C768B9420BD34C1E05691C44AC4285
:108C340006D8DCF80C40A44602B0BDE8F041604719
:108C4400044B05480E4AC01AC008102400040094BE
:108C5400034B8DE7E804030030050300E907030034
:108C64004E070300EE0703006B0803005F080300D0
:108C74001E080300710803009B080300B3080300E7
:108C8400D6080300F7B580B92A4B2B482B4AC01AE3
:108C9400C0080E242A4B009400042A4940F0010025
:108CA400FDF715FF204603B0F0BDD0F800C0BCF1BD
:108CB400000F09D11F4B2048234AC01AC0080824BA
:108CC400000400941E4BE8E74AB91A4B1A481F4A9D
:108CD400C01AC008092400040094194BDDE7476852
:108CE400D7F800E00EF1FF370F4209D0114B1248BC
:108CF400174AC01AC008102400040094104BCCE793
:108D0400C768B9420CD34C1E05690EFB0244AC4241
:108D140006D8DCF81040A44603B0BDE8F040604734
:108D2400044B05480B4AC01AC008102400040094E0
:108D3400034BB2E7E804030030050300E90703002E
:108D440061070300EE0703005F0803001E08030029
:108D5400740703009A07030029DF704728DF704770
:108D640070B503689D6886B004460E466DB1142242
:108D74000021684607F001FBA36805932379019657
:108D84002BB1012B0DD06846A84706B070BD012356
:108D94008DF8003023690293E368039363690493B5
:108DA400F1E702238DF80030E3681B030293F5E733
:108DB4000846704700207047024B187A003018BFED
:108DC40001207047802B0020034B187A0122B0FA4F
:108DD40080F05A7440097047802B002008B5104673
:108DE4001A4607F0A1FA002008BD000008B51422B5
:108DF4000021044807F0C1FA0348FFF711FB0020E3
:108E040008BD00BF802B0020702B002010B5094C3A
:108E1400094B43602046FFF748FC40B907F020F8AF
:108E24001C2320748C2205490548FFF7E6FA00202C
:108E340010BD00BF802B00200C090300E42A002091
:108E4400702B002070B5244D244E2B7A2C463BB950
:108E540023492448FFF740FB306008B9686070BDBF
:108E64000223237233681A7972B1012A24D0184676
:108E74000321FFF775FF0023237263601849194823
:108E8400BDE87040FFF753BBD3E90520121AB2F5D1
:108E9400805F28BF4FF48052D3E903159208012A5A
:108EA400014438BF01222844FFF756FF50B111286E
:108EB400DDD101232372D2E7D3E903021044FFF783
:108EC4004DFFF3E7237C002BC9D10146BDE8704078
:108ED400022000F009B800BF802B0020982B00204E
:108EE400942B0020702B002038B5831E012B45D80D
:108EF400234C237A002B41D0022B09D1032830D0F4
:108F0400204B1B680022E2601A793AB1012A22D070
:108F1400637C7BBBBDE83840FFF794BFD3E90512FF
:108F24008D1AB5F5805F94BF521902F580529A618B
:108F34009142EDD102284FF0000308BF1946237275
:108F4400104B18BF0D211868FFF70AFF0E490F4890
:108F5400FFF7EDFADCE71A6901321A615B699A429C
:108F6400E7E7E3680133082B01D8E360D0E7002387
:108F7400E360DFE7BDE8384006F062BF38BD00BFFC
:108F8400802B0020982B0020942B0020702B002095
:108F940000F0FD03012B08D1044B00225A74421E39
:108FA400504250411874FFF74DBF7047802B00208A
:108FB40010B5064C201DFFF778FB28B9637C1BB95C
:108FC400BDE81040FFF73EBF10BD00BF802B00205E
:108FD4002DE9F34180460D460F4801A916461F4668
:108FE400FFF740FA0446A8B11C22002107F0C5F996
:108FF4002D0B0123237101A9C4F80080A760E5604B
:1090040066610548FFF758FAFFF7D2FF002002B067
:10901400BDE8F0810420FAE7702B00202DE9F74326
:1090240081468846104801A917461E46FFF71AFADA
:109034000446B0B11C22002107F09FF900250A9BC9
:10904400A36001A92571C4F80090C4E9037866619E
:109054000548FFF731FAFFF7ABFF284603B0BDE838
:10906400F0830420FAE700BF702B00202DE9F047BD
:10907400B0F806904479D2F800A09DF8208009FB4E
:1090840004F4043C06460AEB0300A0420F4688BFE2
:10909400A4EB030A191DC2F800A0B1FBF9F509FB02
:1090A40015114DB9A9EB0104544528BF5446BAF132
:1090B400000F04D1BDE8F0873668013DF1E70431C3
:1090C4007B1970182246B8F1000F0ED001461846DD
:1090D400AAEB040A07F028F9D145254436684C4622
:1090E4004FF0000128BF5446E1E71946F0E7FFF7C7
:1090F400E5BAF8B546790146721E05460023934247
:109104002D6803D30024A64202D8F8BD0133F6E744
:109114000F682846FFF70DFB01343946F3E72DE9C4
:10912400F843068ACD1C0746FFF7DFFA043E3544B0
:109134000446B5FBF6F5F0B14FF48073EDB28380CD
:10914400C680013D076081464FF00008A84512D251
:109154003846FFF7CAFA064648B1637901336371AA
:1091640008F10108C9F8000007608146EEE72046CF
:10917400FFF7BFFF34462046BDE8F88301210430E1
:10918400FFF77DBA10B5012104460430FFF782FAD7
:1091940010F0FF0F04D12046BDE81040FFF7A9BF2F
:1091A40010BD1FB503920022009203AAFFF75EFFD1
:1091B40005B05DF804FB1FB503920122009203AAD7
:1091C400FFF754FF05B05DF804FB41DF7047000072
:1091D400064B10B500241C70054B1C60BFF35F8F59
:1091E4000449054800F039F8204610BDA42B00209E
:1091F400A82B0020380903009C2B002007B500236E
:109204000DF107008DF80730FEF7EEF9F1EE103A94
:1092140023F09F03E1EE103ABFF35F8F094B402226
:10922400C3F884219DF80700FEF702FA06F018FE41
:1092340020B1FFF7CAFF03B05DF804FB20BF40BFB5
:1092440020BFF8E700E100E0836800225A609A60DA
:10925400C3E90422DA601A6070470B684A68436005
:10926400934208BF0023016008BF4360704743680E
:1092740043B10268916852680B449342436004BF4F
:10928400002343607047000010B50D49A1F59472A6
:10929400914201D800200FE08B1ADB1003EBD3734B
:1092A4005B1002EBC30452F83330834205D802D278
:1092B40004F10802ECE7606810BD2146E8E700BF4E
:1092C400880A030008B5FFF7DFFF024B002808BF38
:1092D400184608BD4D0903000B7B23B14B6803609E
:1092E4000023037170470B6803600123F9E70368E7
:1092F4004A68896810B5D41A8C428BBF5B18002366
:109304000360026098BF037110BD03680A6889682E
:1093140010B59C1A8C428BBF5B1A01230360026058
:1093240098BF037110BD037910B504461BB1FFF754
:10933400DEFF206810BDFFF7E8FFFAE7054B1B6866
:10934400082B01BF044B1868B0FA80F0400918BF1D
:1093540000207047300100103401001008B54FF0B0
:1093640080430022C3F80C21C3F81021C3F8382528
:109374004FF0805203F54043D2F80414C3F820158B
:10938400D2F80814C3F82415D2F80C14C3F828151D
:10939400D2F81014C3F82C15D2F81414C3F83015ED
:1093A400D2F81814C3F83415D2F81C14C3F84015B5
:1093B400D2F82014C3F84415D2F82414C3F848157D
:1093C400D2F82814C3F84C15D2F82C14C3F850154D
:1093D400D2F83014C3F85415D2F83414C3F8601515
:1093E400D2F83814C3F86415D2F83C14C3F86815DD
:1093F400D2F84014C3F86C15D2F84424C3F870258D
:10940400FFF79CFF10B1384B384A1A60FFF796FFFC
:1094140018B1374BFB22C3F81825FFF78FFF48B16B
:109424003449354B0A681B6822F00F0203F00F031E
:1094340013430B60FFF782FF18B1304B4FF40072F7
:109444001A604FF08043D3F80024D20744BF6FF072
:109454000102C3F800242A4AD2F8883043F4700386
:10946400C2F88830BFF34F8FBFF36F8F4FF01023D4
:10947400D3F80022002A03DBD3F80432002B2FDABE
:10948400204B0122C3F80425D3F80024002AFBD082
:109494004FF010221221C2F80012D3F80024002A3F
:1094A400FBD04FF010231222C3F80422154B1A46A6
:1094B400D3F800140029FBD00021C3F80415D2F816
:1094C4000034002BFBD0BFF34F8F0D490E4BCA68FD
:1094D40002F4E0621343CB60BFF34F8F00BFFDE79C
:1094E4000A4B0B4A1A6008BD8C56004048810300A1
:1094F40000F00040E40E0040580200104096024084
:1095040000ED00E000E001400400FA0540220020E4
:109514000090D003074B1B5C1F2B8ABF064A4FF0F9
:10952400A04203F01F03D2F80405D840C04300F062
:1095340001007047460E030000030050074B1B5CFC
:109544001F2B86BF03F01F0305494FF0A0410122E2
:1095540002FA03F3C1F80C35704700BF460E03004E
:1095640000030050074B1B5C1F2B86BF03F01F0337
:1095740005494FF0A041012202FA03F3C1F808356E
:10958400704700BF460E03000003005008B50020DA
:10959400FFF7E8FF0120FFF7E5FF0220FFF7E2FFF6
:1095A4000320BDE80840FFF7DDBF08B50020FFF742
:1095B400C5FF0120FFF7C2FF0220FFF7BFFF032012
:1095C400BDE80840FFF7BABF0A4B185C1F288ABFE2
:1095D400094B4FF0A04300F01F00D3F804250121EC
:1095E400814021EA02000A40C3F80805C3F80C25AB
:1095F400704700BF460E030000030050074B1B5C7E
:109604001F2B8ABF064A4FF0A04203F01F03D2F873
:109614001005D840C04300F001007047420E03001B
:10962400000300500B2809D00C2809D0182809D0B1
:1096340019280CBF03204FF0FF30704700207047FB
:109644000120704702207047014B185C704700BF2F
:10965400420E0300C20710B504460CD54FF0A043D8
:109664000322C3F83427C3F83827C3F83C27C3F8C8
:109674004027FFF78BFFA3070AD54FF0A0430C2226
:10968400C3F82C27C3F83027C3F86027C3F864272E
:1096940010BD000038B5074C051E04F1080318BFBF
:1096A4001C4623682BB11A6822605B6828469847D9
:1096B400F7E738BDB42B002020B9054B01225A70BE
:1096C400FFF7E8BF012802D1014A9070F8E770471C
:1096D400AC2B002020B9034B01225A70FFF7DABFEC
:1096E400704700BFAC2B002038B50B4C237883B9EE
:1096F4000A486360A3602361E36000F0C9F805468B
:1097040006F0AEFB08B900F0CFF801232370284619
:1097140038BD8525FBE700BFAC2B0020BD960200B9
:1097240037B50B4C00230DF107008DF80730FDF71A
:109734005BFFE368013BE360E56815B900F0C6F838
:10974400A5709DF80700FDF773FF03B030BD00BF9F
:10975400AC2B0020012813B509D018B103281CD064
:1097640002B010BD0F4B0122C3F88020F8E70E4C65
:1097740000230DF107008DF80730FDF735FF23783E
:109784000BB9FFF7B1FFE3689DF807000133E3600D
:109794000123A370FDF74CFFE2E700F085F8FFF723
:1097A400BFFFDDE700E100E0AC2B00201FB503782C
:1097B4008DF800304368019383688DF80830C368DE
:1097C4000393054A054B684653F8213052F821109B
:1097D400984705B05DF804FBC02B0020C82B00207F
:1097E4001FB503788DF800304368019383688DF8C2
:1097F4000830C3680393054A054B684653F8213083
:1098040052F82110984705B05DF804FBC02B0020E6
:10981400C82B0020F0B5194B0678DFF870E043F848
:109824002620174B94460A6943F826204B7F0EF8EE
:1098340006300C4607460FCC89B06D460FC594E838
:109844000F0085E80F001EF80630049653B1BCF1F2
:10985400000F0C4A694608BF0022381D00F0CEFDF7
:1098640009B0F0BDBCF1000F074A694608BF0022E9
:1098740007F10C0000F0B2FBF2E700BFC82B002098
:10988400C02B0020B1970200E5970200D02B0020E6
:10989400044A137923B90121106091801846704756
:1098A40085207047D42B0020074B1A68D2075FBF6E
:1098B400C02283F8002301221A604FF08043012262
:1098C400C3F81825704700BF00E100E0044B0122F3
:1098D4001A604FF08042D2F81834DB03FBD470478F
:1098E4000C000040154B07B51A687AB100221A60C3
:1098F4001B680093009B4FF080430122C3F80823A8
:109904000F4B587910B95A711B6898470D4B1A6858
:1099140082B100221A601B680193019B4FF08043BF
:109924000222C3F80823064B1B68012003B05DF82C
:1099340004EB184703B05DF804FB00BF00010040CE
:10994400D42B00200401004000F1804000F5C04009
:10995400002382B0036003680193019B02B0704747
:1099640003681F2B83BF03F01F03036001484FF0FC
:10997400A04070470003005007B5019001A8FFF70D
:10998400EFFF019B00EB8300D0F8002722F4403264
:10999400C0F80027D0F8003743EA0143C0F8003785
:1099A40003B05DF804FB0000054B4FF0FF320728BD
:1099B40043F8202084BF1B1883F85820704700BF49
:1099C400DC2B002010B5174C94F86A3043BB04F12B
:1099D40030033021FF22013911F0FF0103F8012B7C
:1099E400F9D1C8B2FFF7E0FF01310C29F9D1062201
:1099F40000210D4806F0C1FC0C4BC02283F806235D
:109A040040221A604FF4BE70FFF79EFF084B4FF0E0
:109A14000042C3F80423012384F86A30002010BDF7
:109A24000820FCE7DC2B0020402C002000E100E0B3
:109A340000600040034B93F86A00003018BF012017
:109A4400704700BFDC2B0020F7B53B4E33180546AA
:109A540093F93030002B6CDA8B78C3F34003002B7E
:109A64000BBF082400240C200820844202D10420C7
:109A740003B0F0BD56F82470013743D1701946F88D
:109A8400242080F8304013B9331983F858508B7868
:109A94005A0717D4D80737D501A80195FFF760FFF7
:109AA400019B00EB8300D0F8003723F00203C0F8D9
:109AB40000372248EA0805F007070123BB40875C0A
:109AC4003B43835488780A7810F0020028D0A4001D
:109AD40004F1804404F5C0442D02D4F8103523F475
:109AE4004F3323F44073C4F810351204D4F81035FE
:109AF40005F47C5502F4403215431D43C4F8105557
:109B04000020B5E70134B0E701A84A780195FFF7D2
:109B140027FF019B03F5E073920040F82320C8E778
:109B2400083C344494F8605045EA821284F860207A
:109B34009EE708209CE700BFDC2B0020402C00207F
:109B440073B5224C2518064695F93020072A19DDED
:109B5400224492F858309B09032B0FD1019001A89D
:109B6400FFF7FEFE019AD0F81035D340DB0707D487
:109B740002213046FFF700FF02B070BD012BF7D081
:109B84000321F6E7D3B2072BF6D8930003F1804301
:109B940003F5C043D3F8100540F00100C3F81005E5
:109BA40002F14000800080B2FFF7CEFE0029E3D02E
:109BB40095F9303054F82330002BDDD0012303FA1B
:109BC40002F2034BC3F80423D6E700BFDC2B0020CA
:109BD4000060004007B5019001A8FFF7C1FE019B9A
:109BE400D0F81005D84000F0010003B05DF804FB84
:109BF4002DE9F04F002489B0CDE90244624D4FF4C1
:109C04008072012102F1804303F5C04390B21B68C6
:109C1400012B06D1D5F804330B4202D0FFF794FE92
:109C24000C430432B2F5907F4FEA4101EAD1574B1D
:109C34001B68012B0ED14FF4BE70FFF785FE4FF069
:109C4400A04344F00044D3F810350293504BD3F8AA
:109C54001035039314F0FF0F1AD04E4F0025012640
:109C6400344210D0AB0003F1804303F5C043D3F872
:109C74001005D3F8101557F8253023B1C1F301416D
:109C8400C0F3052098470135082D4FEA4606E7D171
:109C9400002C75DA0DF1100800230493C8F8043081
:109CA4004FF0FF33CDE90633DFF8E8A0DFF8E890A2
:109CB40000273D4619F9014B631C48D0E4B2012347
:109CC40024F0C00604F0070203FA02F2F00808AB1D
:109CD400191811F8083C134239D00AEB0603A409F9
:109CE40093F930305AF823B0BBF1000F08D1032C9C
:109CF4002DD118F800C04CEA020C08F800C001E0AD
:109D0400032CF6D001A80196FFF72AFE019B11F857
:109D1400181C03F5E07C114250F82C00C0F30140FC
:109D240005D0022813D1032C0BD1214604E00328CB
:109D34000DD1032C05D102213046FFF71DFE01355C
:109D4400EDB2BBF1000F02D021463046D8470137AF
:109D5400042FAFD1A5B14FF0A0430299D3F8102539
:109D640003F540739142D3F8103502D10399994217
:109D740006D002920393049A059B0692079395E7F3
:109D840009B0BDE8F08F00BF006000407C61004076
:109D940000030050DC2B00203C2C0020014B1B68EE
:109DA400184700BF482C00200E4B984237B50D468B
:109DB40002D0002003B030BD00230DF107008DF860
:109DC4000730FDF711FC084B1C7914B901221D6002
:109DD4001A719DF80700FDF72BFC002CE9D0112027
:109DE400E8E700BF00200040482C0020034B9842C5
:109DF40001BF034B00221A601A7170470020004013
:109E0400482C00200023435082B043580193019B07
:109E140002B070470A4610B54FF48E71FFF7F2FF97
:109E2400136A9168C95C136A01331362C0F81C1584
:109E340010BD8B690A4610B54FF4847123B9FFF73E
:109E4400E1FFD0F8183510BDFFF7DCFF536AD16885
:109E5400D0F81805C854536A01335362F3E700007D
:109E64001FB501238DF80030044BCDE90110D3E96F
:109E740000126846904705B05DF804FB502C0020A2
:109E840030B54C4AD2F8043313F4007F85B015463C
:109E94004FD0D2F82431002B4BD04FF4927110469E
:109EA400FFF7B0FF4FF40173C2F80833424B93F845
:109EB400291009B9012151603E4902228DF8002080
:109EC400D1F88024C1F8802403929A690292DA6856
:109ED40001920022C3E906226846D3E900129047A2
:109EE4003448D0F81C315BB133490A6A4B699A4251
:109EF4000A464BD291F82830002B47D1FFF78AFF4E
:109F04002C4AD2F8443193B14FF4A2711046FFF7B2
:109F140079FF294B93F8291009B1012111609A693D
:109F24002AB100229A61586AD968FFF799FF05B0EF
:109F340030BDD5F804335B07D2D5D5F80831002BF2
:109F4400CED01D4C1B482146FFF773FF636AA269FC
:109F54009A422346C4D1E269E1684AB12369E360C5
:109F64000023606AA261E3616362FFF779FFB7E7E8
:109F740094F829200AB901226A600E4A4FF401704C
:109F8400C2F8080300229A61586AEEE74FF48E7112
:109F94000848FFF737FF51690029B1D00023029127
:109FA40091688DF80030019153616846D2E900133D
:109FB4009847A5E700200040502C00201F2886BFAA
:109FC40000F01F00044B4FF0A04300F5E0700222A4
:109FD40043F82020704700BF000300502DE9F843E8
:109FE400624F047991462C2202FB0472064692F8D1
:109FF4002A200D46002A40F0B3805D490068FFF72F
:10A00400D3FE8046002840F0AE8029684A1C10D058
:10A014001F2987BF01F01F03564A0B464FF0A04289
:10A024000120984003F5E073C2F80805032042F8C4
:10A0340023006868431C0DD01F288BBF00F01F034A
:10A0440003464C4A4FF0A04203F5E0734FF0000C76
:10A0540042F823C03368AA6995F814C0C3F82425CC
:10A064006A7DBCF1010F4CEA0202C3F86C25C3F807
:10A074001405C3F80C152BD1A968481C0DD01F2951
:10A084008BBF01F01F020A463A484FF0A04002F588
:10A09400E0724FF0000C40F822C0E868421C13D074
:10A0A4001F2887BF00F01F0C324A84464FF0A0429D
:10A0B4004FF0010E0EFA0CFE0CF5E07CC2F808E538
:10A0C4004FF0030E42F82CE0C3F80805C3F810154E
:10A0D4002C236343FA18C2F804902A69FA50B9F1A0
:10A0E400000F2AD04FF48E7130682D7FFFF78AFE5F
:10A0F40030684FF4A271FFF785FE32681E4BC2F838
:10A104000433120B51B20029A8BF01F160404FEA99
:10A114004513BABF194802F00F0500F56140DBB2E0
:10A12400B4BF435580F8003302F01F02012303FA41
:10A1340002F24909124B43F8212033680422C3F880
:10A1440000252C2303FB04730022C3E9062283F8B1
:10A1540029205A61012283F82A204046BDE8F88369
:10A164004FF00808F9E74FF01108F6E7502C0020EB
:10A17400859E0200000300508000020014ED00E000
:10A1840000E100E02DE9F04103680479254D002247
:10A19400C3F800252C2202FB04520646526872B111
:10A1A400214AC3F80823190B4AB20120520901F0CD
:10A1B4001F0100FA01F120321C4840F82210D3F8A4
:10A1C4000C05D3F81485D3F80815D3F810754FF09F
:10A1D400FF329042C3F81425C3F80C25C3F80825B0
:10A1E400C3F8102501D0FFF7E9FEB8F1FF3F02D014
:10A1F4004046FFF7E3FE7A1C02D03846FFF7DEFE46
:10A204004B1C02D00846FFF7D9FE3068FFF7EEFD7D
:10A214002C2303FB0454002384F82A306360BDE834
:10A22400F08100BF502C00208402020000E100E015
:10A234002DE9F843224F06794FF02C0909FB0674E7
:10A2440080466569002D37D16261A16025624FF4B3
:10A254008E71006884F82850FFF7D4FDD8F8000008
:10A26400012383602146FFF7D5FD6368A1462BBB1C
:10A27400D8F80050226A63699A4212D3D8F80030A1
:10A28400D3F81C21002AFBD00122DA6000202C2301
:10A2940003FB067600237361BDE8F88394F8283045
:10A2A40043B9D5F81C31002BF8D049462846FFF7AE
:10A2B400B1FDDFE70F20EAE71120EDE72846EBE7E1
:10A2C400502C00200023435082B043580193019B3B
:10A2D40002B070471FB501238DF80030044BCDE95F
:10A2E4000110D3E900126846904705B05DF804FBFD
:10A2F4007C2C00207FB5374AD2F82461002E48D048
:10A3040010464FF49271FFF7DDFF02238DF8003001
:10A31400D2F88034C2F880340393D2F83C350293E7
:10A324002D4BDA6801920022C3E906226846D3E97C
:10A3340000129047274AD2F844317BB14FF4A271FE
:10A344001046FFF7BFFF244B996939B10021C3E9D7
:10A354000611D968D2F83C05FFF7BCFF1D4AD2F8B4
:10A364002031A3B14FF490711046FFF7ABFF1A4BA5
:10A37400596961B1D2F84C150291002299688DF89F
:10A38400002001915A616846D3E90012904704B055
:10A3940070BDD2F81031002BCCD04FF48871104628
:10A3A400FFF790FF0C4BD2F83C0599698842C1D164
:10A3B400DC69D96864B1D2F8005225F02005C2F8EE
:10A3C40000521A699C61DA60DE61FFF783FFB1E72E
:10A3D4009C61FAE7002000407C2C00201F2886BFE7
:10A3E40000F01F00044B4FF0A04300F5E070022280
:10A3F40043F82020704700BF000300502DE9F843C4
:10A40400664F06799146242202FB0672044692F8AE
:10A4140020200D46002A40F0BB8061490068FFF708
:10A42400C3FC8046002840F0B6802868421C10D047
:10A434001F2887BF00F01F035A4A03464FF0A0426B
:10A444000121994003F5E073C2F80815032142F88D
:10A45400231069684B1C0DD01F298BBF01F01F030B
:10A464000B46504A4FF0A04203F5E0734FF0000C46
:10A4740042F823C02368AA6995F814C0C3F82425B8
:10A484006A7DBCF1010F4CEA0202C3F86C25C3F8E3
:10A494000C05C3F814152BD1A968481C0DD01F292D
:10A4A4008BBF01F01F020A463E484FF0A04002F560
:10A4B400E0724FF0000C40F822C0E868421C13D050
:10A4C4001F2887BF00F01F0C364A84464FF0A04275
:10A4D4004FF0010E0EFA0CFE0CF5E07CC2F808E514
:10A4E4004FF0030E42F82CE0C3F80805C3F810152A
:10A4F40024237343FA18C2F804902A69FA50B9F174
:10A50400000F34D04FF4887120682D7FFFF7DAFEF6
:10A514004FF490712068FFF7D5FE4FF492712068D4
:10A52400FFF7D0FE20684FF4A271FFF7CBFE22683C
:10A534001D4BC2F80433120B51B20029A8BF01F11C
:10A5440060404FEA4513BABF184802F00F0500F502
:10A554006140DBB2B4BF435580F8003302F01F0200
:10A56400012303FA02F24909114B43F8212023681D
:10A574000822C3F80025242303FB06730022C3E941
:10A5840006225A61012283F820204046BDE8F88360
:10A594004FF00808F9E74FF01108F6E77C2C00208B
:10A5A400F9A20200000300501003020014ED00E0C1
:10A5B40000E100E02DE9F04103680479254D002213
:10A5C400C3F80025242202FB04520646526872B1E5
:10A5D400214AC3F80823190B4AB20120520901F099
:10A5E4001F0100FA01F120321C4840F82210D3F870
:10A5F4000C05D3F81485D3F80815D3F810754FF06B
:10A60400FF329042C3F80C25C3F81425C3F808257B
:10A61400C3F8102501D0FFF7E1FEB8F1FF3F02D0E7
:10A624004046FFF7DBFE7A1C02D03846FFF7D6FE21
:10A634004B1C02D00846FFF7D1FE3068FFF7D6FB6B
:10A64400242303FB0454002384F820306360BDE812
:10A65400F08100BF7C2C00201003020000E100E028
:10A6640001F06043B3F1005F2DE9F041074632D1B8
:10A674001C4B0679242505FB063598466C6964BB9A
:10A684006A61A96000684FF49071FFF71BFE4FF4F4
:10A69400AC713868FFF716FE3B686A69A968C3F8AD
:10A6A4004415C3F8482501229A606A68BAB9D3F8F8
:10A6B4002011D3F8582149B9002AF8D00F202423B7
:10A6C40003FB068600237361BDE8F081002A14BFF2
:10A6D4000F200020F3E71020F6E71120F4E72046CE
:10A6E400F2E700BF7C2C00200220FEF76DBF0000C3
:10A6F4002DE9F04781460D46FEF794FF03280446F2
:10A7040004D8012D04D025B3022D2FD0BDE8F08745
:10A71400194D47003A18A918AE5C4A7852B1DFF8CF
:10A724006880164842464FF40041FCF707FF08B919
:10A7340088F800903B192B449A78114B1A55002E37
:10A74400E4D0104B1B68002BE0D03046BDE8F04746
:10A7540018470A48FCF738FF074B04EB440213443C
:10A764009E78074B1B5DB342D0D1E8E7024B00EB68
:10A7740040041C446678E2E7042D0020C42C002029
:10A784001D2D0020182D0020A02C0020022100786F
:10A79400FFF7AEBF08B5094B1B7853B10020FEF795
:10A7A400E1FE0120FEF7DEFE0320BDE80840FEF7CF
:10A7B400D9BEBDE80840FEF7E9BE00BFA12C0020C9
:10A7C400F8B57B4C237805461BB100232370FFF7B3
:10A7D400E1FF172D00F28880DFE805F00C1717431E
:10A7E40054657680888D888D959A9A9A9A9AC4C968
:10A7F400D1D9E4E4FFF7CEFF6E48FCF7E5FE6E4BDB
:10A80400002204461A702046F8BD0020FEF782FE9E
:10A81400F8B10020FEF7A6FE022D0CBF4FF4E16153
:10A824004FF47A61644B1D704FF400404FF4FA7496
:10A834000025E0FB01454FF47A72002320462946A7
:10A8440005F072FC002201465A48BDE8F840FCF7C6
:10A8540075BEFEF773FE022D0CBFC8214FF4C871FC
:10A86400E0E70020FEF756FE40B10020FEF77AFE36
:10A874004FF44871504B03221A70D5E7FEF75EFE81
:10A88400C821F7E70020FEF745FE38B10020FEF7A7
:10A8940069FE4FF47A61484B0422EDE7FEF74EFE61
:10A8A4004FF4C871F7E70020FEF734FE48B10020EA
:10A8B400FEF758FE404B05221A7041F69A11002209
:10A8C400C2E7FEF73BFEF5E70020FEF77DFE3A4BBC
:10A8D40006221A70002240F6CD41B5E70020FEF7AB
:10A8E4002DFE354B07221A7000248CE701202070BE
:10A8F400FEF76AFEEEE701202070FEF765FE0022F7
:10A904004FF48041A0E7FEF750FE2B4B0C22EAE700
:10A914002A482B4EFCF758FED5F1110504461CD0ED
:10A92400D8B9012D13D0C8235D434FF400474FF429
:10A93400FA7000214FF47A720023C7FB050105F079
:10A94400F3FB224601461D48FCF7F8FD04460220AD
:10A95400FEF7F4FD0123337055E70220FEF702FEF3
:10A964000023F8E7FFF716FF134B1222BBE7FFF7AC
:10A9740011FF0020FEF7E2FD0F4B1322B3E7FFF7B0
:10A9840009FF0120FEF7DAFD0B4B1422ABE7FFF7BA
:10A9940001FF0020FEF7D2FD0120FEF7CFFD064B9C
:10A9A4001522A0E7FEF701FE034B1D709CE700BFD4
:10A9B400142D0020E42C00201C2D0020A42C0020A9
:10A9C400A12C0020044B1B68DB0703D5034B18782C
:10A9D400FFF7F6BE704700BF102D00201C2D00208D
:10A9E400002910B514BF03240024FEF72DFE1F28F0
:10A9F4008ABF0A4B4FF0A04300F01F0003EB800016
:10AA0400D0F8002722F44032C0F80027D0F80037ED
:10AA140043EA0443C0F80037002010BD000300508F
:10AA2400032801D8FEF7EABD00207047044B1B68D9
:10AA340013F0010301D0FFF7C3BE1846704700BFEF
:10AA4400102D002038B51C4B18601C4B10F002046C
:10AA5400054619601AD01A4B1A480E221A700F2292
:10AA6400DA7010229A7111225A72042140F266623D
:10AA7400FCF762FA044648B9FCF7B2FA044628B96E
:10AA84000146114A1148FCF747FD0446EB0711D56E
:10AA94000120FEF7DFFD6CB921460D4A0D48FCF795
:10AAA4003BFD044630B90C4A0C480121BDE838404E
:10AAB400FCF732BD204638BD102D0020182D002093
:10AAC400042D00206C0E030091A70200900E0300D9
:10AAD400C9A90200940E0300EDA602008C0E030027
:10AAE400032813D8012A0BD1012908D100F10E0241
:10AAF400D2B200EB40000C4B1A54002070470022E5
:10AB04000129F6D04BB24BB1022901D0072070477E
:10AB1400054B00EB400018444270EEE7024900EB9D
:10AB2400400008448270E8E7042D0020032802D87E
:10AB34000121FFF755BF0620704708B50122022105
:10AB44000020FFF7CDFF08B1072810D1072202210A
:10AB54000120FFF7C5FF08B1072808D100210A2208
:10AB64000846FFF7BDFF10B1072808BF002008BD45
:10AB74000388102B10B502D0112B1ED010BD1A4C17
:10AB84002168B1B901220846FFF7AAFF08B10728D6
:10AB940024D1072202210120FFF7A2FF08B10728D0
:10ABA4001CD1042202210020FFF79AFF08B10728D4
:10ABB40014D1236801332360E0E70B4A1368013B97
:10ABC4001360002BDAD1FFF7B8FF0028D6D0074B6B
:10ABD4001B68002BD2D0BDE810401847034B1B68FC
:10ABE400002BE6D09847E4E7282D0020242D0020F0
:10ABF40008B50020FFF79AFF08B1062806D1012006
:10AC0400FFF794FF10B1062808BF002008BD00001C
:10AC14000D4B10B518600C4629B10120FFF700FF59
:10AC240040B102232370094B1B6853B9BDE810409F
:10AC3400FFF783BFFFF7F4FE08B10B23F2E72070A0
:10AC4400F1E7002010BD00BF242D0020282D002096
:10AC540076DF704778DF70477ADF70477CDF7047B4
:10AC64008FDF704733DF7047FCF7D0B908B50D4963
:10AC74000D48FEF758FB4FF6FE72C1B20B4804F0C4
:10AC840087FD30F008020BD020F00202112A07D011
:10AC940043F20142904203D0BDE80840FCF7B6B944
:10ACA40008BD00BF982F0020A82F0020842F00206B
:10ACB40008B50020FFF7BAFE08B1FCF7A7F9FFF7C3
:10ACC40097FF08B1FCF7A2F9FFF7CCFF18B1BDE874
:10ACD4000840FCF79BB908BD0388212B13B5044633
:10ACE4003CD005D8102B0CD0112B25D002B010BDB0
:10ACF4003B2B01D0562BF9D11321A088FFF7A8FFD5
:10AD040015E01A4B1A481B49C01AC008000440F049
:10AD14000300FBF7C5FE0720FFF788FE08B1FCF728
:10AD240075F9154BA1881548198002F01FFB0028FE
:10AD3400DCD0FCF76BF9D9E70C4B0D481049C01A6D
:10AD4400C008000440F00300FBF7AAFE0A4B4FF6CC
:10AD5400FF721A800B4B00221A70C7E7002301A967
:10AD64008088ADF80430FFF77BFFE0E7E8040300D8
:10AD740010050300980E0300502200200430002028
:10AD8400A30E03000030002008B503784BB9054B2F
:10AD94003B211888FFF75CFF18B1BDE80840FCF7B9
:10ADA40035B908BD5022002008B598B1032815D143
:10ADB4000B4B0C480C49C01AC008000440F00300B7
:10ADC400FBF76EFE0220FFF731FE38B1BDE8084004
:10ADD400FCF71CB9BDE80840FFF76ABF08BD00BF17
:10ADE400E804030010050300170F030030B5224CDC
:10ADF400257889B0002D3DD14FF48073ADF8003033
:10AE04001E491F4801238DF80230FEF78CFAFE23F9
:10AE14008DF8043002908DF80C3000EBC00005234F
:10AE2400B0FBF3F0174B00F54860596804901868BC
:10AE340005AA03C204228DF81C209A7902F11B0191
:10AE4400C9B23B290AD8997169460F4804F0D9FE62
:10AE540070B108280ED0FCF7D9F80BE0213A9A71AA
:10AE64005A790132D2B23B2A94BF5A715D71EBE731
:10AE74000123237009B030BD0030002010300020C1
:10AE84002030002052220020E42F00200B7813B140
:10AE9400022B02D07047FFF7A9BF024B00221A70A1
:10AEA400704700BF00300020043808B50A282BD8AA
:10AEB400DFE800F00A2A2A162A2A062A2A2A20006B
:10AEC400BDE80840FFF7F4BE104B13211888FFF7C4
:10AED400BFFE30F0080317D0BDE80840FCF796B871
:10AEE4000A4B1A884FF6FF739A420DD1084800F0B6
:10AEF40038FEEEE7054B1A884FF6FF739A4203D0EB
:10AF0400BDE80840FFF772BF08BD00BF5022002013
:10AF14002C2D002008B50321044800F0DCFC18B1F6
:10AF2400BDE80840FCF772B808BD00BF2C2D002016
:10AF340013B5044603F01AFD204603F03DFB2378C5
:10AF4400022B03D00C2B10D002B010BD0DF1070161
:10AF5400074804F086FE08B1FCF758F89DF807305E
:10AF6400002BF1D0FFF742FFEEE7FFF7D3FFEBE74B
:10AF7400E42F0020FCF74AB80000000000B54FF4AD
:10AF84000041B9B00020FBF7C7FB08B1FCF73EF85D
:10AF9400FBF7F8FAFCF790FA08B1FCF737F8AD4A7A
:10AFA400AD480121FCF7B8FA08B1FCF72FF8AB491A
:10AFB4000320FFF747FD08B1FCF728F80DA900208E
:10AFC400FFF726FE08B1FCF721F89DF83450FEF790
:10AFD400FFF808B1FCF71AF804F0C4FE08B1FCF756
:10AFE40015F800230DA901200D9304F083FF08B187
:10AFF400FCF70CF80DA805F02DF808B1FCF706F8DD
:10B00400112397488DF8243005F0EAF9944982B267
:10B0140009A8FFF723FE08B1FBF7F8FF4FF44070CF
:10B02400FFF718FE08B1FBF7F1FF082200210DA875
:10B0340005F0A3F98B4A4FF0C8730DA8CDE90D2391
:10B04400FFF70AFE08B1FBF7E1FF0021864802F092
:10B0540085F808B1FBF7DAFF0021AC220DA805F052
:10B064008CF902238DF8343040F20163ADF83630A8
:10B074000323ADF844307D4B129301238DF8B03097
:10B084004FF0280E44F25063CDE92FE30DA9784B1D
:10B094007848369300F0A8FB08B1FBF7B7FF01210D
:10B0A400744800F09EFB744B7448019301A902F0AC
:10B0B4004BF908B1FBF7AAFF082200210DEB0200AF
:10B0C40005F05BF96E4B029302A96E4B6E48039335
:10B0D40004F02EFD08B1FBF799FF1022002109A806
:10B0E40005F04BF90023099301220B9309A9674B3F
:10B0F40067488DF828200C9304F0DAFA08B1FBF7BE
:10B1040085FF402200210DA805F037F961490DA8FB
:10B1140000F0E7FF0FA8604900F0E3FF4BA3D3E979
:10B124000023CDE904235D4B069304AB19930DA8CA
:10B1340001238DF8703004F0C1FB08B1FBF766FF02
:10B144005749584851226423C1E9002301238B60E5
:10B154000B73FEF7C1F8544940F6686040F68473F7
:10B164000024C1E90003242350488B600C73FEF7CC
:10B17400B3F81C2221460DA805F0FFF84FF4702304
:10B184004FF4203CCDE90EC303238DF84030484BE7
:10B1940012930DA8474B0D94ADF842408DF84440EE
:10B1A400139300F0FBFD08B1FBF730FF02F0ACFE97
:10B1B40008B1FBF72BFF052200210DA805F0DDF8EF
:10B1C4000D9B03F07C423C4B13430D939DF83830A8
:10B1D40023F0030343F003030DA88DF8383002F085
:10B1E4002DFF08B1FBF712FF344802F00FFF08B13E
:10B1F400FBF70CFF324B334C3349E41AE4082404C4
:10B2040044F003042046FBF74BFC00224FF480314A
:10B214002E48FCF793F908B1FBF7F8FE022D0FD185
:10B224002B492046FBF73CFC02F060FF08B1FBF71A
:10B23400EDFEFBF7CBFA0028FBD1FDF7DFFFF8E7C3
:10B24400FFF768FEF5E700BFAFF3008055443322F3
:10B254001100000071AC0200B40E0300ADAE020098
:10B26400B80E030090012003D02F002044220020B8
:10B27400ADAD02002C2D00206DAC02000430002086
:10B2840091AE020002010002E42F002064010101DA
:10B29400842F0020C30E0300D70E030088776600B6
:10B2A400982F0020A82F00201030002020300020EC
:10B2B4008DAD020079AF02003107100335AF0200F3
:10B2C400E804030010050300E60E0300B02F00207D
:10B2D4000A0F03006DDF704779DF70477DDF704729
:10B2E40064DF70472DE9F74F0C9CBDF834B0278814
:10B2F400002580468A4691462E46B8F80020B24280
:10B304000BDC35B12288013AD21B92B2FF2A39D81C
:10B31400DA55002003B0BDE8F08FD8F8042052F8C5
:10B324002600019000220DF1030101A8FFF7D8FFC8
:10B334000028EFD19DF803204A4521D12288002D11
:10B3440014BF0020022002EB09010144594519DC15
:10B354003DB9013292B2228003F802A02288013260
:10B36400228022880DF103011A4401A8FFF7B8FFD7
:10B374000028CFD121889DF803200A44228001258A
:10B384000136BAE70C20C5E72DE9F341089CBDF866
:10B3940024501746CDE9004502220646FFF7A2FFD6
:10B3A40048B9102239463046CDE9084502B0BDE817
:10B3B400F041FFF797BF02B0BDE8F0812DE9F04FEF
:10B3C40000231688138090F82D3085B007460D466B
:10B3D400144653B3082E01D80C2028E102A8FFF725
:10B3E40079FF002840F0238113880822CA54238857
:10B3F40001339BB21B222380CA542088013080B2BF
:10B40400208006220DF10901284404F08DFF2388D1
:10B414009DF8082006339BB212F0FE0218BF0122E9
:10B424002380EA54238801332380BB78FBB123882B
:10B434000433B342D0D802A8FFF74EFF002840F0EF
:10B44400F68023880322EA54238801339BB219220D
:10B454002380EA542388BDF8082001339BB2E918FD
:10B464002380EA54120A4A70238802332380FA782C
:10B474009AB12388D91CB142AED80221E954238859
:10B4840001339BB201212380E95423880B449BB2EE
:10B494002380EA5423880B4423807A68AAB1238842
:10B4A400D91CB14298D8022192F90020E95423888A
:10B4B40001339BB20A212380E954238801339BB2D0
:10B4C4002380EA542388013323803B89002B40F0F6
:10B4D400A2803B8A5BB1CDE900462B4607220321BB
:10B4E40007F11000FFF750FF002840F0A0803B8BCD
:10B4F4005BB1CDE900462B461522142107F1180053
:10B50400FFF742FF002840F092803A6A002A40F098
:10B514009180D7F82480B8F1000F30D0B8F8043007
:10B524002188981C8A1C0244B2423FF655AFFE287B
:10B534003FF652AF03336B54238801339BB2FF228F
:10B544002380EA54238801339BB22380B8F8002077
:10B55400EA54E918120A4A702088023080B2208026
:10B56400B8F804205AB1D8F8081000296CD028443F
:10B5740004F0DAFE2388B8F804201344238097F8F3
:10B584002C30002B40F09B80387800284FD03B882B
:10B59400012B59D0228802F1020CB4453FF61CAFAE
:10B5A400012805D17B78023313449E42FFF414AF83
:10B5B400023EB61AB6B202A905EB0C00ADF808605B
:10B5C400FFF78CFE98BB3978BDF80820022900F0FB
:10B5D400BB807B78934202D3B24240F2B38001290C
:10B5E40040F0B4809BB29E42C0F0B080ADF8083009
:10B5F4000821BDF80830FE2B3FF6EEAE2288013359
:10B60400AB542288013292B22280A9542288134476
:10B61400238000200BE0CDE900462B4606220221C0
:10B6240007F10800FFF7B0FE00283FF452AF05B061
:10B63400BDE8F08FB4F800C00CF10603B3423FF646
:10B64400CBAE1188052901D80720F0E76FF4486EC6
:10B6540001EB0E039BB24FF27D3E7345F4D9538840
:10B66400052BF1D96FF44860181880B27045EBD9F6
:10B674004FF6FF70814203D0834201D09942E3D850
:10B68400052305F80C30238801339BB21221238053
:10B69400E954238801339BB223801188E954E818C4
:10B6A400090A4170238802339BB223805288EA54EA
:10B6B400E918120A4A7023880233238029E7BB6AF7
:10B6C400002BC1D04FF000094FF00C0A4FF0160BBD
:10B6D40097F82C305FFA89F293427FF655AFB96A36
:10B6E4000AFB02F201EB0208B8F80430981CFE28A9
:10B6F4003FF672AE208803332B54238801339BB268
:10B70400238005F803B0238801339BB223808A5A2F
:10B71400EA54E918120A4A702088023080B2208064
:10B72400B8F804205AB1D8F8081000298CD028445D
:10B7340004F0FAFD2388B8F804201344238009F1A7
:10B744000109C5E7092154E7B242FBD9ADF8086005
:10B754004EE770B5C0B14AB116880024B44203D391
:10B7640005196D789D4208D0A14201D800200BE054
:10B77400055D01352C44A4B2F0E7A142F6D9A31C1F
:10B784001380005D013880B270BD13B50023ADF89D
:10B79400063013460DF106020446FFF7DAFF10B136
:10B7A400BDF80600204402B010BD72DF704773DF9D
:10B7B400704774DF704738B5012204460D46B0F86F
:10B7C4003812D0F83402FFF7E0FF00B1057004F13D
:10B7D4003C0204F50D7104F15400BDE83840FFF754
:10B7E400E4BF80F830107047F8B504460F460029CE
:10B7F4006DD000286BD091F87A301BB191F8983055
:10B80400002B66D107F178060FCE4FF0000C251DF2
:10B8140084F802C00FC50FCE0FC596E8070085E86F
:10B82400070084F830C0D7F8A4306363D7F8A83091
:10B83400A3634FF6FF7504F50D73C4F84432A4F8FE
:10B8440048520722614604F24A2004F096FD237808
:10B854000BB984F8545094F82430002B14BFEE2311
:10B864001F2304F15501C4F83412A4F8383204F546
:10B874000E723846FFF7A2FD40BB94F82430002B2B
:10B8840014BFEE231F2304F24311C4F83C12A4F89E
:10B89400403204F5107207F13C00FFF78FFDA8B9A0
:10B8A400A369A4F848304FF480720123A4F850200F
:10B8B400626920646264014684F83C3004F13C020D
:10B8C40004F15400FFF771FF00B92370F8BD0E2096
:10B8D400FCE70720FAE7F8B5077804460D46002F81
:10B8E40000F0078100F24A26A170072200213046A9
:10B8F40004F043FDE38813B1A378012B04D0E3796A
:10B904004BB1A378022B06D1636B9BB1012284F85F
:10B91400512208209847324604F5147112F8013F69
:10B924005BB98A42FAD16A1E032A52D8DFE802F0D0
:10B93400070D111484F85132EDE73B46F3E7A27981
:10B944001AB194F8242002B95BB9E2790AB1002B48
:10B9540041D1237A002B40D1637A002B0CBF002500
:10B964000425636BA570002B39D0033D012D36D817
:10B974006279A2B394F852228ABB84F85422012239
:10B9840084F853220720984704F13C05182200212B
:10B99400284604F0F2FCE26A0123511E994284F81D
:10B9A4003C3001D9042A1ED1D3B294F8242084F85F
:10B9B40051301AB1CFB1A36A84F85230A178002370
:10B9C40084F8503004291FD8DFE801F07B112639B0
:10B9D4005D000025C5E70225C3E70325C1E7002371
:10B9E40084F85332D0E70027DFE70123E4E7C4F803
:10B9F4004432C4E910630223012284F83C308023DA
:10BA040084F83120A4F84830A378002B5CD1636B10
:10BA1400002B6AD1002067E00223002A84F8313029
:10BA240014BF0723032384F83C302369A4F8483067
:10BA34000023C4F84432E36826646364E4E763697A
:10BA44006364A369A4F8483012B1062384F83C3037
:10BA54006379B3B194F852329BB994F8543283B1F8
:10BA6400022384F8503004212046FFF7A4FE002866
:10BA7400CAD1052384F8313004F50D73C4F8443277
:10BA8400C2E70323F6E7E3696364236AA4F8483052
:10BA940012B1062384F83C30637983B194F85232AE
:10BAA4006BB994F8543253B1022384F85030042112
:10BAB4002046FFF780FE0028A6D10623DAE70423F8
:10BAC400D8E784F831309FE72A46D4F8441204F1C9
