:020000022000DC
:1060000000000420756302005D6302005F6302000C
:106010006163020063630200656302000000000028
:1060200000000000000000000000000067630200A4
:1060300069630200000000006B6302006D630200F0
:10604000D19602006F630200899B0200E5FD020009
:10605000F5FD02006F630200DD9902006F6302002C
:106060006F6302006F6302006F6302006F630200E0
:106070006F6302006F6302006F6302006F630200D0
:106080006F630200FD7002006F6302006F63020025
:10609000997102006F63020005F502006F63020050
:1060A0006F6302006F6302006F6302006F630200A0
:1060B0006F6302006F630200000000000000000038
:1060C0006F6302006F6302006F6302006F63020080
:1060D0006F6302006F6302006F6302006F63020070
:1060E0006F6302006F6302006F6302000000000034
:1060F000000000006F630200000000006F630200F8
:10610000000000000000000000000000000000008F
:10611000000000000000000000000000000000007F
:10612000000000000000000000000000000000006F
:10613000000000000000000000000000000000005F
:10614000000000000000000000000000000000004F
:10615000000000000000000000000000000000003F
:10616000000000000000000000000000000000002F
:10617000000000000000000000000000000000001F
:10618000000000000000000000000000000000000F
:1061900000000000000000000000000000000000FF
:1061A00000000000000000000000000000000000EF
:1061B00000000000000000000000000000000000DF
:1061C00000000000000000000000000000000000CF
:1061D00000000000000000000000000000000000BF
:1061E00000000000000000000000000000000000AF
:1061F000000000000000000000000000000000009F
:10620000354936480A1A02D0072291438D4634494F
:1062100034480A1A06D00722914381F309880222E2
:1062200082F3148830483149314A00F044F831484B
:106230003149324A00F03FF831483249324A00F0E1
:106240003AF832483249334A00F035F83248334997
:10625000334A00F030F833483349344A00F02BF821
:1062600033483449344A00F026F83448344900228F
:1062700000F02CF833483449002200F027F8334866
:106280003349091A082902DB002202604160314AC1
:1062900090471F481F49884205D00268043003B464
:1062A000904703BCF7E700208646EC46002000211B
:1062B000294A9047FEE7884207D0521A05D0037852
:1062C00001300B700131013AF9D17047884202D098
:1062D00002700130FAE770470000042000E003205C
:1062E0000000042000000420786503003422002010
:1062F00098220020D4630200D4630200C425030066
:106300007865030034220020342200204427030053
:1063100044270300442703004427030044270300C5
:106320004427030044270300442703007865030043
:10633000DC6503009822002098220020982200208B
:1063400098540020985400209C5400209C54002015
:106350009C7400209D63020039A30200FEE7FEE763
:10636000FEE7FEE7FEE7FEE7FEE7FEE7FEE7FEE705
:10637000704700BF1048804710484FF0070188431E
:1063800085460F4880470F48016841F4700101605D
:10639000BFF34F8FBFF36F8FFFF732BF0A480B4930
:1063A0000B4A884207D0521A05D0037801300B708F
:1063B0000131013AF9D170477163020000000420F5
:1063C0002D92020088ED00E03027030020220020FB
:0463D0003422002053
:1063D40000487047905400200BF04BB87047000001
:1063E40007B5044B0093044A402300F032F803B08D
:1063F4005DF804FB01640200992200202DE9F843B2
:1064040089461446B2B10F4B0F4E0325002743F0C3
:106414000108224609EB0701002004F0D5FA0744DD
:10642400241A48B933782BB14FF47A40C047013D60
:1064340002D13570BDE8F88301233370002CE8D114
:10644400F8E700BF5027030098220020704704F0AB
:10645400EFBAF0B595B01C46164608460D4602F054
:106464004DFE1A9B0D93CDE90864002423460822AF
:1064740005A928460A948DF82C400C9402F05BFE82
:10648400079B0293069B03939DF814308DF81140EB
:1064940003F00302012A1DD1BDF81440059EC3F385
:1064A400C203C4F383148DF81030A20008230EA98C
:1064B400284602F040FEC6F3952608AB0093224618
:1064C40002AB0EA9304600F077FB284602F01AFE14
:1064D40015B0F0BD022AF8D1BDF81640C3F3C203CB
:1064E400A4098DF810300827082C264628BF082652
:1064F4003B4632460EA9284602F01DFEA41B08ABFB
:1065040002AA31460EA8374400F0BAFB002CEBD1A6
:10651400DBE7000008B5FFF79AFF0421034800F009
:10652400B9FA034B01225A7108BD00BF20270300AA
:1065340034220020037813F0040216D003F003037E
:10654400012B03D0022B09D0012070470A68008870
:106554000232C0F3831002440A60F5E70B684288F4
:10656400023303EB92130B60EEE710467047000012
:106574002DE9F04F87B000230446851C0DF1070078
:106584000F4690468DF8073000F0F6FF4548066840
:106594003E60D0E90132134401339B1B824600F272
:1065A4001C4600F5836900F21447AB421BD300225A
:1065B400B8F1000F70D0052363F3070264F3891266
:1065C400DAF80010DAF808309DF807000B400333BE
:1065D4000D444AF82320CAF8005000F0F1FF0120CE
:1065E40007B0BDE8F08F0121304602F010F84846AC
:1065F40002F026F8384602F023F8DAF80400DAF854
:1066040008B0029000EA0B0003300AEB800002A9F4
:10661400FFF790FF029B50BB0BEA03020AEB8202D6
:1066240003F1020CD2680392013303EA0B0B0AEB69
:106634008B0B02F00302012ACDF808C0DBF80C1022
:1066440022D0022A16D08346384601F0FCFF10B14E
:10665400029BCAF804305946304601F0D8FFDAE903
:1066640001231344DAF8002001339B1A9DE70BEA57
:106674000300C9E7BDF80E309B0903334FEA114B01
:106684000CEB93030293DFE7BDF80C30C3F38313E1
:106694004FEA114B6344F5E7062363F3070264F3FF
:1066A4009F528DE7AC2300200B4B0C48FF2210B502
:1066B4009A600022C3F81824C3E90022C3F8142402
:1066C40083F8202402F0D3FC044610B9044802F0F5
:1066D40053FD204610BD00BFAC2300204C26030010
:1066E4007427030030B50A4C71B10A4A0A49121BD7
:1066F400D20800239A4201D1002030BD31F8235042
:10670400854202D00133F5E7034654F83300F4E739
:10671400602603002027030034220020094B01399E
:1067240003EBC000032909D8DFE801F00A020406DC
:106734000420704700797047407970470020704703
:106744000220704760260300034BD3E90030C31ACC
:1067540058425841704700BFAC2300202DE9F04354
:1067640087B0FFF7F1FF0646002840F0FB807E4D1E
:10677400C5F81804BFF34F8F6868AC6802902040D6
:10678400033005EB800002A9FFF7D4FE029B18B189
:10679400D5F81824002A5FD004EA0302991C0133B7
:1067A40005EB8202234005EB8303D268DB68049384
:1067B40002F00303022B0392029162D1BDF80E3062
:1067C4006A484FEA9318B8F1500FC14628BF4FF0FA
:1067D400500969F38F1309F10801ADF80E3002F086
:1067E4005EFC0746002800F0A88002F087FC03A99D
:1067F40000230822384602F094FC029924EA010698
:106804000136B600B14535D95FFA89F97EB3F6B2DF
:10681400A9EB0609214003315FFA89F4B146544ECD
:1068240005EB810108234A46384602F07AFC36B16A
:1068340009F1080322463146384602F072FC029BF5
:1068440008F1030803EB98030293D5F81834002BDE
:106854004BD1D5F810445BE02A689A4204D86A60A8
:10686400304607B0BDE8F08304EA030088E74049F6
:106874003446D7E72140033108234A4605EB81011A
:10688400DAE7012B59D1BDF80C303848C3F3831132
:10689400062928BF062161F3891302318900ADF866
:1068A4000C3002F0FCFB0746002846D002F026FC20
:1068B4000023082203A9384602F033FC0026BDF861
:1068C4000C20C2F38312B300964203F10803BCD236
:1068D40002994A1C21400331029205EB81010422F2
:1068E400384602F01EFC0136E9E7384602F00AFC9D
:1068F400FFF72AFF80F00100C6B2B1E7E3685B79D5
:1069040023B1236839461B6820469847E3681C680E
:10691400002CF3D1384602F0F5FB0DF107008DF899
:10692400074000F029FED5F818340BB9029B6B60C0
:106934009DF8070000F044FEDAE7D5F8104454B996
:106944000C4B0D480D49C01AC008000440F0020069
:1069540000F06EF8CCE7236820469B689847E3680C
:106964001C68ECE700267BE7AC2300204C260300E0
:10697400B823002060260300882603008027030034
:106984002DE9F74F284C80460F46924601A9012273
:1069940018469B46D4F80890FFF7EAFD80B3019DA2
:1069A4000026A91C5E4506EB010233D100211F48D5
:1069B40001F0ECFD80F310006A1C02EA090204EB0A
:1069C4008202000405EA0903033340EA1840D06058
:1069D40014F8232068F3C50204F8232034F8232094
:1069E40066F3891224F8232054F8232067F39F22A6
:1069F40044F8232002F0F80242F0010204F82320B4
:106A040094F820341BB1FFF7A9FE0028FBD103B092
:106A1400BDE8F08F09EA020204EB82025AF826303C
:106A2400D3600136BEE700BFAC230020C827002096
:106A340000231A46FFF7A4BF07B50123019201AA58
:106A4400FFF79EFF03B05DF804FB07B5CDE9002313
:106A540002236A46FFF794FF03B05DF804FB1FB5F9
:106A6400CDE90123069B039301AA0323FFF788FFC3
:106A740005B05DF804FB1FB5CDE90023069B029326
:106A8400079B03936A460423FFF77AFF05B05DF87A
:106A940004FB000030B50F49D1F81024002314463C
:106AA4003CB9C468237152B9C1F810042260184675
:106AB40030BDE46825799D4206D02468F0E7D268A9
:106AC400116821601060F2E701330A2BE7D14FF01F
:106AD400FF33ECE7AC230020094A38B50123D2F890
:106AE400104482F820341D4604B938BDE3685D7152
:106AF400236820465B689847E3681C68F4E700BF96
:106B0400AC230020037A052B10B50C460FD0437A32
:106B140023B1084A0849204601F0F8FD07492046F8
:106B240001F0F4FD2046BDE8104001F0E4BD002A68
:106B3400F8D0F3E7CB270300DB370300ED2703008E
:106B4400C38873B504460D4633B1144A0092144900
:106B5400144A284601F0DAFD217A05291CD0637A0B
:106B64004BB1A088FFF7DAFD0F4B104953F82020F2
:106B7400284601F0CBFD227A0D4BA08853F8226001
:106B84000021FFF7AFFD0B4903463246284602B009
:106B9400BDE8704001F0BABD02B070BDCB27030060
:106BA400D8270300D027030098270300DB3703000E
:106BB400FC270300F02703002DE9F04385B01F46AE
:106BC4000C9D002306460C46904695F80C902B73BA
:106BD40029463846FFF7B4FFB8F1060F09D8DFE8B5
:106BE40008F00412181F283340003146284601F0EB
:106BF4008DFD002229463846FFF784FF85F80C9066
:106C040005B0BDE8F08322683146284601F07EFDD8
:106C1400EFE7D4E900233146284601F077FDE8E7A1
:106C2400A36800933146D4E90023284601F06EFDA1
:106C3400DFE7E3680193A36800933146D4E90023B6
:106C4400284601F063FDD4E723690293E3680193C6
:106C5400A36800933146D4E90023284601F056FD89
:106C6400C7E76369039323690293E3680193A36805
:106C740000933146D4E90023284601F047FDB8E7E4
:106C840008292DE9F84F80460E4617461C463AD887
:106C9400002593F80C901D7319461046FFF750FF1A
:106CA400DFF884A0DFF884B0AE422ED918F80520AE
:106CB4005946204601F02AFD0135082DF4D1184922
:106CC400DFF86CB0204601F021FD4FF0000A564574
:106CD40020D918F80A507E2D03D828460AF09CFAC9
:106CE40000B92E252A465946204601F00FFD0AF127
:106CF400010ABAF1080FEAD1012221463846FFF70A
:106D040001FF84F80C90BDE8F88F5146204601F04D
:106D1400FDFCD1E70349204601F0F8FCE7E700BF9A
:106D2400C6270300C4270300C2270300BC270300AF
:106D3400C82703002DE9F04F394E87B04FF0000902
:106D4400384B1B785FFA89F5AB4202D807B0BDE82F
:106D5400F08F354BD3F800A01AF835000124D6E99A
:106D6400001EA0F12002C0F1200304FA02F224FA6A
:106D740003F3134304FA00FC009301EA0C030293A7
:106D8400009B0EEA03030393DDE9022313430AEB9A
:106D9400C50B41D0009B21EA0C012EEA0303C6E98E
:106DA400001302F00BFE1AF835502049A5F1200219
:106DB400C5F1200304FA02F224FA03F31343D1E9E0
:106DC40000C2AC40134004EA0C0105930024C3B292
:106DD400CDE90034009A0491C5F12003A5F1200106
:106DE40022FA03F302FA01F848EA03081346AB4017
:106DF4001F46DDE90434444508BFBB420CD1DBF82F
:106E040004304BB19BF801104A1E51425141081AFB
:106E1400414241412846984709F1010990E700BFE2
:106E24009828002068280020A0280020902800200E
:106E34002DE9F0418046204800F08EFBD0BB0125AF
:106E4400A8F12004C8F1200325FA03F305FA04F499
:106E54001C431A4BD3E9001205FA08F501EA0506AA
:106E640002EA040756EA07001E461DD1404602F016
:106E7400A5FD134BD3E9001288B129432243C3E98A
:106E84000012D6E900231C430E4B0B481968154326
:106E9400C6E900540022BDE8F04100F017BB21EA26
:106EA400050122EA0402EAE721EA050522EA0404CC
:106EB400C3E90054BDE8F081702800209828002020
:106EC400902800206C280020042A2DE9F34105466F
:106ED4000C4616463AD902F0A1FCD8B11C4B1D4908
:106EE4001D601D4BDFF884801C701C4B00221E604B
:106EF4000023C1E900231A49C1E90023013CE4B29B
:106F040000260327FF2C0CD1164A1748002100F055
:106F1400CBFA03E002F04AFC0028DFD002B0BDE85F
:106F2400F08123B205EBC30201A992788DF8052004
:106F340015F833008DF8066042468DF8047002F0AF
:106F440077FC013CE4B20028DCD0E7E70720E5E762
:106F5400A028002090280020682800206C28002009
:106F640098280020396D02005C280300356E020069
:106F740070B5084D084E00242B789C4201D30020A4
:106F840070BD3368012113F8340002F0CDFC0134E4
:106F9400F2E700BF68280020A02800201FB50021C8
:106FA400039001AA44F20100CDE9011100F004F8B4
:106FB40005B05DF804FB000010B572B6FFF78CFD58
:106FC400FFF7CCFB0028FBD1104B114C1149E41AFC
:106FD400E408240444F00100FFF72AFD0E4B1B686B
:106FE400DB0700D500BE0D4944F00200FFF720FD89
:106FF400BFF34F8F0A490B4BCA6802F4E062134394
:10700400CB60BFF34F8F00BFFDE700BF60260300D6
:107014008826030060280300F0ED00E06C280300DC
:1070240000ED00E00400FA05094A53789178013331
:10703400DBB2994208BF0023117899421FBF037045
:107044005078182303FB002014BF0430002070473D
:10705400A428002073B5054600240DF107000E4650
:107064008DF8074000F088FA0DF10600FFF7DCFF09
:1070740090B10670094B9DF8062045605A709DF842
:10708400070000F09DFA24B9054B4FF48012C3F8B1
:107094000021204602B070BD0424F0E7A42800209B
:1070A40000E100E0024B4FF43C6043F00103184759
:1070B4008028030038B50C4B0C4C4FF40032C3F855
:1070C400802001254FF48033C4F84833C4F80833D2
:1070D4006560FFF7E7FF064BA56000241C60FFF71F
:1070E400E1FF044B1C7038BD00E100E000100140DA
:1070F400C0290020B1290020F8B51F4B1F491B6887
:107104000025C1F84051C1F84451C1F84851C1F8B3
:107114004C51C1F80051C1F804514BB3D1F80445A6
:1071240017490968641A24F07F442F461A68A2425A
:1071340009D8A41A15441A7CDE691AB11F74D3E95C
:1071440005209047AEB90F4A0F4B11781B788B423C
:1071540005D10133DBB2022B08BF00231370127870
:107164000A4B43F822500A4B4FF48012C3F8002113
:10717400F8BD3346DAE700BFC429002000100140FF
:10718400C0290020BD290020BC290020B4290020EA
:1071940000E100E02DE9F04FA04AA14913780978F5
:1071A400A04D994285B03CD00133DBB2022B08BF1D
:1071B400002313709C4912789C4B0F6853F82200EB
:1071C4003B1823F07F4300220B602B6816461446BD
:1071D400944613B942B12B6006E0196881420ED976
:1071E40002B12B60091A19604FF001082B68DFF80F
:1071F40044A201930027BEB9DFF840B266E0401A0A
:107204000C44D968C3F800C0D3F81CE031B13A1972
:1072140022F07F42C3E90121DE611E46012273464A
:10722400D7E70026B046E1E73446F6697E4A63684C
:107234001268DFF80CC2A068991A21F07F416145F9
:1072440000F2A58001442160012222742A680023EF
:10725400C4E90133E361002A40F0A2802C60CAE74C
:107264005A1C9BF80210D2B291428BF8002004BF42
:1072740000228BF80020182202FB03B31A799C68C1
:10728400022A1CD0032A12D0012A1FD1207CE8B97B
:10729400D3E90312A2605A69E2609A69644BA2615D
:1072A4001B78002B0CBF0B4603466360BEE700222D
:1072B4002B681146002B66D142B12B6006E0296889
:1072C4000A468946002A59D1002323749BF80030CA
:1072D4009BF801209A42C3D12B682FB9019A9A4294
:1072E40002D1B8F1000F43D0002B73D0D3F800A023
:1072F400504D4D4BD5F804751C68DFF848813E1B92
:1073040098F8003026F07F4603369BB94FF480335B
:10731400C5F84433C5F80433474B4FF400324FF0FB
:107324000109C3F880211A60C5F80090FFF7BAFE7E
:1073340088F80090B2452CBF5444A41924F07F442B
:10734400C5F84045D5F80435DB1B23F07F43E41B27
:10735400033324F07F44A3420AD9D5F80435C5F891
:107364004035FFF79FFE344B4FF40032C3F8002141
:107374002F4B00221A7005B0BDE8F08F94422CD038
:107384009146D2699EE719740122DB6992E7D31A08
:1073940023F07F43834234BFC31A0023236053E79F
:1073A40021681368994213D8591A1160E26155E7AC
:1073B400091AD8691A4638B1034618688842F7D3BF
:1073C400401A1860184613462160E061DC6112E738
:1073D4001346F2E7FFF76EFECAE74C4511D1CB69BD
:1073E4002B6073B9DFF840E00120CDE90212CAF83E
:1073F4000800CEF800300E4B1870FFF753FEDDE99D
:1074040002121368D269C9F81C2012B1106803442F
:1074140013602B68994218BF012755E7BC29002047
:10742400BD290020C4290020C0290020B42900203F
:10743400B02900200010014000E100E0A428002051
:10744400FEFF7F00B129002008B5FFF733FE104B83
:1074540000200B2218809A700E4B18600E4B187087
:107464000E4B18700E4B4FF48012C021C3F88021CC
:1074740083F814131A6002F18042A2F56F22C2F855
:10748400080583F81113074BD2F804251A6008BDC8
:10749400A4280020C4290020BC290020BD290020E4
:1074A40000E100E0C0290020074B9B784BB132B1CA
:1074B40028B10368187C20B959745A6170470720B1
:1074C40070470820704700BFA42800202DE9F74327
:1074D4001E4FBB7805460E469046A3B398B30429C5
:1074E4002FD943697BB3437C0024012B0DF10700A2
:1074F4000CBF8946A1468DF8074000F03DF80DF118
:107504000600FFF791FDD0B101230370104B4560D5
:10751400D3F80435C0E90498C0E902369DF8063072
:107524007B709DF8070000F04BF824B9094B4FF429
:107534008012C3F80021204603B0BDE8F083042480
:10754400EFE70724F7E70824F5E700BFA4280020A5
:107554000010014000E100E0064A92783AB130B1EF
:10756400426922B1002202740221FFF773BD082090
:10757400704700BFA428002070B5EFF3108672B6E0
:107584000C4A946801239CB993600B4B0B4DD3F8C0
:10759400801029401160C3F88050D3F884105160E2
:1075A4004FF0FF32C3F88420047006B962B670BD90
:1075B4000370FAE7C829002000E100E0FC06FFBDE3
:1075C400084B9A6810B55AB150B9EFF3108172B6EE
:1075D400054A1C6814605C685460986001B962B61E
:1075E40010BD00BFC829002000E100E070B5064DC1
:1075F4000646002455F8043B0BB130469847013445
:10760400042CF7D170BD00BFE0290020033080B204
:1076140040F2FD33984230B51FD8124B1A783AB96C
:107624001C895D892C440444A4B2B4F5806F0AD348
:107634001A7DA2B99A8BDC8B2244024492B2B2F531
:10764400806F0CD201220A801446142202FB0433F8
:107654005A8910445881002030BD0920FCE70720D6
:10766400FAE700BF142A00200B4A0C4B518814205F
:1076740000FB0131CB6833B9042049681070012242
:10768400074801F0BFBA05230649137002238B8013
:10769400012200230968F3E7F8290020142A0020B6
:1076A40020220020DC2A002007B50023054900938E
:1076B400054A09680548082301F00EFA03B05DF88D
:1076C40004FB00BFDC2A00209428030020220020B1
:1076D40007B50023009301460823034A034801F039
:1076E400FBF903B05DF804FB8C2803002022002082
:1076F40013B500230C46009301460423074A0848A7
:1077040001F0EAF938B9074B142202FB04340123CF
:10771400237402B010BD0E20FBE700BF88280300CD
:1077240020220020142A002037B50A480A4B426858
:107734009C88196853880325033305709BB2002085
:1077440000909B0001EB8401044801F0C5F903B0EB
:1077540030BD00BFF8290020DC2A002020220020B0
:1077640010B50146044800F045FE1C2204460021E1
:1077740009F0F8FD204610BDC82A002068B102684F
:10778400084B9A4209D14068074B984207D001330D
:1077940098420CBF0120032070470320704700204B
:1077A400704700BFDEC0ADDEFE011EF14388033327
:1077B40000EB8303994209D382884FF6FF739A4200
:1077C40006D00088B0FA80F0400970470220704764
:1077D400012070472DE9F8430223DFF860800B8015
:1077E4000D46174600F5805600F108044FF00109D4
:1077F400B4420FD2236801330CD031462046FFF740
:10780400D5FF48B10FB187F8009002280BD14FF48F
:1078140080632B80BDE8F883A368D8F800209342E6
:1078240001D9C8F800302B886288033313442B80B5
:107834006388033304EB8304DAE700BF0C2A0020D7
:10784400154A142303FB002070B50B6844680D46E9
:1078540004F58056ABB15C88033403EB8404B44272
:107864000DD2236801330AD031462046FFF79EFF2C
:1078740001280BD010F0FF0F05D00228EFD1002013
:1078840003E00834EBE72C60012070BD6388033308
:1078940004EB8304E3E700BF142A0020436873B5B4
:1078A40004460D466BB3244AD1688B4229D312692E
:1078B400934226D813F0030223D120490089098971
:1078C40088421ED12068996888421AD11C494868A8
:1078D400834203D900F5805083420ED38A699342D0
:1078E4000DD902F58052934209D201232B80002046
:1078F400B0FA80F0400902B070BD1346F6E70A20E2
:10790400F6E700232B801E46019601A92888FFF77D
:1079140097FF30B92B8801339BB2012B2B80F3D90D
:10792400E9E7019B226899689142EED16360034BB9
:107934001B892381DFE700BF20220020F8290020D3
:10794400142A00202DE9F8431C461C4B1B780646DC
:107954000F4615466BB372B36CB3DFF868804FF013
:107964001409A388012B01D90A2020E009FB03F3A1
:1079740018F803302BB92146A088FFF761FF20B91E
:107984002060A3880133A380EBE723681EB19988A4
:1079940032889142EFD11FB119883A889142EAD1D5
:1079A4009A68C5E90023064B1B892B810020BDE89A
:1079B400F8830220FBE70520F9E700BFF029002047
:1079C400F8290020142A002008B5074B191D5888EF
:1079D400FFF736FF18B1BDE80840FFF7A5BEBDE8C4
:1079E4000840FFF741BE00BFF82900202DE9F04F01
:1079F400A04FDFF8A49289B00646B8463B6823B985
:107A040049469D4800F030FD3860D8F80050297888
:107A14004B1E052B00F2FA80DFE813F006005E002F
:107A24005E00EE00EE005C0126B1944B00225A6029
:107A34000124ECE02B79032B1DD8DFE803F01502B9
:107A44002A358F490B78022B084619D00B7D022B5F
:107A54004FF0010316D114225343C2180020C85416
:107A64005068FFF735FE03E001232B71FFF71CFE7E
:107A7400002800F0BC80814B00225A600E24C6E02E
:107A84000023E8E77D4A13700023536041F61D5438
:107A9400BDE07C497C48002302222B718A800122AC
:107AA400096801F0AFF8E3E7764C00262E712068F0
:107AB400734DFFF70DFE754BD4F800C05A8814239C
:107AC4005343EA18EE5451682160A188C2F804C0F7
:107AD40011810222A280CBE7B5F814A0AA7DDFF8B9
:107AE400A0B1AEB1022AEB8806D9142101FB0AB178
:107AF400DA1C088902440A81142202FB0ABAC3F57B
:107B04007F43BAF80A20FD331344AAF80A308FE7FA
:107B1400142303FB0AB318895C6804EB8004062A67
:107B240068D8DFE802F0274D35431D59040041F6BB
:107B34001D54AA7DEB88022A06D9142101FB0AB13F
:107B4400DA1C088902440A81142202FB0ABAC3F52A
:107B54007F43BAF80A20FD331344AAF80A3056E0EA
:107B64004B484C4900234360AB690360FFF796FE22
:107B7400002871D00223AB75002300930423EA1874
:107B84002146414800F0A8FF002830D00E24D0E759
:107B94002B69002B14BF03230123AB75002300932F
:107BA40005F10C02042304F10801EAE70123AB7593
:107BB4000022EB8800929B002A6904F10C01E0E7A3
:107BC40003290CBF05230623AB750023009304236C
:107BD40005F10802E118D4E70623AB752D4B19888B
:107BE4002B4B5868FFF784FD04460028A1D109B047
:107BF400BDE8F08F0F249CE7002E7FF419AF2B799A
:107C0400012B4BD0E3B1022B3FF440AF0F241422DD
:107C1400002103A809F0A6FB41F61D539C4208BFAE
:107C24000024D8F8003004941A78023A042A00F2A6
:107C34000581DFE812F0E600F20015011D012401C0
:107C440002232B710DF10A01EB68039303A8CDE91C
:107C54000466FFF723FE08B90A24D8E70498BDF8A0
:107C64000A108388EB8003882B81FFF741FD0446CB
:107C740027E000BF102A0020C82A0020F029002095
:107C8400142A0020DC2A002020220020F8290020C9
:107C9400D4290020E82A0020082A0020DFF8FCA1CB
:107CA40003AA53463146A81DFFF74CFE044658B9B3
:107CB400BAF804100498FFF71BFD04460A2C3FF49D
:107CC400E5AE002CA3D192E708223146504609F0D4
:107CD40049FBF3E7002E7FF4ABAE6B4B1A7BAAB1E2
:107CE4001E731A78013A062A90D801A151F822F09D
:107CF4009B7D0200C17D0200DF7D0200E57D020064
:107D0400117C0200EB7D0200FD7D02001A78072A37
:107D1400E7D801A151F822F03D7D0200E77C020082
:107D2400E77C0200637D0200777D0200977D0200FC
:107D3400977D02005F7D02001A89544901321A813D
:107D440000225A801A730A78B2FA82F252099A729D
:107D54000A7DB2FA82F25209DA72012207E04C4932
:107D640058688A884088033202448A8002221A7042
:107D7400B7E7464C5A884649142505FB0242086871
:107D8400546850608888108102228A800C60062220
:107D9400EDE70722EBE79A7A32B9DA7A8AB9002258
:107DA4001A705A805A6071E6384900229A72CA6879
:107DB400002AF2D1097C0029EFD05A80FFF704FE93
:107DC40055E70022DA72314A116A0029E7D192F8A4
:107DD4002420002AE3D00122EFE7FFF7A5FC46E7C1
:107DE400FFF742FC43E7294A5B88142101FB032384
:107DF4005868FFF76DFC3AE700225A60FFF754FC1D
:107E040035E701228DF80C201A89ADF818209A88DC
:107E1400DB68ADF81A20059310E002228DF80C20DF
:107E24001A89ADF818209A88ADF81A20DA689B7D73
:107E340005929A1F534253418DF81C3003A8FFF753
:107E4400D5FB002649461348C8F8006000F037FB0C
:107E54000121114800F0E6FB00287FF4CFADC6E60F
:107E640003228DF80C20DA88ADF818201A89CFE7A0
:107E74000422DB888DF80C20ADF81830DEE70523EA
:107E84008DF80C30DAE700BFF8290020142A00200E
:107E9400DC2A0020C82A0020D82A0020EC2A00204E
:107EA4004068FFF7A3BD000008B50121044800F0B5
:107EB400A3FB18B9BDE80840FFF798BD08BD00BF93
:107EC400D82A00202DE9F3419846354B1B78064605
:107ED4000D46002B5BD000295BD009884FF6FF7359
:107EE400994258D06B88002B55D06B689B0754D1AE
:107EF4004AB92F890DF102013846FFF787FB30B1EB
:107F040002B0BDE8F08113885788ADF8023001A8AB
:107F1400FFF726FC044658B9BDF80230214A142163
:107F240001FB032358890338C01B58810820E7E765
:107F340000238375BDF8023083826B68036180F887
:107F440000800121184800F062FB2B882381B8F1DE
:107F5400030F6B88A38004BF0423A3754FF00005AF
:107F640008BF3368E06008BFA361E780658101A9A9
:107F74000E4800F069FA36B1E36833600C4B756063
:107F84001B89B5723381FFF78FFF0020B8E7022009
:107F9400B6E70520B4E70420B2E70320B0E700BF4A
:107FA400F0290020142A00200C2A0020C82A0020CE
:107FB400F829002008B5084B1A68042A09D0196862
:107FC400064A42F821000121184600F020FB002057
:107FD40008BD0C20FCE700BFE42A0020E0290020B3
:107FE4002DE9F04F14228BB000210DEB020009F0B3
:107FF400B9F9764A137803F0FF01CDE901123BB1D8
:1080040005A8FFF7F3FA002738460BB0BDE8F08F58
:10801400029B181D00F011FB0028F4D140F6F87300
:108024004FF080521B685C1C08BF694B694C08BF49
:108034001B6811695269581C08BF02FB01F32361D4
:108044000022A3F540536449E360204600F010FD8C
:10805400039407460028D7D11C238C225F4960482B
:10806400DFF88891DFF8888100F08FF93D46BA4641
:108074004FF0030B3C46039BDE68564430463146C2
:10808400FFF77CFB01284DD042B2002A36D00328EA
:1080940022D106F580520868013040F08A8004310C
:1080A4008A42F8D1D9F800203AB902220123C9F84A
:1080B4000060A9F8042001930CE01422624302201A
:1080C40008EB020108F80200464A4E60548001346D
:1080D4000881A4B245F001050AF5805ABAF5405F5B
:1080E400C9D1BBF1010F98BF0025EDB2022D03D019
:1080F400062D35D0002D3CD10B2785E71421614393
:1081040008EB010008F8012001F110020831466073
:10811400424441443046FFF75DFB45F0020501341B
:10812400A4B2D9E7019B63B11422624308EB0201B4
:10813400022008F802000134D9F800204A600881BE
:10814400A4B200222849C9F800603046FFF742FB78
:10815400B9F80420022A0CBF042208221543BBE705
:10816400029A0123137005A800235360FFF73EFA17
:108174004AE704A8FFF7F4FAC8B10123013D0370EC
:108184000A2D09D8DFE805F00608060807080708DD
:108194000F110F000023037104A9114800F054F9D2
:1081A400FFF782FE30E70323F5E70223F3E708270E
:1081B4002AE70BF1FF321FFA82FB1422624308EB19
:1081C40002014E60032108F80210A8E7F0290020FC
:1081D4001410001020220020882A03003C2A0020CA
:1081E400C82A0020F8290020E02A0020DC2A0020E8
:1081F400142A002073B50D460446C8B1C1B10DF16F
:108204000601FFF74BFBA8B10B4BBDF806006668EF
:10821400142202FB003001210C3000F0F8F96368ED
:108224002E600C336B600123A372002002B070BD7A
:108234000520FBE70A20F9E7142A002013B50446B9
:10824400A8B10DF10601FFF729FB90B10B4ABDF867
:108254000630142101FB0323DA6862B1A27A52B119
:10826400DA680020013ADA60A07202B010BD05207D
:10827400FBE70A20F9E70620F7E700BF142A0020ED
:1082840002230022FFF71EBE18B103230022FFF7CA
:1082940019BE052070470000104B1B7813B5044627
:1082A400ABB14FF6FF73984213D001A8FFF758FA09
:1082B40088B10523037001230371C48001A9084810
:1082C40000F0C2F8FFF7F0FD002002B010BD02205C
:1082D400FBE70420F9E70820F7E700BFF0290020B6
:1082E400C82A00200E4B1B7807B5A3B101A8FFF7DD
:1082F40037FA90B10623037001A90A4800F0A4F8E4
:10830400094B1A780AB101221A73FFF7CDFD002038
:1083140003B05DF804FB0220FAE70820F8E700BF89
:10832400F0290020C82A0020F829002007B5ADF85C
:108334000600ADF804100DF1060001A9FFF702FBD9
:1083440003B05DF804FB07B51346ADF806000A4612
:1083540000200DF10601FFF7F5FA03B05DF804FB08
:1083640007B51346ADF806000A460DF106000021D4
:10837400FFF7E8FA03B05DF804FB20B119B1036814
:108384000B60002070470520704710B561B1B2FB47
:10839400F3F403FB1424A4B244B9C0E900148460C8
:1083A4008281C381204610BD0E20FCE70920FAE734
:1083B40082B050E8022FC188B2EB324F4FF0000375
:1083C40017BF92B241EA014142EA014104E0426826
:1083D400B2EB324F08BF012340E80212002AE8D171
:1083E4008DF807309DF80730002B0CBF11200020BA
:1083F40002B0704737B550E8013F9DB2C4892544A7
:108404008489A54228BF2D1B0489A54202BFBFF35E
:108414002F8F002207E0C5EA030540E80154002C31
:10842400E9D14FF001028DF803200193019B9DF8DF
:1084340003200B6002F0FF0322B10B88006818448C
:1084440003B030BD1846FBE70A884B889A4209D12D
:1084540050E8012FC2EA024240E80123002BF7D181
:10846400012070470020704737B550E8023F1FFADB
:10847400A3F5C488A54202BFBFF32F8F00220DE0ED
:10848400C48925448489A54228BF2D1BC3EA054518
:1084940040E80254002CE8D14FF001028DF803208B
:1084A4000193019B9DF803200B6002F0FF0322B1AE
:1084B4004B880068184403B030BD1846FBE70A88AF
:1084C4004B889A4209D150E8022FC2EA224240E87E
:1084D4000223002BF7D1012070470020704701F0E0
:1084E4001F024B090121914000EB830000F063B8A7
:1084F4004B0910B501F01F040121A14000EB8300DA
:1085040000F04EF8E04000F0010010BD01F01F0340
:1085140001229A404B0900EB8300D14300F061B87B
:108524004B0901F01F0150F82300C84000F001007E
:1085340070472DE9F0474E1E760980460F460136F6
:10854400002558F8254008EB8509E44394FAA4F47F
:10855400B4FA84F44FEA451A202C06D10135AE4210
:10856400EFD83C462046BDE8F0875444A742F5D9ED
:1085740021464046FFF7BCFF0028F3D0D9F800405D
:10858400E44394FAA4F4B4FA84F4E5E750E8002F41
:108594000B4640E8003C9CF0000FF7D110467047B2
:1085A40050E8002F42EA010340E8003C9CF0000F31
:1085B400F6D11046704750E8003F43EA010240E814
:1085C400002C9CF0000FF6D11046704750E8002FA5
:1085D40002EA010340E8003C9CF0000FF6D110468B
:1085E400704750E8003F03EA010240E8002C9CF089
:1085F400000FF6D11046704750E8002F02EB01033C
:1086040040E8003C9CF0000FF6D11046704750E85B
:10861400003F03EB010240E8002C9CF0000FF6D170
:108624001046704750E8003FA3EB010240E8002CDD
:108634009CF0000FF6D1104670470121FFF7B0BF40
:108644000121FFF7B8BF0021FFF7C0BF10B590B1FB
:10865400D0E9012301689B1ADBB20A60013BDBB25B
:10866400FF2B026802D10020107110BD11684C1C50
:1086740014600B70F2E70E20F7E737B505460024C7
:108684000DF107008DF80740FEF776FF2A686B6846
:10869400116899420ED9481E106011F8014CEB681C
:1086A400298A01FB0434AB6811791B1ADBB29942A5
:1086B40038BF13719DF80700FEF782FF204603B010
:1086C40030BD37B5054600230DF107000C468DF883
:1086D4000730FEF751FF2A681368591C1160E968D6
:1086E400641A298AB4FBF1F41C709DF80700FEF7A4
:1086F40067FF03B030BD826810B504462AB14369F0
:108704000168006998470023A36010BD0EB403B547
:10871400039921B104AB01AA019300F06DF802B0F2
:108724005DF804EB03B07047826830B40468551CEC
:108734008560A154D0E901329A4202D330BCFFF7DC
:10874400DABF30BC704700002DE9F84F9946DDE9E7
:108754000A431746824688460A460126BA420FD281
:108764004E4538BF4E4613F0010B01D164B90024C5
:108774000125B9F1010F1AD909F1FF397D43F8E751
:10878400B2FBF7F20136E9E79B070ED5B9F1000F0A
:108794000CBF30252025A642EAD2013C294650468A
:1087A400FFF7C2FF002CF6D1E1E72025F3E7B8FB81
:1087B400F5F39F42E2D9DFF83C90B8FBF5F350465D
:1087C40019F8031005FB1388FFF7AEFFB5FBF7F3A9
:1087D400BD4207D2BBF1000F02D00CB1A64203D3B5
:1087E400BDE8F88F1D46E8E720215046013CFFF71D
:1087F4009BFFF2E79C2803002DE9F74F0546174637
:108804008846002900F0318118F8011B49B92B7BF7
:10881400002B00F02A81284603B0BDE8F04FFFF793
:108824006ABF252940F0C080002698F800302D2B1F
:10883400424608F1010823D0302B24D02B2B25D01D
:1088440000242A2B02F1010123D13B681A1D1B6865
:108854003A601C440A4613782E2B26D101324FF07D
:10886400000A104610F8011BA1F1300CBCF1090FED
:108874001DD80A2303FB0A13A3F1300A0246F0E7CA
:1088840046F00106D1E746F00206CEE746F00406BC
:10889400CBE711F8013CA3F130000928DBD80A2208
:1088A40002FB0434303C0A46CBE74FF0000A12F8CE
:1088B400011B01F0FB0068289046F8D069290ED00E
:1088C4004AD8582964D006D825296DD098F80030A4
:1088D400002B99D19BE7632962D06429F6D13A68C9
:1088E400D2F80090111D89EAE9723960A2EBE972AD
:1088F4004FF0010B092A5BDCD34538BFD3462CB1BA
:10890400B9F1000F01DB710700D5013CB20702D5B4
:10891400BAF1000F04D0F30702D4002C4ED1002486
:10892400B9F1000F52DAC9F100092D212846FFF7E9
:10893400FBFE06F00302022A05D1BAF1000F02D1B0
:10894400002C47D10024CDE9004653460A2249466B
:108954002846FFF7F9FEB9E773294CD014D87029DB
:10896400B4D13B681A1D3A60302128461C68FFF7D1
:10897400DBFE78212846FFF7D7FE00220823CDE945
:10898400003221461022E3E775292BD078299DD1A6
:1089940039680A1D3A60CDE900465346102228E0A2
:1089A4003B681A1D19783A602846FFF7BDFE8DE72B
:1089B4000A230BF1010BB2FBF3F29BE7A345AFD201
:1089C40020212846013CFFF7AFFEA6E77007B0D58B
:1089D4002B21ABE7A345B6D230212846013CFFF753
:1089E400A3FEADE73968CDE900460A1D3A60534657
:1089F4000A220968ACE73B681A1D3A60F107D3F80C
:108A0400009020D4B9F1000F25D0484608F0FFFCAF
:108A14000646B44200D9C4B909F1FF3920E028461A
:108A24000136FFF781FE19F806100029F7D1A64296
:108A3400BFF44CAF002C3FF449AF20212846013C41
:108A4400FFF772FEF3E70026EDE720212846013CFC
:108A5400FFF76AFEDDE74E46DBE72846FFF764FED4
:108A640019F8011F0029F8D130E703B0BDE8F08FF1
:108A740007B50B4688B9124B1248134AC01A0E2385
:108A8400C0080093114B0004114940F00100FDF7A8
:108A9400E6FF0E2003B05DF804FB4BB9084B094810
:108AA4000C4AC01AC0080E2300930004074BEBE7DE
:108AB40003601B68114603B05DF804EB184700BF60
:108AC40060260300A826030059290300AC280300EC
:108AD4005E290300D52903002DE9F34188B93D4BF4
:108AE4003D483E4AC01AC0080E243D4B0094000481
:108AF4003C4940F00100FDF7B2FF204602B0BDE85A
:108B0400F0814AB9334B3448374AC01AC0080E249E
:108B140000040094324BEBE7D0F800C0BCF1000F26
:108B240009D12C4B2C48314AC01AC008082400042F
:108B340000942B4BDCE74BB9264B27482C4AC01A30
:108B4400C008092400040094254BD1E74768D7F8EE
:108B54000480B3FBF8F708FB17374FB11D4B1E48D1
:108B6400244AC01AC0080924000400941C4BBFE71F
:108B74008F0709D0174B18481F4AC01AC008102481
:108B840000040094164BB3E712F0030F09D0114B05
:108B940011481A4AC01AC008102400040094104B4B
:108BA400A6E7C768B9420BD34C1E05691C44AC4206
:108BB40006D8DCF80C40A44602B0BDE8F04160479A
:108BC400044B05480E4AC01AC0081024000400943F
:108BD400034B8DE760260300A826030059290300F0
:108BE400BE2803005E290300DB290300CF2903000C
:108BF4008E290300E12903000B2A0300232A030022
:108C0400462A0300F7B580B92A4B2B482B4AC01AD1
:108C1400C0080E242A4B009400042A4940F00100A5
:108C2400FDF71DFF204603B0F0BDD0F800C0BCF135
:108C3400000F09D11F4B2048234AC01AC00808243A
:108C4400000400941E4BE8E74AB91A4B1A481F4A1D
:108C5400C01AC008092400040094194BDDE74768D2
:108C6400D7F800E00EF1FF370F4209D0114B12483C
:108C7400174AC01AC008102400040094104BCCE713
:108C8400C768B9420CD34C1E05690EFB0244AC42C2
:108C940006D8DCF81040A44603B0BDE8F0406047B5
:108CA400044B05480B4AC01AC00810240004009461
:108CB400034BB2E760260300A826030059290300EA
:108CC400D12803005E290300CF2903008E29030065
:108CD400E42803000A29030029DF704728DF7047CE
:108CE40070B503689D6886B004460E466DB11422C3
:108CF4000021684608F036FBA368059323790196A2
:108D04002BB1012B0DD06846A84706B070BD0123D6
:108D14008DF8003023690293E36803936369049335
:108D2400F1E702238DF80030E3681B030293F5E7B3
:108D34000846704700207047024B187A003018BF6D
:108D440001207047902B0020034B187A0122B0FABF
:108D540080F05A7440097047902B002008B51046E3
:108D64001A4608F0D6FA002008BD000008B51422FF
:108D74000021044808F0F6FA0348FFF719FB002025
:108D840008BD00BF902B0020802B002010B5094C9B
:108D9400094B43602046FFF750FC40B906F096FBB0
:108DA4001C2320748C2205490548FFF7EEFA0020A5
:108DB40010BD00BF902B00207C2A0300F42A002061
:108DC400802B002070B5244D244E2B7A2C463BB9C1
:108DD40023492448FFF748FB306008B9686070BD38
:108DE4000223237233681A7972B1012A24D01846F7
:108DF4000321FFF775FF00232372636018491948A4
:108E0400BDE87040FFF75BBBD3E90520121AB2F549
:108E1400805F28BF4FF48052D3E903159208012ADA
:108E2400014438BF01222844FFF756FF50B11128EE
:108E3400DDD101232372D2E7D3E903021044FFF703
:108E44004DFFF3E7237C002BC9D10146BDE87040F8
:108E5400022000F009B800BF902B0020A82B0020AE
:108E6400A42B0020802B002038B5831E012B45D86D
:108E7400234C237A002B41D0022B09D1032830D074
:108E8400204B1B680022E2601A793AB1012A22D0F1
:108E9400637C7BBBBDE83840FFF794BFD3E9051280
:108EA4008D1AB5F5805F94BF521902F580529A610C
:108EB4009142EDD102284FF0000308BF19462372F6
:108EC400104B18BF0D211868FFF70AFF0E490F4811
:108ED400FFF7F5FADCE71A6901321A615B699A4215
:108EE400E7E7E3680133082B01D8E360D0E7002308
:108EF400E360DFE7BDE8384006F0D8BA38BD00BF0C
:108F0400902B0020A82B0020A42B0020802B0020D5
:108F140000F0FD03012B08D1044B00225A74421EB9
:108F2400504250411874FFF74DBF7047902B0020FA
:108F340010B5064C201DFFF780FB28B9637C1BB9D4
:108F4400BDE81040FFF73EBF10BD00BF902B0020CE
:108F54002DE9F34180460D460F4801A916461F46E8
:108F6400FFF748FA0446A8B11C22002108F0FAF9D8
:108F74002D0B0123237101A9C4F80080A760E560CB
:108F840066610548FFF760FAFFF7D2FF002002B0E0
:108F9400BDE8F0810420FAE7802B00202DE9F74397
:108FA40081468846104801A917461E46FFF722FA53
:108FB4000446B0B11C22002108F0D4F900250A9B14
:108FC400A36001A92571C4F80090C4E9037866611F
:108FD4000548FFF739FAFFF7ABFF284603B0BDE8B1
:108FE400F0830420FAE700BF802B00202DE9F0472E
:108FF400B0F806904479D2F800A09DF8208009FBCF
:1090040004F4043C06460AEB0300A0420F4688BF62
:10901400A4EB030A191DC2F800A0B1FBF9F509FB82
:1090240015114DB9A9EB0104544528BF5446BAF1B2
:10903400000F04D1BDE8F0873668013DF1E7043143
:109044007B1970182246B8F1000F0ED0014618465D
:10905400AAEB040A08F05DF9D145254436684C466C
:109064004FF0000128BF5446E1E71946F0E7FFF747
:10907400EDBAF8B546790146721E054600239342BF
:109084002D6803D30024A64202D8F8BD0133F6E7C5
:109094000F682846FFF715FB01343946F3E72DE93D
:1090A400F843068ACD1C0746FFF7E7FA043E354429
:1090B4000446B5FBF6F5F0B14FF48073EDB283804E
:1090C400C680013D076081464FF00008A84512D2D2
:1090D4003846FFF7D2FA064648B163790133637123
:1090E40008F10108C9F8000007608146EEE7204650
:1090F400FFF7BFFF34462046BDE8F8830121043062
:10910400FFF785BA10B5012104460430FFF78AFA47
:1091140010F0FF0F04D12046BDE81040FFF7A9BFAF
:1091240010BD1FB503920022009203AAFFF75EFF51
:1091340005B05DF804FB1FB503920122009203AA57
:10914400FFF754FF05B05DF804FB0000064B10B5B3
:1091540000241C70054B1C60BFF35F8F0449054855
:1091640000F013F8204610BDB42B0020B82B0020CB
:10917400A82A0300AC2B0020836800225A609A605E
:10918400C3E90422DA601A6070470B684A684360D6
:10919400934208BF0023016008BF436070474368DF
:1091A40043B10268916852680B449342436004BF20
:1091B400002343607047000010B50D49A1F5947277
:1091C400914201D800200FE08B1ADB1003EBD3731C
:1091D4005B1002EBC30452F83330834205D802D249
:1091E40004F10802ECE7606810BD2146E8E700BF1F
:1091F400F82B030008B5FFF7DFFF024B002808BF78
:10920400184608BDBD2A0300054B1B68082B01BF87
:10921400044B1868B0FA80F0400918BF002070476A
:10922400300100103401001008B54FF080430022D3
:10923400C3F80C21C3F81021C3F838254FF080522D
:1092440003F54043D2F80414C3F82015D2F80814E7
:10925400C3F82415D2F80C14C3F82815D2F8101446
:10926400C3F82C15D2F81414C3F83015D2F8181416
:10927400C3F83415D2F81C14C3F84015D2F82014DE
:10928400C3F84415D2F82414C3F84815D2F82814A6
:10929400C3F84C15D2F82C14C3F85015D2F8301476
:1092A400C3F85415D2F83414C3F86015D2F838143E
:1092B400C3F86415D2F83C14C3F86815D2F8401406
:1092C400C3F86C15D2F84424C3F87025FFF79CFF4B
:1092D40010B1384B384A1A60FFF796FF18B1374B74
:1092E400FB22C3F81825FFF78FFF48B13449354BEB
:1092F4000A681B6822F00F0203F00F0313430B608C
:10930400FFF782FF18B1304B4FF400721A604FF030
:109314008043D3F80024D20744BF6FF00102C3F89E
:1093240000242A4AD2F8883043F47003C2F8883003
:10933400BFF34F8FBFF36F8F4FF01023D3F800228A
:10934400002A03DBD3F80432002B2FDA204B01224E
:10935400C3F80425D3F80024002AFBD04FF01022D0
:109364001221C2F80012D3F80024002AFBD04FF0D7
:1093740010231222C3F80422154B1A46D3F8001402
:109384000029FBD00021C3F80415D2F80034002BC7
:10939400FBD0BFF34F8F0D490E4BCA6802F4E06255
:1093A4001343CB60BFF34F8F00BFFDE70A4B0B4A5B
:1093B4001A6008BD8C5600404881030000F000404C
:1093C400E40E0040580200104096024000ED00E018
:1093D40000E001400400FA053C2200200090D00384
:1093E400074B1B5C1F2B8ABF064A4FF0A04203F0B9
:1093F4001F03D2F80405D840C04300F001007047B1
:10940400B62F030000030050074B1B5C1F2B86BFC5
:1094140003F01F0305494FF0A041012202FA03F3B0
:10942400C1F80C35704700BFB62F0300000300508D
:10943400074B1B5C1F2B86BF03F01F0305494FF02E
:10944400A041012202FA03F3C1F80835704700BFB6
:10945400B62F03000003005008B50020FFF7E8FF13
:109464000120FFF7E5FF0220FFF7E2FF0320BDE83C
:109474000840FFF7DDBF08B50020FFF7C5FF012056
:10948400FFF7C2FF0220FFF7BFFF0320BDE808403B
:10949400FFF7BABF0A4B185C1F288ABF094B4FF06D
:1094A400A04300F01F00D3F804250121814021EAE4
:1094B40002000A40C3F80805C3F80C25704700BF32
:1094C400B62F030000030050074B1B5C1F2B8ABF01
:1094D400064A4FF0A04203F01F03D2F81005D8400B
:1094E400C04300F001007047B22F03000003005096
:1094F4000B2809D00C2809D0182809D019280CBF2A
:1095040003204FF0FF307047002070470120704760
:1095140002207047014B185C704700BFB22F030054
:10952400C20710B504460CD54FF0A0430322C3F87C
:109534003427C3F83827C3F83C27C3F84027FFF77C
:109544008BFFA3070AD54FF0A0430C22C3F82C27A6
:10955400C3F83027C3F86027C3F8642710BD0000A0
:1095640038B5074C051E04F1080318BF1C462368D0
:109574002BB11A6822605B6828469847F7E738BD24
:10958400C42B002020B9054B01225A70FFF7E8BF15
:10959400012802D1014A9070F8E77047BC2B0020E3
:1095A40020B9034B01225A70FFF7DABF704700BF9E
:1095B400BC2B002038B50B4C237883B90A48636070
:1095C400A3602361E36000F057F8054605F07EFFD1
:1095D40008B900F05DF801232370284638BD8525BD
:1095E400FBE700BFBC2B00208995020037B50B4C6C
:1095F40000230DF107008DF80730FDF7BDFFE36888
:10960400013BE360E56815B900F054F8A5709DF8D6
:109614000700FDF7D5FF03B030BD00BFBC2B002011
:10962400012813B509D018B103281CD002B010BD0D
:109634000F4B0122C3F88020F8E70E4C00230DF1F4
:1096440007008DF80730FDF797FF23780BB9FFF774
:10965400B1FFE3689DF807000133E3600123A370C1
:10966400FDF7AEFFE2E700F013F8FFF7BFFFDDE719
:1096740000E100E0BC2B0020044A137923B9012146
:10968400106091801846704785207047D02B0020C9
:10969400074B1A68D2075FBFC02283F80023012258
:1096A4001A604FF080430122C3F81825704700BFA9
:1096B40000E100E0044B01221A604FF08042D2F82E
:1096C4001834DB03FBD470470C000040154B07B57E
:1096D4001A687AB100221A601B680093009B4FF04D
:1096E40080430122C3F808230F4B587910B95A71EB
:1096F4001B6898470D4B1A6882B100221A601B68D8
:109704000193019B4FF080430222C3F80823064BC8
:109714001B68012003B05DF804EB184703B05DF843
:1097240004FB00BF00010040D02B002004010040D6
:1097340000F1804000F5C040002382B0036003685C
:109744000193019B02B0704703681F2B83BF03F092
:109754001F03036001484FF0A0407047000300500E
:1097640007B5019001A8FFF7EFFF019B00EB830011
:10977400D0F8002722F44032C0F80027D0F8003790
:1097840043EA0143C0F8003703B05DF804FB00006E
:10979400054B4FF0FF32072843F8202084BF1B18E5
:1097A40083F85820704700BFD82B002010B5174C01
:1097B40094F86A3043BB04F130033021FF220139AD
:1097C40011F0FF0103F8012BF9D1C8B2FFF7E0FF54
:1097D40001310C29F9D1062200210D4807F0C2FD00
:1097E4000C4BC02283F8062340221A604FF4BE704B
:1097F400FFF79EFF084B4FF00042C3F804230123F8
:1098040084F86A30002010BD0820FCE7D82B002023
:109814003C2C002000E100E000600040034B93F882
:109824006A00003018BF0120704700BFD82B002009
:10983400F7B53B4E3318054693F93030002B6CDAFC
:109844008B78C3F34003002B0BBF082400240C20A7
:109854000820844202D1042003B0F0BD56F82470DD
:10986400013743D1701946F8242080F8304013B9E9
:10987400331983F858508B785A0717D4D80737D53B
:1098840001A80195FFF760FF019B00EB8300D0F86E
:10989400003723F00203C0F800372248EA0805F035
:1098A40007070123BB40875C3B43835488780A78CD
:1098B40010F0020028D0A40004F1804404F5C04450
:1098C4002D02D4F8103523F44F3323F44073C4F835
:1098D40010351204D4F8103505F47C5502F44032E6
:1098E40015431D43C4F810550020B5E70134B0E713
:1098F40001A84A780195FFF727FF019B03F5E07360
:10990400920040F82320C8E7083C344494F860509F
:1099140045EA821284F860209EE708209CE700BF95
:10992400D82B00203C2C002073B5224C2518064669
:1099340095F93020072A19DD224492F858309B0902
:10994400032B0FD1019001A8FFF7FEFE019AD0F876
:109954001035D340DB0707D402213046FFF700FF60
:1099640002B070BD012BF7D00321F6E7D3B2072B69
:10997400F6D8930003F1804303F5C043D3F81005F0
:1099840040F00100C3F8100502F14000800080B2ED
:10999400FFF7CEFE0029E3D095F9303054F8233098
:1099A400002BDDD0012303FA02F2034BC3F8042396
:1099B400D6E700BFD82B00200060004007B5019017
:1099C40001A8FFF7C1FE019BD0F81005D84000F0B4
:1099D400010003B05DF804FB2DE9F04F002489B0C9
:1099E400CDE90244624D4FF48072012102F18043BB
:1099F40003F5C04390B21B68012B06D1D5F804339C
:109A04000B4202D0FFF794FE0C430432B2F5907F70
:109A14004FEA4101EAD1574B1B68012B0ED14FF499
:109A2400BE70FFF785FE4FF0A04344F00044D3F826
:109A340010350293504BD3F81035039314F0FF0FF5
:109A44001AD04E4F00250126344210D0AB0003F14A
:109A5400804303F5C043D3F81005D3F8101557F825
:109A6400253023B1C1F30141C0F3052098470135E6
:109A7400082D4FEA4606E7D1002C75DA0DF11008DF
:109A840000230493C8F804304FF0FF33CDE90633C4
:109A9400DFF8E8A0DFF8E89000273D4619F9014B0C
:109AA400631C48D0E4B2012324F0C00604F007028A
:109AB40003FA02F2F00808AB191811F8083C134233
:109AC40039D00AEB0603A40993F930305AF823B0CD
:109AD400BBF1000F08D1032C2DD118F800C04CEABB
:109AE400020C08F800C001E0032CF6D001A801968E
:109AF400FFF72AFE019B11F8181C03F5E07C1142C4
:109B040050F82C00C0F3014005D0022813D1032CD7
:109B14000BD1214604E003280DD1032C05D10221E9
:109B24003046FFF71DFE0135EDB2BBF1000F02D048
:109B340021463046D8470137042FAFD1A5B14FF0A5
:109B4400A0430299D3F8102503F540739142D3F84A
:109B5400103502D10399994206D002920393049AD4
:109B6400059B0692079395E709B0BDE8F08F00BF07
:109B7400006000407C61004000030050D82B0020AE
:109B8400382C0020014B1B68184700BF442C0020D0
:109B94000220FFF77FBC00002DE9F04781460D4607
:109BA400FFF7A6FC0328044604D8012D04D025B3EE
:109BB400022D2FD0BDE8F087194D47003A18A91897
:109BC400AE5C4A7852B1DFF86880164842464FF4DA
:109BD4000041FDF77BFC08B988F800903B192B4441
:109BE4009A78114B1A55002EE4D0104B1B68002BA9
:109BF400E0D03046BDE8F04718470A48FDF7ACFC12
:109C0400074B04EB440213449E78074B1B5DB3429D
:109C1400D0D1E8E7024B00EB40041C446678E2E74D
:109C2400B02C0020702C0020C92C0020C42C002053
:109C34004C2C002002210078FFF7AEBF08B5094B79
:109C44001B7853B10020FFF7F3FB0120FFF7F0FB73
:109C54000320BDE80840FFF7EBBBBDE80840FFF771
:109C6400FBBB00BF4D2C0020F8B57B4C2378054688
:109C74001BB100232370FFF7E1FF172D00F288804A
:109C8400DFE805F00C17174354657680888D888DBE
:109C9400959A9A9A9A9AC4C9D1D9E4E4FFF7CEFF67
:109CA4006E48FDF759FC6E4B002204461A7020469C
:109CB400F8BD0020FFF794FBF8B10020FFF7B8FBD4
:109CC400022D0CBF4FF4E1614FF47A61644B1D70B7
:109CD4004FF400404FF4FA740025E0FB01454FF4C3
:109CE4007A7200232046294607F07BF900220146B8
:109CF4005A48BDE8F840FDF7E9BBFFF785FB022DA4
:109D04000CBFC8214FF4C871E0E70020FFF768FBDF
:109D140040B10020FFF78CFB4FF44871504B0322F5
:109D24001A70D5E7FFF770FBC821F7E70020FFF7AB
:109D340057FB38B10020FFF77BFB4FF47A61484BA7
:109D44000422EDE7FFF760FB4FF4C871F7E700204A
:109D5400FFF746FB48B10020FFF76AFB404B0522A2
:109D64001A7041F69A110022C2E7FFF74DFBF5E79E
:109D74000020FFF78FFB3A4B06221A70002240F6B0
:109D8400CD41B5E70020FFF73FFB354B07221A70A2
:109D940000248CE701202070FFF77CFBEEE7012014
:109DA4002070FFF777FB00224FF48041A0E7FFF714
:109DB40062FB2B4B0C22EAE72A482B4EFDF7CCFB27
:109DC400D5F1110504461CD0D8B9012D13D0C823F0
:109DD4005D434FF400474FF4FA7000214FF47A7258
:109DE4000023C7FB050107F0FCF8224601461D4885
:109DF400FDF76CFB04460220FFF706FB01233370DA
:109E040055E70220FFF714FB0023F8E7FFF716FFDE
:109E1400134B1222BBE7FFF711FF0020FFF7F4FA00
:109E24000F4B1322B3E7FFF709FF0120FFF7ECFA0A
:109E34000B4B1422ABE7FFF701FF0020FFF7E4FA16
:109E44000120FFF7E1FA064B1522A0E7FFF713FB09
:109E5400034B1D709CE700BFC02C0020902C0020F9
:109E6400C82C0020502C00204D2C0020044B1B68D3
:109E7400DB0703D5034B1878FFF7F6BE704700BF26
:109E8400BC2C0020C82C0020002910B514BF0324CA
:109E94000024FFF73FFB1F288ABF0A4B4FF0A04363
:109EA40000F01F0003EB8000D0F8002722F44032BA
:109EB400C0F80027D0F8003743EA0443C0F800375D
:109EC400002010BD00030050032801D8FFF7FCBA9E
:109ED40000207047044B1B6813F0010301D0FFF707
:109EE400C3BE1846704700BFBC2C002038B51C4BBD
:109EF40018601C4B10F00204054619601AD01A4B66
:109F04001A480E221A700F22DA7010229A71112246
:109F14005A72042140F26662FCF7D6FF044648B93F
:109F2400FDF726F8044628B90146114A1148FDF701
:109F3400BBFA0446EB0711D50120FFF7F1FA6CB91F
:109F440021460D4A0D48FDF7AFFA044630B90C4AD4
:109F54000C480121BDE83840FDF7A6BA204638BDBB
:109F6400BC2C0020C42C0020B02C0020DC2F0300CB
:109F7400399C020000300300719E0200043003008B
:109F8400959B0200FC2F0300032813D8012A0BD150
:109F9400012908D100F10E02D2B200EB40000C4BB3
:109FA4001A540020704700220129F6D04BB24BB15D
:109FB400022901D007207047054B00EB40001844EC
:109FC4004270EEE7024900EB400008448270E8E783
:109FD400B02C0020032802D80121FFF755BF06202A
:109FE400704708B5012202210020FFF7CDFF08B118
:109FF400072810D1072202210120FFF7C5FF08B16D
:10A00400072808D100210A220846FFF7BDFF10B136
:10A01400072808BF002008BD0388102B10B502D004
:10A02400112B1ED010BD1A4C2168B1B9012208466B
:10A03400FFF7AAFF08B1072824D107220221012033
:10A04400FFF7A2FF08B107281CD104220221002037
:10A05400FFF79AFF08B1072814D12368013323605E
:10A06400E0E70B4A1368013B1360002BDAD1FFF7DA
:10A07400B8FF0028D6D0074B1B68002BD2D0BDE810
:10A0840010401847034B1B68002BE6D09847E4E7C1
:10A09400D42C0020D02C002008B50020FFF79AFF14
:10A0A40008B1062806D10120FFF794FF10B1062855
:10A0B40008BF002008BD00000D4B10B518600C4609
:10A0C40029B10120FFF700FF40B102232370094B9F
:10A0D4001B6853B9BDE81040FFF783BFFFF7F4FED8
:10A0E40008B10B23F2E72070F1E7002010BD00BF98
:10A0F400D02C0020D42C002076DF70477ADF704704
:10A104007CDF70478FDF704790DF704733DF704725
:10A11400FCF744BF08B50020FFF7DCFE08B1FCF7EC
:10A124003DFFFFF7B9FF08B1FCF738FFFFF7EEFF7B
:10A1340018B1BDE80840FCF731BF08BD0388212BE6
:10A1440013B5044647D005D8102B26D0112B12D0B6
:10A1540002B010BD3B2B46D0562B44D0232BF7D155
:10A1640008220021684607F0FDF800226946A0880D
:10A17400FFF7CAFF2AE01E4B1E481F49C01AC00839
:10A18400000440F00300FCF753FC1C4B00221A703F
:10A194001B4B4FF6FF721A80DAE7154B1548194925
:10A1A400C01AC008000440F00300FCF741FC134B44
:10A1B400012207201A70FFF78DFE08B1FCF7EEFEAE
:10A1C4000F4BA1881048198001F034FD0028BFD03E
:10A1D400FCF7E4FEBCE7002369468088ADF8003054
:10A1E400FFF790FFF2E71321A088FFF785FFEDE763
:10A1F400602603008826030008330300D82C0020BF
:10A2040046220020163303004C2F0020037800B5AB
:10A2140013B9828A934201D35DF804FB0133F8E752
:10A2240010B5044602F004FA2046BDE8104002F0DE
:10A2340025B8000008B503784BB9054B3B211888B5
:10A24400FFF75AFF18B1BDE80840FCF7A7BE08BDE8
:10A2540046220020072808B513D00A280DD0042868
:10A2640019D10D4B13211888FFF746FF30F008036E
:10A2740011D0BDE80840FCF791BEBDE80840FFF7E7
:10A2840049BF054B1A884FF6FF739A4203D103481E
:10A2940001F017F8EAE708BD46220020DC2C002074
:10A2A40008B598B1032815D10B4B0C480C49C01ABA
:10A2B400C008000440F00300FCF7BAFB0220FFF7DB
:10A2C40009FE38B1BDE80840FCF768BEBDE80840A7
:10A2D400FFF720BF08BD00BF6026030088260300E7
:10A2E40094330300FCF75ABE07B505F092FD08B19C
:10A2F400FCF754FE0023019340F21313ADF804302D
:10A3040001A818238DF8063005F07AFD08B1FCF792
:10A3140045FE9DF80030062262F3030368468DF87B
:10A32400003005F0ACFD08B1FCF738FE03B05DF871
:10A3340004FB00002DE9F04F2DED028BAB4CADF288
:10A34400F46D00204FF400412070FCF7ADF9039444
:10A3540008B1FCF723FEFCF7DDF8FDF775F808B14A
:10A36400FCF71CFEA2490320FFF7C0FD08B1FCF76F
:10A3740015FEFCA90020FFF79FFE08B1FCF70EFEB6
:10A384009DF8F053FEF7E2FE08B1FCF707FE05F076
:10A394001FF808B1FCF702FE0023FCA90120FC937E
:10A3A40005F0DEF808B1FCF7F9FDFCA805F088F922
:10A3B40008B1FCF7F3FD3CAC112323708D4807F082
:10A3C40026F88C4982B22046FFF79AFE08B1FCF7C2
:10A3D400E5FD08220021FCA806F0C4FF864A4FF0E0
:10A3E400C873FCA8CDE9FC23FFF788FE08B1FCF78D
:10A3F400D5FD0021814801F00BFB002106467F4872
:10A4040001F019FB16B13046FCF7C8FDAC2200215F
:10A41400FCA806F0A7FF02238DF8F03340F2016395
:10A42400ADF8F2330123ADF800348DF86C344FF4F9
:10A434009673CDF878340023714ACDF87C34FCA9A6
:10A44400704B7148CDF80424CDF8943400F07CFDB1
:10A4540008B1FCF7A3FD01216B4800F072FD6B4BC2
:10A464006B480C930CA901F0D3FB08B1FCF796FDE3
:10A474000021042209A806F075FF664B664809937B
:10A4840009A901F0D3FC08B1FCF788FD40220021A2
:10A49400FCA806F067FF6149FCA801F0C6F9FEA814
:10A4A4005F4901F0C2F94FA3D3E90023C4E90023B3
:10A4B4005C4BA360FCA80123CDF820448DF82C3418
:10A4C40001F0B2FD08B1FCF769FD1C220021FCA8D3
:10A4D40006F048FF00234FF42032CDE9FC32ADF8FA
:10A4E400FE334FF470228DF800344F4BFE92CDF8BA
:10A4F400043403224D4B8DF8FC23FCA8CDF808341A
:10A5040000F0FCFF08B1FCF749FD02F0E5F808B1E2
:10A51400FCF744FD05220021FCA806F023FFFC9B68
:10A5240003F07C42424B1343FC939DF8F43323F035
:10A53400030343F00303FCA88DF8F43302F066F937
:10A5440008B1FCF72BFD3B4802F048F908B1FCF7D1
:10A5540025FDFFF7C9FE384C05F038FE374B384966
:10A56400E41AE408240444F003042046FCF760FAE7
:10A57400022D08D133492046FCF75AFA02F09EF91D
:10A5840008B1FCF70BFD03211F4800F054FD08B18E
:10A59400FCF704FD0A22002109A806F0E3FE4FF4AB
:10A5A40040722949FCA806F0B4FE00252C464FF061
:10A5B400000A4FF07C5BFCF7D1F8002840F0FB80E8
:10A5C400039B1B78002B00F0F88005A805F031FCF4
:10A5D40008B1FCF7E3FC07A805F03EFCB0B3FCF7B8
:10A5E400DDFC33E05544332211000000D82C002058
:10A5F40059A202003633030038003C00342F0020F7
:10A6040042220020A5A20200DC2C002015A1020099
:10A614004C2F002011A20200482200203F330300E7
:10A6240053330300EFCDAB0039A20200E9A20200CC
:10A634003107100325A202008826030060260300C8
:10A644005E3303006F33030008300300BDF91600C6
:10A6540006F01CFA02460B4606F0AFFA52465B4679
:10A6640006F0F0FB06F06CFA0190BDF9140006F058
:10A674000DFA02460B4606F0A0FA52465B4606F077
:10A68400E1FB06F05DFA8146BDF9200006F0FEF913
:10A6940000227C4B06F0D6FB52465B4606F0D2FB0A
:10A6A40006F04EFA8046BDF91E0006F0EFF90022CE
:10A6B400744B06F0C7FB52465B4606F0C3FB06F03C
:10A6C4003FFA0746BDF91C0006F0E0F900226D4B85
:10A6D40006F0B8FB52465B4606F0B4FB06F030FACF
:10A6E4003CAB03EB84030646BDF91800029306F065
:10A6F400CDF902460B4606F060FA52465B4606F078
:10A70400A1FB06F01DFA029B1860DDED017A3CAB5B
:10A7140003EB8403C3ED017A3CAB03EB84033CAA53
:10A72400C3F808903CAB03EB840302EB8402C3F848
:10A734000C80631D17613CAA063402EB8303BF2C13
:10A744001E602EDD9FED508A0DF57C781746164667
:10A75400C024F8EC017AE6EC017AFDEEE77A17EE14
:10A76400900A06F04BFD07EE900AF8EEE77A013CFA
:10A7740038EE278AEDD1DFED457AB4EEE78AF1EEC3
:10A7840010FA1CD8424B434A1B884349434801F002
:10A79400C3FB6023D7F8802147F8042B013BF9D190
:10A7A40060243F4B3C2643F001074FF47A40B847FE
:10A7B400013EFAD1FFE60024FDE61C46FBE60DF15E
:10A7C40030089FED388ADFED388A3CACC026C1469C
:10A7D400F4EC017AF4EEC87AF1EE10FA35DD04ED0A
:10A7E400018A54F8040C06F08FF902460B4606F071
:10A7F400E4F906F062F9013E08F8010BE8D1494694
:10A8040004A805F0F7FC04ACDFF8B490A04618F9EE
:10A81400011B4846013606F04BFD042EF7D12348B0
:10A8240006F046FD00231A4614F9011B9142C8BFE5
:10A834001D4603F10103C8BF0A46042BF4D1032DBE
:10A84400A7D8DFE805F00A0F1419F4EEE87AF1EE60
:10A8540010FA48BF44ED018AC3E70D4B0D4A1B882B
:10A86400134993E70A4B0B4A1B8812498EE7084B9E
:10A87400084A1B88104989E7054B064A1B880F497B
:10A8840084E700BF00407F400000000000000C424D
:10A8940046220020402200207C330300482200206E
:10A8A4003033030000007C42000080C2ED27030027
:10A8B40084330300883303008C3303009033030094
:10A8C400803303000369C1688B429DBF8268D2183C
:10A8D40002F1FF3203F1FF3394BF501A581A704744
:10A8E4002DE9F041D0E9027405463E1B40689642CA
:10A8F40020448846144404D906F00BFDEC60BDE8FE
:10A90400F0813246E41B06F004FD224608EB060102
:10A914006868F1E72DE9F843C56806468946174695
:10A924004FF000083469B3687068A54228BFE41882
:10A93400013C621B5C1BBC4228BF3C46944228BFBE
:10A94400144649462844224606F0E3FCB3682544ED
:10A95400AB4208BF00253F1BA044A144F560E1D1F0
:10A964004046BDE8F883000010B5114C114AA261BD
:10A974000223C4E90433104BE361A2644FF400736F
:10A984000E4A2362E264002310220D49A362E01DF3
:10A994006362E362A3656365E365226506F015FD02
:10A9A4000849204606F011FD2023A37110BD00BF05
:10A9B400582F0020A6330300E02F0020D02F0020C2
:10A9C400AF330300B3330300F8B5184C182300FB6E
:10A9D400033503FB00402544C46A012C0F46164688
:10A9E40011D024B1022C1BD000242046F8BD2846E7
:10A9F400FFF768FFB042F8D3324639462846FFF7DE
:10AA04006FFF3446F1E72846FFF75CFF8642344681
:10AA140028BF0446224639462846FFF761FFE4E78B
:10AA24002846BDE8F840FFF775BF00BF582F002047
:10AA3400FFF79ABF6DDF704779DF70477DDF70479E
:10AA440064DF70472DE9F74F0C9CBDF834B02788BC
:10AA5400002580468A4691462E46B8F80020B24228
:10AA64000BDC35B12288013AD21B92B2FF2A39D8C5
:10AA7400DA55002003B0BDE8F08FD8F8042052F86E
:10AA84002600019000220DF1030101A8FFF7D8FF71
:10AA94000028EFD19DF803204A4521D12288002DBA
:10AAA40014BF0020022002EB09010144594519DCBE
:10AAB4003DB9013292B2228003F802A02288013209
:10AAC400228022880DF103011A4401A8FFF7B8FF80
:10AAD4000028CFD121889DF803200A442280012533
:10AAE4000136BAE70C20C5E72DE9F341089CBDF80F
:10AAF40024501746CDE9004502220646FFF7A2FF7F
:10AB040048B9102239463046CDE9084502B0BDE8BF
:10AB1400F041FFF797BF02B0BDE8F0812DE9F04F97
:10AB240000231688138090F82D3085B007460D4613
:10AB3400144653B3082E01D80C2028E102A8FFF7CD
:10AB440079FF002840F0238113880822CA542388FF
:10AB540001339BB21B222380CA542088013080B267
:10AB6400208006220DF10901284406F0D2FB238837
:10AB74009DF8082006339BB212F0FE0218BF012292
:10AB84002380EA54238801332380BB78FBB12388D4
:10AB94000433B342D0D802A8FFF74EFF002840F098
:10ABA400F68023880322EA54238801339BB21922B6
:10ABB4002380EA542388BDF8082001339BB2E918A6
:10ABC4002380EA54120A4A70238802332380FA78D5
:10ABD4009AB12388D91CB142AED80221E954238802
:10ABE40001339BB201212380E95423880B449BB297
:10ABF4002380EA5423880B4423807A68AAB12388EB
:10AC0400D91CB14298D8022192F90020E954238832
:10AC140001339BB20A212380E954238801339BB278
:10AC24002380EA542388013323803B89002B40F09E
:10AC3400A2803B8A5BB1CDE900462B460722032163
:10AC440007F11000FFF750FF002840F0A0803B8B75
:10AC54005BB1CDE900462B461522142107F11800FB
:10AC6400FFF742FF002840F092803A6A002A40F041
:10AC74009180D7F82480B8F1000F30D0B8F80430B0
:10AC84002188981C8A1C0244B2423FF655AFFE2824
:10AC94003FF652AF03336B54238801339BB2FF2238
:10ACA4002380EA54238801339BB22380B8F8002020
:10ACB400EA54E918120A4A702088023080B22080CF
:10ACC400B8F804205AB1D8F8081000296CD02844E8
:10ACD40006F01FFB2388B8F804201344238097F858
:10ACE4002C30002B40F09B80387800284FD03B88D4
:10ACF400012B59D0228802F1020CB4453FF61CAF57
:10AD0400012805D17B78023313449E42FFF414AF2B
:10AD1400023EB61AB6B202A905EB0C00ADF8086003
:10AD2400FFF78CFE98BB3978BDF80820022900F0A3
:10AD3400BB807B78934202D3B24240F2B3800129B4
:10AD440040F0B4809BB29E42C0F0B080ADF80830B1
:10AD54000821BDF80830FE2B3FF6EEAE2288013301
:10AD6400AB542288013292B22280A954228813441F
:10AD7400238000200BE0CDE900462B460622022169
:10AD840007F10800FFF7B0FE00283FF452AF05B00A
:10AD9400BDE8F08FB4F800C00CF10603B3423FF6EF
:10ADA400CBAE1188052901D80720F0E76FF4486E6F
:10ADB40001EB0E039BB24FF27D3E7345F4D95388E9
:10ADC400052BF1D96FF44860181880B27045EBD99F
:10ADD4004FF6FF70814203D0834201D09942E3D8F9
:10ADE400052305F80C30238801339BB212212380FC
:10ADF400E954238801339BB223801188E954E8186D
:10AE0400090A4170238802339BB223805288EA5492
:10AE1400E918120A4A7023880233238029E7BB6A9F
:10AE2400002BC1D04FF000094FF00C0A4FF0160B65
:10AE340097F82C305FFA89F293427FF655AFB96ADE
:10AE44000AFB02F201EB0208B8F80430981CFE2851
:10AE54003FF672AE208803332B54238801339BB210
:10AE6400238005F803B0238801339BB223808A5AD8
:10AE7400EA54E918120A4A702088023080B220800D
:10AE8400B8F804205AB1D8F8081000298CD0284406
:10AE940006F03FFA2388B8F804201344238009F10C
:10AEA4000109C5E7092154E7B242FBD9ADF80860AE
:10AEB4004EE770B5C0B14AB116880024B44203D33A
:10AEC40005196D789D4208D0A14201D800200BE0FD
:10AED400055D01352C44A4B2F0E7A142F6D9A31CC8
:10AEE4001380005D013880B270BD13B50023ADF846
:10AEF400063013460DF106020446FFF7DAFF10B1DF
:10AF0400BDF80600204402B010BD72DF704773DF45
:10AF1400704774DF704738B5012204460D46B0F817
:10AF24003812D0F83402FFF7E0FF00B1057004F1E5
:10AF34003C0204F50D7104F15400BDE83840FFF7FC
:10AF4400E4BF80F830107047F8B504460F46002976
:10AF54006DD000286BD091F87A301BB191F89830FD
:10AF6400002B66D107F178060FCE4FF0000C251D9B
:10AF740084F802C00FC50FCE0FC596E8070085E818
:10AF8400070084F830C0D7F8A4306363D7F8A8303A
:10AF9400A3634FF6FF7504F50D73C4F84432A4F8A7
:10AFA40048520722614604F24A2006F0DBF923786E
:10AFB4000BB984F8545094F82430002B14BFEE23BA
:10AFC4001F2304F15501C4F83412A4F8383204F5EF
:10AFD4000E723846FFF7A2FD40BB94F82430002BD4
:10AFE40014BFEE231F2304F24311C4F83C12A4F847
:10AFF400403204F5107207F13C00FFF78FFDA8B949
:10B00400A369A4F848304FF480720123A4F85020B7
:10B01400626920646264014684F83C3004F13C02B5
:10B0240004F15400FFF771FF00B92370F8BD0E203E
:10B03400FCE70720FAE7F8B5077804460D46002F29
:10B0440000F0078100F24A26A17007220021304651
:10B0540006F088F9E38813B1A378012B04D0E379CF
:10B064004BB1A378022B06D1636B9BB1012284F808
:10B07400512208209847324604F5147112F8013F12
:10B084005BB98A42FAD16A1E032A52D8DFE802F079
:10B09400070D111484F85132EDE73B46F3E7A2792A
:10B0A4001AB194F8242002B95BB9E2790AB1002BF1
:10B0B40041D1237A002B40D1637A002B0CBF0025A9
:10B0C4000425636BA570002B39D0033D012D36D8C0
:10B0D4006279A2B394F852228ABB84F854220122E2
:10B0E40084F853220720984704F13C0518220021D4
:10B0F400284606F037F9E26A0123511E994284F882
:10B104003C3001D9042A1ED1D3B294F8242084F807
:10B1140051301AB1CFB1A36A84F85230A178002318
:10B1240084F8503004291FD8DFE801F07B11263958
:10B134005D000025C5E70225C3E70325C1E7002319
:10B1440084F85332D0E70027DFE70123E4E7C4F8AB
:10B154004432C4E910630223012284F83C30802382
:10B1640084F83120A4F84830A378002B5CD1636BB9
:10B17400002B6AD1002067E00223002A84F83130D2
:10B1840014BF0723032384F83C302369A4F8483010
:10B194000023C4F84432E36826646364E4E7636923
:10B1A4006364A369A4F8483012B1062384F83C30E0
:10B1B4006379B3B194F852329BB994F8543283B1A1
:10B1C400022384F8503004212046FFF7A4FE00280F
:10B1D400CAD1052384F8313004F50D73C4F8443220
:10B1E400C2E70323F6E7E3696364236AA4F84830FB
:10B1F40012B1062384F83C30637983B194F8523257
:10B204006BB994F8543253B1022384F850300421BA
:10B214002046FFF780FE0028A6D10623DAE70423A0
:10B22400D8E784F831309FE72A46D4F8441204F171
:10B234005400FFF76AFE38B994F8301094F85400BB
:10B24400FFF765FE002892D0F8BD94F831009847C6
:10B2540090E70820F8E70388112B10B50C460AD0B4
:10B26400262B1FD0102B05D1C37B012B02D1838841
:10B27400A1F8483210BD0022838881F85222B1F827
:10B2840048229A42F6D10B79002BF3D101212046B2
:10B29400FFF7D1FE0028EDD0A36B002BEAD0BDE868
:10B2A40010401847037A013B012BE3D88978052322
:10B2B4000131B1FBF3F303EB8303C91AC9B2E6E727
:10B2C400704738B5044690F85400FFF722FE012376
:10B2D40084F85232002384F8543284F85030062122
:10B2E4002046FFF718FE054638B9A1782046FFF737
:10B2F400A2FE10B1A36B03B19847284638BD75DF91
:10B30400704776DF70477ADF70477BDF7047000055
:10B31400034B1A8882420CBF18460020704700BFB6
:10B32400FC310020024B9B6903B11847704700BFF2
:10B33400E031002037B585B22846FFF7E9FF034620
:10B3440070B1164C017A227B91420BD200F10A01B2
:10B354002846FFF7D4FFE8B1112801D0FFF7E2FF38
:10B3640003B030BD237C0022027243B13B21284646
:10B37400FFF7C7FF30F0080301D0FFF7D3FF63697D
:10B38400002BEDD000228DF80420ADF8065001A862
:10B394009847E5E71A7A01321A72E1E7E0310020B2
:10B3A40013B50B46497A0F4C024669B9D4E901102A
:10B3B4001C7A002C18BF01465868FCF787F808B1BE
:10B3C400FFF7B0FF02B010BD002119726369002BB2
:10B3D400F8D00121ADF806008DF8041001A89847B3
:10B3E400F0E700BFE03100204B8802889A4213D86E
:10B3F40042889A4210D380888A8840F2F313984294
:10B4040094BF031AC31A934206D800F2F310904271
:10B4140034BF002001207047002070470388112B9F
:10B4240070B5014648D002D8102B1ED070BD122B27
:10B4340052D0502BFAD12F4BC288DB899A42F5D1D6
:10B44400038A022BF2D186883046FFF761FF054656
:10B454000028EBD001F1120000F0E3F930BB68687A
:10B46400FCF77AF80028E1D009E0C37B012BDDD199
:10B474004FF6FF70FFF74CFF054620B90420BDE8E6
:10B484007040FFF74FBF1C4A8E880680002303726A
:10B494001368C5F80A300A30536843601031FFF767
:10B4A400A3FF144B6872DB89002BBFD129463046B9
:10B4B400BDE87040FFF774BF8088FFF729FF04469A
:10B4C4000028B3D04068FCF747F808B1FFF72AFF1B
:10B4D4004FF6FF732380A9E786883046FFF718FFED
:10B4E40005460028A2D008310A30FFF77DFF6872B4
:10B4F400DCE700BFE031002010320020F8B506463A
:10B5040048B305460FCD154F3C460FC495E80700D8
:10B5140084E807003068124B3B60B0B1FFF7F3FEDC
:10B52400C0B931680A681A604A685A600D480E4A00
:10B534004FF6FF7303800D4B40F8043F0021FBF7E7
:10B54400B3FF002818BF032004E01846FFF7DDFE10
:10B554000028EBD0F8BD0E20FCE700BFE03100204E
:10B5640010320020FC31002039B3020018320020D0
:10B57400F7B5174601900E4691B1019C6CB10025B8
:10B584002C46294601A8FCF7CBFF18B13946A8B2CE
:10B59400B04701340135142DF3D1204603B0F0BD7A
:10B5A4000C46FAE773B50191019C06466CB100257F
:10B5B4002C46294601A8FCF7B3FF18B106EB440357
:10B5C40001349D800135142DF3D13046346002B02E
:10B5D40070BD00002DE9F04703888488112B8CB0DE
:10B5E40006463CD01A2B3FD0102B17D1274DAB6801
:10B5F400DB43009369686846FCF7F3FF009901A8F0
:10B60400FFF7D0FF0DF108094FF00008019B9845A2
:10B6140007D3132C13D90420FBF7C0FC0CB0BDE8EE
:10B62400F08739F802AB00270137514605EB870054
:10B63400FCF76CFF1D2FF7D108F10108E6E721465E
:10B644001348FCF74CFF21461248FCF748FFF37BF4
:10B65400012BE3D010482146FCF741FFDEE70C48FC
:10B664002146FCF753FFD9E7057A0C482D09012D33
:10B67400214606D9FCF733FF022D21460848F0D0B5
:10B68400EAE7FCF743FF21460548EAE738320020A1
:10B69400403200203C320020443200204832002056
:10B6A4004C3200201328014602D80248FCF738BF68
:10B6B400002070473C32002010B50446FFF7F2FF2B
:10B6C40038B121460348FCF72BFF002814BF0220A1
:10B6D400012010BD4432002010B50446FFF7E2FFFC
:10B6E40038B121460348FCF71BFF002814BF022091
:10B6F400012010BD4032002010B50446FFF7D2FFF0
:10B7040028B121460248BDE81040FCF709BF10BD2E
:10B714004832002010B50446FFF7C4FF28B1214683
:10B724000248BDE81040FCF7FBBE10BD4C320020BF
:10B7340010B50446FFF7B6FF002814BF20461420B6
:10B7440010BD000008B518210248FCF7F2FEC0B293
:10B7540008BD00BF3832002070B50A4D06462846A1
:10B764000C46FCF7DDFE58B13046FFF79BFF38B1BD
:10B77400A01D314605EB8000BDE87040FCF7D0BE4B
:10B78400002070BD38320020F8B50D4C0546204627
:10B794000E461746FCF7C4FE80B12846FFF782FF29
:10B7A40060B1B01D04EB800029461FB1BDE8F8402C
:10B7B400FCF795BEBDE8F840FCF7A8BEF8BD00BF95
:10B7C40038320020F8B50A4C05460E46014620469C
:10B7D4001746FCF7A5FE48B1043504EB85043A4648
:10B7E400A0683146BDE8F840FFF7C2BEF8BD00BF0F
:10B7F40038320020AADF7047002301380B70042878
:10B8040006D8DFE800F00306080A0C0011230B70C9
:10B8140070472123FBE73123F9E71223F7E72223BB
:10B82400F5E7007800F00100704738B50446084693
:10B834000D4605F0ECFD6560208038BDF0B58B78D1
:10B8440091B0002B0C4608BF01238DF80E3005463D
:10B854000B88ADF80C30002116466846032205F02B
:10B8640081FD6946607CFFF7C7FF0DF10101A07CF3
:10B87400FFF7C2FF9DF80230E27B62F3C303227C30
:10B8840062F30413227B62F30003227D002A14BFB7
:10B894000222012262F3420300211C2209A88DF82E
:10B8A400023005F05FFD637B13F0300F15D002AF5B
:10B8B40003220021384605F055FD0DF10901E07C15
:10B8C400FFF79AFF11238DF808309DF80A300E9780
:10B8D400012262F342038DF80A30637B8DF8243031
:10B8E4001422A37B8DF82530002104A805F03AFD2D
:10B8F40003AB0493A388ADF81C30A368CDF814D02F
:10B904001BB1E288ADF818200893A369002B2ED050
:10B9140001AF03220021384605F024FDA3691A88EB
:10B92400ADF82C205A88187BADF82E2039465A6879
:10B934000A920D97FFF760FFA3690DF10501587B8B
:10B94400FFF75AFFA2699DF80630917A61F3C303A9
:10B95400D17A61F30413117A927B002A61F3000314
:10B9640014BF0222012262F342038DF80630E36918
:10B9740003B10C93334604AA09A92846FFF73AFFFA
:10B9840011B0F0BD90DF7047A5DF7047B5DF704799
:10B994007FB50023ADF80810ADF80A106A4602A975
:10B9A400064603930093ADF80430FFF7EBFF05461A
:10B9B40000B3124B124CE41AE408FDF71BFC2404F8
:10B9C40044F00104034632460E492046FBF73DF895
:10B9D400BDF80020BDF8023052EA030103D00A4941
:10B9E4002046FBF732F8BDF804201AB10749204677
:10B9F400FBF722F8284604B070BD00BF60260300A0
:10BA0400A0260300BA3303000434030043340300C4
:10BA140078B14FF017130360FB2303711723C3801E
:10BA2400038141F6FB320023016143818281184680
:10BA340070470E20704720B1172904D101800020DF
:10BA440070470E20704707207047000013B5034667
:10BA540080880C46A0B91A88232A00F0A38011D844
:10BA6400102A22D0112A51D0A37A4BB1E1880020A8
:10BA7400FFF78AFF002840F09B804FF480736381B6
:10BA840002B010BD3A2A49D0552A5FD0242AEBD1FE
:10BA94001A7A0B694A73002BE6D04DF67A21ADF879
:10BAA400040000918DF8042078E0DB7B0A790A73A6
:10BAB400012B13D0022B14D0E18823898B4205D2A9
:10BAC4000020FFF761FF70B90123E372217B637BE0
