:020000022000DC
:1060000000000420756302005D6302005F6302000C
:106010006163020063630200656302000000000028
:1060200000000000000000000000000067630200A4
:1060300069630200000000006B6302006D630200F0
:106040006F6302006F630200619502006F630200DC
:106050006F6302006F630200B59302006F6302007A
:106060006F6302006F6302006F6302006F630200E0
:106070006F630200819602006F6302006F6302008B
:106080006F6302007D6C02006F6302006F630200A9
:10609000196D02006F630200991A03006F6302001A
:1060A0006F6302006F6302006F6302006F630200A0
:1060B0006F6302006F630200000000000000000038
:1060C0006F6302006F6302006F6302006F63020080
:1060D0006F6302006F6302006F6302006F63020070
:1060E0006F6302006F63020021480300000000009C
:1060F000000000006F630200000000006F630200F8
:10610000000000000000000000000000000000008F
:10611000000000000000000000000000000000007F
:10612000000000000000000000000000000000006F
:10613000000000000000000000000000000000005F
:10614000000000000000000000000000000000004F
:10615000000000000000000000000000000000003F
:10616000000000000000000000000000000000002F
:10617000000000000000000000000000000000001F
:10618000000000000000000000000000000000000F
:1061900000000000000000000000000000000000FF
:1061A00000000000000000000000000000000000EF
:1061B00000000000000000000000000000000000DF
:1061C00000000000000000000000000000000000CF
:1061D00000000000000000000000000000000000BF
:1061E00000000000000000000000000000000000AF
:1061F000000000000000000000000000000000009F
:10620000354936480A1A02D0072291438D4634494F
:1062100034480A1A06D00722914381F309880222E2
:1062200082F3148830483149314A00F044F831484B
:106230003149324A00F03FF831483249324A00F0E1
:106240003AF832483249334A00F035F83248334997
:10625000334A00F030F833483349344A00F02BF821
:1062600033483449344A00F026F83448344900228F
:1062700000F02CF833483449002200F027F8334866
:106280003349091A082902DB002202604160314AC1
:1062900090471F481F49884205D00268043003B464
:1062A000904703BCF7E700208646EC46002000211B
:1062B000294A9047FEE7884207D0521A05D0037852
:1062C00001300B700131013AF9D17047884202D098
:1062D00002700130FAE770470000042000F8032044
:1062E00000000420000004209CDD0300942800200E
:1062F000BC2B0020D4630200D46302002C86030070
:106300009CDD03009428002094280020F8870300D7
:10631000F8870300F8870300F8870300F887030075
:10632000F8870300F8870300F88703009CDD03006B
:10633000C4E00300BC2B0020BC2B0020BC2B0020A1
:10634000307000203070002030700020307000204D
:10635000307000209D630200B9B50200FEE7FEE741
:10636000FEE7FEE7FEE7FEE7FEE7FEE7FEE7FEE705
:10637000704700BF1048804710484FF0070188431E
:1063800085460F4880470F48016841F4700101605D
:10639000BFF34F8FBFF36F8FFFF732BF0A480B4930
:1063A0000B4A884207D0521A05D0037801300B708F
:1063B0000131013AF9D170477163020000000420F5
:1063C000EDB8020088ED00E0E4870300802800209B
:0463D00094280020ED
:1063D400022003F035BE00002DE9F04781460D464A
:1063E40003F05CFE0328044604D8012D04D025B331
:1063F400022D2FD0BDE8F087194D47003A18A9188F
:10640400AE5C4A7852B1DFF86880164842464FF4D1
:10641400004100F01BFE08B988F800903B192B449A
:106424009A78114B1A55002EE4D0104B1B68002BA0
:10643400E0D03046BDE8F04718470A4800F04CFE6B
:10644400074B04EB440213449E78074B1B5DB34295
:10645400D0D1E8E7024B00EB40041C446678E2E745
:10646400202C0020E02B0020392C0020342C00208C
:10647400BC2B002002210078FFF7AEBF08B5094B02
:106484001B7853B1002003F0A9FD012003F0A6FD01
:106494000320BDE8084003F0A1BDBDE8084003F0B7
:1064A400B1BD00BFBD2B0020F8B57B4C2378054659
:1064B4001BB100232370FFF7E1FF172D00F2888042
:1064C400DFE805F00C17174354657680888D888DB6
:1064D400959A9A9A9A9AC4C9D1D9E4E4FFF7CEFF5F
:1064E4006E4800F0F9FD6E4B002204461A702046F7
:1064F400F8BD002003F04AFDF8B1002003F06EFD62
:10650400022D0CBF4FF4E1614FF47A61644B1D70AE
:106514004FF400404FF4FA740025E0FB01454FF4BA
:106524007A720023204629460BF000FC0022014623
:106534005A48BDE8F84000F089BD03F03BFD022D48
:106544000CBFC8214FF4C871E0E7002003F01EFD22
:1065540040B1002003F042FD4FF44871504B032238
:106564001A70D5E703F026FDC821F7E7002003F0F1
:106574000DFD38B1002003F031FD4FF47A61484B32
:106584000422EDE703F016FD4FF4C871F7E700208D
:1065940003F0FCFC48B1002003F020FD404B052231
:1065A4001A7041F69A110022C2E703F003FDF5E7E1
:1065B400002003F045FD3A4B06221A70002240F6F3
:1065C400CD41B5E7002003F0F5FC354B07221A70E6
:1065D40000248CE70120207003F032FDEEE7012057
:1065E400207003F02DFD00224FF48041A0E703F05A
:1065F40018FD2B4B0C22EAE72A482B4E00F06CFDC9
:10660400D5F1110504461CD0D8B9012D13D0C823E7
:106614005D434FF400474FF4FA7000214FF47A724F
:106624000023C7FB05010BF081FB224601461D48F0
:1066340000F00CFD0446022003F0BCFC012333707F
:1066440055E7022003F0CAFC0023F8E7FFF716FF22
:10665400134B1222BBE7FFF711FF002003F0AAFC43
:106664000F4B1322B3E7FFF709FF012003F0A2FC4D
:106674000B4B1422ABE7FFF701FF002003F09AFC59
:10668400012003F097FC064B1522A0E703F0C9FC98
:10669400034B1D709CE700BF302C0020002C002011
:1066A400382C0020C02B0020BD2B0020044B1B687D
:1066B400DB0703D5034B1878FFF7F6BE704700BF1E
:1066C4002C2C0020382C0020032801D803F0D2BC45
:1066D4000020704738B51C4B18601C4B10F00204A6
:1066E400054619601AD01A4B1A480E221A700F2246
:1066F400DA7010229A7111225A72042140F26662F1
:1067040000F0A2F9044648B900F0F2F9044628B9A9
:106714000146114A114800F087FC0446EB0711D5E5
:10672400012003F0CDFC6CB921460D4A0D4800F060
:106734007BFC044630B90C4A0C480121BDE83840C2
:1067440000F072BC204638BD2C2C0020342C0020D4
:10675400202C0020F8870300796402001C880300C1
:10676400B166020020880300D56302001888030084
:10677400032813D8012A0BD1012908D100F10E02F4
:10678400D2B200EB40000C4B1A5400207047002298
:106794000129F6D04BB24BB1022901D00720704732
:1067A400054B00EB400018444270EEE7024900EB51
:1067B400400008448270E8E7202C002008B501223C
:1067C40002210020FFF7D4FF08B1072810D10722C7
:1067D40002210120FFF7CCFF08B1072808D10021CE
:1067E4000A220846FFF7C4FF10B1072808BF00209B
:1067F40008BD00000388102B10B502D0112B1ED049
:1068040010BD1A4C2168B1B901220846FFF7B0FF48
:1068140008B1072824D1072202210120FFF7A8FF8D
:1068240008B107281CD1042202210020FFF7A0FF91
:1068340008B1072814D1236801332360E0E70B4A29
:106844001368013B1360002BDAD1FFF7B7FF002870
:10685400D6D0074B1B68002BD2D0BDE81040184798
:10686400034B1B68002BE6D09847E4E7442C002038
:10687400402C00200D4B10B518600C4629B10120A6
:10688400FFF722FF40B102232370094B1B6853B961
:10689400BDE81040FFF792BFFFF716FF08B10B23C6
:1068A400F2E72070F1E7002010BD00BF402C00206B
:1068B400442C00202DE9F04F394E87B04FF00009E9
:1068C400384B1B785FFA89F5AB4202D807B0BDE8B4
:1068D400F08F354BD3F800A01AF835000124D6E91F
:1068E400001EA0F12002C0F1200304FA02F224FAEF
:1068F40003F3134304FA00FC009301EA0C0302932C
:10690400009B0EEA03030393DDE9022313430AEB1E
:10691400C50B41D0009B21EA0C012EEA0303C6E912
:10692400001302F037FD1AF835502049A5F1200272
:10693400C5F1200304FA02F224FA03F31343D1E964
:1069440000C2AC40134004EA0C0105930024C3B216
:10695400CDE90034009A0491C5F12003A5F120018A
:1069640022FA03F302FA01F848EA03081346AB409B
:106974001F46DDE90434444508BFBB420CD1DBF8B3
:1069840004304BB19BF801104A1E51425141081A80
:10699400414241412846984709F1010990E700BF67
:1069A400782C0020482C0020802C0020702C002003
:1069B4002DE9F0418046204800F08EFBD0BB012534
:1069C400A8F12004C8F1200325FA03F305FA04F41E
:1069D4001C431A4BD3E9001205FA08F501EA05062F
:1069E40002EA040756EA07001E461DD1404602F09B
:1069F400D1FC134BD3E9001288B129432243C3E9E4
:106A04000012D6E900231C430E4B0B4819681543AA
:106A1400C6E900540022BDE8F04100F017BB21EAAA
:106A2400050122EA0402EAE721EA050522EA040450
:106A3400C3E90054BDE8F081502C0020782C0020DC
:106A4400702C00204C2C0020042A2DE9F34105462B
:106A54000C4616463AD902F0CDFBD8B11C4B1D4961
:106A64001D601D4BDFF884801C701C4B00221E60CF
:106A74000023C1E900231A49C1E90023013CE4B21F
:106A840000260327FF2C0CD1164A1748002100F0DA
:106A9400CBFA03E002F076FB0028DFD002B0BDE8B9
:106AA400F08123B205EBC30201A992788DF8052089
:106AB40015F833008DF8066042468DF8047002F034
:106AC400A3FB013CE4B20028DCD0E7E70720E5E7BC
:106AD400802C0020702C0020482C00204C2C0020FE
:106AE400782C0020B968020024880300B5690200EC
:106AF40070B5084D084E00242B789C4201D3002029
:106B040070BD3368012113F8340002F0F9FB01343D
:106B1400F2E700BF482C0020802C00201FB5002184
:106B2400039001AA44F20100CDE9011100F004F838
:106B340005B05DF804FB000010B572B603F0DEFE8C
:106B440003F00CFD0028FBD1104B114C1149E41A41
:106B5400E408240444F0010003F06AFE0E4B1B68B1
:106B6400DB0700D500BE0D4944F0020003F060FECF
:106B7400BFF34F8F0A490B4BCA6802F4E062134318
:106B8400CB60BFF34F8F00BFFDE700BF3C8603001F
:106B94006486030028880300F0ED00E034880300D5
:106BA40000ED00E00400FA05094A537891780133B6
:106BB400DBB2994208BF0023117899421FBF0370CA
:106BC4005078182303FB002014BF043000207047C2
:106BD400842C002073B5054600240DF107000E46F1
:106BE4008DF8074000F088FA0DF10600FFF7DCFF8E
:106BF40090B10670094B9DF8062045605A709DF8C7
:106C0400070000F09DFA24B9054B4FF48012C3F835
:106C14000021204602B070BD0424F0E7842C00203B
:106C240000E100E0024B4FF43C6043F001031847DD
:106C34005088030038B50C4B0C4C4FF40032C3F8A9
:106C4400802001254FF48033C4F84833C4F8083356
:106C54006560FFF7E7FF064BA56000241C60FFF7A3
:106C6400E1FF044B1C7038BD00E100E0001001405E
:106C7400A02D0020912D0020F8B51F4B1F491B6843
:106C84000025C1F84051C1F84451C1F84851C1F838
:106C94004C51C1F80051C1F804514BB3D1F804452B
:106CA40017490968641A24F07F442F461A68A242DF
:106CB40009D8A41A15441A7CDE691AB11F74D3E9E1
:106CC40005209047AEB90F4A0F4B11781B788B42C1
:106CD40005D10133DBB2022B08BF002313701278F5
:106CE4000A4B43F822500A4B4FF48012C3F8002198
:106CF400F8BD3346DAE700BFA42D002000100140A0
:106D0400A02D00209D2D00209C2D0020942D0020DE
:106D140000E100E02DE9F04FA04AA1491378097879
:106D2400A04D994285B03CD00133DBB2022B08BFA1
:106D3400002313709C4912789C4B0F6853F822006F
:106D44003B1823F07F4300220B602B681646144641
:106D5400944613B942B12B6006E0196881420ED9FA
:106D640002B12B60091A19604FF001082B68DFF893
:106D740044A201930027BEB9DFF840B266E0401A8E
:106D84000C44D968C3F800C0D3F81CE031B13A19F7
:106D940022F07F42C3E90121DE611E4601227346CF
:106DA400D7E70026B046E1E73446F6697E4A6368D1
:106DB4001268DFF80CC2A068991A21F07F4161457E
:106DC40000F2A58001442160012222742A68002374
:106DD400C4E90133E361002A40F0A2802C60CAE7D1
:106DE4005A1C9BF80210D2B291428BF8002004BFC7
:106DF40000228BF80020182202FB03B31A799C6846
:106E0400022A1CD0032A12D0012A1FD1207CE8B9FF
:106E1400D3E90312A2605A69E2609A69644BA261E1
:106E24001B78002B0CBF0B4603466360BEE70022B1
:106E34002B681146002B66D142B12B6006E029680D
:106E44000A468946002A59D1002323749BF800304E
:106E54009BF801209A42C3D12B682FB9019A9A4218
:106E640002D1B8F1000F43D0002B73D0D3F800A0A7
:106E7400504D4D4BD5F804751C68DFF848813E1B16
:106E840098F8003026F07F4603369BB94FF48033E0
:106E9400C5F84433C5F80433474B4FF400324FF080
:106EA4000109C3F880211A60C5F80090FFF7BAFE03
:106EB40088F80090B2452CBF5444A41924F07F44B0
:106EC400C5F84045D5F80435DB1B23F07F43E41BAC
:106ED400033324F07F44A3420AD9D5F80435C5F816
:106EE4004035FFF79FFE344B4FF40032C3F80021C6
:106EF4002F4B00221A7005B0BDE8F08F94422CD0BD
:106F04009146D2699EE719740122DB6992E7D31A8C
:106F140023F07F43834234BFC31A0023236053E723
:106F240021681368994213D8591A1160E26155E730
:106F3400091AD8691A4638B1034618688842F7D343
:106F4400401A1860184613462160E061DC6112E7BC
:106F54001346F2E7FFF76EFECAE74C4511D1CB6941
:106F64002B6073B9DFF840E00120CDE90212CAF8C2
:106F74000800CEF800300E4B1870FFF753FEDDE921
:106F840002121368D269C9F81C2012B110680344B4
:106F940013602B68994218BF012755E79C2D0020E8
:106FA4009D2D0020A42D0020A02D0020942D002034
:106FB400902D00200010014000E100E0842C00200E
:106FC400FEFF7F00912D002008B5FFF733FE104B24
:106FD40000200B2218809A700E4B18600E4B18700C
:106FE4000E4B18700E4B4FF48012C021C3F8802151
:106FF40083F814131A6002F18042A2F56F22C2F8DA
:10700400080583F81113074BD2F804251A6008BD4C
:10701400842C0020A42D00209C2D00209D2D0020D8
:1070240000E100E0A02D0020074B9B784BB132B16A
:1070340028B10368187C20B959745A617047072035
:1070440070470820704700BF842C00202DE9F743C7
:107054001E4FBB7805460E469046A3B398B3042949
:107064002FD943697BB3437C0024012B0DF1070026
:107074000CBF8946A1468DF8074000F03DF80DF19C
:107084000600FFF791FDD0B101230370104B45605A
:10709400D3F80435C0E90498C0E902369DF80630F7
:1070A4007B709DF8070000F04BF824B9094B4FF4AE
:1070B4008012C3F80021204603B0BDE8F083042405
:1070C400EFE70724F7E70824F5E700BF842C002046
:1070D4000010014000E100E0064A92783AB130B174
:1070E400426922B1002202740221FFF773BD082015
:1070F400704700BF842C002070B5EFF3108672B681
:107104000C4A946801239CB993600B4B0B4DD3F844
:10711400801029401160C3F88050D3F88410516066
:107124004FF0FF32C3F88420047006B962B670BD14
:107134000370FAE7A82D002000E100E0FC06FFBD83
:10714400084B9A6810B55AB150B9EFF3108172B672
:10715400054A1C6814605C685460986001B962B6A2
:1071640010BD00BFA82D002000E100E070B5064D61
:107174000646002455F8043B0BB1304698470134C9
:10718400042CF7D170BD00BFC02D0020033080B2A5
:1071940040F2FD33984230B51FD8124B1A783AB9F1
:1071A4001C895D892C440444A4B2B4F5806F0AD3CD
:1071B4001A7DA2B99A8BDC8B2244024492B2B2F5B6
:1071C400806F0CD201220A801446142202FB04337D
:1071D4005A8910445881002030BD0920FCE707205B
:1071E400FAE700BFF42D00200B4A0C4B5188142001
:1071F40000FB0131CB6833B90420496810700122C7
:10720400074801F0C9BA05230649137002238B808D
:10721400012200230968F3E7D82D0020F42D002073
:1072240080280020BC2E002007B5002305490093C8
:10723400054A09680548082301F018FA03B05DF807
:1072440004FB00BFBC2E00206488030080280020BB
:1072540007B50023009301460823034A034801F0BD
:1072640005FA03B05DF804FB5C8803008028002065
:1072740013B500230C46009301460423074A08482B
:1072840001F0F4F938B9074B142202FB043401234A
:10729400237402B010BD0E20FBE700BF5888030022
:1072A40080280020F42D002037B50A480A4B426894
:1072B4009C88196853880325033305709BB200200A
:1072C40000909B0001EB8401044801F0CFF903B066
:1072D40030BD00BFD82D0020BC2E00208028002007
:1072E40010B50146044800F045FE1C220446002166
:1072F4000AF062FE204610BDA82E002068B1026884
:10730400084B9A4209D14068074B984207D0013391
:1073140098420CBF012003207047032070470020CF
:10732400704700BFDEC0ADDEFE011EF143880333AB
:1073340000EB8303994209D382884FF6FF739A4284
:1073440006D00088B0FA80F04009704702207047E8
:10735400012070472DE9F8430223DFF860800B8099
:107364000D46174600F5805600F108044FF0010958
:10737400B4420FD2236801330CD031462046FFF7C4
:10738400D5FF48B10FB187F8009002280BD14FF414
:1073940080632B80BDE8F883A368D8F8002093426B
:1073A40001D9C8F800302B886288033313442B803A
:1073B4006388033304EB8304DAE700BFEC2D002079
:1073C400154A142303FB002070B50B6844680D466E
:1073D40004F58056ABB15C88033403EB8404B442F7
:1073E4000DD2236801330AD031462046FFF79EFFB1
:1073F40001280BD010F0FF0F05D00228EFD1002098
:1074040003E00834EBE72C60012070BD638803338C
:1074140004EB8304E3E700BFF42D0020436873B555
:1074240004460D466BB3244AD1688B4229D31269B2
:10743400934226D813F0030223D1204900890989F5
:1074440088421ED12068996888421AD11C4948682C
:10745400834203D900F5805083420ED38A69934254
:107464000DD902F58052934209D201232B800020CA
:10747400B0FA80F0400902B070BD1346F6E70A2066
:10748400F6E700232B801E46019601A92888FFF702
:1074940097FF30B92B8801339BB2012B2B80F3D992
:1074A400E9E7019B226899689142EED16360034B3E
:1074B4001B892381DFE700BF80280020D82D00200E
:1074C400F42D00202DE9F8431C461C4B1B7806467E
:1074D4000F4615466BB372B36CB3DFF868804FF098
:1074E4001409A388012B01D90A2020E009FB03F326
:1074F40018F803302BB92146A088FFF761FF20B9A3
:107504002060A3880133A380EBE723681EB1998828
:1075140032889142EFD11FB119883A889142EAD159
:107524009A68C5E90023064B1B892B810020BDE81E
:10753400F8830220FBE70520F9E700BFD02D0020E7
:10754400D82D0020F42D002008B5074B191D5888AC
:10755400FFF736FF18B1BDE80840FFF7A5BEBDE848
:107564000840FFF741BE00BFD82D00202DE9F04FA1
:10757400A04FDFF8A49289B00646B8463B6823B909
:1075840049469D4800F030FD3860D8F8005029780D
:107594004B1E052B00F2FA80DFE813F006005E00B4
:1075A4005E00EE00EE005C0126B1944B00225A60AE
:1075B4000124ECE02B79032B1DD8DFE803F015023E
:1075C4002A358F490B78022B084619D00B7D022BE4
:1075D4004FF0010316D114225343C2180020C8549B
:1075E4005068FFF735FE03E001232B71FFF71CFE03
:1075F400002800F0BC80814B00225A600E24C6E0B3
:107604000023E8E77D4A13700023536041F61D54BC
:10761400BDE07C497C48002302222B718A80012230
:10762400096801F0B9F8E3E7764C00262E7120686A
:10763400734DFFF70DFE754BD4F800C05A88142320
:107644005343EA18EE5451682160A188C2F804C07B
:1076540011810222A280CBE7B5F814A0AA7DDFF83D
:10766400A0B1AEB1022AEB8806D9142101FB0AB1FC
:10767400DA1C088902440A81142202FB0ABAC3F5FF
:107684007F43BAF80A20FD331344AAF80A308FE77F
:10769400142303FB0AB318895C6804EB8004062AEC
:1076A40068D8DFE802F0274D35431D59040041F640
:1076B4001D54AA7DEB88022A06D9142101FB0AB1C4
:1076C400DA1C088902440A81142202FB0ABAC3F5AF
:1076D4007F43BAF80A20FD331344AAF80A3056E06F
:1076E4004B484C4900234360AB690360FFF796FEA7
:1076F400002871D00223AB75002300930423EA18F9
:107704002146414800F0B2FF002830D00E24D0E7D3
:107714002B69002B14BF03230123AB7500230093B3
:1077240005F10C02042304F10801EAE70123AB7517
:107734000022EB8800929B002A6904F10C01E0E727
:1077440003290CBF05230623AB75002300930423F0
:1077540005F10802E118D4E70623AB752D4B19880F
:107764002B4B5868FFF784FD04460028A1D109B0CB
:10777400BDE8F08F0F249CE7002E7FF419AF2B791E
:10778400012B4BD0E3B1022B3FF440AF0F24142262
:10779400002103A80AF010FC41F61D539C4208BFC7
:1077A4000024D8F8003004941A78023A042A00F22B
:1077B4000581DFE812F0E600F20015011D01240145
:1077C40002232B710DF10A01EB68039303A8CDE9A1
:1077D4000466FFF723FE08B90A24D8E70498BDF825
:1077E4000A108388EB8003882B81FFF741FD044650
:1077F40027E000BFF02D0020A82E0020D02D00206F
:10780400F42D0020BC2E002080280020D82D00203C
:10781400B42D0020C82E0020E82D0020DFF8FCA1A4
:1078240003AA53463146A81DFFF74CFE044658B937
:10783400BAF804100498FFF71BFD04460A2C3FF421
:10784400E5AE002CA3D192E70822314650460AF057
:10785400B3FBF3E7002E7FF4ABAE6B4B1A7BAAB1FC
:107864001E731A78013A062A90D801A151F822F021
:107874001B790200417902005F79020065790200F8
:10788400917702006B7902007D7902001A78072A49
:10789400E7D801A151F822F0BD7802006778020010
:1078A40067780200E3780200F77802001779020093
:1078B40017790200DF7802001A89544901321A81CB
:1078C40000225A801A730A78B2FA82F252099A7222
:1078D4000A7DB2FA82F25209DA72012207E04C49B7
:1078E40058688A884088033202448A8002221A70C7
:1078F400B7E7464C5A884649142505FB02420868F6
:10790400546850608888108102228A800C600622A4
:10791400EDE70722EBE79A7A32B9DA7A8AB90022DC
:107924001A705A805A6071E6384900229A72CA68FD
:10793400002AF2D1097C0029EFD05A80FFF704FE17
:1079440055E70022DA72314A116A0029E7D192F828
:107954002420002AE3D00122EFE7FFF7A5FC46E745
:10796400FFF742FC43E7294A5B88142101FB032308
:107974005868FFF76DFC3AE700225A60FFF754FCA1
:1079840035E701228DF80C201A89ADF818209A8861
:10799400DB68ADF81A20059310E002228DF80C2064
:1079A4001A89ADF818209A88ADF81A20DA689B7DF8
:1079B40005929A1F534253418DF81C3003A8FFF7D8
:1079C400D5FB002649461348C8F8006000F037FB91
:1079D4000121114800F0E6FB00287FF4CFADC6E694
:1079E40003228DF80C20DA88ADF818201A89CFE725
:1079F4000422DB888DF80C20ADF81830DEE705236F
:107A04008DF80C30DAE700BFD82D0020F42D0020CB
:107A1400BC2E0020A82E0020B82E0020CC2E002042
:107A24004068FFF7A3BD000008B50121044800F039
:107A3400A3FB18B9BDE80840FFF798BD08BD00BF17
:107A4400B82E00202DE9F3419846354B1B780646A5
:107A54000D46002B5BD000295BD009884FF6FF73DD
:107A6400994258D06B88002B55D06B689B0754D132
:107A74004AB92F890DF102013846FFF787FB30B16F
:107A840002B0BDE8F08113885788ADF8023001A830
:107A9400FFF726FC044658B9BDF80230214A1421E8
:107AA40001FB032358890338C01B58810820E7E7EA
:107AB40000238375BDF8023083826B68036180F80C
:107AC40000800121184800F062FB2B882381B8F163
:107AD400030F6B88A38004BF0423A3754FF0000534
:107AE40008BF3368E06008BFA361E780658101A92E
:107AF4000E4800F069FA36B1E36833600C4B7560E8
:107B04001B89B5723381FFF78FFF0020B8E702208D
:107B1400B6E70520B4E70420B2E70320B0E700BFCE
:107B2400D02D0020F42D0020EC2D0020A82E0020C4
:107B3400D82D002008B5084B1A68042A09D0196802
:107B4400064A42F821000121184600F020FB0020DB
:107B540008BD0C20FCE700BFC42E0020C02D00206F
:107B64002DE9F04F14228BB000210DEB02000AF036
:107B740023FA764A137803F0FF01CDE901123BB1F1
:107B840005A8FFF7F3FA002738460BB0BDE8F08FDD
:107B9400029B181D00F011FB0028F4D140F6F87385
:107BA4004FF080521B685C1C08BF694B694C08BFCE
:107BB4001B6811695269581C08BF02FB01F3236159
:107BC4000022A3F540536449E360204600F01AFD07
:107BD400039407460028D7D11C238C225F496048B0
:107BE400DFF88891DFF8888100F08FF93D46BA46C6
:107BF4004FF0030B3C46039BDE6856443046314647
:107C0400FFF77CFB01284DD042B2002A36D003286E
:107C140022D106F580520868013040F08A80043190
:107C24008A42F8D1D9F800203AB902220123C9F8CE
:107C34000060A9F8042001930CE01422624302209E
:107C440008EB020108F80200464A4E6054800134F1
:107C54000881A4B245F001050AF5805ABAF5405FDF
:107C6400C9D1BBF1010F98BF0025EDB2022D03D09D
:107C7400062D35D0002D3CD10B2785E71421614317
:107C840008EB010008F8012001F1100208314660F8
:107C9400424441443046FFF75DFB45F002050134A0
:107CA400A4B2D9E7019B63B11422624308EB020139
:107CB400022008F802000134D9F800204A60088143
:107CC400A4B200222849C9F800603046FFF742FBFD
:107CD400B9F80420022A0CBF042208221543BBE78A
:107CE400029A0123137005A800235360FFF73EFA9C
:107CF4004AE704A8FFF7F4FAC8B10123013D037071
:107D04000A2D09D8DFE805F0060806080708070861
:107D14000F110F000023037104A9114800F054F956
:107D2400FFF782FE30E70323F5E70223F3E7082792
:107D34002AE70BF1FF321FFA82FB1422624308EB9D
:107D440002014E60032108F80210A8E7D02D00209C
:107D54001410001080280020608A03001C2E0020CC
:107D6400A82E0020D82D0020C02E0020BC2E0020DC
:107D7400F42D002073B50D460446C8B1C1B10DF110
:107D84000601FFF74BFBA8B10B4BBDF80600666874
:107D9400142202FB003001210C3000F0F8F9636872
:107DA4002E600C336B600123A372002002B070BDFF
:107DB4000520FBE70A20F9E7F42D002013B504465B
:107DC400A8B10DF10601FFF729FB90B10B4ABDF8EC
:107DD4000630142101FB0323DA6862B1A27A52B19E
:107DE400DA680020013ADA60A07202B010BD052002
:107DF400FBE70A20F9E70620F7E700BFF42D00208F
:107E040002230022FFF71EBE18B103230022FFF74E
:107E140019BE052070470000104B1B7813B50446AB
:107E2400ABB14FF6FF73984213D001A8FFF758FA8D
:107E340088B10523037001230371C48001A9084894
:107E440000F0C2F8FFF7F0FD002002B010BD0220E0
:107E5400FBE70420F9E70820F7E700BFD02D002056
:107E6400A82E00200E4B1B7807B5A3B101A8FFF77D
:107E740037FA90B10623037001A90A4800F0A4F868
:107E8400094B1A780AB101221A73FFF7CDFD0020BD
:107E940003B05DF804FB0220FAE70820F8E700BF0E
:107EA400D02D0020A82E0020D82D002007B5ADF835
:107EB4000600ADF804100DF1060001A9FFF702FB5E
:107EC40003B05DF804FB07B51346ADF806000A4697
:107ED40000200DF10601FFF7F5FA03B05DF804FB8D
:107EE40007B51346ADF806000A460DF10600002159
:107EF400FFF7E8FA03B05DF804FB20B119B1036899
:107F04000B60002070470520704710B561B1B2FBCB
:107F1400F3F403FB1424A4B244B9C0E9001484604C
:107F24008281C381204610BD0E20FCE70920FAE7B8
:107F340082B050E8022FC188B2EB324F4FF00003F9
:107F440017BF92B241EA014142EA014104E04268AA
:107F5400B2EB324F08BF012340E80212002AE8D1F5
:107F64008DF807309DF80730002B0CBF112000203E
:107F740002B0704737B550E8013F9DB2C48925442B
:107F84008489A54228BF2D1B0489A54202BFBFF3E3
:107F94002F8F002207E0C5EA030540E80154002CB6
:107FA400E9D14FF001028DF803200193019B9DF864
:107FB40003200B6002F0FF0322B10B880068184411
:107FC40003B030BD1846FBE70A884B889A4209D1B2
:107FD40050E8012FC2EA024240E80123002BF7D106
:107FE400012070470020704737B550E8023F1FFA60
:107FF400A3F5C488A54202BFBFF32F8F00220DE072
:10800400C48925448489A54228BF2D1BC3EA05459C
:1080140040E80254002CE8D14FF001028DF803200F
:108024000193019B9DF803200B6002F0FF0322B132
:108034004B880068184403B030BD1846FBE70A8833
:108044004B889A4209D150E8022FC2EA224240E802
:108054000223002BF7D1012070470020704701F064
:108064001F024B090121914000EB830000F063B82B
:108074004B0910B501F01F040121A14000EB83005E
:1080840000F04EF8E04000F0010010BD01F01F03C5
:1080940001229A404B0900EB8300D14300F061B800
:1080A4004B0901F01F0150F82300C84000F0010003
:1080B40070472DE9F0474E1E760980460F4601367B
:1080C400002558F8254008EB8509E44394FAA4F404
:1080D400B4FA84F44FEA451A202C06D10135AE4295
:1080E400EFD83C462046BDE8F0875444A742F5D972
:1080F40021464046FFF7BCFF0028F3D0D9F80040E2
:10810400E44394FAA4F4B4FA84F4E5E750E8002FC5
:108114000B4640E8003C9CF0000FF7D11046704736
:1081240050E8002F42EA010340E8003C9CF0000FB5
:10813400F6D11046704750E8003F43EA010240E898
:10814400002C9CF0000FF6D11046704750E8002F29
:1081540002EA010340E8003C9CF0000FF6D110460F
:10816400704750E8003F03EA010240E8002C9CF00D
:10817400000FF6D11046704750E8002F02EB0103C0
:1081840040E8003C9CF0000FF6D11046704750E8E0
:10819400003F03EB010240E8002C9CF0000FF6D1F5
:1081A4001046704750E8003FA3EB010240E8002C62
:1081B4009CF0000FF6D1104670470121FFF7B0BFC5
:1081C4000121FFF7B8BF0021FFF7C0BF0021FFF76F
:1081D400C8BF10B590B1D0E9012301689B1ADBB286
:1081E4000A60013BDBB2FF2B026802D10020107150
:1081F40010BD11684C1C14600B70F2E70E20F7E7F9
:1082040037B5054600240DF107008DF80740FEF749
:1082140073FF2A686B68116899420ED9481E106072
:1082240011F8014CEB68298A01FB0434AB6811791D
:108234001B1ADBB2994238BF13719DF80700FEF791
:108244007FFF204603B030BD37B5054600230DF14E
:1082540007000C468DF80730FEF74EFF2A681368B6
:10826400591C1160E968641A298AB4FBF1F41C7082
:108274009DF80700FEF764FF03B030BD826810B5B7
:1082840004462AB143690168006998470023A36042
:1082940010BD0EB403B5039921B104AB01AA019337
:1082A40000F074F802B05DF804EB03B070470A29DB
:1082B40038B504460D4602D10D21FFF7F8FFA36837
:1082C4002268591CA160D554D4E901329A4204D3DE
:1082D4002046BDE83840FFF7D1BF38BD2DE9F84F3F
:1082E4009946DDE90A431746824688460A4601262E
:1082F400BA420FD24E4538BF4E4613F0010B01D19E
:1083040064B900240125B9F1010F1AD909F1FF3923
:108314007D43F8E7B2FBF7F20136E9E79B070ED598
:10832400B9F1000F0CBF30252025A642EAD2013C4A
:1083340029465046FFF7BBFF002CF6D1E1E7202584
:10834400F3E7B8FBF5F39F42E2D9DFF83C90B8FBC2
:10835400F5F3504619F8031005FB1388FFF7A7FF40
:10836400B5FBF7F3BD4207D2BBF1000F02D00CB14D
:10837400A64203D3BDE8F88F1D46E8E72021504606
:10838400013CFFF794FFF2E7758803002DE9F74FEE
:10839400054617468846002900F0318118F8011B6C
:1083A40049B92B7B002B00F02A81284603B0BDE895
:1083B400F04FFFF763BF252940F0C080002698F8EE
:1083C40000302D2B424608F1010823D0302B24D055
:1083D4002B2B25D000242A2B02F1010123D13B6849
:1083E4001A1D1B683A601C440A4613782E2B26D1AA
:1083F40001324FF0000A104610F8011BA1F1300CB5
:10840400BCF1090F1DD80A2303FB0A13A3F1300A98
:108414000246F0E746F00106D1E746F00206CEE751
:1084240046F00406CBE711F8013CA3F1300009281B
:10843400DBD80A2202FB0434303C0A46CBE74FF077
:10844400000A12F8011B01F0FB0068289046F8D0DE
:1084540069290ED04AD8582964D006D825296DD068
:1084640098F80030002B99D19BE7632962D06429E6
:10847400F6D13A68D2F80090111D89EAE9723960A0
:10848400A2EBE9724FF0010B092A5BDCD34538BF3C
:10849400D3462CB1B9F1000F01DB710700D5013CC3
:1084A400B20702D5BAF1000F04D0F30702D4002CAE
:1084B4004ED10024B9F1000F52DAC9F100092D217F
:1084C4002846FFF7F4FE06F00302022A05D1BAF1AA
:1084D400000F02D1002C47D10024CDE900465346B9
:1084E4000A2249462846FFF7F9FEB9E773294CD01A
:1084F40014D87029B4D13B681A1D3A60302128463B
:108504001C68FFF7D4FE78212846FFF7D0FE00222E
:108514000823CDE9003221461022E3E775292BD048
:1085240078299DD139680A1D3A60CDE90046534641
:10853400102228E03B681A1D19783A602846FFF794
:10854400B6FE8DE70A230BF1010BB2FBF3F29BE7B6
:10855400A345AFD220212846013CFFF7A8FEA6E799
:108564007007B0D52B21ABE7A345B6D230212846FE
:10857400013CFFF79CFEADE73968CDE900460A1DD2
:108584003A6053460A220968ACE73B681A1D3A6010
:10859400F107D3F8009020D4B9F1000F25D0484654
:1085A40009F064FD0646B44200D9C4B909F1FF39A3
:1085B40020E028460136FFF77AFE19F80610002954
:1085C400F7D1A642BFF44CAF002C3FF449AF2021B1
:1085D4002846013CFFF76BFEF3E70026EDE7202178
:1085E4002846013CFFF763FEDDE74E46DBE72846FD
:1085F400FFF75DFE19F8011F0029F8D130E703B039
:10860400BDE8F08F07B50B4688B9124B1248134AE0
:10861400C01A0E23C0080093114B0004114940F006
:10862400010002F01CF90E2003B05DF804FB4BB905
:10863400084B09480C4AC01AC0080E2300930004D2
:10864400074BEBE703601B68114603B05DF804EBCE
:10865400184700BF3C8603009C8603003289030050
:108664008588030037890300AE8903002DE9F341AF
:1086740088B93D4B3D483E4AC01AC0080E243D4BC4
:10868400009400043C4940F0010002F0E8F8204660
:1086940002B0BDE8F0814AB9334B3448374AC01AB6
:1086A400C0080E2400040094324BEBE7D0F800C05D
:1086B400BCF1000F09D12C4B2C48314AC01AC00818
:1086C4000824000400942B4BDCE74BB9264B2748C5
:1086D4002C4AC01AC008092400040094254BD1E791
:1086E4004768D7F80480B3FBF8F708FB17374FB196
:1086F4001D4B1E48244AC01AC008092400040094D3
:108704001C4BBFE78F0709D0174B18481F4AC01AE4
:10871400C008102400040094164BB3E712F0030FB2
:1087240009D0114B11481A4AC01AC0081024000479
:108734000094104BA6E7C768B9420BD34C1E0569D9
:108744001C44AC4206D8DCF80C40A44602B0BDE898
:10875400F0416047044B05480E4AC01AC008102473
:1087640000040094034B8DE73C8603009C860300C1
:10877400328903009788030037890300B489030012
:10878400A889030067890300BA890300E489030008
:10879400FC8903001F8A0300F7B580B92A4B2B48D4
:1087A4002B4AC01AC0080E242A4B009400042A49FC
:1087B40040F0010002F053F8204603B0F0BDD0F8B9
:1087C40000C0BCF1000F09D11F4B2048234AC01A36
:1087D400C0080824000400941E4BE8E74AB91A4B69
:1087E4001A481F4AC01AC008092400040094194BEF
:1087F400DDE74768D7F800E00EF1FF370F4209D0F4
:10880400114B1248174AC01AC008102400040094DF
:10881400104BCCE7C768B9420CD34C1E05690EFB5C
:108824000244AC4206D8DCF81040A44603B0BDE8CC
:10883400F0406047044B05480B4AC01AC008102496
:1088440000040094034BB2E73C8603009C860300BB
:1088540032890300AA88030037890300A88903002A
:1088640067890300BD880300E388030029DF70479C
:1088740028DF704770B503689D6886B004460E46CD
:108884006DB114220021684609F096FBA368059394
:10889400237901962BB1012B0DD06846A84706B069
:1088A40070BD01238DF8003023690293E3680393BC
:1088B40063690493F1E702238DF80030E3681B0336
:1088C4000293F5E70846704700207047024B187A78
:1088D400003018BF01207047702F0020034B187A16
:1088E4000122B0FA80F05A7440097047702F0020BA
:1088F40008B510461A4609F036FB002008BD0000F2
:1089040008B514220021044809F056FB0348FFF778
:108914000FFB002008BD00BF702F0020602F002037
:1089240010B5094C094B43602046FFF746FC40B99B
:1089340009F096F81C2320748C2205490548FFF79A
:10894400E4FA002010BD00BF702F0020548A0300F9
:10895400D42E0020602F002070B5244D244E2B7A95
:108964002C463BB923492448FFF73EFB306008B945
:10897400686070BD0223237233681A7972B1012AC8
:1089840024D018460321FFF775FF00232372636088
:1089940018491948BDE87040FFF751BBD3E90520D9
:1089A400121AB2F5805F28BF4FF48052D3E9031541
:1089B4009208012A014438BF01222844FFF756FFD8
:1089C40050B11128DDD101232372D2E7D3E9030288
:1089D4001044FFF74DFFF3E7237C002BC9D1014678
:1089E400BDE87040022000F009B800BF702F0020DD
:1089F400882F0020842F0020602F002038B5831E8C
:108A0400012B45D8234C237A002B41D0022B09D1CA
:108A1400032830D0204B1B680022E2601A793AB157
:108A2400012A22D0637C7BBBBDE83840FFF794BFAA
:108A3400D3E905128D1AB5F5805F94BF521902F57A
:108A440080529A619142EDD102284FF0000308BF91
:108A540019462372104B18BF0D211868FFF70AFF3F
:108A64000E490F48FFF7EBFADCE71A6901321A6185
:108A74005B699A42E7E7E3680133082B01D8E360B6
:108A8400D0E70023E360DFE7BDE8384008F0D8BF53
:108A940038BD00BF702F0020882F0020842F0020B5
:108AA400602F002000F0FD03012B08D1044B0022AD
:108AB4005A74421E504250411874FFF74DBF70471C
:108AC400702F002010B5064C201DFFF776FB28B947
:108AD400637C1BB9BDE81040FFF73EBF10BD00BF6B
:108AE400702F00202DE9F34180460D460F4801A95F
:108AF40016461F46FFF73EFA0446A8B11C22002181
:108B040009F05AFA2D0B0123237101A9C4F800803E
:108B1400A760E56066610548FFF756FAFFF7D2FFE4
:108B2400002002B0BDE8F0810420FAE7602F0020A5
:108B34002DE9F74381468846104801A917461E4689
:108B4400FFF718FA0446B0B11C22002109F034FAE8
:108B540000250A9BA36001A92571C4F80090C4E90B
:108B6400037866610548FFF72FFAFFF7ABFF284645
:108B740003B0BDE8F0830420FAE700BF602F0020B3
:108B84002DE9F047B0F806904479D2F800A09DF89A
:108B9400208009FB04F4043C06460AEB0300A042CF
:108BA4000F4688BFA4EB030A191DC2F800A0B1FB4D
:108BB400F9F509FB15114DB9A9EB0104544528BF7A
:108BC4005446BAF1000F04D1BDE8F0873668013D80
:108BD400F1E704317B1970182246B8F1000F0ED06A
:108BE40001461846AAEB040A09F0BDF9D14525440B
:108BF40036684C464FF0000128BF5446E1E7194659
:108C0400F0E7FFF7E6BAF8B546790146721E054665
:108C1400002393422D6803D30024A64202D8F8BD52
:108C24000133F6E70F682846FFF70EFB0134394697
:108C3400F3E72DE9F843068ACD1C0746FFF7E0FA6F
:108C4400043E35440446B5FBF6F5F0B14FF48073A9
:108C5400EDB28380C680013D076081464FF0000875
:108C6400A84512D23846FFF7CBFA064648B16379D5
:108C74000133637108F10108C9F8000007608146F7
:108C8400EEE72046FFF7BFFF34462046BDE8F883F1
:108C940001210430FFF77BBA10B5012104460430EA
:108CA400FFF780FA10F0FF0F04D12046BDE8104012
:108CB400FFF7A9BF10BD1FB503920022009203AABB
:108CC400FFF75EFF05B05DF804FB1FB503920122B8
:108CD400009203AAFFF754FF05B05DF804FB41DFDF
:108CE40070470000064B10B500241C70054B1C6037
:108CF400BFF35F8F0449054800F009F9204610BD11
:108D0400942F0020982F0020808A03008C2F0020AD
:108D140007B500230DF107008DF80730FEF7ECF9D5
:108D2400F1EE103A23F09F03E1EE103ABFF35F8FA8
:108D3400094B4022C3F884219DF80700FEF700FA8E
:108D440008F08EFE20B1FFF7CAFF03B05DF804FB04
:108D540020BF40BF20BFF8E700E100E002681368CD
:108D64005268934291BFD01A80680130801888BF3E
:108D7400C01A7047036881681A685B688B4234BF05
:108D840001330023D31A584258417047F7B50023E2
:108D940004460DF107000D468DF80730FEF7ACF9D7
:108DA4002046FFF7E7FF10B1237C002B3CD122685B
:108DB400A66853685168B14234BF01310021516043
:108DC40030B11168A068814234BF013100211160C3
:108DD400E2686068511E072920D8DFE801F004101A
:108DE4001F141F1F1F182A78C2542046FFF7B6FF0E
:108DF40023689A68824200D29860002415E02A8889
:108E040020F81320F1E72A6840F82320EDE7D5E99C
:108E1400006700EBC300C0E90067E6E7294602FBF0
:108E2400030009F0A0F8E0E704249DF80700FEF72A
:108E340087F9204603B0F0BD836800225A609A6027
:108E4400C3E90422DA601A6070472DE9F04106464E
:108E54000F4690461D468BB9B0687368D0E9031479
:108E640003F1010C0A1B62450FD10024C8F800402D
:108E74001DB3FFF7ABF90020BDE8F0818068FFF770
:108E84009CF90028E8D01120F6E701EA0302234008
:108E94009A4238BF6444D8F800302CBFACEB0204CB
:108EA400641A9C4228BF1C463368C8F80040134427
:108EB4003B60C3681C44C460DDE72846DCE7826885
:108EC4004368106910B50133946803441B1B8B423B
:108ED4000AD30C44C2E902441046FFF774F900288F
:108EE40014BF0020082010BD0420FCE7806808B5EA
:108EF40082680369D21A8A4207D30B44C0E9043357
:108F04000430FFF763F9002008BD0420FCE70B6878
:108F14004A684360934208BF0023016008BF43606E
:108F24007047436843B10268916852680B449342A6
:108F3400436004BF002343607047000010B50D492F
:108F4400A1F59472914201D800200FE08B1ADB1036
:108F540003EBD3735B1002EBC30452F83330834248
:108F640005D802D204F10802ECE7606810BD21467E
:108F7400E8E700BFD08B030008B5FFF7DFFF024B23
:108F8400002808BF184608BD958A03001FB50023B2
:108F94008DF807000DF10F008DF80F30FEF7ACF8D7
:108FA40008F05EFD50B90DF107010848FFF7EEFE29
:108FB4000648FFF7DFFE08B100F044FB9DF80F0000
:108FC400FEF7BEF805B05DF804FB00BFB8870300E8
:108FD40007B520B103280BD003B05DF804FB0F4B99
:108FE4001B78012BF8D100F02DFB00F033FBF3E7E5
:108FF40000230DF107008DF80730FEF77DF80748D0
:109004000378012B05D10649013000F0DBFA00F0AA
:1090140007FB9DF80700FEF793F8DDE7EC2F00202F
:10902400918F02001FB503788DF8003043680193D7
:1090340083688DF80830C3680393054A054B684676
:1090440053F8213052F82110984705B05DF804FB1D
:10905400F02F0020F82F00201FB503788DF8003082
:109064004368019383688DF80830C3680393054A05
:10907400054B684653F8213052F82110984705B043
:109084005DF804FBF02F0020F82F0020F0B5194BF9
:109094000678DFF870E043F82620174B94460A69F7
:1090A40043F826204B7F0EF806300C4607460FCCBB
:1090B40089B06D460FC594E80F0085E80F001EF8CF
:1090C4000630049653B1BCF1000F0C4A694608BF40
:1090D4000022381D00F0E4FD09B0F0BDBCF1000F22
:1090E400074A694608BF002207F10C0000F0C8FBDC
:1090F400F2E700BFF82F0020F02F00202990020093
:109104005D9002000030002000F1804000F5C04076
:10911400002382B0036003680193019B02B070478F
:1091240003681F2B83BF03F01F03036001484FF044
:10913400A04070470003005007B5019001A8FFF755
:10914400EFFF019B00EB8300D0F8002722F44032AC
:10915400C0F80027D0F8003743EA0143C0F80037CD
:1091640003B05DF804FB0000054B4FF0FF32072805
:1091740043F8202084BF1B1883F85820704700BF91
:109184000430002010B5174C94F86A3043BB04F146
:1091940030033021FF22013911F0FF0103F8012BC4
:1091A400F9D1C8B2FFF7E0FF01310C29F9D1062249
:1091B40000210D4808F000FF0C4BC02283F8062361
:1091C40040221A604FF4BE70FFF79EFF084B4FF029
:1091D4000042C3F80423012384F86A30002010BD40
:1091E4000820FCE7043000206830002000E100E0A3
:1091F40000600040034B93F86A00003018BF012060
:10920400704700BF04300020F7B53B4E33180546C5
:1092140093F93030002B6CDA8B78C3F34003002BC6
:109224000BBF082400240C200820844202D104200F
:1092340003B0F0BD56F82470013743D1701946F8D5
:10924400242080F8304013B9331983F858508B78B0
:109254005A0717D4D80737D501A80195FFF760FF3F
:10926400019B00EB8300D0F8003723F00203C0F821
:1092740000372248EA0805F007070123BB40875C52
:109284003B43835488780A7810F0020028D0A40065
:1092940004F1804404F5C0442D02D4F8103523F4BD
:1092A4004F3323F44073C4F810351204D4F8103546
:1092B40005F47C5502F4403215431D43C4F810559F
:1092C4000020B5E70134B0E701A84A780195FFF71B
:1092D40027FF019B03F5E073920040F82320C8E7C1
:1092E400083C344494F8605045EA821284F86020C3
:1092F4009EE708209CE700BF04300020683000206F
:1093040073B5224C2518064695F93020072A19DD35
:10931400224492F858309B09032B0FD1019001A8E5
:10932400FFF7FEFE019AD0F81035D340DB0707D4CF
:1093340002213046FFF700FF02B070BD012BF7D0C9
:109344000321F6E7D3B2072BF6D8930003F1804349
:1093540003F5C043D3F8100540F00100C3F810052D
:1093640002F14000800080B2FFF7CEFE0029E3D076
:1093740095F9303054F82330002BDDD0012303FA63
:1093840002F2034BC3F80423D6E700BF04300020E5
:109394000060004007B5019001A8FFF7C1FE019BE2
:1093A400D0F81005D84000F0010003B05DF804FBCC
:1093B4002DE9F04F002489B0CDE90244624D4FF409
:1093C4008072012102F1804303F5C04390B21B680F
:1093D400012B06D1D5F804330B4202D0FFF794FEDB
:1093E4000C430432B2F5907F4FEA4101EAD1574B66
:1093F4001B68012B0ED14FF4BE70FFF785FE4FF0B2
:10940400A04344F00044D3F810350293504BD3F8F2
:109414001035039314F0FF0F1AD04E4F0025012688
:10942400344210D0AB0003F1804303F5C043D3F8BA
:109434001005D3F8101557F8253023B1C1F30141B5
:10944400C0F3052098470135082D4FEA4606E7D1B9
:10945400002C75DA0DF1100800230493C8F80430C9
:109464004FF0FF33CDE90633DFF8E8A0DFF8E890EA
:1094740000273D4619F9014B631C48D0E4B201238F
:1094840024F0C00604F0070203FA02F2F00808AB65
:10949400191811F8083C134239D00AEB0603A40941
:1094A40093F930305AF823B0BBF1000F08D1032CE4
:1094B4002DD118F800C04CEA020C08F800C001E0F5
:1094C400032CF6D001A80196FFF72AFE019B11F8A0
:1094D400181C03F5E07C114250F82C00C0F3014045
:1094E40005D0022813D1032C0BD1214604E0032814
:1094F4000DD1032C05D102213046FFF71DFE0135A5
:10950400EDB2BBF1000F02D021463046D8470137F7
:10951400042FAFD1A5B14FF0A0430299D3F8102581
:1095240003F540739142D3F8103502D1039999425F
:1095340006D002920393049A059B0692079395E73B
:1095440009B0BDE8F08F00BF006000407C610040BE
:10955400000300500430002064300020014B1B68DD
:10956400184700BF703000200E4B984237B50D46A7
:1095740002D0002003B030BD00230DF107008DF8A8
:109584000730FDF7B9FD084B1C7914B901221D60A1
:109594001A719DF80700FDF7D3FD002CE9D01120C6
:1095A400E8E700BF0020004070300020034B9842E1
:1095B40001BF034B00221A601A717047002000405B
:1095C4007030002010B5124C2278FAB9114B196092
:1095D400037813F0010F104B1EBFD3F8042542F09B
:1095E4000102C3F80425D3F8002222F00102C3F8D3
:1095F40000224378094A5B01DBB282F80D334FF451
:109604000053136001232370002010BD8520FCE764
:109614007C3000207830002000D0004000E100E0E1
:10962400064B00221A6082B01B680193019B044B15
:109634000122C3F804231A6002B0704700D100402D
:1096440000D00040024A0123C2F808335360704737
:1096540000D00040064A0123C2F808335360054B8A
:109664004FF40052C3F88020034B00221A70704755
:1096740000D0004000E100E07C300020074B0022D5
:109684001A6082B01B680193019B054BD3F808054F
:10969400044B1B68C0B202B0184700BF00D10040A1
:1096A40000D00040783000200023435082B043585B
:1096B4000193019B02B070470A4610B54FF48E71B6
:1096C400FFF7F2FF136A9168C95C136A01331362EE
:1096D400C0F81C1510BD8B690A4610B54FF484718F
:1096E40023B9FFF7E1FFD0F8183510BDFFF7DCFF11
:1096F400536AD168D0F81805C854536A01335362C9
:10970400F3E700001FB501238DF80030044BCDE9C9
:109714000110D3E900126846904705B05DF804FBD8
:109724008030002030B54C4AD2F8043313F4007F63
:1097340085B015464FD0D2F82431002B4BD04FF4CE
:1097440092711046FFF7B0FF4FF40173C2F808336B
:10975400424B93F8291009B9012151603E49022274
:109764008DF80020D1F88024C1F8802403929A69EE
:109774000292DA6801920022C3E906226846D3E91C
:10978400001290473448D0F81C315BB133490A6A5F
:109794004B699A420A464BD291F82830002B47D1A4
:1097A400FFF78AFF2C4AD2F8443193B14FF4A271E7
:1097B4001046FFF779FF294B93F8291009B10121CD
:1097C40011609A692AB100229A61586AD968FFF730
:1097D40099FF05B030BDD5F804335B07D2D5D5F871
:1097E4000831002BCED01D4C1B482146FFF773FFD8
:1097F400636AA2699A422346C4D1E269E1684AB124
:109804002369E3600023606AA261E3616362FFF796
:1098140079FFB7E794F829200AB901226A600E4A51
:109824004FF40170C2F8080300229A61586AEEE707
:109834004FF48E710848FFF737FF51690029B1D002
:109844000023029191688DF80030019153616846BC
:10985400D2E900139847A5E700200040803000209B
:109864001F2886BF00F01F00044B4FF0A04300F5F3
:10987400E070022243F82020704700BF000300502C
:109884002DE9F843624F047991462C2202FB0472BD
:10989400064692F82A200D46002A40F0B3805D491E
:1098A4000068FFF761FE8046002840F0AE8029681A
:1098B4004A1C10D01F2987BF01F01F03564A0B46CC
:1098C4004FF0A0420120984003F5E073C2F8080568
:1098D400032042F823006868431C0DD01F288BBF67
:1098E40000F01F0303464C4A4FF0A04203F5E07317
:1098F4004FF0000C42F823C03368AA6995F814C0ED
:10990400C3F824256A7DBCF1010F4CEA0202C3F8B6
:109914006C25C3F81405C3F80C152BD1A968481C91
:109924000DD01F298BBF01F01F020A463A484FF0A1
:10993400A04002F5E0724FF0000C40F822C0E86845
:10994400421C13D01F2887BF00F01F0C324A8446E4
:109954004FF0A0424FF0010E0EFA0CFE0CF5E07C25
:10996400C2F808E54FF0030E42F82CE0C3F80805EE
:10997400C3F810152C236343FA18C2F804902A691B
:10998400FA50B9F1000F2AD04FF48E7130682D7F50
:10999400FFF78AFE30684FF4A271FFF785FE326844
:1099A4001E4BC2F80433120B51B20029A8BF01F1B7
:1099B40060404FEA4513BABF194802F00F0500F59D
:1099C4006140DBB2B4BF435580F8003302F01F029C
:1099D400012303FA02F24909124B43F821203368A8
:1099E4000422C3F800252C2303FB04730022C3E9DB
:1099F400062283F829205A61012283F82A2040464E
:109A0400BDE8F8834FF00808F9E74FF01108F6E7CE
:109A140080300020299702000003005080000200DB
:109A240014ED00E000E100E02DE9F0410368047961
:109A3400254D0022C3F800252C2202FB04520646C1
:109A4400526872B1214AC3F80823190B4AB20120A3
:109A5400520901F01F0100FA01F120321C4840F8BC
:109A64002210D3F80C05D3F81485D3F80815D3F8CD
:109A740010754FF0FF329042C3F81425C3F80C253B
:109A8400C3F80825C3F8102501D0FFF7E9FEB8F1A3
:109A9400FF3F02D04046FFF7E3FE7A1C02D038466F
:109AA400FFF7DEFE4B1C02D00846FFF7D9FE3068F4
:109AB400FFF77CFD2C2303FB0454002384F82A3095
:109AC4006360BDE8F08100BF8030002084020200A2
:109AD40000E100E02DE9F843224F06794FF02C090C
:109AE40009FB067480466569002D37D16261A16067
:109AF40025624FF48E71006884F82850FFF7D4FD76
:109B0400D8F80000012383602146FFF7D5FD636880
:109B1400A1462BBBD8F80050226A63699A4212D33B
:109B2400D8F80030D3F81C21002AFBD00122DA60D7
:109B340000202C2303FB067600237361BDE8F88321
:109B440094F8283043B9D5F81C31002BF8D0494695
:109B54002846FFF7B1FDDFE70F20EAE71120EDE724
:109B64002846EBE7803000200023435082B043585E
:109B74000193019B02B070471FB501238DF800309B
:109B8400044BCDE90110D3E900126846904705B0B3
:109B94005DF804FBAC3000207FB5374AD2F824616D
:109BA400002E48D010464FF49271FFF7DDFF0223D8
:109BB4008DF80030D2F88034C2F880340393D2F8A0
:109BC4003C3502932D4BDA6801920022C3E9062248
:109BD4006846D3E900129047274AD2F844317BB152
:109BE4004FF4A2711046FFF7BFFF244B996939B1B6
:109BF4000021C3E90611D968D2F83C05FFF7BCFF80
:109C04001D4AD2F82031A3B14FF490711046FFF7EA
:109C1400ABFF1A4B596961B1D2F84C15029100227D
:109C240099688DF8002001915A616846D3E90012C1
:109C3400904704B070BDD2F81031002BCCD04FF453
:109C440088711046FFF790FF0C4BD2F83C059969D8
:109C54008842C1D1DC69D96864B1D2F8005225F0D8
:109C64002005C2F800521A699C61DA60DE61FFF7D0
:109C740083FFB1E79C61FAE700200040AC3000208C
:109C84001F2886BF00F01F00044B4FF0A04300F5CF
:109C9400E070022243F82020704700BF0003005008
:109CA4002DE9F843664F06799146242202FB067299
:109CB400044692F820200D46002A40F0BB806149FA
:109CC4000068FFF751FC8046002840F0B680286801
:109CD400421C10D01F2887BF00F01F035A4A0346B6
:109CE4004FF0A0420121994003F5E073C2F8081532
:109CF400032142F8231069684B1C0DD01F298BBF28
:109D040001F01F030B46504A4FF0A04203F5E073E5
:109D14004FF0000C42F823C02368AA6995F814C0D8
:109D2400C3F824256A7DBCF1010F4CEA0202C3F892
:109D34006C25C3F80C05C3F814152BD1A968481C6D
:109D44000DD01F298BBF01F01F020A463E484FF079
:109D5400A04002F5E0724FF0000C40F822C0E86821
:109D6400421C13D01F2887BF00F01F0C364A8446BC
:109D74004FF0A0424FF0010E0EFA0CFE0CF5E07C01
:109D8400C2F808E54FF0030E42F82CE0C3F80805CA
:109D9400C3F8101524237343FA18C2F804902A69EF
:109DA400FA50B9F1000F34D04FF4887120682D7F38
:109DB400FFF7DAFE4FF490712068FFF7D5FE4FF4F9
:109DC40092712068FFF7D0FE20684FF4A271FFF76C
:109DD400CBFE22681D4BC2F80433120B51B200298A
:109DE400A8BF01F160404FEA4513BABF184802F01A
:109DF4000F0500F56140DBB2B4BF435580F8003372
:109E040002F01F02012303FA02F24909114B43F83D
:109E1400212023680822C3F80025242303FB0673AA
:109E24000022C3E906225A61012283F82020404619
:109E3400BDE8F8834FF00808F9E74FF01108F6E79A
:109E4400AC3000209D9B0200000300501003020070
:109E540014ED00E000E100E02DE9F041036804792D
:109E6400254D0022C3F80025242202FB0452064695
:109E7400526872B1214AC3F80823190B4AB201206F
:109E8400520901F01F0100FA01F120321C4840F888
:109E94002210D3F80C05D3F81485D3F80815D3F899
:109EA40010754FF0FF329042C3F80C25C3F8142507
:109EB400C3F80825C3F8102501D0FFF7E1FEB8F177
:109EC400FF3F02D04046FFF7DBFE7A1C02D0384643
:109ED400FFF7D6FE4B1C02D00846FFF7D1FE3068D0
:109EE400FFF764FB242303FB0454002384F820308D
:109EF4006360BDE8F08100BFAC30002010030200B5
:109F040000E100E001F06043B3F1005F2DE9F041AE
:109F1400074632D11C4B0679242505FB06359846A5
:109F24006C6964BB6A61A96000684FF49071FFF7C3
:109F34001BFE4FF4AC713868FFF716FE3B686A6984
:109F4400A968C3F84415C3F8482501229A606A68D1
:109F5400BAB9D3F82011D3F8582149B9002AF8D056
:109F64000F20242303FB068600237361BDE8F081E0
:109F7400002A14BF0F200020F3E71020F6E7112079
:109F8400F4E72046F2E700BFAC300020074B1B5C2F
:109F94001F2B8ABF064A4FF0A04203F01F03D2F8DA
:109FA4000405D840C04300F001007047AC8F0300A3
:109FB40000030050074B1B5C1F2B86BF03F01F03DD
:109FC40005494FF0A041012202FA03F3C1F80C3510
:109FD400704700BFAC8F030000030050074B1B5CAD
:109FE4001F2B86BF03F01F0305494FF0A041012238
:109FF40002FA03F3C1F80835704700BFAC8F0300C1
:10A004000003005008B50020FFF7E8FF0120FFF728
:10A01400E5FF0220FFF7E2FF0320BDE80840FFF759
:10A02400DDBF08B50020FFF7C5FF0120FFF7C2FF21
:10A034000220FFF7BFFF0320BDE80840FFF7BABFC7
:10A044000A4B185C1F288ABF094B4FF0A04300F04D
:10A054001F00D3F804250121814021EA02000A40AF
:10A06400C3F80805C3F80C25704700BFAC8F030084
:10A0740000030050074B1B5C1F2B8ABF064A4FF09E
:10A08400A04203F01F03D2F81005D840C04300F0EB
:10A0940001007047A88F0300000300500B2809D06B
:10A0A4000C2809D0182809D019280CBF03204FF018
:10A0B400FF3070470020704701207047022070472E
:10A0C400C20710B504460CD54FF0A0430322C3F8D1
:10A0D4003427C3F83827C3F83C27C3F84027FFF7D1
:10A0E40091FFA3070AD54FF0A0430C22C3F82C27F5
:10A0F400C3F83027C3F86027C3F8642710BDF0B550
:10A1040095B01C46164608460D46FEF7C1FD1A9B3F
:10A114000D93CDE9086400242346082205A92846A6
:10A124000A948DF82C400C94FEF7CFFD079B029304
:10A13400069B03939DF814308DF8114003F003023D
:10A14400012A1DD1BDF81440059EC3F3C203C4F314
:10A1540083148DF81030A20008230EA92846FEF7B8
:10A16400B4FDC6F3952608AB0093224602AB0EA9B4
:10A17400304600F033FC2846FEF78EFD15B0F0BDE6
:10A18400022AF8D1BDF81640C3F3C203A4098DF81E
:10A1940010300827082C264628BF08263B4632469E
:10A1A4000EA92846FEF791FDA41B08AB02AA31466E
:10A1B4000EA8374400F076FC002CEBD1DBE700005E
:10A1C400014B01221A707047513100207047000082
:10A1D40070B50E4D06460FCD88B06C460FC495E899
:10A1E4000F00002E84E80F004FF00603084A0948C8
:10A1F400009308BF00226946FEF748FF08B1FCF748
:10A204008DFC054B1E7008B070BD00BFB08F0300FD
:10A21400C5A1020094280020D030002007B5044BCB
:10A224000093044A8023FFF76AFF03B05DF804FB40
:10A234003DA20200D130002038B50D4B0D4D002059
:10A2440018700D4804782D5DD2B21C4665B10430F7
:10A25400FFF758FE08B1FCF761FC084B1A7812B1FD
:10A264002378002BFBD038BD0C30FFF733FCF1E72B
:10A27400513100200030002094280020D0300020EC
:10A2840008B50848084A0378D35C3BB10430FFF7AB
:10A29400E3FD0020BDE80840FFF79ABF0C30FFF74C
:10A2A400C3FBF6E794280020003000200120FFF7CC
:10A2B4008FBF000008B5FFF7F9FF0421034800F041
:10A2C400FBFA034B01225A7108BD00BFD487030077
:10A2D400A8280020037813F0040216D003F0030327
:10A2E400012B03D0022B09D0012070470A68008893
:10A2F4000232C0F3831002440A60F5E70B68428817
:10A30400023303EB92130B60EEE710467047000034
:10A314002DE9F04F87B000230446851C0DF107009A
:10A324000F4690468DF80730FCF7E6FE4548066870
:10A334003E60D0E90132134401339B1B824600F294
:10A344001C4600F5836900F21447AB421BD300227C
:10A35400B8F1000F70D0052363F3070264F3891288
:10A36400DAF80010DAF808309DF807000B400333E0
:10A374000D444AF82320CAF80050FCF7E1FE0120FE
:10A3840007B0BDE8F08F01213046FDF700FF4846D5
:10A39400FDF716FF3846FDF713FFDAF80400DAF884
:10A3A40008B0029000EA0B0003300AEB800002A917
:10A3B400FFF790FF029B50BB0BEA03020AEB8202F9
:10A3C40003F1020CD2680392013303EA0B0B0AEB8C
:10A3D4008B0B02F00302012ACDF808C0DBF80C1045
:10A3E40022D0022A16D083463846FDF7ECFE10B17F
:10A3F400029BCAF8043059463046FDF7C8FEDAE934
:10A4040001231344DAF8002001339B1A9DE70BEA79
:10A414000300C9E7BDF80E309B0903334FEA114B23
:10A424000CEB93030293DFE7BDF80C30C3F3831303
:10A434004FEA114B6344F5E7062363F3070264F321
:10A444009F528DE7243200200B4B0C48FF2210B59D
:10A454009A600022C3F81824C3E90022C3F8142424
:10A4640083F82024FEF7CDFB044610B90448FEF718
:10A47400E3FC204610BD00BF2432002014870300F3
:10A48400F08F030030B50A4C71B10A4A0A49121B15
:10A49400D20800239A4201D1002030BD31F8235064
:10A4A400854202D00133F5E7034654F83300F4E75C
:10A4B4003C8603001487030080280020094B0139DF
:10A4C40003EBC000032909D8DFE801F00A020406FF
:10A4D4000420704700797047407970470020704726
:10A4E400022070473C860300154B93F8203437B59F
:10A4F40004460BB918B90024204603B030BD07F058
:10A50400B5FD0130009001236A4601A90D48FEF70C
:10A514009CFC05460028EED12146009A019807F0DC
:10A5240022FDDDE900231344064803F8015C009989
:10A53400FEF7C5FC00990348FEF7D8FC019CDBE755
:10A5440024320020F08F0300034BD3E90030C31AF8
:10A5540058425841704700BF243200202DE9F0438F
:10A5640087B0FFF7F1FF0646002840F0FB807E4DE0
:10A57400C5F81804BFF34F8F6868AC680290204098
:10A58400033005EB800002A9FFF7A4FE029B18B17B
:10A59400D5F81824002A5FD004EA0302991C013379
:10A5A40005EB8202234005EB8303D268DB68049346
:10A5B40002F00303022B0392029162D1BDF80E3024
:10A5C4006A484FEA9318B8F1500FC14628BF4FF0BC
:10A5D400500969F38F1309F10801ADF80E30FEF745
:10A5E40028FB0746002800F0A880FEF751FB03A9CA
:10A5F400002308223846FEF75EFB029924EA01068E
:10A604000136B600B14535D95FFA89F97EB3F6B2A1
:10A61400A9EB0609214003315FFA89F4B146544E8F
:10A6240005EB810108234A463846FEF744FB36B160
:10A6340009F10803224631463846FEF73CFB029BEB
:10A6440008F1030803EB98030293D5F81834002BA0
:10A654004BD1D5F810445BE02A689A4204D86A606A
:10A66400304607B0BDE8F08304EA030088E74049B8
:10A674003446D7E72140033108234A4605EB8101DC
:10A68400DAE7012B59D1BDF80C303848C3F38311F4
:10A69400062928BF062161F3891302318900ADF828
:10A6A4000C30FEF7C6FA0746002846D0FEF7F0FA4B
:10A6B4000023082203A93846FEF7FDFA0026BDF858
:10A6C4000C20C2F38312B300964203F10803BCD2F8
:10A6D40002994A1C21400331029205EB81010422B4
:10A6E4003846FEF7E8FA0136E9E73846FEF7D4FAC9
:10A6F400FFF72AFF80F00100C6B2B1E7E3685B7997
:10A7040023B1236839461B6820469847E3681C68D0
:10A71400002CF3D13846FEF7BFFA0DF107008DF88F
:10A724000740FCF7E9FCD5F818340BB9029B6B60C1
:10A734009DF80700FCF704FDDAE7D5F8104454B996
:10A744000C4B0D480D49C01AC008000440F002002B
:10A7540000F06EF8CCE7236820469B689847E368CE
:10A764001C68ECE700267BE72432002014870300F2
:10A77400303200203C86030064860300FC8F030013
:10A784002DE9F74F284C80460F46924601A9012235
:10A7940018469B46D4F80890FFF7BAFD80B3019D94
:10A7A4000026A91C5E4506EB010233D100211F4897
:10A7B400FDF7ACFC80F310006A1C02EA090204EB0A
:10A7C4008202000405EA0903033340EA1840D0601A
:10A7D40014F8232068F3C50204F8232034F8232056
:10A7E40066F3891224F8232054F8232067F39F2268
:10A7F40044F8232002F0F80242F0010204F8232076
:10A8040094F820341BB1FFF7A9FE0028FBD103B054
:10A81400BDE8F08F09EA020204EB82025AF82630FE
:10A82400D3600136BEE700BF24320020403600204A
:10A8340000231A46FFF7A4BF07B50123019201AA1A
:10A84400FFF79EFF03B05DF804FB07B5CDE90023D5
:10A8540002236A46FFF794FF03B05DF804FB1FB5BB
:10A86400CDE90123069B039301AA0323FFF788FF85
:10A8740005B05DF804FB1FB5CDE90023069B0293E8
:10A88400079B03936A460423FFF77AFF05B05DF83C
:10A8940004FB7FB5CDE90023089B0293099B039336
:10A8A4000A9B04930B9B05936A460623FFF768FFF4
:10A8B40007B05DF804FB000030B50F49D1F810244F
:10A8C400002314463CB9C468237152B9C1F810047A
:10A8D4002260184630BDE46825799D4206D024687C
:10A8E400F0E7D268116821601060F2E701330A2BA7
:10A8F400E7D14FF0FF33ECE724320020094A38B5A2
:10A904000123D2F8104482F820341D4604B938BD1E
:10A91400E3685D71236820465B689847E3681C68B8
:10A92400F4E700BF24320020037A052B10B50C464F
:10A934000FD0437A23B1084A08492046FDF7A9FC01
:10A9440007492046FDF7A5FC2046BDE81040FDF769
:10A9540095BC002AF8D0F3E7479003005BA60300F8
:10A9640069900300C38873B504460D4633B1144A95
:10A9740000921449144A2846FDF78BFC217A0529D4
:10A984001CD0637A4BB1A088FFF798FD0F4B104998
:10A9940053F820202846FDF77CFC227A0D4BA08832
:10A9A40053F822600021FFF76DFD0B490346324640
:10A9B400284602B0BDE87040FDF76BBC02B070BD24
:10A9C40047900300549003004C900300149003003C
:10A9D4005BA60300789003006C9003002DE9F0431C
:10A9E40085B01F460C9D002306460C46904695F8FC
:10A9F4000C902B7329463846FFF7B4FFB8F1060FC5
:10AA040009D8DFE808F00412181F28334000314643
:10AA14002846FDF73EFC002229463846FFF784FF0E
:10AA240085F80C9005B0BDE8F083226831462846CD
:10AA3400FDF72FFCEFE7D4E9002331462846FDF764
:10AA440028FCE8E7A36800933146D4E900232846AC
:10AA5400FDF71FFCDFE7E3680193A3680093314629
:10AA6400D4E900232846FDF714FCD4E723690293B4
:10AA7400E3680193A36800933146D4E90023284690
:10AA8400FDF707FCC7E76369039323690293E3684F
:10AA94000193A36800933146D4E900232846FDF7C7
:10AAA400F8FBB8E708292DE9F84F80460E4617460B
:10AAB4001C463AD8002593F80C901D73194610468D
:10AAC400FFF750FFDFF884A0DFF884B0AE422ED940
:10AAD40018F8052059462046FDF7DBFB0135082D03
:10AAE400F4D11849DFF86CB02046FDF7D2FB4FF0E3
:10AAF400000A564520D918F80A507E2D03D8284656
:10AB040007F0D4F900B92E252A4659462046FDF708
:10AB1400C0FB0AF1010ABAF1080FEAD10122214669
:10AB24003846FFF701FF84F80C90BDE8F88F5146D2
:10AB34002046FDF7AEFBD1E703492046FDF7A9FB0C
:10AB4400E7E700BF42900300409003003E900300FB
:10AB5400389003004490030028B139B10023C1E9BF
:10AB640000301846704748F21050704748F21350AE
:10AB7400704730B1036848F240508B4208BF002050
:10AB8400704748F21050704730B119B10B689342C6
:10AB940005D30A600020704748F21350704748F20A
:10ABA400145070472DE9F041884600AF064611461F
:10ABB400404615461C46FFF7CFFF08BB21464046DA
:10ABC400FFF7CAFFE0B998F80430104A52F823801E
:10ABD400B8F1000F17D056B90D4A32F8133033B11B
:10ABE40007336A46DB08A2EBC3039D466E46224642
:10ABF40029463046C04718B9064B2B60063B2360F4
:10AC0400BD46BDE8F08148F20350F9E7F490030033
:10AC1400D89003007652464D70B505460C461E4644
:10AC2400FFF79AFF70B9AB796AB1B3420ED12979B3
:10AC3400094B53F8213063B111462046984708B9AF
:10AC4400064B236070BD48F21050FBE748F21150E8
:10AC5400F8E748F20350F5E7289103007052464D97
:10AC64002DE9F0410D460D4904461746FFF781FFD3
:10AC740090B966683946B2792846FFF785FF58B916
:10AC84003279074B53F8223023B129462046BDE8D8
:10AC9400F041184748F20350BDE8F0817052464D28
:10ACA4005C910300F0B528B14079D1B18AB948F27A
:10ACB400135015E01846F8E7441E00254E5D0F5D5D
:10ACC400575516550135013CA542F7D91B1A0144C5
:10ACD40002448342F0D2002B48F2115008BF0020F6
:10ACE400F0BD48F21050FBE72DE9F8430C4600AFE5
:10ACF40081461E49204615461E46FFF73AFF58BBBB
:10AD04001B492846FFF735FF30BBD4F804806B6835
:10AD1400984524D198F80520396A3046FFF734FF66
:10AD2400D0B998F80430134A52F82380B8F1000FD0
:10AD340018D0B9F1000F0AD10F4A32F8133033B1E9
:10AD440007336A46DB08A2EBC3039D46E946334654
:10AD54002A4621464846C047BD46BDE8F88348F226
:10AD64004150F9E748F20350F6E700BF7652464DEA
:10AD74007052464D90910300C0910300F8B50A4FFC
:10AD84000A4C0B4DE41B0121E40829700026A6425D
:10AD940003D102232B700020F8BD57F836309847B2
:10ADA4000028F9D10136F2E7CC870300D4870300E9
:10ADB400E0360020054B1A78022A04D01878431E86
:10ADC4005842584170470120704700BFE0360020C8
:10ADD40070B51B4B6A469A4206460D4605D3FFF7EB
:10ADE400E9FF78B94FF4054070BD164B1648174972
:10ADF400C01AC008000440F00100FFF719FD48F232
:10AE04001950F1E7124C236823B1124B1A68124B04
:10AE14009A420FD086B97DB910481149206001F0DB
:10AE240001F90028E0D10B4B0B4A1A6023680D4A44
:10AE34001A60D9E70020D7E748F21750D4E700BFDB
:10AE440000F803203C86030064860300D8910300C5
:10AE5400B04F0020CC3700206572E54BE43600206B
:10AE6400D03700206169614D10B51346154A6C4610
:10AE740094420ED3D3B9144A1468144A94421AD192
:10AE8400E0B913480A4600681249BDE8104001F0D1
:10AE940013B9114B11481249C01AC008000440F0FC
:10AEA4000100FFF7C5FC48F2195010BD0029E2D19A
:10AEB40048F21050F9E748F20250F6E748F217500A
:10AEC400F3E700BF00F80320CC3700206572E54BA0
:10AED400B04F0020D03700203C8603006486030076
:10AEE400D89103002DE9F0410D4617460446F0B110
:10AEF40009B3144B1A68144B9A421FD1134E3B46A4
:10AF04000A460146306801F0B3F848F2715398429A
:10AF14000FD1002211461046FFF7A6FF48B93B4661
:10AF24002A4621463068BDE8F04101F0A1B848F254
:10AF34001350BDE8F08148F21450FAE748F2025089
:10AF4400F7E700BFCC3700206572E54BB04F002017
:10AF54000122FFF7C7BF0022FFF7C4BF75DF7047A8
:10AF640076DF70477ADF70477CDF704780DF704799
:10AF74008FDF7047FBF7D2BD38B505460E4B0F483F
:10AF8400C01AC008000440F003000C462A4661B110
:10AF94000B49FFF751FC012100222846FFF7E6FF89
:10AFA40040B1BDE83840FBF7B9BD0649FFF744FCA2
:10AFB4002146F1E738BD00BF3C86030064860300E8
:10AFC400E0940300FF94030008B5094803F02EFF42
:10AFD40008B1FBF7A3FD074B07480849C01AC0088E
:10AFE400000440F00300BDE80840FFF721BC00BFA7
:10AFF400AC5200203C860300648603002C950300B9
:10B004002DE9F0438588044687B0284601F058FFAF
:10B014002388102B87B222D1AC4E337873B1237AB4
:10B0240072785B08B3EB520F08D1062204F10901D0
:10B03400B01C06F040FF002800F09E81337A73B103
:10B04400237A727A5B08B3EB520F08D1062204F11B
:10B0540009019F4806F02FFF002800F08D81284643
:10B0640001F02EFF8046204605F002FB2388103BAA
:10B07400112B38D8DFE803F0093037463757378CBF
:10B0840099A637373737373737C4904BA068012232
:10B0940003F8352003EBC50304F10801C3F80100EC
:10B0A4009E180B4689889B79B3718A4BB180588866
:10B0B4004FF6FF71884204D0D889884213D11046D4
:10B0C40000E000200C22294602FB003003F062FD60
:10B0D40048B1FBF723FD06E07C480822002100EB81
:10B0E400C50006F069FF012F238840F0B080112BC2
:10B0F40000F0A08000F2DF80102B00F0898007B000
:10B10400BDE8F083744B53F82800FFF7EDF9734A58
:10B11400734B74499B1ADB081B04024643F003007B
:10B12400FFF78AFBDFE7062204F1080104A806F012
:10B134001AFF00238DF81630694E684BF61A664BD9
:10B1440053F82800FFF7D0F9814604A8FFF7CCF99B
:10B15400F608A37B6449360403F0010346F00306B2
:10B1640000934A4603463046FFF779FBA37BDB078F
:10B17400B9D55E493046FFF75BFBB8F1020F02D147
:10B184005B4B1D80AFE7B8F1010FACD1594BF8E729
:10B19400514B53F82800FFF7A7F9504A504B564932
:10B1A4009B1ADB081B040246B8E74B4B53F82800F4
:10B1B400FFF79AF9494A4A4B50499B1ADB081B048A
:10B1C4000246ABE7444B464D53F82800FFF78CF991
:10B1D400424B4B49ED1A637B0393237B0293A37A7F
:10B1E400C3F3C0030193637AED082D04C3F3800312
:10B1F40000930246237A45F00300FFF74AFB72E707
:10B20400002304A9A088ADF81030FFF7B1FE5FE772
:10B21400324B3348A2883B49C01AC008000440F0AE
:10B224000300FFF709FB0220FEF7D8FE0320FEF718
:10B23400C1FE64E7294B2A48A2883349C01AC008D2
:10B244000004237A40F00300FFF7FFFA57E7022FC8
:10B254007FF455AF1F2B00F084802CD8102B5DD0C9
:10B26400112B7FF44CAF1D4B1D48A2882749C01AEF
:10B27400C0080004237A40F00300FFF7E6FA012037
:10B28400FEF7ACFE0020FEF795FE214BA1881A883C
:10B2940091420DD11F4A106804904FF6FF721A8034
:10B2A400032104AA1C4803F0F9FC08B1FBF736FC9F
:10B2B400FFF78AFE23E73B2B02D0562B7FF41FAF08
:10B2C4001321A088FFF74CFE50E000BF0C52002071
:10B2D4001652002094520020209503003C8603005F
:10B2E400648603004A9203006D920300A692030051
:10B2F400BA280020BC280020D4920300F592030051
:10B3040018930300729303009493030015940300AD
:10B31400B8280020F2910300AC520020224B234DA8
:10B32400A2882349ED1AED082D0445F003052846AB
:10B33400FFF782FA1F4B1A884FF6FF739A420BD11C
:10B344001D49A2882846FFF777FAA1881B4801F017
:10B35400F7FF08B1FBF7E2FB0020FEF73FFE0120F8
:10B3640065E704F10801A088FFF7F8FD00283FF421
:10B37400C6AEFBF7D3FBC2E60B4B0C48104A11498F
:10B384000095C01AC008012F4FEA00400D4B40F051
:10B39400030004BF13460A460B49FFF760FA132162
:10B3A4002846FFF7DDFDAAE63C8603006486030019
:10B3B400C6930300B8280020E6930300BE280020AB
:10B3C400459403004D940300029203000146014892
:10B3D40006F078B98852002008B5FFF7F5FD002083
:10B3E400FEF7E8FD0321094801F048FA08B1FBF72C
:10B3F40095FB074B07480849C01AC008000440F0F1
:10B404000300BDE80840FFF713BA00BFB44F0020A3
:10B414003C86030064860300F691030010B50446DD
:10B4240005F0DAF8204605F0FBF8204604F0FAFEB1
:10B4340023780C2B03D1BDE81040FFF7CDBF10BD1E
:10B444000378062B03D1406808B1FBF767BB70474C
:10B4540070B50B4D2C884FF6FF76A4B2B44201466A
:10B4640004D02888FFF788FD2E8070BD054D2B88F9
:10B474009C42FAD02888FFF77FFD2C80F5E700BFB7
:10B48400BA280020BC2800200E2808B502D00F28B6
:10B4940016D008BD57210B4806F0BEF830F008025C
:10B4A40009D020F00202112A05D043F20142904251
:10B4B40001D0FBF733FB0120BDE80840FFF7C8BF0C
:10B4C4000020F9E7385200200B78012B70B50646AE
:10B4D4000C4602D0022B36D070BD214D2A884FF67F
:10B4E400FF739A42F8D14B881E482B8003F015FC59
:10B4F40008B1FBF713FB1C4806F0B8FD38B11A4A33
:10B504001848002103F0CAFB08B1FBF707FB174BEF
:10B5140017482A881749C01AC008000440F00300DD
:10B52400FFF78AF9221D2988304606F0B3F908B1DD
:10B53400FBF7F4FA304606F087F90028CCD0BDE8D2
:10B544007040FBF7EBBA0A48084B8A880A49C01ACC
:10B55400C008000440F00300BDE87040FFF76CB978
:10B56400B8280020AC5200209D9403003C860300C0
:10B5740064860300589403008494030010B50446C1
:10B5840048B1032810D10220FEF714FD2046BDE87F
:10B594001040FEF723BD0321044801F06FF918B1F0
:10B5A400BDE81040FBF7BABA10BD00BFB44F00208D
:10B5B400FBF7B4BA00B54FF40041ADB00020FEF77C
:10B5C40043FF08B1FBF7AAFAFEF774FEFBF7FCFC95
:10B5D40008B1FBF7A3FAA3490320FBF77BF808B1F2
:10B5E400FBF79CFA01AC21460020FBF743F908B1B4
:10B5F400FBF794FA9DF80450FDF774FB08B1FBF7D0
:10B604008DFA06F0AFF908B1FBF788FA002321465A
:10B614000120019306F06EFA08B1FBF77FFA204689
:10B6240006F01AFB08B1FBF779FA8F4B1868009003
:10B6340010220021204606F0BFFC01238B4A8C48CF
:10B644008DF8083021468DF8103003F099FB08B1CD
:10B65400FBF764FA874806F009FD38B1854A844847
:10B66400002103F01BFB08B1FBF758FA6A460321DB
:10B674007F4803F013FB08B1FBF750FA00220521C1
:10B684007B4803F05DFB08B1FBF748FA11237A48C5
:10B694008DF8003006F0EAFC774982B26846FFF77D
:10B6A40063FC08B1FBF73AFA00210822204606F0B1
:10B6B40083FC724B93E8030084E803002046FFF701
:10B6C40051FC08B1FBF72AFA00216D4802F09AFFF9
:10B6D40008B1FBF723FA1C220021204606F06CFC7B
:10B6E40000234FF42032CDE901324FF4702203924B
:10B6F40003228DF81020ADF8123001220693204663
:10B70400604B8DF81420079301F0FCFA08B1FBF7A5
:10B7140005FA5D4801F0DAFD08B1FBF7FFF95B4B70
:10B724005B480193214603F023FA08B1FBF7F6F9CD
:10B734002146584803F01CFA08B1FBF7EFF903233C
:10B744000021102220468DF8003006F035FC00233D
:10B75400019301238DF80830214640F203334E480B
:10B76400CDF80CD0ADF8103005F0E9FE08B1FBF7C8
:10B77400D5F94A4B4A480193214605F0DFFF08B149
:10B78400FBF7CCF904F0F6F908B1FBF7C7F9052289
:10B794000021204606F010FC019B03F07C42414B43
:10B7A400134301939DF8083023F0030343F003038C
:10B7B40020468DF8083004F077FA08B1FBF7AEF9AB
:10B7C400394804F059FA08B1FBF7A8F9AC22002172
:10B7D400204606F0F1FB02238DF80430ADF8143056
:10B7E400324B069340F201620123ADF806208DF836
:10B7F40080304FF4967244F25063CDE923232146FE
:10B804002B4B2C482A9300F0C2FF08B1FBF786F9B2
:10B8140001212848284C00F0B7FF284B2849E41A96
:10B82400E408240444F003042046FFF701F8022D41
:10B8340014D124492046FEF7FBFF04F08DFA08B129
:10B84400FBF76CF903F086F808B1FBF767F9FEF72C
:10B8540085FE0028F6D1FDF75BFAF3E7FFF7BCFDA0
:10B86400F0E700BF8DB40200F291030045B402007A
:10B87400AC5200209D9403009E940300D8520020F3
:10B884001C52002079AF0200D1B30200B5B502000A
:10B8940094520020A052002038520020CDB402005F
:10B8A400885200201707100321B40200B02800209A
:10B8B40081B50200B44F0020648603003C86030077
:10B8C400AC940300D3940300054B1B68082B01BF01
:10B8D400044B1868B0FA80F0400918BF0020704784
:10B8E400300100103401001008B54FF080430022ED
:10B8F400C3F80C21C3F81021C3F838254FF0805247
:10B9040003F54043D2F80414C3F82015D2F8081400
:10B91400C3F82415D2F80C14C3F82815D2F810145F
:10B92400C3F82C15D2F81414C3F83015D2F818142F
:10B93400C3F83415D2F81C14C3F84015D2F82014F7
:10B94400C3F84415D2F82414C3F84815D2F82814BF
:10B95400C3F84C15D2F82C14C3F85015D2F830148F
:10B96400C3F85415D2F83414C3F86015D2F8381457
:10B97400C3F86415D2F83C14C3F86815D2F840141F
:10B98400C3F86C15D2F84424C3F87025FFF79CFF64
:10B9940010B1384B384A1A60FFF796FF18B1374B8D
:10B9A400FB22C3F81825FFF78FFF48B13449354B04
:10B9B4000A681B6822F00F0203F00F0313430B60A5
:10B9C400FFF782FF18B1304B4FF400721A604FF04A
:10B9D4008043D3F80024D20744BF6FF00102C3F8B8
:10B9E40000242A4AD2F8883043F47003C2F888301D
:10B9F400BFF34F8FBFF36F8F4FF01023D3F80022A4
:10BA0400002A03DBD3F80432002B2FDA204B012267
:10BA1400C3F80425D3F80024002AFBD04FF01022E9
:10BA24001221C2F80012D3F80024002AFBD04FF0F0
:10BA340010231222C3F80422154B1A46D3F800141B
:10BA44000029FBD00021C3F80415D2F80034002BE0
:10BA5400FBD0BFF34F8F0D490E4BCA6802F4E0626E
:10BA64001343CB60BFF34F8F00BFFDE70A4B0B4A74
:10BA74001A6008BD8C5600404881030000F0004065
:10BA8400E40E0040580200104096024000ED00E031
:10BA940000E001400400FA058C2B00200090D00344
:10BAA400BFF35F8F014B00221A6070471C530020C4
:10BAB40008B501210448FCF729FBBFF35F8FB0FAF6
:10BAC40080F0400908BD00BF1C5300200E4B984273
