:020000022000DC
:1060000000000420756302005D6302005F6302000C
:106010006163020063630200656302000000000028
:1060200000000000000000000000000067630200A4
:1060300069630200000000006B6302006D630200F0
:10604000598202006F630200118702006F63020031
:106050006F6302006F630200658502006F630200D8
:106060006F6302006F6302006F6302006F630200E0
:106070006F6302006F6302006F6302006F630200D0
:106080006F630200057102006F6302006F6302001C
:10609000A17102006F630200F1A802006F630200A9
:1060A0006F6302006F6302006F6302006F630200A0
:1060B0006F6302006F630200000000000000000038
:1060C0006F6302006F6302006F6302006F63020080
:1060D0006F6302006F6302006F6302006F63020070
:1060E0006F6302006F6302006F6302000000000034
:1060F000000000006F630200000000006F630200F8
:10610000000000000000000000000000000000008F
:10611000000000000000000000000000000000007F
:10612000000000000000000000000000000000006F
:10613000000000000000000000000000000000005F
:10614000000000000000000000000000000000004F
:10615000000000000000000000000000000000003F
:10616000000000000000000000000000000000002F
:10617000000000000000000000000000000000001F
:10618000000000000000000000000000000000000F
:1061900000000000000000000000000000000000FF
:1061A00000000000000000000000000000000000EF
:1061B00000000000000000000000000000000000DF
:1061C00000000000000000000000000000000000CF
:1061D00000000000000000000000000000000000BF
:1061E00000000000000000000000000000000000AF
:1061F000000000000000000000000000000000009F
:10620000354936480A1A02D0072291438D4634494F
:1062100034480A1A06D00722914381F309880222E2
:1062200082F3148830483149314A00F044F831484B
:106230003149324A00F03FF831483249324A00F0E1
:106240003AF832483249334A00F035F83248334997
:10625000334A00F030F833483349344A00F02BF821
:1062600033483449344A00F026F83448344900228F
:1062700000F02CF833483449002200F027F8334866
:106280003349091A082902DB002202604160314AC1
:1062900090471F481F49884205D00268043003B464
:1062A000904703BCF7E700208646EC46002000211B
:1062B000294A9047FEE7884207D0521A05D0037852
:1062C00001300B700131013AF9D17047884202D098
:1062D00002700130FAE770470000042000E003205C
:1062E0000000042000000420CCC50200982A0020F1
:1062F000F82A0020D4630200D4630200D4B602005E
:10630000CCC50200982A0020982A0020C8B70200B5
:10631000C8B70200C8B70200C8B70200C8B7020079
:10632000C8B70200C8B70200C8B70200CCC5020057
:106330002CC60200F82A0020F82A0020F82A0020A3
:10634000A4390020A4390020A4390020A439002059
:10635000A45900209D6302009D900200FEE7FEE725
:10636000FEE7FEE7FEE7FEE7FEE7FEE7FEE7FEE705
:10637000704700BF1048804710484FF0070188431E
:1063800085460F4880470F48016841F4700101605D
:10639000BFF34F8FBFF36F8FFFF732BF0A480B4930
:1063A0000B4A884207D0521A05D0037801300B708F
:1063B0000131013AF9D170477163020000000420F5
:1063C000B57D020088ED00E0C8B70200982A0020E1
:0463D000982A0020E7
:1063D4007047000007B5044B0093044A402300F0C3
:1063E40032F803B05DF804FBF5630200F92A0020DB
:1063F4002DE9F84389461446B2B10F4B0F4E0325DD
:10640400002743F00108224609EB0701002002F0AF
:10641400B3FF0744241A48B933782BB14FF47A40B8
:10642400C047013D02D13570BDE8F88301233370C4
:10643400002CE8D1F8E700BFD0B70200F82A00200A
:10644400704702F0CDBFF0B595B01C46164608461D
:106454000D4601F00FFC1A9B0D93CDE9086400244E
:106464002346082205A928460A948DF82C400C944A
:1064740001F01DFC079B0293069B03939DF81430C7
:106484008DF8114003F00302012A1DD1BDF8144018
:10649400059EC3F3C203C4F383148DF81030A20025
:1064A40008230EA9284601F002FCC6F3952608AB82
:1064B4000093224602AB0EA9304600F05DFB28464D
:1064C40001F0DCFB15B0F0BD022AF8D1BDF816408E
:1064D400C3F3C203A4098DF810300827082C2646FC
:1064E40028BF08263B4632460EA9284601F0DFFBAA
:1064F400A41B08AB02AA31460EA8374400F0A0FB47
:10650400002CEBD1DBE7000008B5FFF79AFF04216C
:10651400034800F09FFA034B01225A7108BD00BFE3
:10652400B8B70200982A0020037813F0040216D0AA
:1065340003F00303012B03D0022B09D00120704781
:106544000A6800880232C0F3831002440A60F5E747
:106554000B684288023303EB92130B60EEE710469C
:10656400704700002DE9F04F87B000230446851CD6
:106574000DF107000F4690468DF8073001F03CF806
:10658400454806683E60D0E90132134401339B1B41
:10659400824600F21C4600F5836900F21447AB42C0
:1065A4001BD30022B8F1000F70D0052363F3070258
:1065B40064F38912DAF80010DAF808309DF807005D
:1065C4000B4003330D444AF82320CAF8005001F06D
:1065D40037F8012007B0BDE8F08F0121304601F003
:1065E4008CF8484601F09FF8384601F09CF8DAF838
:1065F4000400DAF808B0029000EA0B0003300AEB5A
:10660400800002A9FFF790FF029B50BB0BEA030234
:106614000AEB820203F1020CD2680392013303EA0B
:106624000B0B0AEB8B0B02F00302012ACDF808C016
:10663400DBF80C1022D0022A16D08346384601F02B
:1066440075F810B1029BCAF804305946304601F07F
:1066540054F8DAE901231344DAF8002001339B1AD1
:106664009DE70BEA0300C9E7BDF80E309B0903332D
:106674004FEA114B0CEB93030293DFE7BDF80C30A8
:10668400C3F383134FEA114B6344F5E7062363F323
:10669400070264F39F528DE70C2C00200B4B0C482F
:1066A400FF2210B59A600022C3F81824C3E900221F
:1066B400C3F8142483F8202401F095FA044610B991
:1066C400044801F015FB204610BD00BF0C2C00202F
:1066D4003CB70200F4B7020030B50A4C71B10A4A63
:1066E4000A49121BD20800239A4201D1002030BD6E
:1066F40031F82350854202D00133F5E7034654F8BC
:106704003300F4E750B70200B8B70200982A00201B
:10671400094B013903EBC000032909D8DFE801F074
:106724000A020406042070470079704740797047D4
:10673400002070470220704750B70200034BD3E992
:106744000030C31A58425841704700BF0C2C002037
:106754002DE9F04387B0FFF7F1FF0646002840F02B
:10676400FB807E4DC5F81804BFF34F8F6868AC6892
:1067740002902040033005EB800002A9FFF7D4FE0D
:10678400029B18B1D5F81824002A5FD004EA03024A
:10679400991C013305EB8202234005EB8303D26885
:1067A400DB68049302F00303022B0392029162D18B
:1067B400BDF80E306A484FEA9318B8F1500FC1463D
:1067C40028BF4FF0500969F38F1309F10801ADF8A0
:1067D4000E3001F020FA0746002800F0A88001F0EE
:1067E40049FA03A900230822384601F056FA02990F
:1067F40024EA01060136B600B14535D95FFA89F9B4
:106804007EB3F6B2A9EB0609214003315FFA89F49D
:10681400B146544E05EB810108234A46384601F03F
:106824003CFA36B109F1080322463146384601F0F4
:1068340034FA029B08F1030803EB98030293D5F89A
:106844001834002B4BD1D5F810445BE02A689A42E7
:1068540004D86A60304607B0BDE8F08304EA030058
:1068640088E740493446D7E72140033108234A46A4
:1068740005EB8101DAE7012B59D1BDF80C3038481A
:10688400C3F38311062928BF062161F3891302315A
:106894008900ADF80C3001F0BEF90746002846D057
:1068A40001F0E8F90023082203A9384601F0F5F9BC
:1068B4000026BDF80C20C2F38312B300964203F104
:1068C4000803BCD202994A1C21400331029205EB11
:1068D40081010422384601F0E0F90136E9E738463F
:1068E40001F0CCF9FFF72AFF80F00100C6B2B1E74E
:1068F400E3685B7923B1236839461B6820469847CF
:10690400E3681C68002CF3D1384601F0B7F90DF1A7
:1069140007008DF8074000F06FFED5F818340BB966
:10692400029B6B609DF8070000F08AFEDAE7D5F859
:10693400104454B90C4B0D480D49C01AC00800044A
:1069440040F0020000F06EF8CCE7236820469B6814
:106954009847E3681C68ECE700267BE70C2C0020D2
:106964003CB70200182C002050B7020078B7020090
:1069740000B802002DE9F74F284C80460F46924696
:1069840001A9012218469B46D4F80890FFF7EAFDB6
:1069940080B3019D0026A91C5E4506EB010233D19C
:1069A40000211F4800F07EFE80F310006A1C02EAFA
:1069B400090204EB8202000405EA0903033340EAF6
:1069C4001840D06014F8232068F3C50204F823208B
:1069D40034F8232066F3891224F8232054F8232062
:1069E40067F39F2244F8232002F0F80242F00102E8
:1069F40004F8232094F820341BB1FFF7A9FE0028E3
:106A0400FBD103B0BDE8F08F09EA020204EB820275
:106A14005AF82630D3600136BEE700BF0C2C0020A4
:106A24002830002000231A46FFF7A4BF07B501232E
:106A3400019201AAFFF79EFF03B05DF804FB07B5BE
:106A4400CDE9002302236A46FFF794FF03B05DF803
:106A540004FB000030B50F49D1F81024002314467C
:106A64003CB9C468237152B9C1F8100422601846B5
:106A740030BDE46825799D4206D02468F0E7D268E9
:106A8400116821601060F2E701330A2BE7D14FF05F
:106A9400FF33ECE70C2C0020094A38B50123D2F867
:106AA400104482F820341D4604B938BDE3685D7192
:106AB400236820465B689847E3681C68F4E700BFD6
:106AC4000C2C0020037A052B10B50C460FD0437A0A
:106AD40023B1084A0849204600F08BFE07492046A6
:106AE40000F087FE2046BDE8104000F077BE002A83
:106AF400F8D0F3E74BB8020050B80200B6BE02006B
:106B0400C38873B504460D4633B1144A0092144940
:106B1400144A284600F06DFE217A05291CD0637AB8
:106B24004BB1A088FFF7F4FD0F4B104953F8202018
:106B3400284600F05EFE227A0D4BA08853F82260AE
:106B44000021FFF7C9FD0B4903463246284602B02F
:106B5400BDE8704000F04DBE02B070BD4BB80200FD
:106B64005BB8020053B8020018B8020050B8020023
:106B740080B8020073B802002DE9F04385B01F46C7
:106B84000C9D002306460C46904695F80C902B73FA
:106B940029463846FFF7B4FFB8F1060F09D8DFE8F5
:106BA40008F00412181F283340003146284600F02C
:106BB40020FE002229463846FFF784FF85F80C9012
:106BC40005B0BDE8F08322683146284600F011FE86
:106BD400EFE7D4E900233146284600F00AFEE8E74F
:106BE400A36800933146D4E90023284600F001FE4F
:106BF400DFE7E3680193A36800933146D4E90023F7
:106C0400284600F0F6FDD4E723690293E368019374
:106C1400A36800933146D4E90023284600F0E9FD37
:106C2400C7E76369039323690293E3680193A36845
:106C340000933146D4E90023284600F0DAFDB8E792
:106C440008292DE9F84F80460E4617461C463AD8C7
:106C5400002593F80C901D7319461046FFF750FF5A
:106C6400DFF884A0DFF884B0AE422ED918F80520EE
:106C74005946204600F0BDFD0135082DF4D11849D0
:106C8400DFF86CB0204600F0B4FD4FF0000A564522
:106C940020D918F80A507E2D03D8284604F08AF823
:106CA40000B92E252A465946204600F0A2FD0AF1D5
:106CB400010ABAF1080FEAD1012221463846FFF74A
:106CC40001FF84F80C90BDE8F88F5146204600F08F
:106CD40090FDD1E70349204600F08BFDE7E700BFB4
:106CE40046B8020044B8020042B802003CB80200B0
:106CF40048B802002DE9F04F394E87B04FF0000933
:106D0400384B1B785FFA89F5AB4202D807B0BDE86F
:106D1400F08F354BD3F800A01AF835000124D6E9DA
:106D2400001EA0F12002C0F1200304FA02F224FAAA
:106D340003F3134304FA00FC009301EA0C030293E7
:106D4400009B0EEA03030393DDE9022313430AEBDA
:106D5400C50B41D0009B21EA0C012EEA0303C6E9CE
:106D6400001301F0EFFB1AF835502049A5F1200279
:106D7400C5F1200304FA02F224FA03F31343D1E920
:106D840000C2AC40134004EA0C0105930024C3B2D2
:106D9400CDE90034009A0491C5F12003A5F1200146
:106DA40022FA03F302FA01F848EA03081346AB4057
:106DB4001F46DDE90434444508BFBB420CD1DBF86F
:106DC40004304BB19BF801104A1E51425141081A3C
:106DD400414241412846984709F1010990E700BF23
:106DE400F8300020C830002000310020F0300020AE
:106DF4002DE9F0418046204800F0B2FBD0BB0125CC
:106E0400A8F12004C8F1200325FA03F305FA04F4D9
:106E14001C431A4BD3E9001205FA08F501EA0506EA
:106E240002EA040756EA07001E461DD1404601F057
:106E340089FB134BD3E9001288B129432243C3E9E8
:106E44000012D6E900231C430E4B0B481968154366
:106E5400C6E900540022BDE8F04100F03BBB21EA42
:106E6400050122EA0402EAE721EA050522EA04040C
:106E7400C3E90054BDE8F081D0300020F830002090
:106E8400F0300020CC300020042A2DE9F3410546DF
:106E94000C4616463AD901F085FAD8B11C4B1D4967
:106EA4001D601D4BDFF884801C701C4B00221E608B
:106EB4000023C1E900231A49C1E90023013CE4B2DB
:106EC40000260327FF2C0CD1164A1748002100F096
:106ED400EFFA03E001F02EFA0028DFD002B0BDE89B
:106EE400F08123B205EBC30201A992788DF8052045
:106EF40015F833008DF8066042468DF8047001F0F1
:106F04005BFA013CE4B20028DCD0E7E70720E5E7C0
:106F140000310020F0300020C8300020CC300020A8
:106F2400F8300020F96C0200E0B80200F56D0200B0
:106F340070B5084D084E00242B789C4201D30020E4
:106F440070BD3368012113F8340001F0B1FA013443
:106F5400F2E700BFC8300020003100201FB5002137
:106F6400039001AA44F20100CDE9011100F004F8F4
:106F740005B05DF804FB000010B572B6FFF78CFD98
:106F8400FFF7E6FB0028FBD1104B114C1149E41A22
:106F9400E408240444F00100FFF744FD0E4B1B6891
:106FA400DB0700D500BE0D4944F00200FFF73AFDAF
:106FB400BFF34F8F0A490B4BCA6802F4E0621343D4
:106FC400CB60BFF34F8F00BFFDE700BF50B7020097
:106FD40078B70200E4B80200F0ED00E0F0B8020077
:106FE40000ED00E00400FA0510B58468C2688388E7
:106FF400121B934208D3C26813400268D154C36879
:107004000133C360002010BD0420FCE78268C3681C
:107014009A420AD08268838813400268D35C0B705A
:1070240083680133836000207047052070470000A7
:10703400094A537891780133DBB2994208BF00239F
:10704400117899421FBF03705078182303FB002066
:1070540014BF0430002070470431002073B5054686
:1070640000240DF107000E468DF8074000F0C4FA25
:107074000DF10600FFF7DCFF90B10670094B9DF897
:10708400062045605A709DF8070000F0D9FA24B92B
:10709400054B4FF48012C3F80021204602B070BDA6
:1070A4000424F0E70431002000E100E0024B4FF437
:1070B4003C6043F00103184700B9020038B50C4B9B
:1070C4000C4C4FF40032C3F8802001254FF4803378
:1070D400C4F84833C4F808336560FFF7E7FF064B8C
:1070E400A56000241C60FFF7E1FF044B1C7038BD51
:1070F40000E100E0001001402032002011320020A5
:10710400F8B51F4B1F491B680025C1F84051C1F851
:107114004451C1F84851C1F84C51C1F80051C1F86B
:1071240004514BB3D1F8044517490968641A24F093
:107134007F442F461A68A24209D8A41A15441A7C1F
:10714400DE691AB11F74D3E905209047AEB90F4A1E
:107154000F4B11781B788B4205D10133DBB2022B24
:1071640008BF0023137012780A4B43F822500A4BCD
:107174004FF48012C3F80021F8BD3346DAE700BFAC
:107184002432002000100140203200201D32002053
:107194001C3200201432002000E100E02DE9F04F01
:1071A400A04AA14913780978A04D994285B03CD0F2
:1071B4000133DBB2022B08BF002313709C49127801
:1071C4009C4B0F6853F822003B1823F07F430022A6
:1071D4000B602B6816461446944613B942B12B60D3
:1071E40006E0196881420ED902B12B60091A1960B0
:1071F4004FF001082B68DFF844A201930027BEB9C1
:10720400DFF840B266E0401A0C44D968C3F800C005
:10721400D3F81CE031B13A1922F07F42C3E90121CD
:10722400DE611E4601227346D7E70026B046E1E739
:107234003446F6697E4A63681268DFF80CC2A068B7
:10724400991A21F07F41614500F2A5800144216033
:10725400012222742A680023C4E90133E361002A6D
:1072640040F0A2802C60CAE75A1C9BF80210D2B2EC
:1072740091428BF8002004BF00228BF800201822D2
:1072840002FB03B31A799C68022A1CD0032A12D089
:10729400012A1FD1207CE8B9D3E90312A2605A69FC
:1072A400E2609A69644BA2611B78002B0CBF0B4609
:1072B40003466360BEE700222B681146002B66D1AB
:1072C40042B12B6006E029680A468946002A59D152
:1072D400002323749BF800309BF801209A42C3D109
:1072E4002B682FB9019A9A4202D1B8F1000F43D00A
:1072F400002B73D0D3F800A0504D4D4BD5F8047536
:107304001C68DFF848813E1B98F8003026F07F4661
:1073140003369BB94FF48033C5F84433C5F80433BE
:10732400474B4FF400324FF00109C3F880211A6033
:10733400C5F80090FFF7BAFE88F80090B2452CBF5C
:107344005444A41924F07F44C5F84045D5F80435C5
:10735400DB1B23F07F43E41B033324F07F44A3426D
:107364000AD9D5F80435C5F84035FFF79FFE344BEC
:107374004FF40032C3F800212F4B00221A7005B0DD
:10738400BDE8F08F94422CD09146D2699EE71974DF
:107394000122DB6992E7D31A23F07F43834234BF8F
:1073A400C31A0023236053E721681368994213D852
:1073B400591A1160E26155E7091AD8691A4638B1B9
:1073C400034618688842F7D3401A186018461346D3
:1073D4002160E061DC6112E71346F2E7FFF76EFE1D
:1073E400CAE74C4511D1CB692B6073B9DFF840E093
:1073F4000120CDE90212CAF80800CEF800300E4B85
:107404001870FFF753FEDDE902121368D269C9F858
:107414001C2012B11068034413602B68994218BFF2
:10742400012755E71C3200201D32002024320020A1
:1074340020320020143200201032002000100140BD
:1074440000E100E004310020FEFF7F001132002043
:1074540008B5FFF733FE104B00200B2218809A70FA
:107464000E4B18600E4B18700E4B18700E4B4FF4E9
:107474008012C021C3F8802183F814131A6002F12A
:107484008042A2F56F22C2F8080583F81113074B56
:10749400D2F804251A6008BD0431002024320020EB
:1074A4001C3200201D32002000E100E020320020C8
:1074B400074B9B784BB132B128B10368187C20B9D3
:1074C40059745A617047072070470820704700BFFD
:1074D400043100202DE9F7431E4FBB7805460E46C4
:1074E4009046A3B398B304292FD943697BB3437C53
:1074F4000024012B0DF107000CBF8946A1468DF82D
:10750400074000F079F80DF10600FFF791FDD0B1C6
:1075140001230370104B4560D3F80435C0E9049887
:10752400C0E902369DF806307B709DF8070000F034
:1075340087F824B9094B4FF48012C3F80021204680
:1075440003B0BDE8F0830424EFE70724F7E7082439
:10755400F5E700BF043100200010014000E100E025
:10756400064A92783AB130B1426922B100220274DB
:107574000221FFF773BD0820704700BF04310020CB
:107584000648074A03780749D35C012213B1043043
:1075940001F038B90C3001F0D7B800BFA02A0020A0
:1075A4006C3200203832002010B501460E48FFF737
:1075B4001BFD0446A8B90D480D4A0378D35C63B19A
:1075C400043001F063F960B90A490748FFF71EFD6A
:1075D40038B9BDE81040FFF7D3BF0C3001F0FEF816
:1075E400F1E7204610BD00BF28320020A02A002069
:1075F4006C3200203832002070B5EFF3108672B67A
:107604000C4A946801239CB993600B4B0B4DD3F83F
:10761400801029401160C3F88050D3F88410516061
:107624004FF0FF32C3F88420047006B962B670BD0F
:107634000370FAE73C32002000E100E0FC06FFBDE5
:10764400084B9A6810B55AB150B9EFF3108172B66D
:10765400054A1C6814605C685460986001B962B69D
:1076640010BD00BF3C32002000E100E001F01F0229
:107674004B090121914000EB830000F01DB801F09B
:107684001F0301229A404B0900EB8300D14300F011
:1076940029B84B0901F01F0150F82300C84000F03D
:1076A4000100704750E8002F0B4640E8003C9CF076
:1076B400000FF7D11046704750E8003F43EA01023B
:1076C40040E8002C9CF0000FF6D11046704750E8BB
:1076D400002F02EA010340E8003C9CF0000FF6D1C1
:1076E4001046704750E8003F03EA010240E8002CCE
:1076F4009CF0000FF6D11046704750E8003F03EBB2
:10770400010240E8002C9CF0000FF6D110467047AF
:1077140050E8003FA3EB010240E8002C9CF0000F6E
:10772400F6D1104670470121FFF7C6BF0021FFF7CD
:10773400CEBF10B590B1D0E9012301689B1ADBB22A
:107744000A60013BDBB2FF2B026802D100201071FA
:1077540010BD11684C1C14600B70F2E70E20F7E7A3
:1077640037B5054600240DF107008DF80740FFF7F3
:1077740043FF2A686B68116899420ED9481E10604D
:1077840011F8014CEB68298A01FB0434AB681179C8
:107794001B1ADBB2994238BF13719DF80700FFF73B
:1077A4004FFF204603B030BD37B5054600230DF129
:1077B40007000C468DF80730FFF71EFF2A68136890
:1077C400591C1160E968641A298AB4FBF1F41C702D
:1077D4009DF80700FFF734FF03B030BD826810B591
:1077E40004462AB143690168006998470023A360ED
:1077F40010BD0EB403B5039921B104AB01AA0193E2
:1078040000F074F802B05DF804EB03B070470A2985
:1078140038B504460D4602D10D21FFF7F8FFA368E1
:107824002268591CA160D554D4E901329A4204D388
:107834002046BDE83840FFF7D1BF38BD2DE9F84FE9
:107844009946DDE90A431746824688460A460126D8
:10785400BA420FD24E4538BF4E4613F0010B01D148
:1078640064B900240125B9F1010F1AD909F1FF39CE
:107874007D43F8E7B2FBF7F20136E9E79B070ED543
:10788400B9F1000F0CBF30252025A642EAD2013CF5
:1078940029465046FFF7BBFF002CF6D1E1E720252F
:1078A400F3E7B8FBF5F39F42E2D9DFF83C90B8FB6D
:1078B400F5F3504619F8031005FB1388FFF7A7FFEB
:1078C400B5FBF7F3BD4207D2BBF1000F02D00CB1F8
:1078D400A64203D3BDE8F88F1D46E8E720215046B1
:1078E400013CFFF794FFF2E706B902002DE9F74FD8
:1078F400054617468846002900F0318118F8011B17
:1079040049B92B7B002B00F02A81284603B0BDE83F
:10791400F04FFFF763BF252940F0C080002698F898
:1079240000302D2B424608F1010823D0302B24D0FF
:107934002B2B25D000242A2B02F1010123D13B68F3
:107944001A1D1B683A601C440A4613782E2B26D154
:1079540001324FF0000A104610F8011BA1F1300C5F
:10796400BCF1090F1DD80A2303FB0A13A3F1300A43
:107974000246F0E746F00106D1E746F00206CEE7FC
:1079840046F00406CBE711F8013CA3F130000928C6
:10799400DBD80A2202FB0434303C0A46CBE74FF022
:1079A400000A12F8011B01F0FB0068289046F8D089
:1079B40069290ED04AD8582964D006D825296DD013
:1079C40098F80030002B99D19BE7632962D0642991
:1079D400F6D13A68D2F80090111D89EAE97239604B
:1079E400A2EBE9724FF0010B092A5BDCD34538BFE7
:1079F400D3462CB1B9F1000F01DB710700D5013C6E
:107A0400B20702D5BAF1000F04D0F30702D4002C58
:107A14004ED10024B9F1000F52DAC9F100092D2129
:107A24002846FFF7F4FE06F00302022A05D1BAF154
:107A3400000F02D1002C47D10024CDE90046534663
:107A44000A2249462846FFF7F9FEB9E773294CD0C4
:107A540014D87029B4D13B681A1D3A6030212846E5
:107A64001C68FFF7D4FE78212846FFF7D0FE0022D9
:107A74000823CDE9003221461022E3E775292BD0F3
:107A840078299DD139680A1D3A60CDE900465346EC
:107A9400102228E03B681A1D19783A602846FFF73F
:107AA400B6FE8DE70A230BF1010BB2FBF3F29BE761
:107AB400A345AFD220212846013CFFF7A8FEA6E744
:107AC4007007B0D52B21ABE7A345B6D230212846A9
:107AD400013CFFF79CFEADE73968CDE900460A1D7D
:107AE4003A6053460A220968ACE73B681A1D3A60BB
:107AF400F107D3F8009020D4B9F1000F25D04846FF
:107B040003F00DFA0646B44200D9C4B909F1FF39AD
:107B140020E028460136FFF77AFE19F806100029FE
:107B2400F7D1A642BFF44CAF002C3FF449AF20215B
:107B34002846013CFFF76BFEF3E70026EDE7202122
:107B44002846013CFFF763FEDDE74E46DBE72846A7
:107B5400FFF75DFE19F8011F0029F8D130E703B0E3
:107B6400BDE8F08F2DE9F047B0F806904479D2F8DB
:107B740000A09DF8208009FB04F4043C06460AEBAF
:107B84000300A0420F4688BFA4EB030A191DC2F8E4
:107B940000A0B1FBF9F509FB15114DB9A9EB0104DE
:107BA400544528BF5446BAF1000F04D1BDE8F0870C
:107BB4003668013DF1E704317B1970182246B8F1AB
:107BC400000F0ED001461846AAEB040A03F029F967
:107BD400D145254436684C464FF0000128BF544631
:107BE400E1E71946F0E7FFF7A4BDF8B54679014689
:107BF400721E0546002393422D6803D30024A64237
:107C040002D8F8BD0133F6E70F682846FFF7CCFD2C
:107C140001343946F3E72DE9F843068ACD1C0746BB
:107C2400FFF79EFD043E35440446B5FBF6F5F0B17E
:107C34004FF48073EDB28380C680013D07608146B6
:107C44004FF00008A84512D23846FFF789FD0646D2
:107C540048B163790133637108F10108C9F8000080
:107C640007608146EEE72046FFF7BFFF3446204613
:107C7400BDE8F88301210430FFF73FBD10B50121B1
:107C840004460430FFF744FD10F0FF0F04D12046F2
:107C9400BDE81040FFF7A9BF10BD1FB50392002235
:107CA400009203AAFFF75EFF05B05DF804FB1FB561
:107CB40003920122009203AAFFF754FF05B05DF876
:107CC40004FB0000064B10B500241C70054B1C601F
:107CD400BFF35F8F0449054800F013F8204610BD38
:107CE400503200205432002018B9020048320020DB
:107CF400836800225A609A60C3E90422DA601A6039
:107D040070470B684A684360934208BF00230160D0
:107D140008BF43607047436843B102689168526882
:107D24000B449342436004BF002343607047000048
:107D340010B50D49A1F59472914201D800200FE0CD
:107D44008B1ADB1003EBD3735B1002EBC30452F802
:107D54003330834205D802D204F10802ECE76068AC
:107D640010BD2146E8E700BF68BA020008B5FFF776
:107D7400DFFF024B002808BF184608BD2DB90200DA
:107D840010B50446C0B2FFF70FFC204610BD00003A
:107D9400054B1B68082B01BF044B1868B0FA80F030
:107DA400400918BF00207047300100103401001052
:107DB40008B54FF080430022C3F80C21C3F810210A
:107DC400C3F838254FF0805203F54043D2F8041429
:107DD400C3F82015D2F80814C3F82415D2F80C14EB
:107DE400C3F82815D2F81014C3F82C15D2F81414BB
:107DF400C3F83015D2F81814C3F83415D2F81C148B
:107E0400C3F84015D2F82014C3F84415D2F824144A
:107E1400C3F84815D2F82814C3F84C15D2F82C141A
:107E2400C3F85015D2F83014C3F85415D2F83414EA
:107E3400C3F86015D2F83814C3F86415D2F83C14AA
:107E4400C3F86815D2F84014C3F86C15D2F844246A
:107E5400C3F87025FFF79CFF10B1384B384A1A60FD
:107E6400FFF796FF18B1374BFB22C3F81825FFF72D
:107E74008FFF48B13449354B0A681B6822F00F0262
:107E840003F00F0313430B60FFF782FF18B1304B6D
:107E94004FF400721A604FF08043D3F80024D207E5
:107EA40044BF6FF00102C3F800242A4AD2F8883094
:107EB40043F47003C2F88830BFF34F8FBFF36F8F62
:107EC4004FF01023D3F80022002A03DBD3F8043246
:107ED400002B2FDA204B0122C3F80425D3F8002409
:107EE400002AFBD04FF010221221C2F80012D3F85E
:107EF4000024002AFBD04FF010231222C3F80422DE
:107F0400154B1A46D3F800140029FBD00021C3F8FE
:107F14000415D2F80034002BFBD0BFF34F8F0D496A
:107F24000E4BCA6802F4E0621343CB60BFF34F8F79
:107F340000BFFDE70A4B0B4A1A6008BD8C5600408F
:107F44004881030000F00040E40E00405802001095
:107F54004096024000ED00E000E001400400FA0514
:107F6400B42A00200090D003074B1B5C1F2B8ABF50
:107F7400064A4FF0A04203F01F03D2F80405D8408C
:107F8400C04300F00100704726BE02000003005009
:107F9400074B1B5C1F2B86BF03F01F0305494FF0E3
:107FA400A041012202FA03F3C1F80C35704700BF67
:107FB40026BE020000030050074B1B5C1F2B86BF2C
:107FC40003F01F0305494FF0A041012202FA03F315
:107FD400C1F80835704700BF26BE020000030050F8
:107FE40008B50020FFF7E8FF0120FFF7E5FF0220B6
:107FF400FFF7E2FF0320BDE80840FFF7DDBF08B547
:108004000020FFF7C5FF0120FFF7C2FF0220FFF7A2
:10801400BFFF0320BDE80840FFF7BABF0A4B185C56
:108024001F288ABF094B4FF0A04300F01F00D3F86C
:1080340004250121814021EA02000A40C3F8080511
:10804400C3F80C25704700BF26BE02000003005091
:10805400074B1B5C1F2B8ABF064A4FF0A04203F05C
:108064001F03D2F81005D840C04300F00100704748
:1080740022BE0200000300500B2809D00C2809D0AE
:10808400182809D019280CBF03204FF0FF3070477F
:10809400002070470120704702207047014B185C94
:1080A400704700BF22BE0200C20710B504460CD5BB
:1080B4004FF0A0430322C3F83427C3F83827C3F88A
:1080C4003C27C3F84027FFF78BFFA3070AD54FF0DF
:1080D400A0430C22C3F82C27C3F83027C3F8602729
:1080E400C3F8642710BD000038B5074C051E04F121
:1080F400080318BF1C4623682BB11A6822605B680A
:1081040028469847F7E738BD6032002020B9054B70
:1081140001225A70FFF7E8BF012802D1014A90708A
:10812400F8E770475832002020B9034B01225A70F7
:10813400FFF7DABF704700BF5832002038B50B4C48
:10814400237883B90A486360A3602361E36000F085
:1081540057F8054602F0B0FB08B900F05DF80123BA
:108164002370284638BD8525FBE700BF5832002020
:108174001181020037B50B4C00230DF107008DF877
:108184000730FFF739FAE368013BE360E56815B9A6
:1081940000F054F8A5709DF80700FFF751FA03B0FA
:1081A40030BD00BF58320020012813B509D018B1E2
:1081B40003281CD002B010BD0F4B0122C3F880204D
:1081C400F8E70E4C00230DF107008DF80730FFF798
:1081D40013FA23780BB9FFF7B1FFE3689DF80700A2
:1081E4000133E3600123A370FFF72AFAE2E700F00A
:1081F40013F8FFF7BFFFDDE700E100E0583200208D
:10820400044A137923B901211060918018467047FC
:108214008520704770320020074B1A68D2075FBF71
:10822400C02283F8002301221A604FF08043012208
:10823400C3F81825704700BF00E100E0044B012299
:108244001A604FF08042D2F81834DB03FBD4704735
:108254000C000040154B07B51A687AB100221A6069
:108264001B680093009B4FF080430122C3F808234E
:108274000F4B587910B95A711B6898470D4B1A68FF
:1082840082B100221A601B680193019B4FF0804366
:108294000222C3F80823064B1B68012003B05DF8D3
:1082A40004EB184703B05DF804FB00BF0001004075
:1082B400703200200401004000F1804000F5C0400D
:1082C400002382B0036003680193019B02B07047EE
:1082D40003681F2B83BF03F01F03036001484FF0A3
:1082E400A04070470003005007B5019001A8FFF7B4
:1082F400EFFF019B00EB8300D0F8002722F440320B
:10830400C0F80027D0F8003743EA0143C0F800372B
:1083140003B05DF804FB0000054B4FF0FF32072863
:1083240043F8202084BF1B1883F85820704700BFEF
:108334007832002010B5174C94F86A3043BB04F12E
:1083440030033021FF22013911F0FF0103F8012B22
:10835400F9D1C8B2FFF7E0FF01310C29F9D10622A7
:1083640000210D4802F086FD0C4BC02283F8062341
:1083740040221A604FF4BE70FFF79EFF084B4FF087
:108384000042C3F80423012384F86A30002010BD9E
:108394000820FCE778320020DC32002000E100E015
:1083A40000600040034B93F86A00003018BF0120BE
:1083B400704700BF78320020F7B53B4E33180546AE
:1083C40093F93030002B6CDA8B78C3F34003002B25
:1083D4000BBF082400240C200820844202D104206E
:1083E40003B0F0BD56F82470013743D1701946F834
:1083F400242080F8304013B9331983F858508B780F
:108404005A0717D4D80737D501A80195FFF760FF9D
:10841400019B00EB8300D0F8003723F00203C0F87F
:1084240000372248EA0805F007070123BB40875CB0
:108434003B43835488780A7810F0020028D0A400C3
:1084440004F1804404F5C0442D02D4F8103523F41B
:108454004F3323F44073C4F810351204D4F81035A4
:1084640005F47C5502F4403215431D43C4F81055FD
:108474000020B5E70134B0E701A84A780195FFF779
:1084840027FF019B03F5E073920040F82320C8E71F
:10849400083C344494F8605045EA821284F8602021
:1084A4009EE708209CE700BF78320020DC320020E1
:1084B40073B5224C2518064695F93020072A19DD94
:1084C400224492F858309B09032B0FD1019001A844
:1084D400FFF7FEFE019AD0F81035D340DB0707D42E
:1084E40002213046FFF700FF02B070BD012BF7D028
:1084F4000321F6E7D3B2072BF6D8930003F18043A8
:1085040003F5C043D3F8100540F00100C3F810058B
:1085140002F14000800080B2FFF7CEFE0029E3D0D4
:1085240095F9303054F82330002BDDD0012303FAC1
:1085340002F2034BC3F80423D6E700BF78320020CD
:108544000060004007B5019001A8FFF7C1FE019B40
:10855400D0F81005D84000F0010003B05DF804FB2A
:108564002DE9F04F002489B0CDE90244624D4FF467
:108574008072012102F1804303F5C04390B21B686D
:10858400012B06D1D5F804330B4202D0FFF794FE39
:108594000C430432B2F5907F4FEA4101EAD1574BC4
:1085A4001B68012B0ED14FF4BE70FFF785FE4FF010
:1085B400A04344F00044D3F810350293504BD3F851
:1085C4001035039314F0FF0F1AD04E4F00250126E7
:1085D400344210D0AB0003F1804303F5C043D3F819
:1085E4001005D3F8101557F8253023B1C1F3014114
:1085F400C0F3052098470135082D4FEA4606E7D118
:10860400002C75DA0DF1100800230493C8F8043027
:108614004FF0FF33CDE90633DFF8E8A0DFF8E89048
:1086240000273D4619F9014B631C48D0E4B20123ED
:1086340024F0C00604F0070203FA02F2F00808ABC3
:10864400191811F8083C134239D00AEB0603A4099F
:1086540093F930305AF823B0BBF1000F08D1032C42
:108664002DD118F800C04CEA020C08F800C001E053
:10867400032CF6D001A80196FFF72AFE019B11F8FE
:10868400181C03F5E07C114250F82C00C0F30140A3
:1086940005D0022813D1032C0BD1214604E0032872
:1086A4000DD1032C05D102213046FFF71DFE013503
:1086B400EDB2BBF1000F02D021463046D847013756
:1086C400042FAFD1A5B14FF0A0430299D3F81025E0
:1086D40003F540739142D3F8103502D103999942BE
:1086E40006D002920393049A059B0692079395E79A
:1086F40009B0BDE8F08F00BF006000407C6100401D
:108704000003005078320020D8320020014B1B684F
:10871400184700BFE43200200023435082B043587E
:108724000193019B02B070470A4610B54FF48E7155
:10873400FFF7F2FF136A9168C95C136A013313628D
:10874400C0F81C1510BD00002DE9F843224F06792E
:108754004FF02C0909FB067480466569002D37D15A
:108764006261A16025624FF48E71006884F828501C
:10877400FFF7D2FFD8F80000012383602146FFF7FA
:10878400D3FF6368A1462BBBD8F80050226A636903
:108794009A4212D3D8F80030D3F81C21002AFBD017
:1087A4000122DA6000202C2303FB06760023736188
:1087B400BDE8F88394F8283043B9D5F81C31002B70
:1087C400F8D049462846FFF7AFFFDFE70F20EAE776
:1087D4001120EDE72846EBE7EC3200200379044A48
:1087E4002C2101FB03235869003018BF0120704776
:1087F400EC3200200023435082B043580193019B84
:1088040002B0704701F06043B3F1005F2DE9F0411D
:10881400074632D11C4B0679242505FB06359846BC
:108824006C6964BB6A61A96000684FF49071FFF7DA
:10883400E1FF4FF4AC713868FFF7DCFF3B686A690D
:10884400A968C3F84415C3F8482501229A606A68E8
:10885400BAB9D3F82011D3F8582149B9002AF8D06D
:108864000F20242303FB068600237361BDE8F081F7
:10887400002A14BF0F200020F3E71020F6E7112090
:10888400F4E72046F2E700BF183300200379044AD6
:10889400242101FB03235869003018BF01207047CD
:1088A400183300200220FFF7B9BB00002DE9F04780
:1088B40081460D46FFF7E0FB0328044604D8012D4A
:1088C40004D025B3022D2FD0BDE8F087194D470001
:1088D4003A18A918AE5C4A7852B1DFF86880164895
:1088E40042464FF40041FEF7F5FD08B988F80090C0
:1088F4003B192B449A78114B1A55002EE4D0104B97
:108904001B68002BE0D03046BDE8F04718470A4802
:10891400FEF726FE074B04EB440213449E78074BF4
:108924001B5DB342D0D1E8E7024B00EB40041C448A
:108934006678E2E7A033002060330020B9330020DA
:10894400B43300203C33002002210078FFF7AEBF8F
:1089540008B5094B1B7853B10020FFF72DFB01200C
:10896400FFF72AFB0320BDE80840FFF725BBBDE85D
:108974000840FFF735BB00BF3D330020F8B57B4C02
:10898400237805461BB100232370FFF7E1FF172D61
:1089940000F28880DFE805F00C17174354657680F1
:1089A400888D888D959A9A9A9A9AC4C9D1D9E4E403
:1089B400FFF7CEFF6E48FEF7D3FD6E4B0022044650
:1089C4001A702046F8BD0020FFF7CEFAF8B1002057
:1089D400FFF7F2FA022D0CBF4FF4E1614FF47A6114
:1089E400644B1D704FF400404FF4FA740025E0FB13
:1089F40001454FF47A7200232046294602F0E4F838
:108A0400002201465A48BDE8F840FEF763BDFFF76F
:108A1400BFFA022D0CBFC8214FF4C871E0E7002053
:108A2400FFF7A2FA40B10020FFF7C6FA4FF44871ED
:108A3400504B03221A70D5E7FFF7AAFAC821F7E7CB
:108A44000020FFF791FA38B10020FFF7B5FA4FF490
:108A54007A61484B0422EDE7FFF79AFA4FF4C871A4
:108A6400F7E70020FFF780FA48B10020FFF7A4FAE7
:108A7400404B05221A7041F69A110022C2E7FFF713
:108A840087FAF5E70020FFF7C9FA3A4B06221A7075
:108A9400002240F6CD41B5E70020FFF779FA354BC7
:108AA40007221A7000248CE701202070FFF7B6FA21
:108AB400EEE701202070FFF7B1FA00224FF4804165
:108AC400A0E7FFF79CFA2B4B0C22EAE72A482B4E2F
:108AD400FEF746FDD5F1110504461CD0D8B9012D89
:108AE40013D0C8235D434FF400474FF4FA700021BC
:108AF4004FF47A720023C7FB050102F065F82246A1
:108B040001461D48FEF7E6FC04460220FFF740FA42
:108B14000123337055E70220FFF74EFA0023F8E7EC
:108B2400FFF716FF134B1222BBE7FFF711FF0020DC
:108B3400FFF72EFA0F4B1322B3E7FFF709FF0120CB
:108B4400FFF726FA0B4B1422ABE7FFF701FF0020D7
:108B5400FFF71EFA0120FFF71BFA064B1522A0E7C8
:108B6400FFF74DFA034B1D709CE700BFB0330020A4
:108B740080330020B8330020403300203D330020F0
:108B8400044B1B68DB0703D5034B1878FFF7F6BECD
:108B9400704700BFAC330020B8330020002910B563
:108BA40014BF03240024FFF779FA1F288ABF0A4B55
:108BB4004FF0A04300F01F0003EB8000D0F8002723
:108BC40022F44032C0F80027D0F8003743EA0443C7
:108BD400C0F80037002010BD00030050032801D85E
:108BE400FFF736BA00207047044B1B6813F00103EB
:108BF40001D0FFF7C3BE1846704700BFAC33002056
:108C040038B51C4B18601C4B10F002040546196063
:108C14001AD01A4B1A480E221A700F22DA70102238
:108C24009A7111225A72042140F26662FEF72CF9FD
:108C3400044648B9FEF77CF9044628B90146114AAE
:108C44001148FEF735FC0446EB0711D50120FFF768
:108C54002BFA6CB921460D4A0D48FEF729FC04464F
:108C640030B90C4A0C480121BDE83840FEF720BC5D
:108C7400204638BDAC330020B4330020A03300209C
:108C840048BE02004D8902006CBE0200858B0200C2
:108C940070BE0200A988020068BE0200032813D82F
:108CA400012A0BD1012908D100F10E02D2B200EB46
:108CB40040000C4B1A540020704700220129F6D0C2
:108CC4004BB24BB1022901D007207047054B00EB92
:108CD400400018444270EEE7024900EB40000844AB
:108CE4008270E8E7A0330020032802D80121FFF7AF
:108CF40055BF0620704708B5012202210020FFF766
:108D0400CDFF08B1072810D1072202210120FFF767
:108D1400C5FF08B1072808D100210A220846FFF739
:108D2400BDFF10B1072808BF002008BD0388102B21
:108D340010B502D0112B1ED010BD1A4C2168B1B948
:108D440001220846FFF7AAFF08B1072824D1072209
:108D540002210120FFF7A2FF08B107281CD1042239
:108D640002210020FFF79AFF08B1072814D12368D5
:108D740001332360E0E70B4A1368013B1360002BC7
:108D8400DAD1FFF7B8FF0028D6D0074B1B68002BB9
:108D9400D2D0BDE810401847034B1B68002BE6D027
:108DA4009847E4E7C4330020C033002008B500200E
:108DB400FFF79AFF08B1062806D10120FFF794FFB8
:108DC40010B1062808BF002008BD00000D4B10B5E7
:108DD40018600C4629B10120FFF700FF40B10223BF
:108DE4002370094B1B6853B9BDE81040FFF783BFDC
:108DF400FFF7F4FE08B10B23F2E72070F1E700203F
:108E040010BD00BFC0330020C433002076DF70479C
:108E14007ADF70477CDF70477FDF70478FDF7047F2
:108E2400B1DF704733DF7047FEF798B808B500200C
:108E3400FFF7DAFE08B1FEF791F8FFF7B7FF08B1C4
:108E4400FEF78CF8FFF7EEFF18B1BDE80840FEF717
:108E540085B808BD0388212B13B504463BD01FD821
:108E6400112B28D0132B3ED0102B32D1264B274860
:108E74002749C01AC008000440F00300FDF7D2FDE2
:108E84000720FFF7B1FE08B1FEF768F8214BA1886F
:108E94002148198001F018FBD8B1FEF75FF818E0FB
:108EA400522B28D0562B01D03B2B12D11321A08852
:108EB400FFF7ACFFF0E7144B14481849C01AC00878
:108EC400000440F00300FDF7ADFD124B4FF6FF72B6
:108ED4001A8002B010BD002301A98088ADF80430C7
:108EE400FFF79CFFD8E70B4800231A46852100882A
:108EF400FFF792FFD0E7074800231A461946008877
:108F0400FFF78EFFC8E700BF50B7020078B7020032
:108F140074BE0200BE2A0020383600207EBE020045
:108F24000D4B4A881B889A4214D10A8840F677234D
:108F34009A420FD18B88094A09480A49033B9BB2DC
:108F44001380094A801AC00800041A4640F003003E
:108F5400FDF775BD704700BFBE2A0020BC2A002063
:108F640078B702008BBE020050B7020008B5037840
:108F74004BB9054B3B211888FFF748FF18B1BDE8F2
:108F84000840FDF7EBBF08BDBE2A0020072808B53E
:108F940013D00A280DD0042819D10D4B1321188899
:108FA400FFF734FF30F0080311D0BDE80840FDF7A7
:108FB400D5BFBDE80840FFF739BF054B1A884FF607
:108FC400FF739A4203D1034800F053FEEAE708BD59
:108FD400BE2A0020C833002008B548B103280BD1AD
:108FE4000220FFF701FE38B1BDE80840FDF7B6BF27
:108FF400BDE80840FFF71ABF08BD00002DE9F041A5
:109004000578064645BB154C154BDFF85880E41A25
:10901400E408240444F00104B28A95420AD3336973
:10902400134413F8013C0D2B16D10A20FEF7BCFAA9
:109034001128F9E73369585DFEF7B6FA074648B1D7
:109044001128F7D0024641462046FDF7EFFC38468A
:10905400FDF784FF0135DFE7BDE8F08178B7020052
:1090640050B70200EEBE0200FDF778BF08B508490C
:10907400084801F015F908B1FDF770FFF72105481C
:1090840001F022F918B1BDE80840FDF767BF08BD3B
:10909400258F02002036002000B56648ADB001F0EF
:1090A4008FFE4FF400410020FDF7F8FA08B1FDF7F8
:1090B40055FFFDF729FAFEF7CBF908B1FDF74EFF8E
:1090C4005D490320FFF79CFD08B1FDF747FF01A9A7
:1090D4000020FFF77BFE08B1FDF740FFFEF7F2FD2D
:1090E40008B1FDF73BFF01F0A9FB08B1FDF736FF1E
:1090F400002301A90120019301F02EFC08B1FDF722
:109104002DFF01A801F0F6FC08B1FDF727FF11239C
:109114004A488DF8003001F002FF484982B268469F
:10912400FFF778FE08B1FDF719FF0021082201A816
:1091340001F0A0FE42494FF0C87301A8CDE9011324
:10914400FFF766FE08B1FDF709FFFFF78FFF3D4B00
:109154003D48019301A901F0A5F908B1FDF7FEFE10
:1091640000210422684601F085FE384B38480093FC
:10917400694601F0A3FA08B1FDF7F0FEAC22002124
:1091840001A801F077FE02238DF804304FF4A063A8
:10919400304AADF806300123ADF8503015928DF801
:1091A4008030402244F25063CDE9232301A92A4BA5
:1091B4002A482A9300F0A0FB08B1FDF7CFFE012155
:1091C400264800F096FB1C22002101A801F052FE63
:1091D40000234FF42032CDE90132ADF812304FF4C0
:1091E40070228DF814301E4B0392069303221D4BFC
:1091F4008DF8102001A8079300F058FE08B1FDF780
:10920400ADFE0C4801F0DCFD174B18481849C01A94
:10921400C008000440F00300FDF704FC03210F48DC
:1092240000F0E1FB08B1FDF799FE024C204601F085
:10923400C7FDFBE7A7BE0200918F0200B9BE020082
:1092440010003C002D8E02003836002001900200F0
:10925400C02A0020B82A0020DD8F0200C833002075
:10926400718F02006D90020050B7020078B70200BF
:10927400C5BE02000369C1688B429DBF8268D218D3
:1092840002F1FF3203F1FF3394BF501A581A7047AA
:109294002DE9F041D0E9027405463E1B4068964230
:1092A40020448846144404D901F0BBFDEC60BDE8B9
:1092B400F0813246E41B01F0B4FD224608EB0601BE
:1092C4006868F1E72DE9F843C568064689461746FC
:1092D4004FF000083469B3687068A54228BFE418E9
:1092E400013C621B5C1BBC4228BF3C46944228BF25
:1092F400144649462844224601F093FDB3682544A8
:10930400AB4208BF00253F1BA044A144F560E1D156
:109314004046BDE8F883000010B5114C114AA26123
:109324000223C4E90433104BE361A2644FF40073D5
:109334000E4A2362E264002310220D49A362E01D59
:109344006362E362A3656365E365226501F0C5FDBD
:109354000849204601F0C1FD2023A37110BD00BFC0
:109364004436002019BF0200CC360020BC36002051
:1093740022BF020026BF0200F8B5184C182300FBD8
:10938400033503FB00402544C46A012C0F461646EE
:1093940011D024B1022C1BD000242046F8BD28464D
:1093A400FFF768FFB042F8D3324639462846FFF744
:1093B4006FFF3446F1E72846FFF75CFF86423446E8
:1093C40028BF0446224639462846FFF761FFE4E7F2
:1093D4002846BDE8F840FFF775BF00BF44360020BB
:1093E400FFF79ABF6DDF704779DF70477DDF704705
:1093F40064DF70472DE9F74F0C9CBDF834B0278823
:10940400002580468A4691462E46B8F80020B2428E
:109414000BDC35B12288013AD21B92B2FF2A39D82B
:10942400DA55002003B0BDE8F08FD8F8042052F8D4
:109434002600019000220DF1030101A8FFF7D8FFD7
:109444000028EFD19DF803204A4521D12288002D20
:1094540014BF0020022002EB09010144594519DC24
:109464003DB9013292B2228003F802A0228801326F
:10947400228022880DF103011A4401A8FFF7B8FFE6
:109484000028CFD121889DF803200A442280012599
:109494000136BAE70C20C5E72DE9F341089CBDF875
:1094A40024501746CDE9004502220646FFF7A2FFE5
:1094B40048B9102239463046CDE9084502B0BDE826
:1094C400F041FFF797BF02B0BDE8F0812DE9F04FFE
:1094D40000231688138090F82D3085B007460D467A
:1094E400144653B3082E01D80C2028E102A8FFF734
:1094F40079FF002840F0238113880822CA54238866
:1095040001339BB21B222380CA542088013080B2CD
:10951400208006220DF10901284401F082FC2388F1
:109524009DF8082006339BB212F0FE0218BF0122F8
:109534002380EA54238801332380BB78FBB123883A
:109544000433B342D0D802A8FFF74EFF002840F0FE
:10955400F68023880322EA54238801339BB219221C
:109564002380EA542388BDF8082001339BB2E9180C
:109574002380EA54120A4A70238802332380FA783B
:109584009AB12388D91CB142AED80221E954238868
:1095940001339BB201212380E95423880B449BB2FD
:1095A4002380EA5423880B4423807A68AAB1238851
:1095B400D91CB14298D8022192F90020E954238899
:1095C40001339BB20A212380E954238801339BB2DF
:1095D4002380EA542388013323803B89002B40F005
:1095E400A2803B8A5BB1CDE900462B4607220321CA
:1095F40007F11000FFF750FF002840F0A0803B8BDC
:109604005BB1CDE900462B461522142107F1180061
:10961400FFF742FF002840F092803A6A002A40F0A7
:109624009180D7F82480B8F1000F30D0B8F8043016
:109634002188981C8A1C0244B2423FF655AFFE288A
:109644003FF652AF03336B54238801339BB2FF229E
:109654002380EA54238801339BB22380B8F8002086
:10966400EA54E918120A4A702088023080B2208035
:10967400B8F804205AB1D8F8081000296CD028444E
:1096840001F0CFFB2388B8F804201344238097F813
:109694002C30002B40F09B80387800284FD03B883A
:1096A400012B59D0228802F1020CB4453FF61CAFBD
:1096B400012805D17B78023313449E42FFF414AF92
:1096C400023EB61AB6B202A905EB0C00ADF808606A
:1096D400FFF78CFE98BB3978BDF80820022900F00A
:1096E400BB807B78934202D3B24240F2B38001291B
:1096F40040F0B4809BB29E42C0F0B080ADF8083018
:109704000821BDF80830FE2B3FF6EEAE2288013367
:10971400AB542288013292B22280A9542288134485
:10972400238000200BE0CDE900462B4606220221CF
:1097340007F10800FFF7B0FE00283FF452AF05B070
:10974400BDE8F08FB4F800C00CF10603B3423FF655
:10975400CBAE1188052901D80720F0E76FF4486ED5
:1097640001EB0E039BB24FF27D3E7345F4D953884F
:10977400052BF1D96FF44860181880B27045EBD905
:109784004FF6FF70814203D0834201D09942E3D85F
:10979400052305F80C30238801339BB21221238062
:1097A400E954238801339BB223801188E954E818D3
:1097B400090A4170238802339BB223805288EA54F9
:1097C400E918120A4A7023880233238029E7BB6A06
:1097D400002BC1D04FF000094FF00C0A4FF0160BCC
:1097E40097F82C305FFA89F293427FF655AFB96A45
:1097F4000AFB02F201EB0208B8F80430981CFE28B8
:109804003FF672AE208803332B54238801339BB276
:10981400238005F803B0238801339BB223808A5A3E
:10982400EA54E918120A4A702088023080B2208073
:10983400B8F804205AB1D8F8081000298CD028446C
:1098440001F0EFFA2388B8F804201344238009F1C7
:109854000109C5E7092154E7B242FBD9ADF8086014
:109864004EE770B5C0B14AB116880024B44203D3A0
:1098740005196D789D4208D0A14201D800200BE063
:10988400055D01352C44A4B2F0E7A142F6D9A31C2E
:109894001380005D013880B270BD13B50023ADF8AC
:1098A400063013460DF106020446FFF7DAFF10B145
:1098B400BDF80600204402B010BD72DF704773DFAC
:1098C400704774DF704738B5012204460D46B0F87E
:1098D4003812D0F83402FFF7E0FF00B1057004F14C
:1098E4003C0204F50D7104F15400BDE83840FFF763
:1098F400E4BF80F830107047F8B504460F460029DD
:109904006DD000286BD091F87A301BB191F8983063
:10991400002B66D107F178060FCE4FF0000C251D01
:1099240084F802C00FC50FCE0FC596E8070085E87E
:10993400070084F830C0D7F8A4306363D7F8A830A0
:10994400A3634FF6FF7504F50D73C4F84432A4F80D
:1099540048520722614604F24A2001F08BFA237828
:109964000BB984F8545094F82430002B14BFEE2320
:109974001F2304F15501C4F83412A4F8383204F555
:109984000E723846FFF7A2FD40BB94F82430002B3A
:1099940014BFEE231F2304F24311C4F83C12A4F8AD
:1099A400403204F5107207F13C00FFF78FFDA8B9AF
:1099B400A369A4F848304FF480720123A4F850201E
:1099C400626920646264014684F83C3004F13C021C
:1099D40004F15400FFF771FF00B92370F8BD0E20A5
:1099E400FCE70720FAE7F8B5077804460D46002F90
:1099F40000F0078100F24A26A170072200213046B8
:109A040001F038FAE38813B1A378012B04D0E37989
:109A14004BB1A378022B06D1636B9BB1012284F86E
:109A2400512208209847324604F5147112F8013F78
:109A34005BB98A42FAD16A1E032A52D8DFE802F0DF
:109A4400070D111484F85132EDE73B46F3E7A27990
:109A54001AB194F8242002B95BB9E2790AB1002B57
:109A640041D1237A002B40D1637A002B0CBF00250F
:109A74000425636BA570002B39D0033D012D36D826
:109A84006279A2B394F852228ABB84F85422012248
:109A940084F853220720984704F13C05182200213A
:109AA400284601F0E7F9E26A0123511E994284F83D
:109AB4003C3001D9042A1ED1D3B294F8242084F86E
:109AC40051301AB1CFB1A36A84F85230A17800237F
:109AD40084F8503004291FD8DFE801F07B112639BF
:109AE4005D000025C5E70225C3E70325C1E7002380
:109AF40084F85332D0E70027DFE70123E4E7C4F812
:109B04004432C4E910630223012284F83C308023E8
:109B140084F83120A4F84830A378002B5CD1636B1F
:109B2400002B6AD1002067E00223002A84F8313038
:109B340014BF0723032384F83C302369A4F8483076
:109B44000023C4F84432E36826646364E4E7636989
:109B54006364A369A4F8483012B1062384F83C3046
:109B64006379B3B194F852329BB994F8543283B107
:109B7400022384F8503004212046FFF7A4FE002875
:109B8400CAD1052384F8313004F50D73C4F8443286
:109B9400C2E70323F6E7E3696364236AA4F8483061
:109BA40012B1062384F83C30637983B194F85232BD
:109BB4006BB994F8543253B1022384F85030042121
:109BC4002046FFF780FE0028A6D10623DAE7042307
:109BD400D8E784F831309FE72A46D4F8441204F1D8
:109BE4005400FFF76AFE38B994F8301094F8540022
:109BF400FFF765FE002892D0F8BD94F8310098472D
:109C040090E70820F8E70388112B10B50C460AD01A
:109C1400262B1FD0102B05D1C37B012B02D18388A7
:109C2400A1F8483210BD0022838881F85222B1F88D
:109C340048229A42F6D10B79002BF3D10121204618
:109C4400FFF7D1FE0028EDD0A36B002BEAD0BDE8CE
:109C540010401847037A013B012BE3D88978052388
:109C64000131B1FBF3F303EB8303C91AC9B2E6E78D
:109C7400704738B5044690F85400FFF722FE0123DC
:109C840084F85232002384F8543284F85030062188
:109C94002046FFF718FE054638B9A1782046FFF79D
:109CA400A2FE10B1A36B03B19847284638BD75DFF7
:109CB400704776DF70477ADF70477BDF70470000BC
:109CC400034B1A8882420CBF18460020704700BF1D
:109CD400E8380020024B9B6903B11847704700BF66
:109CE400CC38002037B585B22846FFF7E9FF034694
:109CF40070B1164C017A227B91420BD200F10A0119
:109D04002846FFF7D4FFE8B1112801D0FFF7E2FF9E
:109D140003B030BD237C0022027243B13B212846AC
:109D2400FFF7C7FF30F0080301D0FFF7D3FF6369E3
:109D3400002BEDD000228DF80420ADF8065001A8C8
:109D44009847E5E71A7A01321A72E1E7CC38002025
:109D540013B50B46497A0F4C024669B9D4E9011090
:109D64001C7A002C18BF01465868FDF7B3FB08B1F4
:109D7400FFF7B0FF02B010BD002119726369002B18
:109D8400F8D00121ADF806008DF8041001A8984719
:109D9400F0E700BFCC3800204B8802889A4213D8E1
:109DA40042889A4210D380888A8840F2F3139842FA
:109DB40094BF031AC31A934206D800F2F3109042D8
:109DC40034BF002001207047002070470388112B06
:109DD40070B5014648D002D8102B1ED070BD122B8E
:109DE40052D0502BFAD12F4BC288DB899A42F5D13D
:109DF400038A022BF2D186883046FFF761FF0546BD
:109E04000028EBD001F1120000F05BF930BB686868
:109E1400FDF7A6FB0028E1D009E0C37B012BDDD1CF
:109E24004FF6FF70FFF74CFF054620B90420BDE84C
:109E34007040FFF74FBF1C4A8E88068000230372D0
:109E44001368C5F80A300A30536843601031FFF7CD
:109E5400A3FF144B6872DB89002BBFD1294630461F
:109E6400BDE87040FFF774BF8088FFF729FF044600
:109E74000028B3D04068FDF773FB08B1FFF72AFF51
:109E84004FF6FF732380A9E786883046FFF718FF53
:109E940005460028A2D008310A30FFF77DFF68721A
:109EA400DCE700BFCC380020FC380020F8B50646BB
:109EB40048B305460FCD154F3C460FC495E807003F
:109EC40084E807003068124B3B60B0B1FFF7F3FE43
:109ED400C0B931680A681A604A685A600D480E4A67
:109EE4004FF6FF7303800D4B40F8043F0021FDF74C
:109EF400DFFA002818BF032004E01846FFF7DDFE50
:109F04000028EBD0F8BD0E20FCE700BFCC380020C1
:109F1400FC380020E8380020E99C020004390020C5
:109F240073B50191019C06466CB100252C46294667
:109F340001A8FDF7AEFB18B106EB440301349D8084
:109F44000135142DF3D13046346002B070BD0000E9
:109F54002DE9F04703888488112B8CB006463CD049
:109F64001A2B3FD0102B17D1274DAB68DB4300933E
:109F740069686846FDF7B6FB009901A8FFF7D0FFB2
:109F84000DF108094FF00008019B984507D3132CE5
:109F940013D90420FCF7E2FF0CB0BDE8F08739F8D0
:109FA40002AB00270137514605EB8700FDF767FB3D
:109FB4001D2FF7D108F10108E6E721461348FDF704
:109FC40055FB21461248FDF751FBF37B012BE3D0EF
:109FD40010482146FDF74AFBDEE70C482146FDF711
:109FE4004EFBD9E7057A0C482D09012D214606D9E7
:109FF400FDF73CFB022D21460848F0D0EAE7FDF7C7
:10A004003EFB21460548EAE7243900202C3900208C
:10A014002839002030390020343900203839002014
:10A024001328014602D80248FDF733BB00207047CD
:10A034002839002010B50446FFF7F2FF002814BFAA
:10A044002046142010BD70B5054616460AB90E20E8
:10A0540070BD002313600028F9D00368002BF6D0EC
:10A06400C38813F003040FD10846FFF7E3FFC0B21F
:10A0740014280BD02B7983420AD9EB882A6800FB79
:10A08400032333602046E3E70720E1E70520DFE709
:10A094000420DDE7AADF7047002301380B70042891
:10A0A40006D8DFE800F00306080A0C0011230B7041
:10A0B40070472123FBE73123F9E71223F7E7222333
:10A0C400F5E7007800F001007047F0B58B7891B0A7
:10A0D400002B0C4608BF01238DF80E3005460B8873
:10A0E400ADF80C30002116466846032200F0C2FE8B
:10A0F4006946607CFFF7D0FF0DF10101A07CFFF7FA
:10A10400CBFF9DF80230E27B62F3C303227C62F34F
:10A114000413227B62F30003227D002A14BF02226F
:10A12400012262F3420300211C2209A88DF80230A7
:10A1340000F0A0FE637B13F0300F15D002AF0322B2
:10A144000021384600F096FE0DF10901E07CFFF78E
:10A15400A3FF11238DF808309DF80A300E970122D1
:10A1640062F342038DF80A30637B8DF824301422A5
:10A17400A37B8DF82530002104A800F07BFE03ABFF
:10A184000493A388ADF81C30A368CDF814D01BB198
:10A19400E288ADF818200893A369002B2ED001AFF4
:10A1A40003220021384600F065FEA3691A88ADF841
:10A1B4002C205A88187BADF82E2039465A680A920A
:10A1C4000D97FFF769FFA3690DF10501587BFFF7B0
:10A1D40063FFA2699DF80630917A61F3C303D17AD3
:10A1E40061F30413117A927B002A61F3000314BF14
:10A1F4000222012262F342038DF80630E36903B1BF
:10A204000C93334604AA09A92846FFF743FF11B06B
:10A21400F0BD90DF7047A5DF7047B5DF70470000E1
:10A224007FB50023ADF80810ADF80A106A4602A9FC
:10A23400064603930093ADF80430FFF7EAFF0546A2
:10A2440000B3124B124CE41AE408FDF78FFD24040A
:10A2540044F00104034632460E492046FCF7EFFB66
:10A26400BDF80020BDF8023052EA030103D00A49C8
:10A274002046FCF7E4FBBDF804201AB10749204648
:10A28400FCF7D4FB284604B070BD00BF50B70200F1
:10A2940090B702002DBF020077BF0200B6BF0200D4
:10A2A40080B14FF0F7130360FB230371F723C380DE
:10A2B4001723038141F6FB3200230161438182812C
:10A2C400184670470E20704730B1A1F11703E02BF8
:10A2D40004D80180002070470E2070470720704783
:10A2E40013B5034680880C46A0B91A88232A00F0C7
:10A2F400A48011D8102A22D0112A51D0A37A4BB1AC
:10A30400E1880020FFF787FF002840F09C804FF48D
:10A314008073638102B010BD3A2A4AD0552A60D0B6
:10A32400242AEBD11A7A0B694A73002BE6D04DF636
:10A334007A21ADF8040000918DF8042079E0DB7BEC
:10A344000A790A73012B13D0022B14D0E1882389D4
:10A354008B4205D20020FFF75EFF70B90123E37240
:10A36400217B637B8B42C9D20020FFF759FFC5E7ED
:10A374000B88E380EAE74B88FBE7112802D101232D
:10A38400A372EDE7FDF7F2FC374A384B38499B1AC4
:10A39400DB081B04024643F00100FCF747FBDFE740
:10A3A400F723CB8017230B8141F6FB3348818B8144
:10A3B400A4E75B89CA88934228BF1346172B0A690E
:10A3C40038BF17230B814AB1C97A39B140F67721D6
:10A3D4000091ADF80430694620469047002363811C
:10A3E4008CE7DB88C988A072172B38BF17238B42F0
:10A3F40028BF0B462381FFF710FF60B1FDF7B6FCC1
:10A40400194A1A4B1B499B1ADB081B04024643F0EA
:10A414000100FCF70BFBE37A002B7FF46FAF236999
:10A42400002B3FF46BAF40F6772200922289ADF8FF
:10A43400042069462046984760E7197A237B9942AD
:10A4440028BF194691E711283FF464AFFDF78EFC4D
:10A45400054A064B06499B1ADB081B04024643F0D7
:10A464000100FCF7E3FA55E750B7020090B7020089
:10A474000CC002003DC00200B0DF704766DF7047C9
:10A48400034610B500214088FFF7F8FF024608B9DB
:10A494001A7210BD112801D10122F9E75B68BDE8E9
:10A4A4001040184760B159B10378DE2B0AD00B680D
:10A4B4004360DE2303704FF6FF7343800020704730
:10A4C4000E2070470820704728B10378DE2B04D192
:10A4D4004180002070470E20704708207047F0B577
:10A4E400054685B00C46F1B1E8B10B78DE2B1AD1E4
:10A4F40082884B889A4204D10B7A13B10846FFF73D
:10A50400BFFF2B88112B32D0512B0ED0012B0AD137
:10A514002B7A012B07D1A9886288914203D1237237
:10A524002046FFF7ADFF05B0F0BDAE886388B342A7
:10A53400F9D1AF79022FF6D1AD7B2B1F022BF2D8C4
:10A5440000211022684600F095FC052D14BF4FF43D
:10A55400C0730023694630468DF80070ADF80430AE
:10A56400FFF78AFF0028DED063689847DBE763883B
:10A57400AA889A4204BF4FF6FF736380D3E7A8DF2B
:10A584007047ADDF704762DF704770B505468AB02B
:10A594000C46002962D0002860D00388502B37D0A5
:10A5A400572B72D0102B59D181886069002601AADB
:10A5B4000196FFF748FD082231460DEB020000F03A
:10A5C40059FC022302AA218AA888CDF80CD0029350
:10A5D400FFF7D7FF002841D1A369002B3ED0039891
:10A5E400FFF76FFD002839D0019B0BB101221A70CF
:10A5F4001822002104A800F03DFC02238DF810303D
:10A60400AB88ADF81830019B05940793A36923E048
:10A614008188606902AAFFF716FD1822002104A8A8
:10A6240000F028FCAB88ADF818302189EB88029A39
:10A6340005949942079218D12E8A022E15D16AB137
:10A6440005F11200FFF73DFD029B48B101221A708B
:10A654008DF81060A3690BB104A898470AB070BDC7
:10A66400187003238DF81030F4E7A2899A42F5D1CB
:10A67400A369002BF2D000228DF8102005F11202FC
:10A6840008922A8AADF82420E6E78188606902AA44
:10A69400FFF7D9FC01460028E0D1029B1B78002B70
:10A6A400DCD0182204A800F0E5FB01238DF810305B
:10A6B400AB88ADF818300594029BA6E7F0B5384B8B
:10A6C4008FB002AA04460E4603F1100C1746186810
:10A6D4005968154603C5083363452A46F7D1002C4B
:10A6E4005BD0002E59D03368A36121463846FFF76A
:10A6F4004AFF00284FD12246012512F8023B8DF86B
:10A70400063001A92846ADF80450FFF738FF0028A9
:10A7140041D10146202206A800F0ACFB22460223C8
:10A72400ADF8183012F80C3B8DF81A30BDF824300F
:10A734001C4E6088079603F4734343F440632B4331
:10A7440006A9ADF824308DF829508DF82A50FFF76A
:10A75400BCFC00BB0146202206A800F08BFB22466D
:10A764000323ADF8183012F8043B8DF81A30BDF805
:10A7740024306088079603F46F4343F480532B43DB
:10A78400ADF8243006A940F201138DF82950ADF834
:10A794002A30FFF79AFC0FB0F0BD0E20FBE700BF94
:10A7A40079C00200F400010010DF704713B50446BD
:10A7B40009496846FDF7A5FA019808B902B010BD29
:10A7C400D0E900312046984718B16846FDF7A3FA4E
:10A7D400F2E71120F2E700BF98C0020013B5044667
:10A7E40007496846FDF78DFA019B0BB902B010BD0D
:10A7F4002046D3E9002190476846FDF78CFAF3E739
:10A80400B0C002000B4991F816335A09EC231341E6
:10A81400DB0706D5084B9A683AB94FF480030B60FE
:10A82400704742F20200FCF799BB1A6842F48002B6
:10A834001A60704700E100E03C320020F7B5194F80
:10A844003C7864BB184E012520463570FFF7AEFFF7
:10A85400112821D02046FFF7C1FF144B8DF8034087
:10A86400186801900DF10300FCF7C6FE104901A819
:10A87400FFF79AFF0446B0FA80F0400938709DF85B
:10A884000300FCF7DDFE3CB90A4B34701C70FFF783
:10A89400B9FF2846FFF7A2FF204603B0F0BD082405
:10A8A400FAE700BF9D3900209C39002091C00200C6
:10A8B4007D6F02009E390020014B1878704700BF5D
:10A8C4009D39002007B508496846FDF71AFA019B2F
:10A8D40013B903B05DF804FBD3E900209047684640
:10A8E400FDF719FAF3E700BFA4C00200FFF7EABFBF
:10A8F40060DF704769DF704761DF704730B5114D25
:10A90400ADF5017D4FF4FA740DF1020103A8ADF821
:10A914000240FFF7F1FF70B9294601A8FDF7F1F9EC
:10A92400029B002BF0D003A8D3E90021904701A893
:10A93400FDF7F1F9F4E7052801D0FCF70FFB0DF55D
:10A94400017D30BD34C30200024B1B780BB1FFF70D
:10A95400D5BF70479F39002030B5054685B00C46F9
:10A96400002900F0B3805A4B0B600C22002101A88F
:10A9740000F080FA01238DF8063022688DF8045027
:10A98400062301A92020ADF80830FFF7B3FF60B11A
:10A99400FDF7ECF94F4A504B50499B1ADB081B0456
:10A9A400024643F00100FCF741F80C22002101A803
:10A9B40000F060FA01238DF805302268002301A914
:10A9C4004020ADF80630FFF795FF60B1FDF7CEF9F2
:10A9D400404A414B42499B1ADB081B04024643F0A0
:10A9E4000100FCF723F80C22002101A800F042FA30
:10A9F400F72322688DF8045001A92320ADF806300E
:10AA0400FFF778FF60B1FDF7B1F9324A324B3549AF
:10AA14009B1ADB081B04024643F00100FCF706F80E
:10AA24000C22002101A800F025FA012022688DF8EB
:10AA3400040001A9FFF75EFF60B1FDF797F9254A0D
:10AA4400254B29499B1ADB081B04024643F00100ED
:10AA5400FBF7ECFF0C22002101A800F00BFA4FF4E5
:10AA6400B0632268019301A9A120FFF743FF60B1FD
:10AA7400FDF77CF9174A184B1C499B1ADB081B0489
:10AA8400024643F00100FBF7D1FF0C22002101A88C
:10AA940000F0F0F99DF8043022686FF3000301A977
:10AAA400A0208DF80430FFF725FF68B1FDF75EF9AB
:10AAB400084A094B0E499B1ADB081B04024643F063
:10AAC4000100FBF7B3FF002005B030BD0E20FBE70B
:10AAD400982A002050B70200A0B70200C4C00200A8
:10AAE4000AC1020056C102009DC10200E9C1020070
:10AAF4003AC20200F8B506460768FFF7F9FE336864
:10AB0400BB4205461DD9194B194C1A49E41AE408ED
:10AB1400240444F002042046FBF784FF33681649FA
:10AB24003A462046FBF78BFF4FF080533268D3F848
:10AB34000C3112499B0203F100539A1A2046FBF789
:10AB440075FF25B90E4B01221A702846F8BD284618
:10AB5400FDF70CF9054A064B0A499B1ADB081B044E
:10AB6400024643F00100FBF761FFEEE750B7020035
:10AB7400A0B702008DC20200BCC20200EDC20200F6
:10AB84009F39002017C302004BDF70471FB50D4CDF
:10AB940001A8FFF7F9FF70B9214602A8FDF7B1F843
:10ABA400039B002BF4D00198D3E90021904702A81D
:10ABB400FDF7B1F8F4E7052801D0FCF7CFF904B0AC
:10ABC40010BD00BF4CC3020053EA020C61D02DE952
:10ABD400F04BB3FA83F51E0007BFB2FA82F502FA0E
:10ABE40005F403FA05F41646C5F120051EBF22FA42
:10ABF40005F73C43203556EA044C4FEA144418BF89
:10AC04000134A3464FF00009C846904271EB030C8F
:10AC140039D3094207BFB0FA80F700FA07F6B1FA50
:10AC240081F701FA07F6C7F120071EBF20FA07FCD7
:10AC340046EA0C062037B6FBFBFC7F1B103F07F0EF
:10AC44001F04C4F120060CFA04F42CFA06F644BFDF
:10AC540034460026202FA4BF2646002454EA060CBE
:10AC640008BF012418EB040849EB0609A4FB027C85
:10AC7400C01B06FB02CC04FB03CC71EB0C0190421D
:10AC840071EB030CC5D20B46024649464046BDE86B
:10AC9400F08BB2FBF3F200007F2805D8034B185C5D
:10ACA400034B5B5C184070470020704764C302008C
:10ACB400E4C30200A0F16103192B98BF2038704748
:10ACC400A0F14103192B98BF203070477F2805D885
:10ACD400034B185C034B5B5C1840704700207047C3
:10ACE40064C30200E4C30200A0F16103192B98BFFE
:10ACF40020387047A0F14103192B98BF20307047CA
:10AD04007F299ABF017001206FF02E0070475AB15D
:10AD14000A787F2A0AD800B10260002119605960BC
:10AD2400501A18BF01207047002070476FF02E00A2
:10AD3400704738B504460846A26842B12368616882
:10AD44005D1C8D4208BF00208B4208D2D054E368BA
:10AD54002BB121686268914201D221469847236849
:10AD64000133236038BD70B54C1E09D41646C5B2F4
:10AD740029463046FFF7DDFF013CB4F1FF3FF7D130
:10AD840070BD10F0100F09D108B500F40070002850
:10AD940014BF30202020FFF7E6FF08BD70470000F5
:10ADA40008B5034B5B689B681B68984708BD00BFE8
:10ADB400E42A002008B50921FFF7F2FF08BD0000CE
:10ADC4000FB410B586B008AB53F8044B05930023B9
:10ADD40003936FF000430293084B049300F0CFF801
:10ADE400059A214601A800F0CDF8044600F0C8F801
:10ADF400204606B0BDE8104004B07047857D0200CF
:10AE0400037853B159B10144034613F8012F12B129
:10AE14008B42FAD10B46181A70470346FBE70346E8
:10AE2400F9E7844640EA010313F0030F18D184467E
:10AE3400202A0BD32DE9F007B1E8F807A0E8F807BA
:10AE4400A2F12002202AF7D2BDE8F007042A07D392
:10AE540051F8043B40F8043BA2F10402042AF7D25F
:10AE6400002A05D011F8013B00F8013B013AF9D161
:10AE7400604670478446002A2DD010F0030F04D09A
:10AE840000F8011B013A26D0F7E7C9B241EA0121D3
:10AE940041EA0141202A12D3A2F120022DE9F00354
:10AEA4000B460C460D460E460F4688468946A0E8DA
:10AEB400FA03203AFBD2BDE8F00320320BD0042A77
:10AEC40005D340F8041B043A05D0042AF9D200F84B
:10AED400011B013AFBD160467047024610F0030F94
:10AEE40016D111F0030F13D12DE9F0004FF0013703
:10AEF4004FF0803351F8044BA4EB070525EA040511
:10AF04001D4002D142F8044BF4E7A1F10401F0BC66
:10AF140011F8013B02F8013B002BF9D1704700F115
:10AF2400010110F0030F11D010F8012B002A23D0D7
:10AF340010F0030F0AD010F8012B002A1CD010F0D7
:10AF4400030F03D010F8012B002A15D02DE970004F
:10AF54004FF001324FF0803350F8044BA4EB02055C
:10AF640025EA04051D4000D1F6E7A0F1040070BCF9
:10AF740010F8012B002AFBD1A0EB010070477047A9
:10AF8400704700002DE9F04F89B007460C46039244
:10AF940000230360DFF83CB675E3002502E045F0CA
:10AFA40040051C46234613F8010BA0F120023E2A5B
:10AFB40000F2948001A151F822F000BFA3AF020077
:10AFC400E1B00200E1B00200BDB00200E1B0020055
:10AFD400E1B00200E1B00200C3B00200E1B002003F
:10AFE400E1B00200E1B00200CFB00200E1B0020023
:10AFF400D5B00200E1B00200E1B00200DBB0020013
:10B00400E1B00200E1B00200E1B00200E1B00200F0
:10B01400E1B00200E1B00200E1B00200E1B00200E0
:10B02400E1B00200E1B00200E1B00200E1B00200D0
:10B03400E1B00200E1B00200E1B00200E1B00200C0
:10B04400E1B00200E1B00200E1B00200E1B00200B0
:10B05400E1B00200E1B00200E1B00200E1B00200A0
:10B06400E1B00200E1B00200E1B00200E1B0020090
:10B07400E1B00200E1B00200E1B00200E1B0020080
:10B08400E1B00200E1B00200E1B00200E1B0020070
:10B09400E1B00200E1B00200E1B00200E1B0020060
:10B0A400E1B00200E1B00200E1B00200E1B0020050
:10B0B400E1B00200C9B0020045F0800571E745F433
:10B0C40000456EE745F480556BE745F0200568E7D9
:10B0D40045F0100565E745F4007562E72A2821D19B
:10B0E400039A111D0391D2F800A0BAF1000FBCBF5E
:10B0F400CAF1000A45F010051878A31C2AEAEA7A76
:10B104002E2826D00021742847D07A2845D06C28D0
:10B1140000F0C4804C2800F0C780682800F0D48078
:10B124001C463DE0A0F13002D2B2092A88BF4FF09C
:10B13400000AE3D84FF0000A0AEB8A0A303800EB21
:10B144004A0A13F8010BA0F13002D2B2092AF3D94A
:10B15400D4E718782A280AD1039A111D039111689B
:10B16400587802330029CEDB45F48075CBE70133F0
:10B17400A0F13002D2B2092A88BF0021F4D80021FC
:10B1840001EB8101303800EB410113F8010BA0F110
:10B194003002D2B2092AF3D9E4E71C4614F8010BB1
:10B1A400782800F28480DFE810F08A0282008200AE
:10B1B400820082008200820082008200820082007B
:10B1C400820082008200820082008200820082006B
:10B1D400820082008200820082008200820082005B
:10B1E400820082008200820082008200820082004B
:10B1F400820082009B008200820082008200820022
:10B20400820082008200820082008200820082002A
:10B21400820082008200820082008200820082001A
:10B22400820082008200820082008200820082000A
:10B2340082008200820082008200820082008200FA
:10B2440082008200820082008200820082008200EA
:10B254008200820082008200820012018200820049
:10B2640082008200820082008200820082008200CA
:10B27400A00048018200820082008200480182000E
:10B28400820082008200BA003201F600820082004D
:10B29400CB00820040018200820014011C4614F895
:10B2A400010B45F001057BE745F001051C46C54B44
:10B2B4001E68002E00F0E78103AB01930091534612
:10B2C4002A463946B047DEE11878682803D05C1C6A
:10B2D40045F0040564E745F008059C1C58785FE7D1
:10B2E40025213846FFF725FDCDE1039B1A1D039266
:10B2F4001E780AF1FF3A3A4651462846FFF741FDC7
:10B3040031463846FFF715FDA94619F0100F00F035
:10B31400BA813A4651462020FFF725FDB3E115F0E6
:10B32400080F06D03A68039B191D03911B681A7015
:10B33400A9E1039B1A1D03921B683A681A60A2E1F3
:10B34400039B1A1D0392D3F800809F4BB8F1000FA2
:10B3540008BF9846464625F4007915F4807F15D039
:10B364004046FFF74DFD0546AAEB050A3A4651460D
:10B374004846FFF706FD002DC7D0454416F8011BCB
:10B384003846FFF7D6FCAE42F8D1BEE74046FFF799
:10B39400C6FD0546E8E7039B1A1D03921B6805F0EA
:10B3A4008002002A0CBF4FF000084FF0230845F438
:10B3B400807608211A46002B00F02F8105AB00256A
:10B3C40006F4005CA64660468C460146D6E045F489
:10B3D400005515F0800F17D043F2780843F2580354
:10B3E400782818BF984615F4807F3FD025F400765E
:10B3F400039B1A1D03921B6816F0040F45D116F027
:10B40400080F43D0DBB241E04FF00008EBE705F052
:10B414008003002B0CBF4FF000084FF0300815F4E8
:10B42400807F25D025F40076E2E715F4807F21D0D3
:10B4340025F400764FF00008DAE745F48046039BD4
:10B444001A1D03921B6815F0040F17D115F0080F8D
:10B4540015D0DBB215F0200F68D105F04005002DA2
:10B464000CBF4FF000084FF020080FE02E46BFE756
:10B474002E46BDE72E464FF00008B9E71BB2002B5D
:10B48400E8DA5B424FF02D0800E09BB216F4807FAF
:10B4940014BF26F4007601215838202800F2BB801E
:10B4A40001A252F820F000BFB9B302001BB602009B
:10B4B4001BB602001BB602001BB602001BB602003C
:10B4C4001BB602001BB602001BB602001BB602002C
:10B4D4001BB602001BB6020057B502001BB60200E1
:10B4E4001BB602001BB602001BB6020057B50200D1
:10B4F4001BB602001BB602001BB602001BB60200FC
:10B504001BB6020037B50200B9B302001BB6020035
:10B514001BB602001BB602001BB6020057B50200A0
:10B524001BB602001BB60200B9B302004FF02B0891
:10B53400ACE71A46002553B305A8002503F007031A
:10B54400303300F8013B0135D2081346002AF5D107
:10B554001DE018460025D3B1002506F4004E4FF037
:10B564002C0973468E46194647E002F00F00174C2B
:10B57400205C03F8010B0135120906D00029F4D030
:10B5840002F00F00124C205CF3E761467446491B3D
:10B5940021EAE179AAEB090AAAEB050AB8F1FF0F3F
:10B5A4003DD9AAF1020A16F4007F3ED04FEA1821D1
:10B5B4003846FFF7BEFB08F07F013846FFF7B9FBBA
:10B5C40041E000BFA0390020C4C50200A4C50200A8
:10B5D400B4C50200CDCCCCCC08AB03EB050CABFB63
:10B5E4000032D20802EB8203A0EB430330330CF8A1
:10B5F4000C3C013509280CD910460029ECD005F083
:10B604000303032BE8D108AB2B4403F80C9C01354E
:10B61400E2E77146BBE70025B9E70025B7E7B8F1D3
:10B62400000F4FD116F4007F0DD13A4651463046F3
:10B63400FFF7A7FBB8F1FF0F98BF4FF0000A13D82C
:10B64400B8F1000FB7D13A4651463046FFF799FB9F
:10B654003A4649463020FFF786FB002D10DD0DF1F8
:10B664001409013D4D4403E04FF0000A9EE74546AE
:10B67400A84618F801193846FFF75BFB4D45F6D18B
:10B6840016F0100F09D114F8011B61B125293FF4FC
:10B6940084AC3846FFF74DFBF5E73A465146202087
:10B6A400FFF761FBEFE7BB682BB13A6879688A4220
:10B6B4003CBF00219954386809B0BDE8F08F4FF0C1
:10B6C400FF30F9E70AF1FF3A16F4007FB8D1ACE78E
:10B6D4002D81020000000000759C0200C833002088
:10B6E400559F020000000000318D020000000000A0
:10B6F4000B9C0200C8330020E5A202002036002083
:10B70400D19D020000000000E3A4020038360020AE
:10B714008FA50200C02A0020598E020000000000FC
:08B72400AD81020000000000ED
:10B72C004DA902000000000091AB020000000000D7
:10B73C003C2B0020042C00200C2C0020442B00203F
:04B74C0018000000E1
:10B7500030BE02000000000036BE02000000000003
:10B760003DBE020000000000C0BE0200000000005C
:10B7700041BE02000000000011B8020000000303F7
:10B7800089C00200000000002ABE02000000000084
:10B790006CC0020000000303BCC0020000000303F1
:10B7A00040C302000000030358C30200000003036B
:08B7B00024B9020000000000B2
:10B7B800D8B7020000000000E4B70200982A002071
:10B7C80000000000000000000338FDD870470000AA
:10B7D800D963020045640200D56302007274745F85
:10B7E8006C6F675F6261636B656E64003030002068
:10B7F8007F000000B03000204261636B656E6473A7
:10B8080020666C75736865640061707000000000E4
:10B818004BB8020094B8020053B802009CB802006A
:10B82800A4B80200ACB80200B4B80200BCB8020068
:10B83800C4B80200202530327800202020007C0087
:10B848002563001B5B306D002573001B5B313B33A8
:10B85800316D0025734C6F67732064726F7070656B
:10B8680064202825642925730D0A003C25733E2091
:10B8780025733A200000000000000000EAB802002A
:10B88800CCB80200D4B80200D9B802001B5B313B27
:10B8980033306D001B5B313B33326D001B5B313B3A
:10B8A80033336D001B5B313B33346D001B5B313B25
:10B8B80033356D001B5B313B33366D001B5B313B11
:10B8C80033376D007761726E696E6700696E666FF7
:10B8D8000064656275670000D030002046617461BD
:10B8E8006C206572726F720053797374656D207283
:10B8F80065736574000000000338FDD87047303167
:10B9080032333435363738394142434445460000EE
:10B9180024B7020024B70200040000007077725FA9
:10B928006D676D7400556E6B6E6F776E2065727201
:10B938006F7220636F6465000000000068BA02003F
:10B948000100000074BA02000200000092BA02006E
:10B9580003000000B3BA020004000000C6BA0200E7
:10B9680005000000D7BA020006000000EBBA02008A
:10B978000700000003BB0200080000001BBB020018
:10B988000900000033BB02000A0000004CBB0200A3
:10B998000B00000064BB02000C0000007BBB02002F
:10B9A8000D0000008FBB02000E000000A1BB0200CA
:10B9B8000F000000B0BB020010000000C4BB020072
:10B9C80011000000DBBB020012000000EABB02000D
:10B9D80013000000FFBB02008000000013BC02003F
:10B9E8008100000034BC02008200000050BC02004C
:10B9F800830000006CBC0200840000008ABC0200C6
:10BA080085000000ABBC020086000000D0BC02002C
:10BA180090000000E7BC02009100000005BD020094
:10BA28009200000023BD02000082000038BD020021
:10BA38000182000056BD02000282000072BD0200B1
:10BA4800008400008EBD020001840000B2BD020027
:10BA580002840000DCBD02000384000001BE020075
:10BA68004E52465F53554343455353004E52465F2B
:10BA78004552524F525F5356435F48414E444C45DE
:10BA8800525F4D495353494E47004E52465F455207
:10BA9800524F525F534F46544445564943455F4EB3
:10BAA8004F545F454E41424C4544004E52465F4517
:10BAB80052524F525F494E5445524E414C004E52DD
:10BAC800465F4552524F525F4E4F5F4D454D004EB7
