:1000000000000420750300005D0300005F03000092
:1000100061030000630300006503000000000000AE
:100020000000000000000000000000006703000066
:1000300069030000000000006B0300006D03000076
:100040006F0300006F0300006F030000AD0C0000A1
:100050006F0300006F0300006F0300006F030000D8
:100060006F0300006F0300006F0300006F030000C8
:100070006F0300006F0300006F0300006F030000B8
:100080006F0300006F0300006F0300006F030000A8
:100090006F0300006F0300006F0300006F03000098
:1000A0006F0300006F0300006F0300006F03000088
:1000B0006F0300006F03000000000000000000005C
:1000C0006F0300006F0300006F0300006F03000068
:1000D0006F0300006F0300006F0300006F03000058
:1000E0006F0300006F0300006F03000000000000BA
:1000F000000000006F030000000000006F0300001C
:1001000000000000000000000000000000000000EF
:1001100000000000000000000000000000000000DF
:1001200000000000000000000000000000000000CF
:1001300000000000000000000000000000000000BF
:1001400000000000000000000000000000000000AF
:10015000000000000000000000000000000000009F
:10016000000000000000000000000000000000008F
:10017000000000000000000000000000000000007F
:10018000000000000000000000000000000000006F
:10019000000000000000000000000000000000005F
:1001A000000000000000000000000000000000004F
:1001B000000000000000000000000000000000003F
:1001C000000000000000000000000000000000002F
:1001D000000000000000000000000000000000001F
:1001E000000000000000000000000000000000000F
:1001F00000000000000000000000000000000000FF
:10020000354936480A1A02D0072291438D463449AF
:1002100034480A1A06D00722914381F30988022242
:1002200082F3148830483149314A00F044F83148AB
:100230003149324A00F03FF831483249324A00F041
:100240003AF832483249334A00F035F832483349F7
:10025000334A00F030F833483349344A00F02BF881
:1002600033483449344A00F026F8344834490022EF
:1002700000F02CF833483449002200F027F83348C6
:100280003349091A082902DB002202604160314A21
:1002900090471F481F49884205D00268043003B4C4
:1002A000904703BCF7E700208646EC46002000217B
:1002B000294A9047FEE7884207D0521A05D00378B2
:1002C00001300B700131013AF9D17047884202D0F8
:1002D00002700130FAE770470000042000E00320BC
:1002E0000000042000000420341A00000000002058
:1002F00004000020D4030000D4030000C41900004F
:10030000341A00000000002000000020C419000082
:10031000C4190000C4190000C4190000C419000069
:10032000C4190000C4190000C4190000341A0000E8
:10033000381A0000040000200400002004000020FF
:10034000480000204800002048000020480000200D
:10035000482000209D030000010E0000FEE7FEE79C
:10036000FEE7FEE7FEE7FEE7FEE7FEE7FEE7FEE765
:10037000704700BF1048804710484FF0070188437E
:1003800085460F4880470F48016841F470010160BD
:10039000BFF34F8FBFF36F8FFFF732BF0A480B4990
:1003A0000B4A884207D0521A05D0037801300B70EF
:1003B0000131013AF9D170477103000000000420B7
:1003C000890E000088ED00E0C41900000000002044
:0403D0000000002009
:1003D40000F029BF1FB50021039001AA44F20100D7
:1003E400CDE9011100F004F805B05DF804FB00004C
:1003F40072B6094B1B68DB0700D500BEBFF34F8FF5
:100404000649074BCA6802F4E0621343CB60BFF3AA
:100414004F8F00BFFDE700BFF0ED00E000ED00E00E
:100424000400FA0501460422192000F095B8017869
:10043400372000F0BBB808B500F072F850B90721B6
:10044400682000F0B3F828B901216B20BDE808400A
:1004540000F0ACB808BD13B50622044669463B203B
:1004640000F0C4F840B90DF10503A21D13F80119F9
:1004740004F8011B9442F9D102B010BD13B5062251
:1004840004466946432000F0B1F840B90DF1050374
:10049400A21D13F8011904F8011B9442F9D102B00A
:1004A40010BD13B50122044601A9372000F09EF8BF
:1004B4009DF8043001A843F002038DF80430FFF7DF
:1004C400B6FF18B921780A2000F0FCF802B010BD7C
:1004D40013B506220C460146032000F0BDF830B9DE
:1004E400012234B90DF10701092000F0B5F802B07A
:1004F40010BD2146F8E7000003784BB90379032BBC
:1005040006D8DFE803F002060602034B01221A7044
:100514007047024BFAE700BF1300002004000020DC
:100524001FB503210422CDE900124FF0CD62002350
:1005340002926946064A0748039300F073FA044698
:1005440010B9044800F016FB204604B010BD00BFEB
:10055400FD040000C419000030B5114D03462846BF
:1005640085B0144600F8013B00F0CFFD01344FF490
:10057400D043002201A90B48ADF804308DF80640A1
:10058400029500F007FB084A42F21073117821B972
:10059400013BFBD10D2005B030BD00231370FAE7F9
:1005A40005000020C4190000130000201FB500231B
:1005B4008DF80C008DF80D10009303AA0223682116
:1005C400084800F045FB38B9074A42F21073117825
:1005D40029B9013BFBD10D2005B05DF804FB0023D4
:1005E4001370F9E7C41900001300002030B585B07A
:1005F40000230C4615468DF80F0000930DF10F02F1
:1006040001236821114800F023FB38B9104A42F253
:100614001073117839B9013BFBD10D2005B030BD01
:1006240000231370FAE7002313706821EBB222460B
:10063400064800F021FB0028F0D1064A42F210736C
:1006440011780029ECD1013BFAD1E6E7C419000086
:10065400130000200400002030B585B000230C46B0
:1006640015468DF80F0000930DF10F0201230C21A4
:10067400114800F0EDFA38B9104A42F210731178BB
:1006840039B9013BFBD10D2005B030BD00231370F7
:10069400FAE7002313700C21EBB22246064800F05F
:1006A400EBFA0028F0D1064A42F2107311780029BF
:1006B400ECD1013BFAD1E6E7C41900001300002095
:1006C400040000201FB500238DF80C008DF80D10D8
:1006D400009303AA02230C21084800F0B9FA38B9A0
:1006E400074A42F21073117829B9013BFBD10D205E
:1006F40005B05DF804FB00231370F9E7C41900008A
:10070400130000200023435082B043580193019BFF
:1007140002B070472DE9F0470D789DF820609DF8F0
:1007240024A004460F469946002D5FD1D0F8243109
:1007340092F800803BB14FF49271FFF7E3FF01237D
:1007440063613B7017E0D0F81C3153B34FF48E71E2
:10075400FFF7D8FFD0F824311BB14FF49271204633
:10076400EBE713789E4212D919F80330C0F81C3510
:10077400137801331370B04536D1D4F804319BB3E8
:100784004FF482712046FFF7BDFF002504E00123EA
:10079400BAF1000F03D0C3612846BDE8F087436176
:1007A400E9E7D0F80831002BE5D04FF48471FFF766
:1007B400A9FFD0F82431002BCFD113789E42DAD987
:1007C400D0F8181509F8031013780133DBB213704D
:1007D400721E934205D10223C0F800320123236222
:1007E400C9E79E42FAD1C6E70125D5E74FF49271D5
:1007F400FFF788FF4FF48E71FFF784FF4FF4847185
:10080400FFF780FFB9E70000024B4FF4807043F01C
:1008140001031847D01900001F2886BF00F01F00ED
:10082400044A4FF0A042012303FA00F0C2F808057D
:10083400704700BF000300502DE9FF470C460546F2
:100844001F46204642F210734FF4827116460393FA
:100854009DF83080FFF756FF4FF49271FFF752FF77
:100864004FF48E71FFF74EFF4FF48471FFF74AFF88
:100874000023C4F8003285F8263085F8233001239C
:100884002362A36095F8262097421FD9B35CC4F86D
:100894001C3595F82630013385F826302B68E3B9EA
:1008A40005F1260A05F12309039B002B1FDC95F8AB
:1008B400233053BB0020039B002B15DC0023C4F81A
:1008C40000350523C4F8003503200DE0B8F1000F0E
:1008D40001D0E361E2E76361E0E740F28623AB60C5
:1008E400AB68C4F80433002004B0BDE8F087CDE958
:1008F40000783346524649462046FFF70BFF00284E
:10090400D5D0039B013B0393CEE7D4F8C434C4F899
:10091400C434002BCED013F0010F14BF4FF40240A7
:10092400032048F2012213F0020F18BF104613F0FF
:10093400040F48F2022318BF1846BCE72DE9FF470D
:100944000C4605461F46204642F210734FF482714E
:1009540092460393FFF7D6FE4FF49271FFF7D2FE4F
:100964004FF48E71FFF7CEFE4FF48471FFF7CAFE89
:100974000023012F2E6885F8263085F8233008BF20
:1009840002224FF001030CBFC4F80022C4F8003265
:1009940023622360AEB905F1260905F12308039B00
:1009A400002B18DC95F823301BBB0020039B002B85
:1009B4000EDC0023C4F800350523C4F800350320F9
:1009C40006E040F28623AB60AB68C4F80433002031
:1009D40004B0BDE8F087CDE9007653464A46414667
:1009E4002046FFF797FE0028DCD0039B013B0393CE
:1009F400D5E7D4F8C434C4F8C434002BD5D013F0EC
:100A0400010F14BF4FF40240032048F2012213F0F7
:100A1400020F18BF104613F0040F48F2022318BF48
:100A24001846C3E72DE9F0470779504E8046282041
:100A340078430C46311891F82250002D40F09480F0
:100A44004B60A37B81F82730637B8D60325081F843
:100A5400255081F82450002B43D0D4E900034FF0F3
:100A6400A04100F5E07C03F5E07340F20C6241F82C
:100A74002C2041F82320FFF7CFFE6068DFF8F090C8
:100A8400FFF7CAFE236803F5E07340F20D6241F8F4
:100A94002320636803F5E0734FF0010A41F8232033
:100AA400FFF7B2FE63681F2B8ABF4A464FF0A0428D
:100AB40003F01F03D2F8102522FA03F3DB0739D51C
:100AC4007DB163681F2B4CD9294903F01F03012210
:100AD40002FA03F3C1F80C35FFF796FE6068FFF7DE
:100AE4009BFE22684FF0A04102F5E07340F20C60D7
:100AF40041F82300636803F5E07541F82500D8F850
:100B04000000C0F80825C0F80C35A368C0F82435E7
:100B140028237B43F35823B1217B40F3073000F0B3
:100B240021F9282303FB0763012283F822200020F4
:100B3400BDE8F08723681F2B86BF03F01F034A46D6
:100B44004FF0A0420AFA03F3C2F80C35FFF75CFE3B
:100B540001352068FFF760FEFFF756FE092DA1D18D
:100B6400AFE74FF0A041B2E70820E1E7140000200E
:100B740000030050026803790521C2F80015044AF5
:100B8400282101FB0323022283F82220704700BF9F
:100B94001400002013462DE9F7439A070D4603D0AD
:100BA400062003B0BDE8F0830779284ED0F800C0D2
:100BB40028244FF0FF3204FB0764CCF8082394F890
:100BC400242022B1A368CCF804331120E9E783F090
:100BD4000402C2F3800213F0080984F82420DFD150
:100BE400A36107C904F10C0E8EE80700AA7884F803
:100BF40020206A68E2616978CCF88815297807EBC7
:100C04008708012906EBC80818D0A9B9C3F3401313
:100C1400282101FB0761404681F821300093614699
:100C2400AB78FFF709FE28235F43F219F359002B31
:100C3400B7D182F82430B4E70123E9E784F821909E
:100C4400AB7861464046FFF779FEECE714000020DC
:100C54001FB5002401948DF806309DF818300292D7
:100C6400A3428DF8051014BF2022224601A9039443
:100C7400FFF790FF04B010BD30B585B00024CDF867
:100C84000640CDF80A408DF805100292012522464F
:100C940001A9ADF80E408DF804508DF80630FFF729
:100CA40079FF05B030BD000070B52B4C2B4894F88B
:100CB400213086B004F12602019394F82030009389
:100CC400E36904F12301FFF725FD2346D8B994F81D
:100CD4002360A569F6B9217B8A1E012A1AD8E06926
:100CE4002269904216D16269E37BE261C5F3401543
:100CF400032984F8203084F8215006D1009517493F
:100D04002046FFF799FD06B070BD14492046FFF751
:100D140015FEF8E7124A07CA06AC04E90700BEB19B
:100D24000E49D1F8C424C1F8C42490070CD501227B
:100D34008DF80820002283F824206A07E3D4D3E93D
:100D4400002102A89047DEE75107F3D50222EFE71E
:100D54008DF80860EEE700BF14000020003000406A
:100D640020000020002810B5C3B2A8BF00F16042E3
:100D74004FEA5010BABF03F00F040C4A02F5614267
:100D84004FEA41114FEA8000C9B200F16040B4BF9C
:100D9400115582F8001300F5614003F01F0201238E
:100DA4009340C0F88031036010BD00BF14ED00E033
:100DB40007B5FFF740FB08B1FFF70CFB00230193D5
:100DC40040F21313ADF8043001A818238DF806304F
:100DD400FFF728FB08B1FFF7FDFA9DF80030062263
:100DE40062F3030368468DF80030FFF75AFB08B13D
:100DF400FFF7F0FA03B05DF804FB000070B58AB0A9
:100E0400FFF7D6FF0A22002107A8144C144E00F065
:100E1400A5F944F0010401A8FFF71DFB08B1FFF791
:100E2400D9FA03A8FFF72AFB08B1FFF7D3FABDF9F3
:100E34001010BDF90C30BDF90E20304600F034F925
:100E4400002105A8FFF744FB08B1FFF7C3FA3225D8
:100E54004FF47A40A047013DFAD1DCE7E0190000E5
:100E6400E6190000054B1B68082B01BF044B1868EA
:100E7400B0FA80F0400918BF00207047300100101C
:100E84003401001008B54FF080430022C3F80C2150
:100E9400C3F81021C3F838254FF0805203F54043BE
:100EA400D2F80414C3F82015D2F80814C3F8241592
:100EB400D2F80C14C3F82815D2F81014C3F82C1562
:100EC400D2F81414C3F83015D2F81814C3F8341532
:100ED400D2F81C14C3F84015D2F82014C3F84415F2
:100EE400D2F82414C3F84815D2F82814C3F84C15C2
:100EF400D2F82C14C3F85015D2F83014C3F8541592
:100F0400D2F83414C3F86015D2F83814C3F8641551
:100F1400D2F83C14C3F86815D2F84014C3F86C1521
:100F2400D2F84424C3F87025FFF79CFF10B1384B66
:100F3400384A1A60FFF796FF18B1374BFB22C3F803
:100F44001825FFF78FFF48B13449354B0A681B68F1
:100F540022F00F0203F00F0313430B60FFF782FF2D
:100F640018B1304B4FF400721A604FF08043D3F83D
:100F74000024D20744BF6FF00102C3F800242A4AB8
:100F8400D2F8883043F47003C2F88830BFF34F8F2F
:100F9400BFF36F8F4FF01023D3F80022002A03DB36
:100FA400D3F80432002B2FDA204B0122C3F8042596
:100FB400D3F80024002AFBD04FF010221221C2F8EB
:100FC4000012D3F80024002AFBD04FF01023122281
:100FD400C3F80422154B1A46D3F800140029FBD099
:100FE4000021C3F80415D2F80034002BFBD0BFF362
:100FF4004F8F0D490E4BCA6802F4E0621343CB6075
:10100400BFF34F8F00BFFDE70A4B0B4A1A6008BDC0
:101014008C5600404881030000F00040E40E00407C
:10102400580200104096024000ED00E000E001404C
:101034000400FA05000000200090D00338B50446EF
:101044000846A26842B1236861685D1C8D4208BFEE
:1010540000208B4208D2D054E3682BB12168626827
:10106400914201D22146984723680133236038BD59
:1010740070B54C1E09D41646C5B229463046FFF752
:10108400DDFF013CB4F1FF3FF7D170BD10F0100F4C
:1010940009D108B500F40070002814BF30202020C6
:1010A400FFF7E6FF08BD70470FB410B586B008AB74
:1010B40053F8044B0593002303936FF0004302930A
:1010C400084B049300F0ADF8059A214601A800F0FE
:1010D400B9F8044600F0A6F8204606B0BDE8104072
:1010E40004B07047D5030000037853B159B10144EB
:1010F400034613F8012F12B18B42FAD10B46181A8A
:1011040070470346FBE70346F9E7844640EA0103D8
:1011140013F0030F18D18446202A0BD32DE9F007CE
:10112400B1E8F807A0E8F807A2F12002202AF7D2D4
:10113400BDE8F007042A07D351F8043B40F8043B08
:10114400A2F10402042AF7D2002A05D011F8013BC7
:1011540000F8013B013AF9D1604670478446002A01
:101164002DD010F0030F04D000F8011B013A26D053
:10117400F7E7C9B241EA012141EA0141202A12D329
:10118400A2F120022DE9F0030B460C460D460E4653
:101194000F4688468946A0E8FA03203AFBD2BDE808
:1011A400F00320320BD0042A05D340F8041B043A80
:1011B40005D0042AF9D200F8011B013AFBD160469C
:1011C400704700F1010110F0030F11D010F8012B4A
:1011D400002A23D010F0030F0AD010F8012B002AA4
:1011E4001CD010F0030F03D010F8012B002A15D0E7
:1011F4002DE970004FF001324FF0803350F8044B6A
:10120400A4EB020525EA04051D4000D1F6E7A0F190
:10121400040070BC10F8012B002AFBD1A0EB0100E4
:1012240070477047704710B504460146172000F018
:10123400AFFB00280CBF20464FF0FF3010BD7047B5
:10124400704700002DE9F04F89B007460C46039221
:1012540000230360DFF83CB675E3002502E045F0A7
:1012640040051C46234613F8010BA0F120023E2A38
:1012740000F2948001A151F822F000BF6312000033
:10128400A1130000A11300007D130000A1130000AE
:10129400A1130000A113000083130000A113000098
:1012A400A1130000A11300008F130000A11300007C
:1012B40095130000A1130000A11300009B1300006C
:1012C400A1130000A1130000A1130000A11300004A
:1012D400A1130000A1130000A1130000A11300003A
:1012E400A1130000A1130000A1130000A11300002A
:1012F400A1130000A1130000A1130000A11300001A
:10130400A1130000A1130000A1130000A113000009
:10131400A1130000A1130000A1130000A1130000F9
:10132400A1130000A1130000A1130000A1130000E9
:10133400A1130000A1130000A1130000A1130000D9
:10134400A1130000A1130000A1130000A1130000C9
:10135400A1130000A1130000A1130000A1130000B9
:10136400A1130000A1130000A1130000A1130000A9
:10137400A11300008913000045F0800571E745F4CE
:1013840000456EE745F480556BE745F0200568E7B6
:1013940045F0100565E745F4007562E72A2821D178
:1013A400039A111D0391D2F800A0BAF1000FBCBF3B
:1013B400CAF1000A45F010051878A31C2AEAEA7A53
:1013C4002E2826D00021742847D07A2845D06C28AE
:1013D40000F0C4804C2800F0C780682800F0D48056
:1013E4001C463DE0A0F13002D2B2092A88BF4FF07A
:1013F400000AE3D84FF0000A0AEB8A0A303800EBFF
:101404004A0A13F8010BA0F13002D2B2092AF3D927
:10141400D4E718782A280AD1039A111D0391116878
:10142400587802330029CEDB45F48075CBE70133CD
:10143400A0F13002D2B2092A88BF0021F4D80021D9
:1014440001EB8101303800EB410113F8010BA0F1ED
:101454003002D2B2092AF3D9E4E71C4614F8010B8E
:10146400782800F28480DFE810F08A02820082008B
:101474008200820082008200820082008200820058
:101484008200820082008200820082008200820048
:101494008200820082008200820082008200820038
:1014A4008200820082008200820082008200820028
:1014B400820082009B0082008200820082008200FF
:1014C4008200820082008200820082008200820008
:1014D40082008200820082008200820082008200F8
:1014E40082008200820082008200820082008200E8
:1014F40082008200820082008200820082008200D8
:1015040082008200820082008200820082008200C7
:101514008200820082008200820012018200820026
:1015240082008200820082008200820082008200A7
:10153400A0004801820082008200820048018200EB
:10154400820082008200BA003201F600820082002A
:10155400CB00820040018200820014011C4614F872
:10156400010B45F001057BE745F001051C46C54B21
:101574001E68002E00F0E78103AB019300915346EF
:101584002A463946B047DEE11878682803D05C1C47
:1015940045F0040564E745F008059C1C58785FE7AE
:1015A40025213846FFF74AFDCDE1039B1A1D03921E
:1015B4001E780AF1FF3A3A4651462846FFF766FD7F
:1015C40031463846FFF73AFDA94619F0100F00F0EE
:1015D400BA813A4651462020FFF74AFDB3E115F09F
:1015E400080F06D03A68039B191D03911B681A70F3
:1015F400A9E1039B1A1D03921B683A681A60A2E1D1
:10160400039B1A1D0392D3F800809F4BB8F1000F7F
:1016140008BF9846464625F4007915F4807F15D016
:101624004046FFF761FD0546AAEB050A3A465146D6
:101634004846FFF72BFD002DC7D0454416F8011B83
:101644003846FFF7FBFCAE42F8D1BEE74046FFF751
:10165400B8FD0546E8E7039B1A1D03921B6805F0D5
:101664008002002A0CBF4FF000084FF0230845F415
:10167400807608211A46002B00F02F8105AB002547
:1016840006F4005CA64660468C460146D6E045F466
:10169400005515F0800F17D043F2780843F2580331
:1016A400782818BF984615F4807F3FD025F400763B
:1016B400039B1A1D03921B6816F0040F45D116F004
:1016C400080F43D0DBB241E04FF00008EBE705F030
:1016D4008003002B0CBF4FF000084FF0300815F4C6
:1016E400807F25D025F40076E2E715F4807F21D0B1
:1016F40025F400764FF00008DAE745F48046039BB2
:101704001A1D03921B6815F0040F17D115F0080F6A
:1017140015D0DBB215F0200F68D105F04005002D7F
:101724000CBF4FF000084FF020080FE02E46BFE733
:101734002E46BDE72E464FF00008B9E71BB2002B3A
:10174400E8DA5B424FF02D0800E09BB216F4807F8C
:1017540014BF26F4007601215838202800F2BB80FB
:1017640001A252F820F000BF79160000DB18000037
:10177400DB180000DB180000DB180000DB18000099
:10178400DB180000DB180000DB180000DB18000089
:10179400DB180000DB18000017180000DB1800003D
:1017A400DB180000DB180000DB180000171800002D
:1017B400DB180000DB180000DB180000DB18000059
:1017C400DB180000F717000079160000DB18000092
:1017D400DB180000DB180000DB18000017180000FD
:1017E400DB180000DB180000791600004FF02B080E
:1017F400ACE71A46002553B305A8002503F00703F8
:10180400303300F8013B0135D2081346002AF5D1E4
:101814001DE018460025D3B1002506F4004E4FF014
:101824002C0973468E46194647E002F00F00174C08
:10183400205C03F8010B0135120906D00029F4D00D
:1018440002F00F00124C205CF3E761467446491B1A
:1018540021EAE179AAEB090AAAEB050AB8F1FF0F1C
:101864003DD9AAF1020A16F4007F3ED04FEA1821AE
:101874003846FFF7E3FB08F07F013846FFF7DEFB4D
:1018840041E000BF3C0000202C1A00000C1A0000AC
:101894001C1A0000CDCCCCCC08AB03EB050CABFB85
:1018A4000032D20802EB8203A0EB430330330CF87E
:1018B4000C3C013509280CD910460029ECD005F060
:1018C4000303032BE8D108AB2B4403F80C9C01352C
:1018D400E2E77146BBE70025B9E70025B7E7B8F1B1
:1018E400000F4FD116F4007F0DD13A4651463046D1
:1018F400FFF7CCFBB8F1FF0F98BF4FF0000A13D8E5
:10190400B8F1000FB7D13A4651463046FFF7BEFB57
:101914003A4649463020FFF7ABFB002D10DD0DF1B0
:101924001409013D4D4403E04FF0000A9EE745468B
:10193400A84618F801193846FFF780FB4D45F6D143
:1019440016F0100F09D114F8011B61B125293FF4D9
:1019540084AC3846FFF772FBF5E73A46514620203F
:10196400FFF786FBEFE7BB682BB13A6879688A42D8
:101974003CBF00219954386809B0BDE8F08F4FF09E
:10198400FF30F9E70AF1FF3A16F4007FB8D1ACE76B
:1019940038B504460D46FFF752FC074B1D6044F072
:1019A4008004064B1C601A461368002BFCD1FFF719
:1019B40047FC014B186838BD44000020400000205B
:1019C4000030004000000000000000000338FDD893
:1019D4007047000000000000000000000338FDD83C
:1019E40070476779726F5F783A2025642C20677995
:1019F400726F5F79203A2025642C206779726F5FBB
:101A04007A203A2025640A003031323334353637AF
:101A14003839616263646566303132333435363760
:101A24003839414243444546286E756C6C290000A0
:041A34000090D0034B
:040000030000037581
:00000001FF
