:020000022000DC
:1060000000000420756302005D6302005F6302000C
:106010006163020063630200656302000000000028
:1060200000000000000000000000000067630200A4
:1060300069630200000000006B6302006D630200F0
:106040001DB202006F63020019B702006F63020005
:106050006F6302006F6302006DB502006F630200A0
:106060006F6302006F6302006F6302006F630200E0
:106070006F6302006F6302006F6302006F630200D0
:106080006F630200D57802006F6302006F63020045
:10609000717902006F630200F5F202006F63020083
:1060A0006F6302006F6302006F6302006F630200A0
:1060B0006F6302006F630200000000000000000038
:1060C0006F6302006F6302006F6302006F63020080
:1060D00055B802006F6302006F6302006F63020035
:1060E0006F6302006F6302006F6302000000000034
:1060F000000000006F630200000000006F630200F8
:10610000000000000000000000000000000000008F
:10611000000000000000000000000000000000007F
:10612000000000000000000000000000000000006F
:10613000000000000000000000000000000000005F
:10614000000000000000000000000000000000004F
:10615000000000000000000000000000000000003F
:10616000000000000000000000000000000000002F
:10617000000000000000000000000000000000001F
:10618000000000000000000000000000000000000F
:1061900000000000000000000000000000000000FF
:1061A00000000000000000000000000000000000EF
:1061B00000000000000000000000000000000000DF
:1061C00000000000000000000000000000000000CF
:1061D00000000000000000000000000000000000BF
:1061E00000000000000000000000000000000000AF
:1061F000000000000000000000000000000000009F
:10620000354936480A1A02D0072291438D4634494F
:1062100034480A1A06D00722914381F309880222E2
:1062200082F3148830483149314A00F044F831484B
:106230003149324A00F03FF831483249324A00F0E1
:106240003AF832483249334A00F035F83248334997
:10625000334A00F030F833483349344A00F02BF821
:1062600033483449344A00F026F83448344900228F
:1062700000F02CF833483449002200F027F8334866
:106280003349091A082902DB002202604160314AC1
:1062900090471F481F49884205D00268043003B464
:1062A000904703BCF7E700208646EC46002000211B
:1062B000294A9047FEE7884207D0521A05D0037852
:1062C00001300B700131013AF9D17047884202D098
:1062D00002700130FAE770470000042000E003205C
:1062E0000000042000000420F0290300FC320020FC
:1062F0008C360020D4630200D4630200C2FD020089
:10630000F0290300FC320020FC320020B40003001E
:10631000B4000300B4000300B4000300B4000300A1
:10632000B4000300B4000300B4000300F02903002C
:10633000802D03008C3600208C3600208C36002007
:106340003069002030690020346900203469002061
:10635000348900209D63020029D80200FEE7FEE791
:10636000FEE7FEE7FEE7FEE7FEE7FEE7FEE7FEE705
:10637000704700BF1048804710484FF0070188431E
:1063800085460F4880470F48016841F4700101605D
:10639000BFF34F8FBFF36F8FFFF732BF0A480B4930
:1063A0000B4A884207D0521A05D0037801300B708F
:1063B0000131013AF9D170477163020000000420F5
:1063C00031AD020088ED00E0D8FF0200203200204D
:0463D000FC3200207B
:1063D4000048704728690020F0B595B01C46164661
:1063E40008460D4604F096F91A9B0D93CDE908640E
:1063F400002423460C2205A928460A948DF82C4033
:106404000C9404F0A4F9079B0293069B03939DF854
:1064140014308DF8114003F00302012A1DD1BDF898
:106424001440059EC3F3C203C4F383148DF81030E3
:10643400A2000C230EA9284604F089F9C6F3952678
:1064440008AB0093224602AB0EA9304600F062FF6F
:10645400284604F063F915B0F0BD022AF8D1BDF85E
:106464001640C3F3C203A4098DF810300C27082C7E
:10647400264628BF08263B4632460EA9284604F085
:1064840066F9A41B08AB02AA31460EA8374400F0F3
:10649400A5FF002CEBD1DBE7014B01221A707047FA
:1064A400CD3600207047000070B50E4D06460FCD66
:1064B40088B06C460FC495E80F00002E84E80F00E6
:1064C4004FF00603084A0948009308BF00226946B2
:1064D40004F03AFE08B101F041F9054B1E7008B012
:1064E40070BD00BFB40003009D640200FC320020B4
:1064F4008C36002007B5044B0093044A4023FFF771
:106504006BFF03B05DF804FB156502008D360020B7
:1065140038B50D4B0D4D002018700D4804782D5DD5
:10652400D2B21C4665B1043005F0A8FE08B101F0F2
:1065340015F9084B1A7812B12378002BFBD038BD1B
:106544000C3005F0F9FBF1E7CD3600200C5A0020A1
:10655400FC3200208C36002008B50848084A03782D
:10656400D35C3BB1043005F033FE0020BDE80840A5
:10657400FFF79ABF0C3005F089FBF6E7FC320020E8
:106584000C5A002000230428CB604B6098BF044BB6
:10659400044A98BF53F820308A600B60704700BFEC
:1065A400BC02030098020300CB6800225A717047B2
:1065B400C368DB6800225A717047CB6801225A71A4
:1065C4007047C368DB6801225A7170470D4A8A60BC
:1065D40070B50D4A0D4C0023121BCB604B600B6051
:1065E40012091D469A4207D0E6683679FF2E05D077
:1065F400854202D1A3680B6070BD013501331034AC
:10660400F0E700BFD0020300D8FF0200A8FF020099
:106614002DE9F74F164D174C52F8047C0193641B77
:1066240006468946924624094FF00008444508D19D
:10663400114A3B460221304603B0BDE8F04F02F058
:10664400F1B8A968384609F063FBAB46103510B1C0
:1066540008F10108EAE7DDED017A17EE90CA534626
:106664004A465946304603B0BDE8F04F604700BF84
:10667400A8FF0200D8FF020008040300014BFFF743
:10668400C7BF00BFC56C0200014BFFF7C1BF00BF0D
:10669400AD650200014BFFF7BBBF00BFBF65020041
:1066A400014BFFF7B5BF00BFFD6A0200037813F08A
:1066B400040216D003F00303012B03D0022B09D0EC
:1066C400012070470A6800880332C0F38310024433
:1066D4000A60F5E70B684288033303EB92130B60FF
:1066E400EEE71046704700002DE9F04F87B0002315
:1066F4000446C51C0DF107000F4690468DF807307F
:1067040001F02CFB444806683E60D0E90132134492
:1067140001339B1B414E8246A6F10409A6F10807EA
:10672400AB421BD30022B8F1000F6FD0052363F3F3
:10673400070264F38912DAF80010DAF808309DF8D9
:1067440007000B4003330D444AF82320CAF80050D5
:1067540001F028FB012007B0BDE8F08F012130468D
:1067640001F06CFB484601F082FB384601F07FFBE8
:10677400DAF80400DAF808B0029000EA0B000330FB
:106784000AEB800002A9FFF791FF029B48BB0BEACA
:1067940003020AEB820203F1010CD26803920CEAB1
:1067A4000B0B0AEB8B0C02F003020333012ADCF817
:1067B4000C10029322D0022A16D08346384601F0E8
:1067C40059FB10B1029BCAF804305946304601F017
:1067D40035FBDAE901231344DAF8002001339B1A6C
:1067E4009EE70BEA0300CAE7BDF80E2092090332C4
:1067F4004FEA114B03EB92030293DFE7BDF80C2041
:10680400C2F383124FEA114B1344F5E7062363F3F3
:10681400070264F39F528EE7A0370020BC57002084
:10682400012907B5034604D08168D1F848118907C6
:1068340007D500221146184603B05DF804EB03F0B7
:1068440047B853680193054B00931368044A022127
:1068540001F0E8FF03B05DF804FB00BFEA000300A9
:10686400E00003002DE9F3478368D3F84841C4F3FB
:106874004004074634B10022114602B0BDE8F04797
:1068840003F026B8144E154DDFF85880DFF8589001
:10689400DFF858A0AD1B2D09AC4202D102B0BDE80F
:1068A400F087F268B3681179FF2907D10C4A0821EF
:1068B400384601F0B7FF01341036EDE75279002A6B
:1068C40014BF42464A46CDE90021384652460821C3
:1068D40001F0A8FFEFE700BFA8FF0200D8FF020005
:1068E40010010300FF000300070103002F01030050
:1068F40030B50A4B0A4A0B49D21AD20800239A42ED
:1069040001D1052006E031F823500468A54202D1E4
:106914000360002030BD0133F1E700BF84FE0200B4
:106924003CFF0200443200208368D3F848319B07BF
:1069340003D50022114602F0CBBF024A022101F026
:1069440071BF00BF500103008368D3F848319B072F
:1069540003D50022114602F0BBBF024A022101F016
:1069640061BF00BF500103002DE9F84F0546002820
:106974004ED0294C40F2FF7342F21802A360002368
:10698400A35042F214020846A35042F22002C4E982
:106994000033A35400F07CFD42F20C031F48E55081
:1069A40003F071FE814688B91D481E4E1E4CDFF867
:1069B40084A004F050F8A41BE4084D46A54208D175
:1069C40000231A4A1A481946A3421BD14846BDE877
:1069D400F88F4FF00008474606EBC50BBD420AD0BE
:1069E400142256F83710DBF8000009F09DF800284F
:1069F400C8BF08F101080137BC42EFD12AF825804D
:106A04000135DBE720F8231042F8041B0133DBE7F0
:106A14004FF00709DAE700BFA03700203CFF02006F
:106A24008C02030084FE02003CFF0200A03200201E
:106A3400463200204432002007B5019031B9019A52
:106A4400064B53F8320003B05DF804FB01A8FFF7CE
:106A54004FFF0028F3D00020F5E700BF84FE0200BA
:106A6400002310B5CB604B60034B8B600C460121B7
:106A7400FFF7E2FF206010BD98020300094B0139C3
:106A840003EBC000032909D8DFE801F00A02040679
:106A940004207047007970474079704700207047A0
:106AA4000220704784FE020030B5114C00EB400018
:106AB40054F821508240072383406A401A400D4B0A
:106AC4006A40C2F3821044F8212003EB8101C2F32F
:106AD400C203834238BF0346C2F34220834202F01A
:106AE400070238BF03469A4238BF1A464A8030BD6F
:106AF400A0320020443200202DE9F74F06461D46FF
:106B04009046002A4FD0CB6828684B4993F80490EC
:106B1400072209F009F8D0B9B8F1010F07D1474AA3
:106B24000221304603B0BDE8F04F01F07BBE444F74
:106B340004460A2257F8041B686808F0F5FF002889
:106B440073D00134052CF4D16B683E4A13E008225B
:106B54003D49286808F0E8FF58B9B8F1010F044628
:106B64002AD00127394A3A4B9B1A4FEAD30A934653
:106B740045E02B68374A0221304603B0BDE8F04FA8
:106B840001F050BE18F83530A3420FD20021284638
:106B9400FFF752FF524603460221304601F042FEFF
:106BA4000135BD42EED103B0BDE8F08F224629463F
:106BB4004846FFF779FFF3E7244B254FDFF89CA005
:106BC400FF1AFF08002503F10608EAE7184600212A
:106BD4000193FFF731FF0099202208F0A5FF019BE4
:106BE400014608B1013310E00BEBC3029279A242D3
:106BF40015D3224619464846FFF756FF0137474545
:106C0400D1D255F82730009300239A45DED155F8A8
:106C14002730114A0221304601F004FEEEE71846FF
:106C2400FFF70AFF0D4A0346F4E7B8F1020FE4B296
:106C3400C2D0022796E700BF610103006801030088
:106C4400A8020300D30103007F01030084FE0200B5
:106C54003CFF020087010300BF0103009C01030005
:106C640013460A46C168FFF747BF000013B5044640
:106C74000191A3B162B9019A0F4B04EB44040720BC
:106C840053F82230A0401840E040C0B202B010BD1A
:106C940001A8FFF72DFE0028EDD00020F6E72AB961
:106CA400019A064B03EBC2039879EFE701A8FFF7BB
:106CB4001FFE0028F1D1F3E7A032002084FE020079
:106CC400284B294A2DE9F04F9B1A4FEAD309CB6888
:106CD4005B7985B005460E461BB9244A022101F0B2
:106CE400A1FD234B234A244F0821284601F09AFD95
:106CF400224A0821284601F095FD00244C4502D182
:106D040005B0BDE8F08FF36893F8048001231A46B8
:106D140021464046FFF7AAFF01222146834600236D
:106D24004046FFF7A3FF0328034628BF03235FFA67
:106D340083FA804601212046FFF77EFE57F82A3069
:106D440001930F4A0F4B57F82B100091D04598BF71
:106D5400134602930C4A03460821284601F062FDBB
:106D64000134CBE73CFF020084FE0200F201030081
:106D74000502030011020300A80203002F0203000E
:106D8400060C0300F00103006C02030013460A46DC
:106D9400C168FFF795BF0000034BD3E90030C31A65
:106DA40058425841704700BFA03700202DE9F04FEA
:106DB40087B0FFF7F1FF0646002840F02B81964D7F
:106DC40042F21803E850BFF34F8F6868AC68029032
:106DD40020400330914F05EB800002A9FFF766FCC9
:106DE400029B10B13A68002A70D0591C214005EB6F
:106DF400810104EA0302C9680491D91C023305EB3A
:106E04008202234005EB8303D268DB68059302F01A
:106E14000303022B0392029170D1BDF80E30804817
:106E24009DF80C604FEA931ABAF1500FD14628BF6F
:106E34004FF0500969F38F1309F10C01ADF80E30CE
:106E440003F039FCC6F3C2068046002800F0C8806F
:106E540003F060FC0C220DEB02010023404603F01A
:106E64006CFC029924EA01070137BF00B9453ED9F9
:106E74005FFA89F9002F37D0FFB2A9EB0709214047
:106E840003315FFA89FBB946664F05EB81010C2398
:106E94004A46404603F051FC37B109F10C035A4607
:106EA4003946404603F049FC029B0AF1030A03EB0E
:106EB4009A03029342F21803EB58002B55D142F285
:106EC4001003DFF87491EC58072773E02A689A429C
:106ED40004D86A60304607B0BDE8F08F04EA0300C6
:106EE400033005EB800078E74E49BB46CFE72140ED
:106EF40003310C234A4605EB8101D2E7012B6FD104
:106F0400BDF80C604648C6F38311062928BF062144
:106F140061F3891603318900ADF80C6003F0CBFBF3
:106F2400C6F3C206804600285AD003F0F3FB0C22B5
:106F340000230DEB0201404603F0FFFB0027BDF8E0
:106F44000C20C2F38312BB00974203F10C03B1D2AD
:106F540002994A1C21400331029205EB810104226B
:106F6400404603F0EAFB0137E9E7404603F0D6FB6D
:106F7400FFF712FF80F00100C6B2ABE7E3685A796D
:106F8400B2B11B79BDF8101003EB430259F821107C
:106F940007FA02F3052E03EA010323FA02F308BFFA
:106FA4000326B34204D3236841461B68204698470E
:106FB400E3681C68002CE1D1404603F0AFFB0DF1FF
:106FC40007008DF8074000F0C9FE42F21803EB58A1
:106FD4000BB9029B6B609DF8070000F0E3FEC7E766
:106FE40042F21003EC5874B90F4B5B88012BBFD9E4
:106FF4000E4B0F480F49C01AC008000440F00200AD
:1070040000F080F8B4E7236820469B689847E3685B
:107014001C68E8E700265DE7A0370020B857002089
:107024003CFF0200AC3700206432002084FE0200E2
:10703400C4FE020030040300A03200202DE9F74F03
:107044002E4C81468846174601A9012218469B46C4
:10705400D4F808A0FFF748FB00283AD0019D002689
:10706400E91C5E4506EB01023ED10021244800F0F4
:10707400AFFE80F310006B1C03EA0A0304EB8303E6
:10708400000440EA1940D86042F20C03AF1CE358F4
:10709400984707EA0A0704EB870705EA0A0303335C
:1070A400F86014F8232069F3C50204F8232034F8A7
:1070B400232066F3891224F8232054F8232068F34C
:1070C4009F2244F8232002F0F80242F0010204F85F
:1070D400232042F22003E35C1BB1FFF767FE002884
:1070E400FBD103B0BDE8F08F0AEA020204EB82028E
:1070F40057F82630D3600136B3E700BFA03700202D
:10710400BC57002000231A46FFF798BF07B5012398
:10711400019201AAFFF792FF03B05DF804FB07B5E3
:10712400CDE9002302236A46FFF788FF03B05DF828
:1071340004FB1FB5CDE90123069B039301AA032396
:10714400FFF77CFF05B05DF804FB00002DE9F84370
:107154001C4A42F210030746D358884600241946B5
:1071640091B9F9680C71ABB942F2100017500B6079
:10717400154B164DED1AED08002603F10709AE4232
:107184000DD12046BDE8F883C9680879A04212D021
:107194000968E5E7DB681A680A601F60E8E719F820
:1071A4003620FB684245314628BF42461879FFF72E
:1071B4007BFC0136E3E701340A2CD0D14FF0FF34D5
:1071C400DFE700BFA037002084FE02003CFF02007E
:1071D40038B50A4A42F2100342F22001D45801237E
:1071E40053541D4604B938BDE3685D7123682046D5
:1071F4005B689847E3681C68F4E700BFA037002089
:10720400037A052B10B50C460FD0437A23B1084AF4
:107214000849204603F03DF80749204603F039F8B1
:107224002046BDE8104003F029B8002AF8D0F3E75F
:10723400BB060300EF0B03004E080300F0B5C38840
:1072440085B004460D4633B1284A00922849294A9C
:10725400284603F01EF8217A052945D0637A4BB1FC
:10726400A088FFF70BFC244B244953F82020284620
:1072740003F00FF8224A23681168B3FBF1F1214BA4
:107284001F68B1FBF7F34FF461664FF47A70B3FBF8
:10729400F6F206FB123607FB13134FF03C0C00FB0F
:1072A40003F1B6FBFCF3B1FBF7FE0CFB136607FB23
:1072B4001E11009641432846B1FBF7F1CDE901E1E7
:1072C400114902F0E6FF227A104BA08853F822609D
:1072D4000021FFF7B1FB0E4903463246284605B0AC
:1072E400BDE8F04002F0D5BF05B0F0BDBB06030019
:1072F400C8060300C006030088060300EF0B030062
:10730400605800205C580020E006030008070300D2
:10731400FC0603002DE9F04385B01F460C9D0023B5
:1073240006460C46904695F80C902B732946384631
:10733400FFF784FFB8F1060F09D8DFE808F004125C
:10734400181F283340003146284602F0A2FF0022CD
:1073540029463846FFF754FF85F80C9005B0BDE880
:10736400F08322683146284602F093FFEFE7D4E920
:1073740000233146284602F08CFFE8E7A368009317
:107384003146D4E90023284602F083FFDFE7E368AF
:107394000193A36800933146D4E90023284602F000
:1073A40078FFD4E723690293E3680193A368009309
:1073B4003146D4E90023284602F06BFFC7E763692E
:1073C400039323690293E3680193A368009331460E
:1073D400D4E90023284602F05CFFB8E708292DE928
:1073E400F84F80460E4617461C463AD8002593F8B7
:1073F4000C901D7319461046FFF720FFDFF884A098
:10740400DFF884B0AE422ED918F80520594620463C
:1074140002F03FFF0135082DF4D11849DFF86CB0B4
:10742400204602F036FF4FF0000A564520D918F8DE
:107434000A507E2D03D8284608F07EF900B92E257F
:107444002A465946204602F024FF0AF1010ABAF1FD
:10745400080FEAD1012221463846FFF7D1FE84F80D
:107464000C90BDE8F88F5146204602F012FFD1E798
:107474000349204602F00DFFE7E700BFB60603000C
:10748400B4060300B2060300AC060300B80603000A
:10749400084A10B50123084C13600021A04204D807
:1074A40001B11360054B186010BD40085B00012159
:1074B400F4E700BF6058002040420F005C580020F1
:1074C4002DE9F04F394E87B04FF00009384B1B7847
:1074D4005FFA89F5AB4202D807B0BDE8F08F354BAF
:1074E400D3F800A01AF835000124D6E9001EA0F153
:1074F4002002C0F1200304FA02F224FA03F3134336
:1075040004FA00FC009301EA0C030293009B0EEAC8
:1075140003030393DDE9022313430AEBC50B41D0B4
:10752400009B21EA0C012EEA0303C6E9001304F0D0
:107534000DF81AF835502049A5F12002C5F12003B1
:1075440004FA02F224FA03F31343D1E900C2AC4073
:10755400134004EA0C0105930024C3B2CDE90034BE
:10756400009A0491C5F12003A5F1200122FA03F346
:1075740002FA01F848EA03081346AB401F46DDE966
:107584000434444508BFBB420CD1DBF804304BB192
:107594009BF801104A1E51425141081A414241418F
:1075A4002846984709F1010990E700BF9858002040
:1075B40064580020A0580020905800202DE9F04184
:1075C4008046204800F0B4FBD0BB0125A8F120047C
:1075D400C8F1200325FA03F305FA04F41C431A4BFB
:1075E400D3E9001205FA08F501EA050602EA0407E0
:1075F40056EA07001E461DD1404603F0A7FF134B71
:10760400D3E9001288B129432243C3E90012D6E921
:1076140000231C430E4B0B4819681543C6E900545C
:107624000022BDE8F04100F03DBB21EA050122EA59
:107634000402EAE721EA050522EA0404C3E9005446
:10764400BDE8F0816C580020985800209058002024
:1076540068580020042A2DE9F34105460C461646D5
:107664003AD903F081FED8B11C4B1D491D601D4B56
:10767400DFF884801C701C4B00221E600023C1E9CB
:1076840000231A49C1E90023013CE4B20026032780
:10769400FF2C0CD1164A1748002100F0F1FA03E040
:1076A40003F02AFE0028DFD002B0BDE8F08123B247
:1076B40005EBC30201A992788DF8052015F8330073
:1076C4008DF8066042468DF8047003F057FE013CC5
:1076D400E4B20028DCD0E7E70720E5E7A058002063
:1076E40090580020645800206858002098580020C2
:1076F400C574020054070300C175020070B5084D3B
:10770400084E00242B789C4201D3002070BD3368BE
:10771400012113F8340003F0ADFE0134F2E700BF99
:1077240064580020A058002070B5094D094E00246B
:107734002B789C4204D30848BDE8704000F0F8BAA6
:10774400336813F8340003F0DFFE0134F0E700BFC0
:1077540064580020A05800206C5800201FB5002158
:10776400039001AA44F20100CDE9011100F004F8EC
:1077740005B05DF804FB000010B572B6FFF728FDF4
:10778400FFF714FB0028FBD1154C62884AB1154859
:10779400154B1649C01AC008000440F00100FFF759
:1077A400B1FC134B1B68DB0700D500BE6388012BBB
:1077B40009D90C480C4B0F49C01AC008000440F00A
:1077C4000200FFF79FFCBFF34F8F0B490B4BCA68B6
:1077D40002F4E0621343CB60BFF34F8F00BFFDE7B9
:1077E40064320020C4FE020084FE02005807030035
:1077F400F0ED00E06407030000ED00E00400FA058A
:10780400094A537891780133DBB2994208BF0023C7
:10781400117899421FBF03705078182303FB00208E
:1078240014BF043000207047A458002073B50546E7
:1078340000240DF107000E468DF8074000F08EFA83
:107844000DF10600FFF7DCFF90B10670094B9DF8BF
:10785400062045605A709DF8070000F0A3FA24B989
:10786400054B4FF48012C3F80021204602B070BDCE
:107874000424F0E7A458002000E100E0024B4FF498
:107884003C6043F0010318478007030038B50C4BF4
:107894000C4C4FF40032C3F8802001254FF48033A0
:1078A400C4F84833C4F808336560FFF7E7FF064BB4
:1078B400A56000241C60FFF7E1FF044B1C7038BD79
:1078C40000E100E000100140C0590020B15900203F
:1078D400F8B51F4B1F491B680025C1F84051C1F87A
:1078E4004451C1F84851C1F84C51C1F80051C1F894
:1078F40004514BB3D1F8044517490968641A24F0BC
:107904007F442F461A68A24209D8A41A15441A7C47
:10791400DE691AB11F74D3E905209047AEB90F4A46
:107924000F4B11781B788B4205D10133DBB2022B4C
:1079340008BF0023137012780A4B43F822500A4BF5
:107944004FF48012C3F80021F8BD3346DAE700BFD4
:10795400C459002000100140C0590020BD59002026
:10796400BC590020B459002000E100E02DE9F04F9B
:10797400A04AA14913780978A04D994285B03CD01A
:107984000133DBB2022B08BF002313709C49127829
:107994009C4B0F6853F822003B1823F07F430022CE
:1079A4000B602B6816461446944613B942B12B60FB
:1079B40006E0196881420ED902B12B60091A1960D8
:1079C4004FF001082B68DFF844A201930027BEB9E9
:1079D400DFF840B266E0401A0C44D968C3F800C02E
:1079E400D3F81CE031B13A1922F07F42C3E90121F6
:1079F400DE611E4601227346D7E70026B046E1E762
:107A04003446F6697E4A63681268DFF80CC2A068DF
:107A1400991A21F07F41614500F2A580014421605B
:107A2400012222742A680023C4E90133E361002A95
:107A340040F0A2802C60CAE75A1C9BF80210D2B214
:107A440091428BF8002004BF00228BF800201822FA
:107A540002FB03B31A799C68022A1CD0032A12D0B1
:107A6400012A1FD1207CE8B9D3E90312A2605A6924
:107A7400E2609A69644BA2611B78002B0CBF0B4631
:107A840003466360BEE700222B681146002B66D1D3
:107A940042B12B6006E029680A468946002A59D17A
:107AA400002323749BF800309BF801209A42C3D131
:107AB4002B682FB9019A9A4202D1B8F1000F43D032
:107AC400002B73D0D3F800A0504D4D4BD5F804755E
:107AD4001C68DFF848813E1B98F8003026F07F468A
:107AE40003369BB94FF48033C5F84433C5F80433E7
:107AF400474B4FF400324FF00109C3F880211A605C
:107B0400C5F80090FFF7BAFE88F80090B2452CBF84
:107B14005444A41924F07F44C5F84045D5F80435ED
:107B2400DB1B23F07F43E41B033324F07F44A34295
:107B34000AD9D5F80435C5F84035FFF79FFE344B14
:107B44004FF40032C3F800212F4B00221A7005B005
:107B5400BDE8F08F94422CD09146D2699EE7197407
:107B64000122DB6992E7D31A23F07F43834234BFB7
:107B7400C31A0023236053E721681368994213D87A
:107B8400591A1160E26155E7091AD8691A4638B1E1
:107B9400034618688842F7D3401A186018461346FB
:107BA4002160E061DC6112E71346F2E7FFF76EFE45
:107BB400CAE74C4511D1CB692B6073B9DFF840E0BB
:107BC4000120CDE90212CAF80800CEF800300E4BAD
:107BD4001870FFF753FEDDE902121368D269C9F881
:107BE4001C2012B11068034413602B68994218BF1B
:107BF400012755E7BC590020BD590020C459002075
:107C0400C0590020B4590020B05900200010014090
:107C140000E100E0A4580020FEFF7F00B1590020DD
:107C240008B5FFF733FE104B00200B2218809A7022
:107C34000E4B18600E4B18700E4B18700E4B4FF411
:107C44008012C021C3F8802183F814131A6002F152
:107C54008042A2F56F22C2F8080583F81113074B7E
:107C6400D2F804251A6008BDA4580020C459002085
:107C7400BC590020BD59002000E100E0C05900209B
:107C8400074B9B784BB132B128B10368187C20B9FB
:107C940059745A617047072070470820704700BF25
:107CA400A45800202DE9F7431E4FBB7805460E4625
:107CB4009046A3B398B304292FD943697BB3437C7B
:107CC4000024012B0DF107000CBF8946A1468DF855
:107CD400074000F043F80DF10600FFF791FDD0B125
:107CE40001230370104B4560D3F80435C0E90498B0
:107CF400C0E902369DF806307B709DF8070000F05D
:107D040051F824B9094B4FF48012C3F800212046DE
:107D140003B0BDE8F0830424EFE70724F7E7082461
:107D2400F5E700BFA45800200010014000E100E086
:107D3400064A92783AB130B1426922B10022027403
:107D44000221FFF773BD0820704700BFA45800202C
:107D5400014BD3F8040570470010014070B5EFF3F0
:107D6400108672B60C4A946801239CB993600B4B3D
:107D74000B4DD3F8801029401160C3F88050D3F81C
:107D8400841051604FF0FF32C3F88420047006B9A8
:107D940062B670BD0370FAE7C859002000E100E044
:107DA400FC06FFBD084B9A6810B55AB150B9EFF301
:107DB400108172B6054A1C6814605C68546098604F
:107DC40001B962B610BD00BFC859002000E100E04F
:107DD40050E8002F0B4640E8003C9CF0000FF7D120
:107DE4001046704750E8002F42EA010340E8003C87
:107DF4009CF0000FF6D11046704750E8003F43EA6C
:107E0400010240E8002C9CF0000FF6D110467047A8
:107E140050E8002F02EA010340E8003C9CF0000F08
:107E2400F6D11046704750E8003F03EA010240E8EB
:107E3400002C9CF0000FF6D11046704750E8003F2C
:107E440003EB010240E8002C9CF0000FF6D1104631
:107E5400704750E8003FA3EB010240E8002C9CF07F
:107E6400000FF6D1104670470121FFF7BBBF012177
:107E7400FFF7C3BF0021FFF7CBBF0021FFF7D3BF3C
:107E84002DE9F0478368D3F84841C4F3400488B02F
:107E9400074634B10022114608B0BDE8F04701F0AE
:107EA40017BD012906D91E4A022108B0BDE8F047D2
:107EB40000F0B8BC1B4D1C4EDFF870A04FF06408F6
:107EC400A146761B1C23B6FBF3F6A64205F11C055E
:107ED40002D108B0BDE8F08755F81C0C55E906231B
:107EE400017900689A1A1B1ADBB2039308FB03F3A7
:107EF400B3FBF2F3CDE9019335F8043C0093CDE9EB
:107F0400061255F8083C11FB08F13846B1FBF2F1B2
:107F1400CDE904215246082100F084FC0134D4E761
:107F2400B00703003CFF020090FF0200C3070300F8
:107F340010B590B1D0E9012301689B1ADBB20A6045
:107F4400013BDBB2FF2B026802D10020107110BD8F
:107F540011684C1C14600B70F2E70E20F7E737B57C
:107F6400054600240DF107008DF80740FFF7F6FEE3
:107F74002A686B68116899420ED9481E106011F87E
:107F8400014CEB68298B01FB0434AB6811791B1A93
:107F9400DBB2994238BF13719DF80700FFF702FF67
:107FA400204603B030BD37B5054600230DF1070068
:107FB4000C468DF80730FFF7D1FE2A681368591C68
:107FC4001160E968641A298BB4FBF1F41C709DF804
:107FD4000700FFF7E7FE03B030BD30B18A68B2F89E
:107FE400483143F02003A2F848317047436810B584
:107FF4009C686068036801219B689847A36810B96E
:1080040003221A7010BD0422FBE70968006807F018
:108014007FBE08B107F0A3BE704738B58368054634
:108024000068DC7FFFF7F5FFAB685A7E2044B0FBA5
:10803400F2F302FB1300B0FA80F0400938BD10B52A
:1080440084680068FFF7E5FFE37F627EA076C0B234
:108054000344B3FBF2F102FB113301332375A37F15
:1080640001311844A175B0FBF2F3591C02FB130350
:108074000133E175637504F1140010BD38B58368EC
:10808400054600689C7FFFF7C4FFAB685A7E204416
:10809400B0FBF2F302FB1300B0FA80F0400938BDE4
:1080A4002DE9F843089C1E460F46E1B9184D194CBA
:1080B400641BE408944204D9174800EB8208BC42CC
:1080C40001D100230AE06B68D8F80000196807F0B2
:1080D4001FFEA946083520B9D9F804303360BDE83D
:1080E400F8830137EBE70028EBD00178436839B116
:1080F4002146104698472368002BE2D03460EEE70F
:10810400120199189B58002BDBD03160E7E700BFC0
:1081140004FE02004CFE02002032002030B5036849
:10812400D3F8405185B00446EDB10023092201A9DA
:10813400284602F00CFB2368029AC3F84021002170
:10814400092201A807F08FFD0023092201A928466E
:1081540002F0F3FA284602F098FA2368D3F84001B3
:1081640018B9C3F83C0105B030BD01A900230922A8
:1081740002F0EDFA20680023092201A9D0F8400199
:10818400019302F0DAFAEEE707B58368B9B1DA7E53
:108194008A4211D00B4A009233228DF8042001F157
:1081A4002F028DF805206D22ADF80620D9766A4697
:1081B4000549006902F06DF803B05DF804FBD97657
:1081C400024AF5E71B5B313BEF0B0300EA080300AF
:1081D400836807B51A7F8A4213D045F61B32ADF87F
:1081E400002034228DF8022001F12F028DF80320A3
:1081F4006D22ADF8042019776A460349006902F03C
:1082040048F803B05DF804FBEF0B0300014902F0EA
:1082140040B800BF050C03000A460068014902F09B
:1082240038B800BF1409030009B1FFF7F5BF704760
:10823400014A024902F02DB8E0080300EF0B0300E5
:108244002DE9F047002506460F46144605602078C0
:1082540040B107F06CFA60B1002304F8013B3368C5
:108264000B2BF4D93368002247F823202846BDE8B5
:10827400F08733685A1C326047F82340054694F867
:108284000080B8F1000FEAD0002D40F08280B8F1F0
:10829400270F06D0B8F15C0F00F08380B8F1220FED
:1082A4006FD12046FFF7B5FE611C0246204607F059
:1082B400FEFA4546E3E72046FFF7ABFE611C0246A3
:1082C400204607F0F4FA0025D9E7302825D1022307
:1082D4004FF00008E05CA0F13001C9B207295FFA51
:1082E40083F917D8013341EAC801052B5FFA81F8F5
:1082F400F0D199462046FFF78CFE09F1FF3AA244DB
:10830400821CA2EB09025146204607F0D0FA04F879
:10831400018BB4E7B9F1020FECD1782837D10221EF
:108324004FF00008635CA3F13002D2B2092AC8B24C
:1083340014D842EA081303295FFA83F80CD14FF0EA
:10834400040A2046FFF765FE0AF1FF39A144821CA6
:10835400A2EB0A024946D7E70321E3E7A3F161024E
:10836400052A03D8573B43EA0813E4E7A3F1410283
:10837400052A01D8373BF6E7022808D04FF0030A54
:10838400DFE7404607F0D3F900287FF468AF0134F3
:1083940075E7A8458FD0B8F15C0FF8D160788542B5
:1083A40093D12046FFF735FE04F101080246414609
:1083B400204607F07CFA444661E72DE9F34106467E
:1083C4000F461446002514B902B0BDE8F081706868
:1083D40003682246D3F80C80791901ABC047019B8E
:1083E4001D44E41A002BEED1B3681A78032AEAD0AC
:1083F400D3F848219206FBD5B3F848216FF3451210
:10840400A3F84821DFE72DE9F04F054685B09046F3
:108414000F46002971D00024385D07F088F940BB6D
:108424005FFA88FB05F1100A3846FFF7F2FDAB68E6
:108434005B7E001BA3EB0803984207EB04091AD9DF
:108444004A46002612F8010B02930192039207F0A8
:108454006EF9DDE9012320B112F8013C0A2B35D075
:108464003346A968487E08EB060188422DD90136B7
:10847400E8E70134D0E74B460026B04219D013F8A0
:10848400012B0A2A04EB060A1DD1286901F0F6FE25
:1084940032462E4649462846FFF78FFF56F8100FFE
:1084A400FFF7B4FE5FFA88F130460AF10104FFF7E2
:1084B400BBFE2869391901F0ECFE286905B0BDE856
:1084C400F04FFFF7A3BE0136D7E71E46286901F037
:1084D400D5FE324649462846FFF76FFF3444385DDF
:1084E40007F025F938B92869FFF790FE5946504638
:1084F400FFF79AFE98E70134F1E705B0BDE8F08F85
:108504000A4619B10249006801F0C3BE704700BFB2
:108514001A0903000A4619B10249006801F0B9BEFC
:10852400704700BF0E09030070B50546FFF787FDCD
:1085340083790278817801339A42044601D1012972
:1085440015D0012905F1100604D90139C9B2304604
:10855400FFF7D6FF2378A1798B4209D9013B591A39
:10856400C9B23046FFF7D6FFAB680022DA7770BD98
:108574000131C91AC9B23046FFF756FEF4E7F8B51F
:108584000546FFF75CFD04468778C6782846FFF762
:1085940044FD78B12869FFF739FEB74205F11005AB
:1085A4000ED161782378C91A2846C9B2BDE8F840CB
:1085B400FFF7B0BF2846FFF761FD0028EAD1ECE7DA
:1085C400A378E178C91AC9B22846FFF799FF23783E
:1085D40061788B42E7D9591A2846C9B2BDE8F840F8
:1085E400FFF722BE38B50546FFF729FD0278437828
:1085F4009A4204468378C27801D1934214D09A42B5
:1086040005D9D21AD2B20B49286901F042FE237867
:1086140061788B4205F1100007D9591AC9B2FFF7E6
:1086240079FFAB689A7FDA7738BDC91AC9B2FFF708
:10863400FBFDF6E7080903002DE9F34106468068CF
:10864400414F002480222146A0308DF8034007F0DA
:108654000AFB3E49306901F01CFE306901F00EFE50
:108664004FF47A7547F00107706803680122D3F864
:1086740010800DF1030101ABC047019B5BB94FF6BC
:10868400C010B847019B002BEED1013DADB2002DC7
:10869400EAD10D2033E09DF80330B1681B2B46D09E
:1086A40091F8A0201B2AEDD1522B40D10C44002379
:1086B40084F8A03091F8A1205B2A1DD101F1A20019
:1086C400022510F8012B0135EDB23B2A6CB219D109
:1086D400002C1FDB05F1A0040C44002214F8010B4C
:1086E400D0B9FA2A28BFFA22FA2B28BFFA230A752E
:1086F4008B7581F8A00002E081F8A0300B2002B055
:10870400BDE8F08103EB830302EB4303303B802D90
:108714009BB2D6D10C20F2E702EB820200EB4200BE
:1087240001353038EDB282B22806F3D4D6E70A19FF
:108734000134E4B2092C82F8A030A3D9002381F8D3
:10874400A0300420DBE700BF20090300FF0803007A
:10875400F8B51E46C3685B680546986040680368C0
:1087640017461C68294A2B46A0470446002844D1D2
:10877400686901F088FF044600283ED1A8684FF4D8
:10878400A6722146C0E94F4407F06DFAAB68204851
:10879400B3F8482142F02002A3F84821B3F8482155
:1087A40067F38202A3F84821B3F8482142F0080293
:1087B400A3F8482101221A7045F218021A83154AB7
:1087C400154B9B1A4FEAD30C21460432614516D14E
:1087D400072B04D9114B0E48042207F085F866B123
:1087E4009DF81810E868FEF7B1FC0028A1BFEB68FB
:1087F400DB6801225A71B8BF04242046F8BD52F840
:1088040031703F6840F8047B0131DFE7DF7F02000D
:108814002032002004FE02004CFE02000F80020001
:10882400FFF7CBBD0CB473B506AB0E4653F8045B2F
:1088340081680193D1F848315B07044620D5CB7E8B
:10884400B3421DD002221B31684607F0E3F93146DA
:108854002046FFF799FC01AA2946206901F096FDFC
:108864009DF800102046FFF78FFC9DF8011011B110
:108874002046FFF7ADFC02B0BDE8704002B070477F
:1088840001AA2946206901F081FDF4E7F8B5044600
:108894008068857FAB187F2B0F4616463ADC002A8A
:1088A40038D0C37FED1A03F1200113442033EDB215
:1088B40001446A1C184406F0FAFFA068C37F203301
:1088C40032463946184406F0F2FFA0682030FFF71C
:1088D400A0FBA268D37F90772033134420460E4A2E
:1088E4000821FFF79FFFA368DA7F3244DA77204636
:1088F400FFF793FB40B12069FFF788FC55B1204690
:10890400BDE8F840FFF73BBE2046FFF7B7FB002861
:10891400F1D1F3E7F8BD00BFEF0B03002DE9F041FF
:1089240004468068D0F84831827FC3F30008C37FCF
:108934005FFA88F7D51A0E46EDB2002F3ED17E2A93
:1089440040D83DB103F12001213301442A461844A3
:1089540006F0ADFFA368DA7F1A4482F82060002F86
:1089640072D19A7F0132D2B29A77134483F820806D
:10897400002D72D02046FFF762FB8278C3789A42BA
:1089840004F1100620D1A268D37F203313440821B8
:108994002046354AFFF746FFE91BC9B23046FFF7C8
:1089A400B9FDA268D37F0133D3772046FFF735FBA7
:1089B40010B32069BDE8F041FFF728BC7E2AC9D96D
:1089C400002DC7D1BDE8F0812069284A264901F06D
:1089D40060FCA268D37F203313442046224A082136
:1089E400FFF720FF2069224A1F4901F052FC0121B0
:1089F4003046FFF711FCD4E72046FFF73FFB002881
:108A0400E0D02046FFF71BFBC2788378013AD21AE4
:108A140012F0FF02054604F1100603D0154920693F
:108A240001F037FC2069FFF7F1FBE978AB78C91A4C
:108A34003046C9B2FFF764FD297801393046C9B21E
:108A4400BDE8F041FFF7F0BB002D93D19A7F0132CE
:108A5400D2B29A77134483F82050324606492069EB
:108A640001F017FC9DE700BFEF0B0300E4080300CF
:108A7400E708030008090300B8060300F0B582689C
:108A840085B000250446CDE901558DF80C50D2F887
:108A940044610F46002941D1002E3AD0FFF744FD2E
:108AA400A0683B46D0F84401092201A901F04FFE19
:108AB400A068029BC0F84431857F002B4CD1A030C4
:108AC400FFF7A7FAA36830B303F1A00103F1200074
:108AD40007F0FCF8A0682030FFF79BFA8DF80C0033
:108AE4009DF80C30A268AB42D377937702D2206909
:108AF400FFF79EFBA3682D4A204620330821FFF789
:108B040091FE2046FFF789FA002848D02069FFF734
:108B14007DFB05B0F0BD83F82000DBE7D2F84031DF
:108B2400B342F6D0D2F83C31002BF2D0FFF7FCFC74
:108B3400A368D3F8440130BB03F12000FFF769FABE
:108B4400C5B2A068D0F83C31C0F84431C5B100F1D9
:108B54002001A03007F0BAF8A06801A90023092277
:108B6400D0F8440101F0F3FDA0689DF80C2000F159
:108B7400200109230132D0F8440101F0E8FDAFE7F8
:108B840080F8A050E8E72B46092201A901F0DFFD97
:108B9400A368019A9DF80C50C3F84421DCE72046F1
:108BA400FFF76CFA0028B1D1B3E700BFEF0B030065
:108BB40038B504468068C37F857FED1A15F0FF053C
:108BC40040D003F12101203301442A46184406F021
:108BD4006EFEA268937F013B93772046FFF72FFA3E
:108BE4008278C3789A4215D1A268D37F2033134484
:108BF4002046154A0821FFF715FE54F8100F1249B4
:108C0400124A01F046FB691E2046C9B2BDE838404D
:108C1400FFF780BC0E4A0C49206901F03AFB206939
:108C2400FFF706FBA268D37F203313442046064A8D
:108C34000821FFF7F7FD2069064A0349BDE83840DB
:108C440001F027BB38BD00BFEF0B0300EE080300A3
:108C5400E4080300E70803002DE9F041C3685B68FA
:108C640090B004460D46002203A9186801F0A7FE3F
:108C7400002840F08B808DB1039801F04FFDA2686D
:108C8400D2F838310133C2F8383103F00703012B2D
:108C940004D00125284610B0BDE8F0812046FFF736
:108CA400CEF981780129064605D90139C9B204F102
:108CB4001000FFF725FC3178012905D90139C9B223
:108CC40004F11000FFF726FC2069FFF7B1FA2DB17B
:108CD4002F4A02212046FFF7A5FDDBE700230C22E3
:108CE40004A9039801F033FD069B0793059B0893A1
:108CF4009DF810308DF8255003F00302012A25D188
:108D0400BDF81060049F0398C3F3C203C6F383162F
:108D14008DF82430B2000C230AA901F018FDC7F322
:108D2400952723690093324607AB0AA93846FEF714
:108D3400F1FA039801F0F2FCE3685B68002203A9EE
:108D4400186801F03CFE0028C8D0A2E7022AF0D13E
:108D5400BDF81260C3F3C203B6098DF824304FF096
:108D64000C08082E374628BF082743463A460AA966
:108D7400039801F0ECFCF61B236907AA39460AA8FC
:108D8400B844FEF72BFB002EEBD1D2E7002581E798
:108D9400AC08030013B5436801A9002218689C6855
:108DA40001F00DFE014610B92046FFF755FF02B051
:108DB40010BDF7B547680191BC68A3681E78042EFE
:108DC4000ED001A9386801F024FD054650B9019878
:108DD40001F0A0FC032E03D129462046FFF73CFFF7
:108DE40003B0F0BDF11E18BF01212046FFF734FF88
:108DF400E7E700002DE9F04F04468068A5B0102194
:108E040000F5A470FEF7F9FFA3681B78022B40F06D
:108E1400928000230B936068036801221D690DF1A1
:108E24002B010BABA8470B9B002B6BD09DF92B3070
:108E3400002BF0DB01F0D4FCA0684378022B00F295
:108E44000185DFE813F003003F0446049DF82B502E
:108E54000D2D31D00A2D2FD0B0F848316FF38D137A
:108E6400A0F84831092D00F0FC8100F2E981002DC1
:108E7400D1D0082D00F0CC83284606F05DFC0028F4
:108E8400C9D0A3689DF82B10D3F84851C5F3C00589
:108E940015F0FF0F40F01483987F7E28BBD8DE7F47
:108EA400721CD2B2DA771E441A44013086F82010BC
:108EB40082F820509877AEE7D0F8483113F47F5FFA
:108EC40005D0D0F84831C3F387139D42CAD1B0F816
:108ED400483165F38D13A0F84831837F002B37D1D7
:108EE400C0F844312069FFF791F9A36802221A708F
:108EF4000022DA8383F820202368B14A0321204624
:108F0400FFF790FC00212046FFF7A6FE98B12368E6
:108F1400AB4A03212046FFF785FCA368D3F8482118
:108F2400120708D520462033A54A0821FFF77AFC0A
:108F34002046FFF724FB206901F0A0F9A0686FF038
:108F4400100100F5A470FEF76EFF25B0BDE8F08FA8
:108F540090F82030002B5CD1A0682030FFF759F83E
:108F6400A3680026C5B2C3F8446115B3D3F83C0125
:108F7400002800F08F803346092217A901F0E7FB8F
:108F84009DF864309D4240F08580A068092300F17B
:108F9400A0016A1CD0F83C0101F0D9FBA06800F1E3
:108FA400A001203006F0B4FEA368002870D183F835
:108FB400A0002046FFF716FB2046FFF72EF810B955
:108FC4002069FFF723F9A26817A920320EA8FFF73A
:108FD40037F90E9A0346002A84D0002840F0A08076
:108FE400784F794EF61BF6080546AE42179B40F0C3
:108FF4009D80764A00920221754A2046FFF712FCB2
:1090040073E70135B5F5807F04D1002283F8202071
:10901400A2E70025A3682B44EEB293F8200006F0E3
:1090240086FBA3680028ECD16EB19A7F03F120007F
:109034000132521B411906F03AFCA268937F9B1B34
:10904400DBB29377D377A568AB7F1F331D445FFAF8
:1090540085F8A946EFB2A8EB070699F80000F6B226
:10906400013D06F064FB0028F3D1A268937F03F16D
:109074001F01114489453FF46FAF9E1BA7EB0807FE
:1090840016443B44DBB286F820009377D37763E73A
:1090940083F8A060082705F10A0604EB07083146A7
:1090A400606901F008FB0546002833D0A368D3F8B3
:1090B4003C01A8B9C3E94F55CDE917009B7F8DF852
:1090C400643017A928460023092201F036FBA16861
:1090D4008A7F092301322031284601F02EFB68E7FC
:1090E4000023092217A901F032FBA0681895002378
:1090F400092217A9D0F83C0101F01FFB00231893A3
:10910400A368D3F83C2117929A7F8DF86420C3F8A2
:109114003C51D6E74046FFF701F8013FBFD148E78D
:109124002C4A02212046FFF77DFBDEE67A681846CA
:10913400116806F0EDFDB846083718B10135AE42A6
:10914400BFF453AFA0680021102204300F9106F041
:109154008AFDD8F80450EB682BB195E80F00A66897
:10916400043686E80F00D5F808B0DFF86C90DFF815
:109174006CA017AF00264FF0010800250E9B434555
:109184000BD94946786806F0C3FD48BBA268B2F81B
:10919400483143F00203A2F84831A3681B69002B4D
:1091A40048D00E9917AA02EB8602891B20469847DD
:1091B400A368B3F848216FF34102A3F8482194E669
:1091C400EF0B030004FE02004CFE0200800B0300C0
:1091D400C20A03006C0B0300940B0300970B0300FB
:1091E4005146786806F094FD0028CFD013AB009365
:1091F4002A460FAB41465846FEF752FF6A1CCCD0B4
:109204000F9B002BC9D01968786806F081FD0135E1
:109214000028B3D10F9DEB6833B195E80F00A66821
:10922400043686E80F00464608F10108D5F808B070
:109234000437A2E7A44A02212046FFF7F3FAB7E76E
:109244001B2D0BD07F2D7FF417AED0F848311807B3
:109254007FF5E1AD2046FFF7ABFCDCE5012343706D
:10926400D9E5D0F848311B077FF5D5AD837FC3F12D
:109274007F0313F0FF0304933FF4CDAD00F120010D
:10928400C27FA03006F0C6FCA368DA7F1344002531
:1092940083F8A050D87F06F04AFAA2680690431BD0
:1092A40018BF0123C2F8445117A9A0320CA8079390
:1092B400FEF7C6FF1798FEF7ACFECDE90D55C7B211
:1092C40005952E460395AB46A9460C9B23B1079AF8
:1092D400013B1344B3427CD8069B002B38D124AB0A
:1092E40003EB860353F8340CFEF793FEC7B224ABAA
:1092F40003EB86034FF0000A09930AF10103089374
:109304000FAB009352460DAB31462846FEF7C8FE1C
:109314000D9B002B00F0C1801968099B3A4653F855
:10932400340C06F001FC8046A8B9039B0133039377
:109334000D9B18680E9B8BB9FEF76BFE049AC3B2A3
:109344000593DB1B9A4201DDDBB20493D34631E083
:109354000027CCE7D146DDF820A0CEE7FEF759FE82
:10936400059BC0B2834238BF03460593049B0BB3ED
:1093740013AB009328460EAB4A463146FEF790FEE7
:109384000D9B18680E9BD3F800C007EB08025FFA28
:1093940088F1835C2BB9049B8B4228BF0B46049352
:1093A40008E01CF802209A42F5D108F10108B8F54A
:1093B400807FEAD10D9B0E93089B002BCAD1434AB0
:1093C40004212046FFF72EFA002D6AD14FF0FF3911
:1093D40065E024AB4FF0000803EB860A0FAB009363
:1093E40042460DAB31462846FEF75AFEB8F1FF3F20
:1093F40005D1364A04212046FFF714FA0BE50D9BEC
:10940400002B3FF408AD19685AF8340C06F080FCC0
:1094140008F101080028E1D10D9B9D68002D45D17C
:10942400039B002B3FF4F7AC012B6ED12B783BB19F
:109434000FAB00934A460EAB31462846FEF730FE8A
:109444000E9B1868FEF7E5FDB84206D00E9B049A01
:10945400196820463944FFF719FAA368DA7F1344E0
:1094640093F8200006F063F9A368002830D1D3F8FC
:109474004821D70723D5B3F8482160F30002A3F8A5
:10948400482120212046FFF749FAA268B2F8483162
:1094940043F00103A2F84831BDE4002DC0D10025FA
:1094A400BEE70D9B4FF0FF39002BB9D00C9B079AF8
:1094B4000136F6B213449E42FFF407AFB0E7202111
:1094C4002046FFF72BFAA6E49E0B0300BC0B030017
:1094D400DA7F9B7F9A42BFF49EAC2046FEF7AFFD35
:1094E400A2688578D37F0133D3772046FEF7A7FDA2
:1094F4008378AB4205D1012104F11000FEF78CFE04
:1095040089E42069FEF782FE85E4A368DFF86093AE
:1095140000225A7724AB03EB860307930BF1010374
:1095240006930FAB00935A460DAB31462846FEF71F
:10953400B7FD0D9B1968079B3A4653F8340C06F0A7
:10954400F3FA28BB039B013B03930D9BD3F800B0B4
:10955400BBF1000F1FD1A36883F81DB0039BBBB9F7
:109564002368B94A20460321FFF75CF9A368B74A88
:10957400203308212046FFF755F92046FEF7FFFF68
:109584000E9B049A196820463944FFF77FF942E498
:10959400DDF818B0C2E74846FEF73BFD059BA2681C
:1095A4001844C3B2484692F819800993FEF731FD76
:1095B40008905846FEF72DFD099B089A181A5FFA81
:1095C40080FAA068417FA8EB0208B8FBF3F3DBB292
:1095D400B1FBF3F203FB121301F1010C13F0FF0FC3
:1095E40080F81DC00DD1CDF800B04B46984A072134
:1095F4002046FFF717F9514604F11000FEF714FE58
:10960400ACE75B46914A07212046FFF70BF9F2E7E6
:10961400D0F848311E077FF5FEAB867F002E3FF45D
:10962400FAABC37F002B3FF4F6ABF61A03F120012B
:10963400F6B21F33721C0144184406F038F9A368CB
:10964400DA7F013ADA779A7F013A9A77002E37D097
:109654002A468049206900F01CFE2046FEF7EFFCF4
:109664008278C3789A4213D1A268D37F29462033E3
:10967400254613442046754AFFF7D4F855F8100FD1
:10968400FEF7D6FD31462846FEF744FFFFF7C3BB7D
:10969400714A6E49206900F0FCFD2069FEF7C8FD9F
:1096A400A268D37F203313442946684A2046FFF733
:1096B400B9F86A4A6549206900F0EBFDFFF7ABBBD6
:1096C400674AF7E79DF82B305B2B40F0BB80022301
:1096D400C5E500234370D0F8483119077FF512AC73
:1096E4009DF82B30313B1B2B3FF695AB01A252F872
:1096F40023F000BF1598020023980200439802004B
:10970400079802001B8E02001B8E02001B8E0200B3
:109714001B8E02001B8E02001B8E02001B8E020099
:109724001B8E02001B8E02001B8E02001B8E020089
:109734001B8E020069970200759702007997020058
:10974400C59702001B8E02000B9802001B8E0200BC
:10975400199802001B8E02001B8E02001B8E020051
:109764002798020001212046FFF788F9FFF753BB31
:109774000021F8E72046FEF762FC037842789A421B
:10978400054604D18178C27891423FF444AB6A79AA
:109794009A4204F110060ED132492069012200F0E8
:1097A40078FD69793046FEF7B5FEA268D37F0133B0
:1097B400D377FFF730BB01213046FEF72DFDF4E7E8
:1097C4002046FEF73CFC8379027801339A42054631
:1097D40003D18378012B3FF41EAB012A20690BD1FE
:1097E400214900F056FD697904F11000FEF71CFDD3
:1097F400A268D37F013BDBE701221C4900F049FD4D
:10980400F6E7032343702046FEF7ECFEFFF703BBA5
:10981400032343702046FEF787FEFFF7FCBA0323B9
:109824004370D0F84831B0F8482103F0010383F0C5
:10983400010363F30002A0F84821FFF7ECBA032305
:10984400437002E500230AE5EE0B0300EF0B03006F
:10985400E80B0300B8060300E4080300E70803006C
:10986400FB080300080903001A0903000E0903009A
:10987400B3060300836870B51E78012E044620D118
:109884004068036800219B6898470546B8B90821D9
:109894002046FEF779FC31462046FEF799FC0A493A
:1098A400206900F0F6FCA3680222DD8383F82050CF
:1098B4001A7003212368054A2046FEF7B3FF2846A1
:1098C40070BD0825FBE700BF040C0300EF0B030089
:1098D4002DE9F04F044689B07E48DFF81C92174604
:1098E4000E4606F03CFA05467B4806F038FAA368B3
:1098F400CDF80090794A5B6808212D1A2046FEF7BE
:1099040091FFA3685868FEF784FB8046484606F03A
:1099140026FAA36808EB000292B299682046FEF783
:1099240072FD6F4A00212046ADB2FEF77BFF3FB1C6
:1099340036B14FF00C09B04609FB0769C84527D179
:10994400654806F00CFA02300544ADB2614B009351
:1099540005F10308634A082120462B461FFA88F8BC
:10996400FEF760FF424660492046FEF74CFD36B1E3
:109974000C23DFF8709103FB0767BE4222D1A36872
:10998400D3F80C80B8F1000F5AD109B0BDE8F08FBC
:10999400D8F80400FEF73DFB8246D8F80000FEF735
:1099A40038FB5044A8420AD9D8F80400FEF731FB2A
:1099B4000546D8F80000FEF72CFB0544ADB208F1CB
:1099C4000C08BBE7D6E9002393B34AB30192424A99
:1099D40000920821454A2046FEF724FF7068FEF7EE
:1099E40018FB83463068FEF714FB82463A4806F0BB
:1099F400B6F9A5EB0B03A3EB0A031B1AD9B204F1C6
:109A04001000FEF711FC3A223949206900F041FCAC
:109A1400B16889B142462046FEF7F5FC0C36ACE746
:109A240000932B464A4608212046FEF7FBFEEFE74B
:109A3400002AEDD00092F4E72069FEF7E7FBEDE79A
:109A440000220392174604AE009603AB0121404660
:109A540002F10109FEF724FB039D5DB12868FEF7BE
:109A6400D8FAB84204D9039B1868FEF7D2FA87B231
:109A74004A46E9E7B9F1010F87D01E4ADFF864A02E
:109A840029462046FEF7CEFE2A46BD1CADB203ABE6
:109A940000960121404602F10109FEF701FB039BF8
:109AA400002B3FF472AF1B68009308212B465246EB
:109AB4002046FEF7B7FE039B596831B17A1D92B276
:109AC4002046FEF7A0FC4A46E1E72069FEF79EFB2C
:109AD400F9E700BF26090300140C0300E90B030097
:109AE4001D0B0300270B03002F0B0300420B030085
:109AF400B80603004B0B03000409030000221146BF
:109B0400FFF7E6BE022910B5044608D18368D3F8EE
:109B140048319B0703D5BDE81040FFF7EFBF20692C
:109B2400054A064900F0B5FB2069054A0349BDE82A
:109B3400104000F0AEBB00BFF2080300EF0B0300BF
:109B4400F6080300012906D0022906D18368D3F858
:109B540048319B0701D5FFF7D1BF024A0221FEF726
:109B640061BE00BF9E0B030010B58368D3F8482183
:109B740092070C4606D500221146FFF7A9FE0124E0
:109B8400204610BD0029FBD05B68024A0221FEF783
:109B940049FEF5E74C0A0300012937B5054614468A
:109BA40004D103B0BDE83040FFF7A8BF023918BFA5
:109BB4000121FFF7D9FF48B963680193044B00936F
:109BC400044A236802212846FEF72CFE03B030BD68
:109BD400EA000300BF0A0300012907B504D103B05A
:109BE4005DF804EBFFF78ABF02290AD15368019399
:109BF400084B00931368084AFEF714FE03B05DF89F
:109C040004FB8CBF0121002103B05DF804EBFFF7D6
:109C1400ABBF00BFEA000300BF0A030011F1FF312C
:109C240010B518BF01210446FFF79EFF40B9054A4D
:109C34000549206900F02DFBA36845F218021A8338
:109C440010BD00BFDA080300EF0B030001292DE962
:109C5400F3410446154637D18668FEF7EDFC38BB60
:109C6400A36804F11005FA21284693F814809F7D17
:109C7400FEF7D2FA20691E49FA2200F00AFB2046B8
:109C8400FEF7DAFCA0B9A368197D7176A368A1EB8D
:109C940008019B7D33762846C9B2FEF73BFC317E32
:109CA400C91BC9B2284602B0BDE8F041FEF728BC82
:109CB400A36845F218021A830E4A0421204602B012
:109CC400BDE8F041FEF7AEBD022994BF0021012199
:109CD400FFF74AFF48B96B680193074B00932B6861
:109CE400064A02212046FEF79DFD02B0BDE8F08140
:109CF40008090300E30A0300EA000300BF0A0300A3
:109D04002DE9F04111F1FF3186B018BF012105465C
:109D1400FFF72AFF40BBAB68DFF85480D3F84061FB
:109D24000446EEB1082C1BD030460023092203A9B7
:109D340000F00DFD9DF81420A96830460923013276
:109D4400A03100F004FDAB68049EA0330093671CAF
:109D54002346424600212846FEF764FD3C46E0E7E0
:109D6400AB68002283F8A02006B0BDE8F08100BFF4
:109D7400D90A030011F1FF3110B518BF01210446BF
:109D8400FFF7F2FE30B9A368B3F8482160F382020A
:109D9400A3F8482110BD11F1FF3110B518BF0121FE
:109DA4000446FFF7E1FE30B9A268B2F8483143F047
:109DB4000403A2F8483110BD11F1FF3110B518BFEA
:109DC40001210446FFF7D0FE30B9A368B3F8482157
:109DD40060F3C302A3F8482110BD11F1FF3110B59F
:109DE40018BF01210446FFF7BFFE30B9A268B2F8DC
:109DF400483143F00803A2F8483110BD022973B575
:109E04000D4694BF0021012104461646FFF7ACFE1F
:109E1400014658B9022D0BD1736801930C4B009382
:109E24000C4A336829462046FEF7FCFC02B070BD9C
:109E3400A368094AD3F8483113F0080F074B18BF39
:109E44001346074A204602B0BDE87040FEF7EABC5C
:109E5400EA000300BF0A0300181A0300421A0300B1
:109E6400C80A030011F1FF3110B518BF01210446DF
:109E7400FFF77AFE48B9A368C3F83801E3685B6862
:109E8400BDE81040186800F0E2BD10BD7FB511F1C7
:109E9400FF3118BF01210446FFF766FE0546B8B935
:109EA400E3685B681E68304600F0CEFDB268A168C6
:109EB400C0B2CDE9010264234343B3FBF2F3DBB246
:109EC4000093D1F83831034A29462046FEF7AAFC0C
:109ED40004B070BD880A030010B500201C4603F0CE
:109EE400B7FE2060002010BD83681868FDF720BF0E
:109EF40010B541680024C1E900230C7203F01EFF71
:109F0400024B01221A70204610BD00BFD459002014
:109F140010B50446002003F007FF20B16368002059
:109F2400D3E90021904763680120D3E900219047D9
:109F3400A368224640F6CD411868BDE81040FDF7FD
:109F4400B1BE000043681B7A70B504460E46CBB11F
:109F540083681868FDF7ECFE30F00803054601D16C
:109F640016B10025284670BD63681B7A63B1A368E7
:109F7400224640F6CD411868FDF794FE054603F0ED
:109F8400DDFEEFE70029ECD1054AA0680021FDF7CA
:109F940077FE636801221A7205460028E7D0E1E7DC
:109FA400159F02002DE9F74F9A461B4B1B68DB07F0
:109FB4008B46154605D4CAF80020002003B0BDE83E
:109FC400F08F164BDFF858800527002443F0010971
:109FD4002A460BEB0401002003F086FE0646A0B9D6
:109FE40098F800305BB10A2301934FF47A40C847D4
:109FF400019B013BF8D1013F07D188F80070002C88
:10A0040008BF2C46CAF80040D7E70123AD1B88F8E7
:10A0140000303444DCD1F2E7F0ED00E0A00E0300A0
:10A02400D45900201A60C0681A4600F0E6BD00004A
:10A0340010B4074C0378E35C23B104305DF8044B9F
:10A0440002F01CB90C305DF8044B01F075BE00BF82
:10A054000C5A00204069054A0378D35C13B10430DC
:10A0640002F0C8B90C3001F033BF00BF0C5A002015
:10A074000378044AD35C13B1043002F0A9B80C305D
:10A0840001F004BE0C5A002010B504464069FFF7E5
:10A09400EFFFA368BDE810401868FDF749BE000053
:10A0A40037B51A6004461A46006900F02EFD0546CD
:10A0B40008BB6069134A0378D35CFBB1043002F037
:10A0C40021F9C0B9FF23019301AA0123694620693C
:10A0D40000F058FD78B99DF8042000996069FFF7F5
:10A0E400A7FF636893F82930054623B118B901998D
:10A0F400206900F0BCFD284603B030BD0C3001F0EF
:10A1040065FEDEE70C5A002037B5FF2304460093B2
:10A114006A46012301A9C06800F0A6FC98B9009A18
:10A124008AB160690B4D03780199EB5CD2B263B1DB
:10A13400043002F0F3F830B9A368224640F6CD416A
:10A144001868FDF7AFFD03B030BD0C3001F04AFED6
:10A15400F1E700BF0C5A002073B50378FF26012BEA
:10A1640005460C4601960BD0BBB1022B06D1017AF1
:10A17400E06800F0B3FC2046FFF7C6FF02B070BDF4
:10A18400017AE06800F0AAFC2B7A002BF3D0636814
:10A194000020D3E900219047EDE7017A206900F01F
:10A1A40066FD01AA012369462069019600F0EAFCD4
:10A1B400019A22B1D2B200996069FFF739FF63684E
:10A1C4000120D3E900219047D8E7000038B543685F
:10A1D40093F8283004460D460BB383681868FDF7DE
:10A1E400A7FD30F008030ED175B16069FFF740FF99
:10A1F400616860690022083100F0A6FF68B96368ED
:10A20400012283F8292038BD636893F8283043B1CC
:10A214002046BDE83840FFF777BF0620F3E7002962
:10A22400E3D1064AA0680021FDF72AFD63680122F4
:10A2340083F828200028EBD0E5E700BF59A00200EE
:10A2440038B5044640680D46C0E900230023038561
:10A254002022083005F0DEFC2C612946064A60699C
:10A2640000F072FF054628B9E06800F0F4FB2069AD
:10A2740000F0F1FB284638BD5DA10200826810B5EC
:10A2840004462AB143690168006998470023A36022
:10A2940010BD0EB403B5039921B104AB01AA019317
:10A2A40000F074F802B05DF804EB03B070470A29BB
:10A2B40038B504460D4602D10D21FFF7F8FFA36817
:10A2C4002268591CA160D554D4E901329A4204D3BE
:10A2D4002046BDE83840FFF7D1BF38BD2DE9F84F1F
:10A2E4009946DDE90A431746824688460A4601260E
:10A2F400BA420FD24E4538BF4E4613F0010B01D17E
:10A3040064B900240125B9F1010F1AD909F1FF3903
:10A314007D43F8E7B2FBF7F20136E9E79B070ED578
:10A32400B9F1000F0CBF30252025A642EAD2013C2A
:10A3340029465046FFF7BBFF002CF6D1E1E7202564
:10A34400F3E7B8FBF5F39F42E2D9DFF83C90B8FBA2
:10A35400F5F3504619F8031005FB1388FFF7A7FF20
:10A36400B5FBF7F3BD4207D2BBF1000F02D00CB12D
:10A37400A64203D3BDE8F88F1D46E8E720215046E6
:10A38400013CFFF794FFF2E7D90E03002DE9F74FE4
:10A39400054617468846002900F0318118F8011B4C
:10A3A40049B92B7B002B00F02A81284603B0BDE875
:10A3B400F04FFFF763BF252940F0C080002698F8CE
:10A3C40000302D2B424608F1010823D0302B24D035
:10A3D4002B2B25D000242A2B02F1010123D13B6829
:10A3E4001A1D1B683A601C440A4613782E2B26D18A
:10A3F40001324FF0000A104610F8011BA1F1300C95
:10A40400BCF1090F1DD80A2303FB0A13A3F1300A78
:10A414000246F0E746F00106D1E746F00206CEE731
:10A4240046F00406CBE711F8013CA3F130000928FB
:10A43400DBD80A2202FB0434303C0A46CBE74FF057
:10A44400000A12F8011B01F0FB0068289046F8D0BE
:10A4540069290ED04AD8582964D006D825296DD048
:10A4640098F80030002B99D19BE7632962D06429C6
:10A47400F6D13A68D2F80090111D89EAE972396080
:10A48400A2EBE9724FF0010B092A5BDCD34538BF1C
:10A49400D3462CB1B9F1000F01DB710700D5013CA3
:10A4A400B20702D5BAF1000F04D0F30702D4002C8E
:10A4B4004ED10024B9F1000F52DAC9F100092D215F
:10A4C4002846FFF7F4FE06F00302022A05D1BAF18A
:10A4D400000F02D1002C47D10024CDE90046534699
:10A4E4000A2249462846FFF7F9FEB9E773294CD0FA
:10A4F40014D87029B4D13B681A1D3A60302128461B
:10A504001C68FFF7D4FE78212846FFF7D0FE00220E
:10A514000823CDE9003221461022E3E775292BD028
:10A5240078299DD139680A1D3A60CDE90046534621
:10A53400102228E03B681A1D19783A602846FFF774
:10A54400B6FE8DE70A230BF1010BB2FBF3F29BE796
:10A55400A345AFD220212846013CFFF7A8FEA6E779
:10A564007007B0D52B21ABE7A345B6D230212846DE
:10A57400013CFFF79CFEADE73968CDE900460A1DB2
:10A584003A6053460A220968ACE73B681A1D3A60F0
:10A59400F107D3F8009020D4B9F1000F25D0484634
:10A5A40005F0DDFB0646B44200D9C4B909F1FF3910
:10A5B40020E028460136FFF77AFE19F80610002934
:10A5C400F7D1A642BFF44CAF002C3FF449AF202191
:10A5D4002846013CFFF76BFEF3E70026EDE7202158
:10A5E4002846013CFFF763FEDDE74E46DBE72846DD
:10A5F400FFF75DFE19F8011F0029F8D130E703B019
:10A60400BDE8F08F2DE9F047B0F806904479D2F810
:10A6140000A09DF8208009FB04F4043C06460AEBE4
:10A624000300A0420F4688BFA4EB030A191DC2F819
:10A6340000A0B1FBF9F509FB15114DB9A9EB010413
:10A64400544528BF5446BAF1000F04D1BDE8F08741
:10A654003668013DF1E704317B1970182246B8F1E0
:10A66400000F0ED001461846AAEB040A05F0D2FAF0
:10A67400D145254436684C464FF0000128BF544666
:10A68400E1E71946F0E7FDF753BCF8B54679014612
:10A69400721E0546002393422D6803D30024A6426C
:10A6A40002D8F8BD0133F6E70F682846FDF77BFCB6
:10A6B40001343946F3E72DE9F843068BCD1C0746F0
:10A6C400FDF74DFC043E35440446B5FBF6F5F0B108
:10A6D4004FF48073EDB28380C680013D07608146EC
:10A6E4004FF00008A84512D23846FDF738FC06465C
:10A6F40048B163790133637108F10108C9F80000B6
:10A7040007608146EEE72046FFF7BFFF3446204648
:10A71400BDE8F88301210430FDF790BB10B5012199
:10A7240004460430FDF795FB10F0FF0F04D12046DA
:10A73400BDE81040FFF7A9BF10BD1FB5039200226A
:10A74400009203AAFFF75EFF05B05DF804FB1FB596
:10A7540003920122009203AAFFF754FF05B05DF8AB
:10A7640004FB41DF70470000064B10B500241C7049
:10A77400054B1C60BFF35F8F0449054800F088FA5D
:10A78400204610BDE0590020E4590020EC0E0300DF
:10A79400D859002007B500230DF107008DF80730C4
:10A7A400FDF7DCFAF1EE103A23F09F03E1EE103AE4
:10A7B400BFF35F8F094B4022C3F884219DF8070043
:10A7C400FDF7F0FA04F07AFD20B1FFF7CAFF03B0F9
:10A7D4005DF804FB20BF40BF20BFF8E700E100E0C4
:10A7E4007047026813685268934291BFD01A806818
:10A7F4000130801888BFC01A7047036881681A68DE
:10A804005B688B4234BF01330023D31A584258414A
:10A814007047F7B5002304460DF107000D468DF887
:10A824000730FDF79BFA2046FFF7E7FF10B1237CC2
:10A83400002B3CD12268A66853685168B14234BFEA
:10A8440001310021516030B11168A068814234BFE8
:10A85400013100211160E2686068511E072920D887
:10A86400DFE801F004101F141F1F1F182A78C254B8
:10A874002046FFF7B6FF23689A68824200D29860A8
:10A88400002415E02A8820F81320F1E72A6840F80C
:10A894002320EDE7D5E9006700EBC300C0E90067BA
:10A8A400E6E7294602FB030005F0B4F9E0E70424D7
:10A8B4009DF80700FDF776FA204603B0F0BD13B506
:10A8C400002304460DF107008DF80730FDF746FA22
:10A8D4002046FFF786FF04469DF80700FDF762FA5D
:10A8E400204602B010BD00002DE9F04F8368D3F874
:10A8F4004851C5F340058BB0074635B100221146D7
:10A904000BB0BDE8F04FFEF7E3BF012906D9224A98
:10A9140002210BB0BDE8F04FFDF784BF1F4C204E61
:10A92400DFF88080DFF88090DFF880A0361B1C23DE
:10A93400B6FBF3F6AE4202D10BB0BDE8F08FE3688C
:10A9440008932368D4F808B09A6809922046FFF760
:10A95400B6FF099A94F810E0642303FB00FCBEF1EF
:10A96400000F0CBFC646CE465343B3FBFBF3CDE901
:10A974000432BCFBFBF1089B0191CDE9020B00936F
:10A98400CDE906BE6369524608213846FDF74AFF01
:10A9940001351C34CEE700BFB00703004CFE0200B3
:10A9A40084FE02003C0F0300450F0300510F030017
:10A9B400036818685B68C31A58425841704773B5F6
:10A9C400002305460DF107000C4616468DF80730A6
:10A9D400FDF7C4F92846FFF7EBFF002832D12968B8
:10A9E4000B682EB90A68A868824238BF561C0E60EC
:10A9F400EA686968501E07281ED8DFE800F0040ED4
:10AA04001D121D1D1D16CB5C237000249DF807002C
:10AA1400FDF7C8F9204602B070BD31F81330238029
:10AA2400F3E751F823302360EFE701EBC301D1E9E9
:10AA34000023C4E90023E8E703FB0211204605F0E4
:10AA4400E9F8E2E70524E1E70368986870470368DA
:10AA540000229A607047836800225A609A60C3E9B2
:10AA64000422DA601A6070472DE9F04106460F4669
:10AA740090461D468BB9B0687368D0E9031403F19E
:10AA8400010C0A1B62450FD10024C8F800401DB315
:10AA9400FDF7F3F90020BDE8F0818068FDF7E4F9E3
:10AAA4000028E8D01120F6E701EA030223409A4285
:10AAB40038BF6444D8F800302CBFACEB0204641AED
:10AAC4009C4228BF1C463368C8F8004013443B60CE
:10AAD400C3681C44C460DDE72846DCE78268436839
:10AAE400106910B50133946803441B1B8B420AD3CD
:10AAF4000C44C2E902441046FDF7BCF9002814BF17
:10AB04000020082010BD0420FCE72DE9F84F05467D
:10AB1400806888469146FDF7A7F9824680BBD5E94F
:10AB240001431A69013414449A68A41AD9F800201C
:10AB3400944228BF1446C9F800406F689E683E409E
:10AB44000137A7EB060B5C4509D928684146304418
:10AB54005A4605F05FF8F61B3444D8445646286834
:10AB640022464146304405F055F8A868D9F800203B
:10AB7400836813448360FDF780F90020BDE8F88FF3
:10AB84001120FBE72DE9F84306460F4690461C4684
:10AB940073B9B06882684569B2EB050910D1C8F889
:10ABA400009044B30430FDF768F90020BDE8F88351
:10ABB40080680430FDF758F90028EAD01120F5E741
:10ABC4007468D8F800302540224095420CD299454B
:10ABD40001D2C8F800903368D8F800201D444369B6
:10ABE4003D6013444361E0E70134641B9C4238BF79
:10ABF400C8F80040EFE72046D8E72DE9F0410646C3
:10AC04008068043088461746FDF72EF968BBB268A1
:10AC140013699568ED1A3B689D4228BF1D463D6047
:10AC240073681169946819401C40A14228BF5C1CD8
:10AC3400641AA54208D9336840461944224604F0F0
:10AC4400E9FF2D1BA044002133682A4619444046DD
:10AC540004F0E0FFB0683A68036913440361043008
:10AC6400FDF70BF90020BDE8F0811120FBE78068B7
:10AC740008B582680369D21A8A4207D30B44C0E933
:10AC840004330430FDF7F9F8002008BD0420FCE784
:10AC94000B684A684360934208BF0023016008BF01
:10ACA40043607047436843B10268916852680B443B
:10ACB4009342436004BF00234360704710B50D49BD
:10ACC400A1F59472914201D800200FE08B1ADB1099
:10ACD40003EBD3735B1002EBC30452F833308342AB
:10ACE40005D802D204F10802ECE7606810BD2146E1
:10ACF400E8E700BF2C11030008B5FFF7DFFF024BA4
:10AD0400002808BF184608BDEE0F0300054B1B685A
:10AD1400082B01BF044B1868B0FA80F0400918BF33
:10AD240000207047300100103401001008B54FF0C6
:10AD340080430022C3F80C21C3F81021C3F838253E
:10AD44004FF0805203F54043D2F80414C3F82015A1
:10AD5400D2F80814C3F82415D2F80C14C3F8281533
:10AD6400D2F81014C3F82C15D2F81414C3F8301503
:10AD7400D2F81814C3F83415D2F81C14C3F84015CB
:10AD8400D2F82014C3F84415D2F82414C3F8481593
:10AD9400D2F82814C3F84C15D2F82C14C3F8501563
:10ADA400D2F83014C3F85415D2F83414C3F860152B
:10ADB400D2F83814C3F86415D2F83C14C3F86815F3
:10ADC400D2F84014C3F86C15D2F84424C3F87025A3
:10ADD400FFF79CFF10B1384B384A1A60FFF796FF13
:10ADE40018B1374BFB22C3F81825FFF78FFF48B182
:10ADF4003449354B0A681B6822F00F0203F00F0335
:10AE040013430B60FFF782FF18B1304B4FF400720D
:10AE14001A604FF08043D3F80024D20744BF6FF088
:10AE24000102C3F800242A4AD2F8883043F470039C
:10AE3400C2F88830BFF34F8FBFF36F8F4FF01023EA
:10AE4400D3F80022002A03DBD3F80432002B2FDAD4
:10AE5400204B0122C3F80425D3F80024002AFBD098
:10AE64004FF010221221C2F80012D3F80024002A55
:10AE7400FBD04FF010231222C3F80422154B1A46BC
:10AE8400D3F800140029FBD00021C3F80415D2F82C
:10AE94000034002BFBD0BFF34F8F0D490E4BCA6813
:10AEA40002F4E0621343CB60BFF34F8F00BFFDE7B2
:10AEB4000A4B0B4A1A6008BD8C56004048810300B7
:10AEC40000F00040E40E004058020010409602409A
:10AED40000ED00E000E001400400FA051833002012
:10AEE4000090D003074B1B5C1F2B86BF03F01F038E
:10AEF40005494FF0A041012202FA03F3C1F80C35D1
:10AF0400704700BFE614030000030050074B1B5CAE
:10AF14001F2B86BF03F01F0305494FF0A0410122F8
:10AF240002FA03F3C1F80835704700BFE6140300C2
:10AF34000003005008B50020FFF7E8FF0120FFF7E9
:10AF4400E5FF0220FFF7E2FF0320BDE80840FFF71A
:10AF5400DDBF00000A4B185C1F288ABF094B4FF065
:10AF6400A04300F01F00D3F804250121814021EA09
:10AF740002000A40C3F80805C3F80C25704700BF57
:10AF8400E614030000030050C20710B504460CD5B4
:10AF94004FF0A0430322C3F83427C3F83827C3F87B
:10AFA4003C27C3F84027FFF7C5FFA3070AD54FF096
:10AFB400A0430C22C3F82C27C3F83027C3F860271A
:10AFC400C3F8642710BD000038B5074C051E04F112
:10AFD400080318BF1C4623682BB11A6822605B68FB
:10AFE40028469847F7E738BDF059002020B9054BAB
:10AFF40001225A70FFF7E8BF012802D1014A90707C
:10B00400F8E77047E859002020B9034B01225A7031
:10B01400FFF7DABF704700BFE859002038B50B4C82
:10B02400237883B90A486360A3602361E36000F076
:10B03400C9F8054604F042F908B900F0CFF8012335
:10B044002370284638BD8525FBE700BFE85900205A
:10B05400F1AF020037B50B4C00230DF107008DF85A
:10B064000730FCF77BFEE368013BE360E56815B954
:10B0740000F0C6F8A5709DF80700FCF793FE03B036
:10B0840030BD00BFE8590020012813B509D018B11C
:10B0940003281CD002B010BD0F4B0122C3F880203E
:10B0A400F8E70E4C00230DF107008DF80730FCF78C
:10B0B40055FE23780BB9FFF7B1FFE3689DF807004D
:10B0C4000133E3600123A370FCF76CFEE2E700F0B8
:10B0D40085F8FFF7BFFFDDE700E100E0E859002055
:10B0E4001FB503788DF800304368019383688DF8A9
:10B0F4000830C3680393054A054B684653F821306A
:10B1040052F82110984705B05DF804FBFC59002063
:10B11400045A00201FB503788DF80030436801936A
:10B1240083688DF80830C3680393054A054B684665
:10B1340053F8213052F82110984705B05DF804FB0C
:10B14400FC590020045A0020F0B5194B0678DFF8AA
:10B1540070E043F82620174B94460A6943F82620EA
:10B164004B7F0EF806300C4607460FCC89B06D466F
:10B174000FC594E80F0085E80F001EF8063004960A
:10B1840053B1BCF1000F0C4A694608BF0022381DB8
:10B1940000F042FF09B0F0BDBCF1000F074A694658
:10B1A40008BF002207F10C0000F09CFCF2E700BF8E
:10B1B400045A0020FC590020E5B0020019B1020035
:10B1C4000C5A0020044A137923B90121106091809C
:10B1D4001846704785207047105A0020074B1A689C
:10B1E400D2075FBFC02283F8002301221A604FF008
:10B1F40080430122C3F81825704700BF00E100E036
:10B20400044B01221A604FF08042D2F81834DB0359
:10B21400FBD470470C000040154B07B51A687AB18F
:10B2240000221A601B680093009B4FF080430122A8
:10B23400C3F808230F4B587910B95A711B68984703
:10B244000D4B1A6882B100221A601B680193019B9E
:10B254004FF080430222C3F80823064B1B680120E9
:10B2640003B05DF804EB184703B05DF804FB00BFBE
:10B2740000010040105A00200401004000F1804009
:10B2840000F5C040002382B0036003680193019B72
:10B2940002B0704703681F2B83BF03F01F030360D2
:10B2A40001484FF0A04070470003005007B50190DB
:10B2B40001A8FFF7EFFF019B00EB8300D0F8002704
:10B2C40022F44032C0F80027D0F8003743EA0143A3
:10B2D400C0F8003703B05DF804FB0000054B4FF0E5
:10B2E400FF32072843F8202084BF1B1883F8582016
:10B2F400704700BF185A002010B5174C94F86A30F4
:10B3040043BB04F130033021FF22013911F0FF0166
:10B3140003F8012BF9D1C8B2FFF7E0FF01310C2982
:10B32400F9D1062200210D4804F09DFC0C4BC022EB
:10B3340083F8062340221A604FF4BE70FFF79EFF85
:10B34400084B4FF00042C3F80423012384F86A3009
:10B35400002010BD0820FCE7185A00207C5A002069
:10B3640000E100E000600040034B93F86A00003005
:10B3740018BF0120704700BF185A0020F7B53B4E94
:10B384003318054693F93030002B6CDA8B78C3F30D
:10B394004003002B0BBF082400240C200820844207
:10B3A40002D1042003B0F0BD56F82470013743D114
:10B3B400701946F8242080F8304013B9331983F803
:10B3C40058508B785A0717D4D80737D501A8019558
:10B3D400FFF760FF019B00EB8300D0F8003723F0F8
:10B3E4000203C0F800372248EA0805F007070123E2
:10B3F400BB40875C3B43835488780A7810F0020092
:10B4040028D0A40004F1804404F5C0442D02D4F8EB
:10B41400103523F44F3323F44073C4F81035120469
:10B42400D4F8103505F47C5502F4403215431D431D
:10B43400C4F810550020B5E70134B0E701A84A78F4
:10B444000195FFF727FF019B03F5E073920040F895
:10B454002320C8E7083C344494F8605045EA82123B
:10B4640084F860209EE708209CE700BF185A00205B
:10B474007C5A002073B5224C2518064695F93020D5
:10B48400072A19DD224492F858309B09032B0FD167
:10B49400019001A8FFF7FEFE019AD0F81035D340C1
:10B4A400DB0707D402213046FFF700FF02B070BD6E
:10B4B400012BF7D00321F6E7D3B2072BF6D893007C
:10B4C40003F1804303F5C043D3F8100540F00100B5
:10B4D400C3F8100502F14000800080B2FFF7CEFEF1
:10B4E4000029E3D095F9303054F82330002BDDD017
:10B4F400012303FA02F2034BC3F80423D6E700BF87
:10B50400185A0020006000400E4B034493F9302089
:10B51400072A02DD0021FFF7C9BED3B2072B10D8DA
:10B52400930003F1804303F5C043D3F8101521F0D1
:10B534000101C3F81015012303FA02F2024BC3F808
:10B5440008237047185A00200060004007B5019096
:10B5540001A8FFF79FFE019BD0F81005D84000F02A
:10B56400010003B05DF804FB2DE9F04F002489B01D
:10B57400CDE90244624D4FF48072012102F180430F
:10B5840003F5C04390B21B68012B06D1D5F80433F0
:10B594000B4202D0FFF772FE0C430432B2F5907FE7
:10B5A4004FEA4101EAD1574B1B68012B0ED14FF4EE
:10B5B400BE70FFF763FE4FF0A04344F00044D3F89D
:10B5C40010350293504BD3F81035039314F0FF0F4A
:10B5D4001AD04E4F00250126344210D0AB0003F19F
:10B5E400804303F5C043D3F81005D3F8101557F87A
:10B5F400253023B1C1F30141C0F30520984701353B
:10B60400082D4FEA4606E7D1002C75DA0DF1100833
:10B6140000230493C8F804304FF0FF33CDE9063318
:10B62400DFF8E8A0DFF8E89000273D4619F9014B60
:10B63400631C48D0E4B2012324F0C00604F00702DE
:10B6440003FA02F2F00808AB191811F8083C134287
:10B6540039D00AEB0603A40993F930305AF823B021
:10B66400BBF1000F08D1032C2DD118F800C04CEA0F
:10B67400020C08F800C001E0032CF6D001A80196E2
:10B68400FFF708FE019B11F8181C03F5E07C11423A
:10B6940050F82C00C0F3014005D0022813D1032C2C
:10B6A4000BD1214604E003280DD1032C05D102213E
:10B6B4003046FFF7FBFD0135EDB2BBF1000F02D0C0
:10B6C40021463046D8470137042FAFD1A5B14FF0FA
:10B6D400A0430299D3F8102503F540739142D3F89F
:10B6E400103502D10399994206D002920393049A29
:10B6F400059B0692079395E709B0BDE8F08F00BF5C
:10B70400006000407C61004000030050185A002093
:10B71400785A0020014B1B68184700BF845A002048
:10B724000E4B984237B50D4602D0002003B030BD11
:10B7340000230DF107008DF80730FCF70FFB084BD1
:10B744001C7914B901221D601A719DF80700FCF7D9
:10B7540029FB002CE9D01120E8E700BF00200040BD
:10B76400845A0020034B984201BF034B00221A6005
:10B774001A71704700200040845A0020002343506F
:10B7840082B043580193019B02B07047F0B54779EA
:10B794001B4B1C4E43F827207D00EB19F35C6BBB5D
:10B7A40090F904308C78002BA8BF03F1604CDAB216
:10B7B400BABF02F00F0EDFF850C00CF5614C4FEA2F
:10B7C4004414E4B2B4BF0CF80E408CF800435B0997
:10B7D400012402F01F02DFF834C004FA02F24CF82C
:10B7E400232003680A88C3F808253D4473190A799D
:10B7F4005A707455CA789A700020F0BD0820FCE78E
:10B80400905A00208C5A002014ED00E000E100E082
:10B81400036801221A604379024A03EB43030221BD
:10B82400D15470478C5A00200368044901225A609D
:10B83400437903EB4303CA54704700BF8C5A00207A
:10B8440003680122C3F84823C3F8082370470000A3
:10B854002DE9F041224E234FDFF88C8000244FF471
:10B864008035D7F80433A6F580412B4289B20CD039
:10B87400336853B1C7F848533846C7F80853FFF73D
:10B884007DFFD8F80030E0B298470134042C4FEA29
:10B89400450506F10406E4D11248D0F80433DA076A
:10B8A4000AD5D0F800313BB14FF48071FFF766FF41
:10B8B4000D4B20461B6898470A48D0F804339B0771
:10B8C4000CD5D0F804314BB14FF48271FFF756FF19
:10B8D400054B05201B68BDE8F0411847BDE8F08121
:10B8E4004041024000400240905A0020002343504F
:10B8F40082B043580193019B02B070470A4610B5C9
:10B904004FF48E71FFF7F2FF136A9168C95C136AF2
:10B9140001331362C0F81C1510BD024608B54FF47C
:10B9240092710068FFF7E2FF4FF484711068FFF72B
:10B93400DDFF136801221A6008BD8B690A4610B541
:10B944004FF4847123B9FFF7D1FFD0F8183510BD37
:10B95400FFF7CCFF536AD168D0F81805C854536A6E
:10B9640001335362F3E700001FB501238DF8003063
:10B97400044BCDE90110D3E900126846904705B0A5
:10B984005DF804FB945A002030B54C4AD2F80433D5
:10B9940013F4007F85B015464FD0D2F82431002B24
:10B9A4004BD04FF492711046FFF7A0FF4FF4017390
:10B9B400C2F80833424B93F8291009B901215160A8
:10B9C4003E4902228DF80020D1F88024C1F8802459
:10B9D40003929A690292DA6801920022C3E906226C
:10B9E4006846D3E9001290473448D0F81C315BB163
:10B9F40033490A6A4B699A420A464BD291F8283075
:10BA0400002B47D1FFF77AFF2C4AD2F8443193B187
:10BA14004FF4A2711046FFF769FF294B93F82910E0
:10BA240009B1012111609A692AB100229A61586A08
:10BA3400D968FFF799FF05B030BDD5F804335B072B
:10BA4400D2D5D5F80831002BCED01D4C1B48214649
:10BA5400FFF773FF636AA2699A422346C4D1E2697D
:10BA6400E1684AB12369E3600023606AA261E3618B
:10BA74006362FFF779FFB7E794F829200AB9012236
:10BA84006A600E4A4FF40170C2F8080300229A61FA
:10BA9400586AEEE74FF48E710848FFF727FF5169A3
:10BAA4000029B1D00023029191688DF800300191F2
:10BAB40053616846D2E900139847A5E70020004087
:10BAC400945A00201F2886BF00F01F00044B4FF03B
