:020000022000DC
:1060000000000420756302005D6302005F6302000C
:106010006163020063630200656302000000000028
:1060200000000000000000000000000067630200A4
:1060300069630200000000006B6302006D630200F0
:106040007D9102006F630200359602007DE502003B
:106050006F6302006F630200899402006F630200A5
:106060006F6302006F6302006F6302006F630200E0
:106070006F6302006F6302006F6302006F630200D0
:106080006F630200E17002006F6302006F63020041
:106090007D7102006F630200F9DF02006F6302008E
:1060A0006F6302006F6302006F6302006F630200A0
:1060B0006F6302006F630200000000000000000038
:1060C0006F6302006F6302006F6302006F63020080
:1060D0006F6302006F6302006F6302006F63020070
:1060E0006F6302006F6302006F6302000000000034
:1060F000000000006F630200000000006F630200F8
:10610000000000000000000000000000000000008F
:10611000000000000000000000000000000000007F
:10612000000000000000000000000000000000006F
:10613000000000000000000000000000000000005F
:10614000000000000000000000000000000000004F
:10615000000000000000000000000000000000003F
:10616000000000000000000000000000000000002F
:10617000000000000000000000000000000000001F
:10618000000000000000000000000000000000000F
:1061900000000000000000000000000000000000FF
:1061A00000000000000000000000000000000000EF
:1061B00000000000000000000000000000000000DF
:1061C00000000000000000000000000000000000CF
:1061D00000000000000000000000000000000000BF
:1061E00000000000000000000000000000000000AF
:1061F000000000000000000000000000000000009F
:10620000354936480A1A02D0072291438D4634494F
:1062100034480A1A06D00722914381F309880222E2
:1062200082F3148830483149314A00F044F831484B
:106230003149324A00F03FF831483249324A00F0E1
:106240003AF832483249334A00F035F83248334997
:10625000334A00F030F833483349344A00F02BF821
:1062600033483449344A00F026F83448344900228F
:1062700000F02CF833483449002200F027F8334866
:106280003349091A082902DB002202604160314AC1
:1062900090471F481F49884205D00268043003B464
:1062A000904703BCF7E700208646EC46002000211B
:1062B000294A9047FEE7884207D0521A05D0037852
:1062C00001300B700131013AF9D17047884202D098
:1062D00002700130FAE770470000042000E003205C
:1062E0000000042000000420941C0300342200203D
:1062F00088220020D4630200D4630200E0FC020084
:10630000941C0300342200203422002060FE02008E
:1063100060FE020060FE020060FE020060FE0200FD
:1063200060FE020060FE020060FE0200941C03009A
:10633000E81C0300882200208822002088220020F8
:10634000F0330020F0330020F4330020F433002039
:10635000F45300209D630200C99D0200FEE7FEE7A2
:10636000FEE7FEE7FEE7FEE7FEE7FEE7FEE7FEE705
:10637000704700BF1048804710484FF0070188431E
:1063800085460F4880470F48016841F4700101605D
:10639000BFF34F8FBFF36F8FFFF732BF0A480B4930
:1063A0000B4A884207D0521A05D0037801300B708F
:1063B0000131013AF9D170477163020000000420F5
:1063C000D98C020088ED00E04CFE02002022002063
:0463D0003422002053
:1063D40000487047E833002008F08ABB704700008B
:1063E40007B5044B0093044A402300F032F803B08D
:1063F4005DF804FB01640200892200202DE9F843C2
:1064040089461446B2B10F4B0F4E0325002743F0C3
:106414000108224609EB0701002003F0ABFE074404
:10642400241A48B933782BB14FF47A40C047013D60
:1064340002D13570BDE8F88301233370002CE8D114
:10644400F8E700BF60FE020088220020704703F0D6
:10645400C5BEF0B595B01C46164608460D4602F07A
:10646400A3FB1A9B0D93CDE908640024234608225C
:1064740005A928460A948DF82C400C9402F0B1FB2F
:10648400079B0293069B03939DF814308DF81140EB
:1064940003F00302012A1DD1BDF81440059EC3F385
:1064A400C203C4F383148DF81030A20008230EA98C
:1064B400284602F096FBC6F3952608AB00932246C5
:1064C40002AB0EA9304600F069FB284602F070FBCF
:1064D40015B0F0BD022AF8D1BDF81640C3F3C203CB
:1064E400A4098DF810300827082C264628BF082652
:1064F4003B4632460EA9284602F073FBA41B08ABA8
:1065040002AA31460EA8374400F0ACFB002CEBD1B4
:10651400DBE7000008B5FFF79AFF0421034800F009
:10652400ABFA034B01225A7108BD00BF3CFE0200C6
:1065340034220020037813F0040216D003F003037E
:10654400012B03D0022B09D0012070470A68008870
:106554000232C0F3831002440A60F5E70B684288F4
:10656400023303EB92130B60EEE710467047000012
:106574002DE9F04F87B000230446851C0DF1070078
:106584000F4690468DF8073000F0E8FF454806684E
:106594003E60D0E90132134401339B1B824600F272
:1065A4001C4600F5836900F21447AB421BD300225A
:1065B400B8F1000F70D0052363F3070264F3891266
:1065C400DAF80010DAF808309DF807000B400333BE
:1065D4000D444AF82320CAF8005000F0E3FF0120DC
:1065E40007B0BDE8F08F0121304601F03BFE48467C
:1065F40001F04EFE384601F04BFEDAF80400DAF8FA
:1066040008B0029000EA0B0003300AEB800002A9F4
:10661400FFF790FF029B50BB0BEA03020AEB8202D6
:1066240003F1020CD2680392013303EA0B0B0AEB69
:106634008B0B02F00302012ACDF808C0DBF80C1022
:1066440022D0022A16D08346384601F024FE10B127
:10665400029BCAF804305946304601F003FEDAE9D9
:1066640001231344DAF8002001339B1A9DE70BEA57
:106674000300C9E7BDF80E309B0903334FEA114B01
:106684000CEB93030293DFE7BDF80C30C3F38313E1
:106694004FEA114B6344F5E7062363F3070264F3FF
:1066A4009F528DE79C2300200B4B0C48FF2210B512
:1066B4009A600022C3F81824C3E90022C3F8142402
:1066C40083F8202402F029FA044610B9044802F0A1
:1066D400A9FA204610BD00BF9C23002068FD0200DB
:1066E40084FE020030B50A4C71B10A4A0A49121BF1
:1066F400D20800239A4201D1002030BD31F8235042
:10670400854202D00133F5E7034654F83300F4E739
:106714007CFD02003CFE020034220020094B0139BA
:1067240003EBC000032909D8DFE801F00A020406DC
:106734000420704700797047407970470020704703
:10674400022070477CFD0200034BD3E90030C31ADA
:1067540058425841704700BF9C2300202DE9F04364
:1067640087B0FFF7F1FF0646002840F0FB807E4D1E
:10677400C5F81804BFF34F8F6868AC6802902040D6
:10678400033005EB800002A9FFF7D4FE029B18B189
:10679400D5F81824002A5FD004EA0302991C0133B7
:1067A40005EB8202234005EB8303D268DB68049384
:1067B40002F00303022B0392029162D1BDF80E3062
:1067C4006A484FEA9318B8F1500FC14628BF4FF0FA
:1067D400500969F38F1309F10801ADF80E3002F086
:1067E400B4F90746002800F0A88002F0DDF903A9F7
:1067F40000230822384602F0EAF9029924EA010645
:106804000136B600B14535D95FFA89F97EB3F6B2DF
:10681400A9EB0609214003315FFA89F4B146544ECD
:1068240005EB810108234A46384602F0D0F936B117
:1068340009F1080322463146384602F0C8F9029BA2
:1068440008F1030803EB98030293D5F81834002BDE
:106854004BD1D5F810445BE02A689A4204D86A60A8
:10686400304607B0BDE8F08304EA030088E74049F6
:106874003446D7E72140033108234A4605EB81011A
:10688400DAE7012B59D1BDF80C303848C3F3831132
:10689400062928BF062161F3891302318900ADF866
:1068A4000C3002F052F90746002846D002F07CF979
:1068B4000023082203A9384602F089F90026BDF80E
:1068C4000C20C2F38312B300964203F10803BCD236
:1068D40002994A1C21400331029205EB81010422F2
:1068E400384602F074F90136E9E7384602F060F9F7
:1068F400FFF72AFF80F00100C6B2B1E7E3685B79D5
:1069040023B1236839461B6820469847E3681C680E
:10691400002CF3D1384602F04BF90DF107008DF845
:10692400074000F01BFED5F818340BB9029B6B60CE
:106934009DF8070000F036FEDAE7D5F8104454B9A4
:106944000C4B0D480D49C01AC008000440F0020069
:1069540000F06EF8CCE7236820469B689847E3680C
:106964001C68ECE700267BE79C23002068FD0200FE
:10697400A82300207CFD0200A4FD020090FE02007A
:106984002DE9F74F284C80460F46924601A9012273
:1069940018469B46D4F80890FFF7EAFD80B3019DA2
:1069A4000026A91C5E4506EB010233D100211F48D5
:1069B40001F017FC80F310006A1C02EA090204EBE0
:1069C4008202000405EA0903033340EA1840D06058
:1069D40014F8232068F3C50204F8232034F8232094
:1069E40066F3891224F8232054F8232067F39F22A6
:1069F40044F8232002F0F80242F0010204F82320B4
:106A040094F820341BB1FFF7A9FE0028FBD103B092
:106A1400BDE8F08F09EA020204EB82025AF826303C
:106A2400D3600136BEE700BF9C230020B8270020B6
:106A340000231A46FFF7A4BF07B50123019201AA58
:106A4400FFF79EFF03B05DF804FB07B5CDE9002313
:106A540002236A46FFF794FF03B05DF804FB1FB5F9
:106A6400CDE90123069B039301AA0323FFF788FFC3
:106A740005B05DF804FB000030B50F49D1F81024CF
:106A8400002314463CB9C468237152B9C1F81004F8
:106A94002260184630BDE46825799D4206D02468FA
:106AA400F0E7D268116821601060F2E701330A2B25
:106AB400E7D14FF0FF33ECE79C230020094A38B5B7
:106AC4000123D2F8104482F820341D4604B938BD9D
:106AD400E3685D71236820465B689847E3681C6837
:106AE400F4E700BF9C230020037A052B10B50C4665
:106AF4000FD0437A23B1084A0849204601F02EFCFE
:106B04000749204601F02AFC2046BDE8104001F068
:106B14001ABC002AF8D0F3E7DBFE0200E0FE020014
:106B240000FF0200C38873B504460D4633B1144A0E
:106B340000921449144A284601F010FC217A0529D0
:106B44001CD0637A4BB1A088FFF7E8FD0F4B1049C6
:106B540053F82020284601F001FC227A0D4BA0882E
:106B640053F822600021FFF7BDFD0B49034632466E
:106B7400284602B0BDE8704001F0F0BB02B070BD21
:106B8400DBFE0200EBFE0200E3FE0200A8FE0200B0
:106B9400E0FE020010FF020003FF02002DE9F043B3
:106BA40085B01F460C9D002306460C46904695F87A
:106BB4000C902B7329463846FFF7B4FFB8F1060F43
:106BC40009D8DFE808F00412181F283340003146C2
:106BD400284601F0C3FB002229463846FFF784FF0C
:106BE40085F80C9005B0BDE8F0832268314628464C
:106BF40001F0B4FBEFE7D4E900233146284601F065
:106C0400ADFBE8E7A36800933146D4E900232846A6
:106C140001F0A4FBDFE7E3680193A3680093314626
:106C2400D4E90023284601F099FBD4E723690293B1
:106C3400E3680193A36800933146D4E9002328460E
:106C440001F08CFBC7E76369039323690293E3684C
:106C54000193A36800933146D4E90023284601F048
:106C64007DFBB8E708292DE9F84F80460E46174604
:106C74001C463AD8002593F80C901D73194610460B
:106C8400FFF750FFDFF884A0DFF884B0AE422ED9BE
:106C940018F805205946204601F060FB0135082DFF
:106CA400F4D11849DFF86CB0204601F057FB4FF0DF
:106CB400000A564520D918F80A507E2D03D82846D4
:106CC40007F0D4FD00B92E252A465946204601F086
:106CD40045FB0AF1010ABAF1080FEAD10122214663
:106CE4003846FFF701FF84F80C90BDE8F88F514651
:106CF400204601F033FBD1E70349204601F02EFB87
:106D0400E7E700BFD6FE0200D4FE0200D2FE020076
:106D1400CCFE0200D8FE02002DE9F04F394E87B0B8
:106D24004FF00009384B1B785FFA89F5AB4202D863
:106D340007B0BDE8F08F354BD3F800A01AF8350042
:106D44000124D6E9001EA0F12002C0F1200304FAB8
:106D540002F224FA03F3134304FA00FC009301EA59
:106D64000C030293009B0EEA03030393DDE9022361
:106D740013430AEBC50B41D0009B21EA0C012EEA18
:106D84000303C6E9001302F06FFB1AF835502049DB
:106D9400A5F12002C5F1200304FA02F224FA03F358
:106DA4001343D1E900C2AC40134004EA0C0105933B
:106DB4000024C3B2CDE90034009A0491C5F1200344
:106DC400A5F1200122FA03F302FA01F848EA0308C4
:106DD4001346AB401F46DDE90434444508BFBB42BB
:106DE4000CD1DBF804304BB19BF801104A1E514220
:106DF4005141081A414241412846984709F1010985
:106E040090E700BF88280020582800209028002000
:106E1400802800202DE9F0418046204800F08EFBB8
:106E2400D0BB0125A8F12004C8F1200325FA03F3FF
:106E340005FA04F41C431A4BD3E9001205FA08F5C9
:106E440001EA050602EA040756EA07001E461DD1B8
:106E5400404602F009FB134BD3E9001288B12943E1
:106E64002243C3E90012D6E900231C430E4B0B480E
:106E740019681543C6E900540022BDE8F04100F04A
:106E840017BB21EA050122EA0402EAE721EA050523
:106E940022EA0404C3E90054BDE8F081602800201C
:106EA40088280020802800205C280020042A2DE95E
:106EB400F34105460C4616463AD902F005FAD8B114
:106EC4001C4B1D491D601D4BDFF884801C701C4B3E
:106ED40000221E600023C1E900231A49C1E90023EE
:106EE400013CE4B200260327FF2C0CD1164A1748B4
:106EF400002100F0CBFA03E002F0AEF90028DFD065
:106F040002B0BDE8F08123B205EBC30201A9927877
:106F14008DF8052015F833008DF8066042468DF88B
:106F2400047002F0DBF9013CE4B20028DCD0E7E7AE
:106F34000720E5E79028002080280020582800201A
:106F44005C280020882800201D6D020070FF0200CC
:106F5400196E020070B5084D084E00242B789C422F
:106F640001D3002070BD3368012113F8340002F00E
:106F740031FA0134F2E700BF58280020902800209D
:106F84001FB50021039001AA44F20100CDE90111CB
:106F940000F004F805B05DF804FB000010B572B60B
:106FA400FFF78CFDFFF7DAFB0028FBD1104B114CE7
:106FB4001149E41AE408240444F00100FFF738FD01
:106FC4000E4B1B68DB0700D500BE0D4944F00200E0
:106FD400FFF72EFDBFF34F8F0A490B4BCA6802F42B
:106FE400E0621343CB60BFF34F8F00BFFDE700BFE8
:106FF4007CFD0200A4FD020074FF0200F0ED00E03D
:1070040080FF020000ED00E00400FA05094A53780D
:1070140091780133DBB2994208BF00231178994279
:107024001FBF03705078182303FB002014BF0430E3
:10703400002070479428002073B5054600240DF104
:1070440007000E468DF8074000F088FA0DF106009F
:10705400FFF7DCFF90B10670094B9DF806204560F0
:107064005A709DF8070000F09DFA24B9054B4FF4BF
:107074008012C3F80021204602B070BD0424F0E75A
:107084009428002000E100E0024B4FF43C6043F000
:107094000103184790FF020038B50C4B0C4C4FF419
:1070A4000032C3F8802001254FF48033C4F84833FC
:1070B400C4F808336560FFF7E7FF064BA5600024BA
:1070C4001C60FFF7E1FF044B1C7038BD00E100E0D9
:1070D40000100140B0290020A1290020F8B51F4B61
:1070E4001F491B680025C1F84051C1F84451C1F83B
:1070F4004851C1F84C51C1F80051C1F804514BB387
:10710400D1F8044517490968641A24F07F442F46CE
:107114001A68A24209D8A41A15441A7CDE691AB165
:107124001F74D3E905209047AEB90F4A0F4B11786D
:107134001B788B4205D10133DBB2022B08BF00233D
:10714400137012780A4B43F822500A4B4FF4801202
:10715400C3F80021F8BD3346DAE700BFB4290020A4
:1071640000100140B0290020AD290020AC290020E6
:10717400A429002000E100E02DE9F04FA04AA14934
:1071840013780978A04D994285B03CD00133DBB225
:10719400022B08BF002313709C4912789C4B0F6884
:1071A40053F822003B1823F07F4300220B602B6826
:1071B40016461446944613B942B12B6006E019688A
:1071C40081420ED902B12B60091A19604FF00108EF
:1071D4002B68DFF844A201930027BEB9DFF840B260
:1071E40066E0401A0C44D968C3F800C0D3F81CE028
:1071F40031B13A1922F07F42C3E90121DE611E4612
:1072040001227346D7E70026B046E1E73446F66923
:107214007E4A63681268DFF80CC2A068991A21F0EC
:107224007F41614500F2A58001442160012222745E
:107234002A680023C4E90133E361002A40F0A280F4
:107244002C60CAE75A1C9BF80210D2B291428BF808
:10725400002004BF00228BF80020182202FB03B395
:107264001A799C68022A1CD0032A12D0012A1FD141
:10727400207CE8B9D3E90312A2605A69E2609A69F2
:10728400644BA2611B78002B0CBF0B460346636062
:10729400BEE700222B681146002B66D142B12B6059
:1072A40006E029680A468946002A59D10023237436
:1072B4009BF800309BF801209A42C3D12B682FB968
:1072C400019A9A4202D1B8F1000F43D0002B73D037
:1072D400D3F800A0504D4D4BD5F804751C68DFF869
:1072E40048813E1B98F8003026F07F4603369BB950
:1072F4004FF48033C5F84433C5F80433474B4FF497
:1073040000324FF00109C3F880211A60C5F80090DB
:10731400FFF7BAFE88F80090B2452CBF5444A41974
:1073240024F07F44C5F84045D5F80435DB1B23F031
:107334007F43E41B033324F07F44A3420AD9D5F8E6
:107344000435C5F84035FFF79FFE344B4FF4003247
:10735400C3F800212F4B00221A7005B0BDE8F08F4E
:1073640094422CD09146D2699EE719740122DB69BC
:1073740092E7D31A23F07F43834234BFC31A002316
:10738400236053E721681368994213D8591A11608E
:10739400E26155E7091AD8691A4638B103461868F4
:1073A4008842F7D3401A1860184613462160E061FA
:1073B400DC6112E71346F2E7FFF76EFECAE74C45BD
:1073C40011D1CB692B6073B9DFF840E00120CDE91E
:1073D4000212CAF80800CEF800300E4B1870FFF7FE
:1073E40053FEDDE902121368D269C9F81C2012B1F8
:1073F4001068034413602B68994218BF012755E7AE
:10740400AC290020AD290020B4290020B029002097
:10741400A4290020A02900200010014000E100E080
:1074240094280020FEFF7F00A129002008B5FFF763
:1074340033FE104B00200B2218809A700E4B1860FC
:107444000E4B18700E4B18700E4B4FF48012C02167
:10745400C3F8802183F814131A6002F18042A2F564
:107464006F22C2F8080583F81113074BD2F80425DC
:107474001A6008BD94280020B4290020AC290020FB
:10748400AD29002000E100E0B0290020074B9B78E3
:107494004BB132B128B10368187C20B959745A61D0
:1074A4007047072070470820704700BF94280020C9
:1074B4002DE9F7431E4FBB7805460E469046A3B30D
:1074C40098B304292FD943697BB3437C0024012B4F
:1074D4000DF107000CBF8946A1468DF8074000F066
:1074E4003DF80DF10600FFF791FDD0B101230370C3
:1074F400104B4560D3F80435C0E90498C0E902365E
:107504009DF806307B709DF8070000F04BF824B915
:10751400094B4FF48012C3F80021204603B0BDE8A4
:10752400F0830424EFE70724F7E70824F5E700BF16
:10753400942800200010014000E100E0064A9278FF
:107544003AB130B1426922B1002202740221FFF73C
:1075540073BD0820704700BF9428002070B5EFF376
:10756400108672B60C4A946801239CB993600B4B45
:107574000B4DD3F8801029401160C3F88050D3F824
:10758400841051604FF0FF32C3F88420047006B9B0
:1075940062B670BD0370FAE7B829002000E100E08C
:1075A400FC06FFBD084B9A6810B55AB150B9EFF309
:1075B400108172B6054A1C6814605C685460986057
:1075C40001B962B610BD00BFB829002000E100E097
:1075D40070B5064D0646002455F8043B0BB1304601
:1075E40098470134042CF7D170BD00BFD029002086
:1075F400033080B240F2FD33984230B51FD8124BAD
:107604001A783AB91C895D892C440444A4B2B4F5AF
:10761400806F0AD31A7DA2B99A8BDC8B2244024470
:1076240092B2B2F5806F0CD201220A801446142261
:1076340002FB04335A8910445881002030BD0920CC
:10764400FCE70720FAE700BF042A00200B4A0C4B92
:107654005188142000FB0131CB6833B904204968F8
:1076640010700122074801F0C1B8052306491370C0
:1076740002238B80012200230968F3E7E829002014
:10768400042A002020220020402A002007B50023DD
:1076940005490093054A09680548082301F010F8D4
:1076A40003B05DF804FB00BF402A0020A4FF0200E1
:1076B4002022002007B50023009301460823034A33
:1076C400034800F0FDFF03B05DF804FB9CFF0200DB
:1076D4002022002013B500230C4600930146042306
:1076E400074A084800F0ECFF38B9074B142202FBA4
:1076F40004340123237402B010BD0E20FBE700BF45
:1077040098FF020020220020042A002037B50A48EE
:107714000A4B42689C881968538803250333057013
:107724009BB2002000909B0001EB8401044800F010
:10773400C7FF03B030BD00BFE8290020402A002065
:107744002022002010B50146044800F07EFC1C22D3
:107754000446002107F045F9204610BD2C2A0020DC
:107764004388033300EB8303994209D382884FF69D
:10777400FF739A4206D00088B0FA80F0400970473F
:107784000220704701207047154A142303FB002090
:1077940070B50B6844680D4604F58056ABB15C883F
:1077A400033403EB8404B4420DD2236801330AD0BA
:1077B40031462046FFF7D4FF01280BD010F0FF0F0D
:1077C40005D00228EFD1002003E00834EBE72C6059
:1077D400012070BD6388033304EB8304E3E700BF37
:1077E400042A0020436873B504460D466BB3244A4B
:1077F400D1688B4229D31269934226D813F003022D
:1078040023D120490089098988421ED120689968BA
:1078140088421AD11C494868834203D900F5805034
:1078240083420ED38A6993420DD902F58052934262
:1078340009D201232B800020B0FA80F0400902B065
:1078440070BD1346F6E70A20F6E700232B801E4698
:10785400019601A92888FFF797FF30B92B880133D7
:107864009BB2012B2B80F3D9E9E7019B226899682D
:107874009142EED16360034B1B892381DFE700BF94
:1078840020220020E8290020042A00202DE9F843C2
:107894001C461C4B1B7806460F4615466BB372B349
:1078A4006CB3DFF868804FF01409A388012B01D969
:1078B4000A2020E009FB03F318F803302BB9214612
:1078C400A088FFF761FF20B92060A3880133A3805B
:1078D400EBE723681EB1998832889142EFD11FB13A
:1078E40019883A889142EAD19A68C5E90023064B7F
:1078F4001B892B810020BDE8F8830220FBE70520CB
:10790400F9E700BFE0290020E8290020042A00202C
:1079140008B5074B191D5888FFF736FF18B1BDE8A5
:107924000840FFF7F3BEBDE80840FFF78FBE00BF75
:10793400E82900202DE9F04FA04FDFF8A49289B088
:107944000646B8463B6823B949469D4800F0B7FB54
:107954003860D8F8005029784B1E052B00F2FA80C5
:10796400DFE813F006005E005E00EE00EE005C014E
:1079740026B1944B00225A600124ECE02B79032BAE
:107984001DD8DFE803F015022A358F490B78022B46
:10799400084619D00B7D022B4FF0010316D1142297
:1079A4005343C2180020C8545068FFF783FE03E015
:1079B40001232B71FFF76AFE002800F0BC80814B85
:1079C40000225A600E24C6E00023E8E77D4A1370C3
:1079D4000023536041F61D54BDE07C497C480023DC
:1079E40002222B718A800122096800F0FFFEE3E77E
:1079F400764C00262E712068734DFFF75BFE754BA5
:107A0400D4F800C05A8814235343EA18EE5451683A
:107A14002160A188C2F804C011810222A280CBE7B0
:107A2400B5F814A0AA7DDFF8A0B1AEB1022AEB88A4
:107A340006D9142101FB0AB1DA1C088902440A811F
:107A4400142202FB0ABAC3F57F43BAF80A20FD33B5
:107A54001344AAF80A308FE7142303FB0AB31889E6
:107A64005C6804EB8004062A68D8DFE802F0274D3E
:107A740035431D59040041F61D54AA7DEB88022AA2
:107A840006D9142101FB0AB1DA1C088902440A81CF
:107A9400142202FB0ABAC3F57F43BAF80A20FD3365
:107AA4001344AAF80A3056E04B484C49002343607B
:107AB400AB690360FFF796FE002871D00223AB7513
:107AC400002300930423EA182146414800F0F8FDFE
:107AD400002830D00E24D0E72B69002B14BF0323D9
:107AE4000123AB750023009305F10C02042304F178
:107AF4000801EAE70123AB750022EB8800929B00A2
:107B04002A6904F10C01E0E703290CBF05230623CD
:107B1400AB7500230093042305F10802E118D4E7B0
:107B24000623AB752D4B19882B4B5868FFF7D2FDF4
:107B340004460028A1D109B0BDE8F08F0F249CE7CA
:107B4400002E7FF419AF2B79012B4BD0E3B1022B1C
:107B54003FF440AF0F241422002103A806F041FF94
:107B640041F61D539C4208BF0024D8F80030049409
:107B74001A78023A042A00F20581DFE812F0E600DE
:107B8400F20015011D01240102232B710DF10A01DC
:107B9400EB68039303A8CDE90466FFF723FE08B955
:107BA4000A24D8E70498BDF80A108388EB80038878
:107BB4002B81FFF78FFD044627E000BF002A002039
:107BC4002C2A0020E0290020042A0020402A00203A
:107BD40020220020E8290020C4290020482A00206F
:107BE400F8290020DFF8FCA103AA53463146A81D5A
:107BF400FFF74CFE044658B9BAF804100498FFF78E
:107C040069FD04460A2C3FF4E5AE002CA3D192E7AB
:107C140008223146504606F0E4FEF3E7002E7FF4D6
:107C2400ABAE6B4B1A7BAAB11E731A78013A062AC3
:107C340090D801A151F822F0E37C0200097D0200F2
:107C4400277D02002D7D0200597B0200337D020056
:107C5400457D02001A78072AE7D801A151F822F0DD
:107C6400857C02002F7C02002F7C0200AB7C02008A
:107C7400BF7C0200DF7C0200DF7C0200A77C0200E4
:107C84001A89544901321A8100225A801A730A78D7
:107C9400B2FA82F252099A720A7DB2FA82F2520957
:107CA400DA72012207E04C4958688A884088033216
:107CB40002448A8002221A70B7E7464C5A88464921
:107CC400142505FB024208685468506088881081B6
:107CD40002228A800C600622EDE70722EBE79A7AFB
:107CE40032B9DA7A8AB900221A705A805A6071E677
:107CF400384900229A72CA68002AF2D1097C002904
:107D0400EFD05A80FFF704FE55E70022DA72314AB9
:107D1400116A0029E7D192F82420002AE3D0012235
:107D2400EFE7FFF7F3FC46E7FFF790FC43E7294A48
:107D34005B88142101FB03235868FFF7BBFC3AE777
:107D440000225A60FFF7A2FC35E701228DF80C20CF
:107D54001A89ADF818209A88DB68ADF81A200593C3
:107D640010E002228DF80C201A89ADF818209A88A8
:107D7400ADF81A20DA689B7D05929A1F534253414D
:107D84008DF81C3003A8FFF723FC0026494613484E
:107D9400C8F8006000F0BEF90121114800F06DFA46
:107DA40000287FF4CFADC6E603228DF80C20DA88D4
:107DB400ADF818201A89CFE70422DB888DF80C204F
:107DC400ADF81830DEE705238DF80C30DAE700BF94
:107DD400E8290020042A0020402A00202C2A002020
:107DE4003C2A00204C2A00204068FFF7A3BD000075
:107DF40008B50121044800F02AFA18B9BDE8084082
:107E0400FFF798BD08BD00BF3C2A00202DE9F341CF
:107E14009846354B1B7806460D46002B5BD000294F
:107E24005BD009884FF6FF73994258D06B88002BBA
:107E340055D06B689B0754D14AB92F890DF10201C3
:107E44003846FFF7D5FB30B102B0BDE8F0811388A6
:107E54005788ADF8023001A8FFF774FC044658B9FE
:107E6400BDF80230214A142101FB03235889033849
:107E7400C01B58810820E7E700238375BDF8023052
:107E840083826B68036180F800800121184800F048
:107E9400E9F92B882381B8F1030F6B88A38004BF11
:107EA4000423A3754FF0000508BF3368E06008BFE2
:107EB400A361E780658101A90E4800F0F0F836B1AE
:107EC400E36833600C4B75601B89B5723381FFF72F
:107ED4008FFF0020B8E70220B6E70520B4E70420AE
:107EE400B2E70320B0E700BFE0290020042A002005
:107EF400FC2900202C2A0020E829002073B50D4617
:107F04000446C8B1C1B10DF10601FFF76BFCA8B17D
:107F14000B4BBDF806006668142202FB00300121F9
:107F24000C3000F09FF963682E600C336B60012302
:107F3400A372002002B070BD0520FBE70A20F9E718
:107F4400042A002013B50446A8B10DF10601FFF779
:107F540049FC90B10B4ABDF80630142101FB032300
:107F6400DA6862B1A27A52B1DA680020013ADA60C2
:107F7400A07202B010BD0520FBE70A20F9E7062035
:107F8400F7E700BF042A002002230022FFF73EBFC8
:107F940018B103230022FFF739BF05207047000002
:107FA400104B1B7813B50446ABB14FF6FF739842E0
:107FB40013D001A8FFF7C6FB88B105230370012382
:107FC4000371C48001A9084800F069F8FFF710FFA5
:107FD400002002B010BD0220FBE70420F9E70820CE
:107FE400F7E700BFE02900202C2A002007B5ADF8F0
:107FF4000600ADF804100DF1060001A9FFF746FCD8
:1080040003B05DF804FB07B51346ADF806000A4655
:1080140000200DF10601FFF739FC03B05DF804FB05
:1080240007B51346ADF806000A460DF10600002117
:10803400FFF72CFC03B05DF804FB20B119B1036811
:108044000B60002070470520704737B550E8013FAA
:108054009DB2C48925448489A54228BF2D1B048967
:10806400A54202BFBFF32F8F002207E0C5EA030534
:1080740040E80154002CE9D14FF001028DF80320AF
:108084000193019B9DF803200B6002F0FF0322B1D2
:108094000B880068184403B030BD1846FBE70A8813
:1080A4004B889A4209D150E8012FC2EA024240E8C3
:1080B4000123002BF7D1012070470020704737B50A
:1080C40050E8023F1FFAA3F5C488A54202BFBFF3DC
:1080D4002F8F00220DE0C48925448489A54228BF3E
:1080E4002D1BC3EA054540E80254002CE8D14FF0AB
:1080F40001028DF803200193019B9DF803200B607E
:1081040002F0FF0322B14B880068184403B030BD6D
:108114001846FBE70A884B889A4209D150E8022F97
:10812400C2EA224240E80223002BF7D10120704723
:108134000020704701F01F024B090121914000EB20
:10814400830000F063B84B0910B501F01F0401214E
:10815400A14000EB830000F04EF8E04000F0010085
:1081640010BD01F01F0301229A404B0900EB83006C
:10817400D14300F061B84B0901F01F0150F823000E
:10818400C84000F0010070472DE9F0474E1E760903
:1081940080460F460136002558F8254008EB85092E
:1081A400E44394FAA4F4B4FA84F44FEA451A202C74
:1081B40006D10135AE42EFD83C462046BDE8F087F3
:1081C4005444A742F5D921464046FFF7BCFF002896
:1081D400F3D0D9F80040E44394FAA4F4B4FA84F454
:1081E400E5E750E8002F0B4640E8003C9CF0000F08
:1081F400F7D11046704750E8002F42EA010340E8E7
:10820400003C9CF0000FF6D11046704750E8003F48
:1082140043EA010240E8002C9CF0000FF6D110461E
:10822400704750E8002F02EA010340E8003C9CF04C
:10823400000FF6D11046704750E8003F03EA0102F0
:1082440040E8002C9CF0000FF6D11046704750E82F
:10825400002F02EB010340E8003C9CF0000FF6D134
:108264001046704750E8003F03EB010240E8002C41
:108274009CF0000FF6D11046704750E8003FA3EB86
:10828400010240E8002C9CF0000FF6D11046704724
:108294000121FFF7BBBF0021FFF7C3BF10B590B1A9
:1082A400D0E9012301689B1ADBB20A60013BDBB20F
:1082B400FF2B026802D10020107110BD11684C1C04
:1082C40014600B70F2E70E20F7E737B5054600247B
:1082D4000DF107008DF80740FFF740F92A686B6835
:1082E400116899420ED9481E106011F8014CEB68D0
:1082F400298A01FB0434AB6811791B1ADBB2994259
:1083040038BF13719DF80700FFF74CF9204603B0FE
:1083140030BD37B5054600230DF107000C468DF836
:108324000730FFF71BF92A681368591C1160E968C4
:10833400641A298AB4FBF1F41C709DF80700FFF756
:1083440031F903B030BD826810B504462AB14369DF
:108354000168006998470023A36010BD0EB403B5FB
:10836400039921B104AB01AA019300F06DF802B0A6
:108374005DF804EB03B07047826830B40468551CA0
:108384008560A154D0E901329A4202D330BCFFF790
:10839400DABF30BC704700002DE9F84F9946DDE99B
:1083A4000A431746824688460A460126BA420FD235
:1083B4004E4538BF4E4613F0010B01D164B9002479
:1083C4000125B9F1010F1AD909F1FF397D43F8E705
:1083D400B2FBF7F20136E9E79B070ED5B9F1000FBE
:1083E4000CBF30252025A642EAD2013C294650463E
:1083F400FFF7C2FF002CF6D1E1E72025F3E7B8FB35
:10840400F5F39F42E2D9DFF83C90B8FBF5F3504610
:1084140019F8031005FB1388FFF7AEFFB5FBF7F35C
:10842400BD4207D2BBF1000F02D00CB1A64203D368
:10843400BDE8F88F1D46E8E720215046013CFFF7D0
:108444009BFFF2E7ACFF02002DE9F74F0546174604
:108454008846002900F0318118F8011B49B92B7BAB
:10846400002B00F02A81284603B0BDE8F04FFFF747
:108474006ABF252940F0C080002698F800302D2BD3
:10848400424608F1010823D0302B24D02B2B25D0D1
:1084940000242A2B02F1010123D13B681A1D1B6819
:1084A4003A601C440A4613782E2B26D101324FF031
:1084B400000A104610F8011BA1F1300CBCF1090FA1
:1084C4001DD80A2303FB0A13A3F1300A0246F0E77E
:1084D40046F00106D1E746F00206CEE746F0040670
:1084E400CBE711F8013CA3F130000928DBD80A22BC
:1084F40002FB0434303C0A46CBE74FF0000A12F882
:10850400011B01F0FB0068289046F8D069290ED0C1
:108514004AD8582964D006D825296DD098F8003057
:10852400002B99D19BE7632962D06429F6D13A687C
:10853400D2F80090111D89EAE9723960A2EBE97260
:108544004FF0010B092A5BDCD34538BFD3462CB16D
:10855400B9F1000F01DB710700D5013CB20702D568
:10856400BAF1000F04D0F30702D4002C4ED100243A
:10857400B9F1000F52DAC9F100092D212846FFF79D
:10858400FBFE06F00302022A05D1BAF1000F02D164
:10859400002C47D10024CDE9004653460A2249461F
:1085A4002846FFF7F9FEB9E773294CD014D870298F
:1085B400B4D13B681A1D3A60302128461C68FFF785
:1085C400DBFE78212846FFF7D7FE00220823CDE9F9
:1085D400003221461022E3E775292BD078299DD15A
:1085E40039680A1D3A60CDE900465346102228E056
:1085F4003B681A1D19783A602846FFF7BDFE8DE7DF
:108604000A230BF1010BB2FBF3F29BE7A345AFD2B4
:1086140020212846013CFFF7AFFEA6E77007B0D53E
:108624002B21ABE7A345B6D230212846013CFFF706
:10863400A3FEADE73968CDE900460A1D3A6053460A
:108644000A220968ACE73B681A1D3A60F107D3F8BF
:10865400009020D4B9F1000F25D0484606F016FA50
:108664000646B44200D9C4B909F1FF3920E02846CE
:108674000136FFF781FE19F806100029F7D1A6424A
:10868400BFF44CAF002C3FF449AF20212846013CF5
:10869400FFF772FEF3E70026EDE720212846013CB0
:1086A400FFF76AFEDDE74E46DBE72846FFF764FE88
:1086B40019F8011F0029F8D130E703B0BDE8F08FA5
:1086C4002DE9F34188B93D4B3D483E4AC01AC008E4
:1086D4000E243D4B009400043C4940F00100FEF799
:1086E400BEF9204602B0BDE8F0814AB9334B3448A4
:1086F400374AC01AC0080E2400040094324BEBE73A
:10870400D0F800C0BCF1000F09D12C4B2C48314AE1
:10871400C01AC0080824000400942B4BDCE74BB9B2
:10872400264B27482C4AC01AC00809240004009488
:10873400254BD1E74768D7F80480B3FBF8F708FB6B
:1087440017374FB11D4B1E48244AC01AC0080924CC
:10875400000400941C4BBFE78F0709D0174B18483F
:108764001F4AC01AC008102400040094164BB3E733
:1087740012F0030F09D0114B11481A4AC01AC0084D
:10878400102400040094104BA6E7C768B9420BD329
:108794004C1E05691C44AC4206D8DCF80C40A446C7
:1087A40002B0BDE8F0416047044B05480E4AC01AC8
:1087B400C008102400040094034B8DE77CFD0200E4
:1087C400C4FD020057000300BCFF02005C0003006C
:1087D400D9000300CD0003008C000300DF00030078
:1087E400090103002101030044010300F7B580B926
:1087F4002A4B2B482B4AC01AC0080E242A4B00943B
:1088040000042A4940F00100FEF729F9204603B08C
:10881400F0BDD0F800C0BCF1000F09D11F4B2048B7
:10882400234AC01AC0080824000400941E4BE8E739
:108834004AB91A4B1A481F4AC01AC008092400042E
:108844000094194BDDE74768D7F800E00EF1FF37D5
:108854000F4209D0114B1248174AC01AC0081024FD
:1088640000040094104BCCE7C768B9420CD34C1EEB
:1088740005690EFB0244AC4206D8DCF81040A4465D
:1088840003B0BDE8F0406047044B05480B4AC01AEA
:10889400C008102400040094034BB2E77CFD0200DE
:1088A400C4FD020057000300CFFF02005C00030078
:1088B400CD0003008C000300E2FF02000800030067
:1088C40029DF704728DF704770B503689D6886B05C
:1088D40004460E466DB114220021684606F081F864
:1088E400A3680593237901962BB1012B0DD068461B
:1088F400A84706B070BD01238DF8003023690293A8
:10890400E368039363690493F1E702238DF800306D
:10891400E3681B030293F5E7034B187A0122B0FACC
:1089240080F05A7440097047642A002070B5244DC1
:10893400244E2B7A2C463BB923492448FFF7BFFB2E
:10894400306008B9686070BD0223237233681A79F5
:1089540072B1012A24D018460321FFF7B5FF002382
:108964002372636018491948BDE87040FFF7D2BB11
:10897400D3E90520121AB2F5805F28BF4FF4805264
:10898400D3E903159208012A014438BF012228447F
:10899400FFF796FF50B11128DDD101232372D2E7EE
:1089A400D3E903021044FFF78DFFF3E7237C002B88
:1089B400C9D10146BDE87040022000F009B800BFEB
:1089C400642A00207C2A0020782A0020542A0020CF
:1089D40038B5831E012B45D8234C237A002B41D074
:1089E400022B09D1032830D0204B1B680022E260FF
:1089F4001A793AB1012A22D0637C7BBBBDE83840A6
:108A0400FFF794BFD3E905128D1AB5F5805F94BFC3
:108A1400521902F580529A619142EDD102284FF029
:108A2400000308BF19462372104B18BF0D211868A4
:108A3400FFF74AFF0E490F48FFF76CFBDCE71A69A2
:108A440001321A615B699A42E7E7E3680133082B54
:108A540001D8E360D0E70023E360DFE7BDE83840F6
:108A640005F09EBA38BD00BF642A00207C2A00208D
:108A7400782A0020542A002000F0FD03012B08D19D
:108A8400044B00225A74421E504250411874FFF79E
:108A94004DBF7047642A00202DE9F047B0F80690D6
:108AA4004479D2F800A09DF8208009FB04F4043C2A
:108AB40006460AEB0300A0420F4688BFA4EB030A54
:108AC400191DC2F800A0B1FBF9F509FB15114DB948
:108AD400A9EB0104544528BF5446BAF1000F04D150
:108AE400BDE8F0873668013DF1E704317B19701861
:108AF4002246B8F1000F0ED001461846AAEB040A2C
:108B040005F046FFD145254436684C464FF0000138
:108B140028BF5446E1E71946F0E7FFF7BFBBF8B5B5
:108B240046790146721E0546002393422D6803D3FD
:108B34000024A64202D8F8BD0133F6E70F682846A0
:108B4400FFF7E7FB01343946F3E72DE9F843068ADA
:108B5400CD1C0746FFF7B9FB043E35440446B5FB7C
:108B6400F6F5F0B14FF48073EDB28380C680013D19
:108B7400076081464FF00008A84512D23846FFF737
:108B8400A4FB064648B163790133637108F1010817
:108B9400C9F8000007608146EEE72046FFF7BFFFF3
:108BA40034462046BDE8F88301210430FFF75ABB60
:108BB40010B5012104460430FFF75FFB10F0FF0FEE
:108BC40004D12046BDE81040FFF7A9BF10BD1FB572
:108BD40003920022009203AAFFF75EFF05B05DF83E
:108BE40004FB1FB503920122009203AAFFF754FF6E
:108BF40005B05DF804FB0000064B10B500241C70A2
:108C0400054B1C60BFF35F8F0449054800F013F85F
:108C1400204610BD882A00208C2A002078010300F9
:108C2400802A0020836800225A609A60C3E90422E3
:108C3400DA601A6070470B684A684360934208BF61
:108C44000023016008BF43607047436843B1026872
:108C5400916852680B449342436004BF002343600D
:108C64007047000010B50D49A1F59472914201D8E6
:108C740000200FE08B1ADB1003EBD3735B1002EBC5
:108C8400C30452F83330834205D802D204F10802F7
:108C9400ECE7606810BD2146E8E700BFC8020300A6
:108CA40008B5FFF7DFFF024B002808BF184608BDD0
:108CB4008D010300054B1B68082B01BF044B18688A
:108CC400B0FA80F0400918BF00207047300100104E
:108CD4003401001008B54FF080430022C3F80C2182
:108CE400C3F81021C3F838254FF0805203F54043F0
:108CF400D2F80414C3F82015D2F80814C3F82415C4
:108D0400D2F80C14C3F82815D2F81014C3F82C1593
:108D1400D2F81414C3F83015D2F81814C3F8341563
:108D2400D2F81C14C3F84015D2F82014C3F8441523
:108D3400D2F82414C3F84815D2F82814C3F84C15F3
:108D4400D2F82C14C3F85015D2F83014C3F85415C3
:108D5400D2F83414C3F86015D2F83814C3F8641583
:108D6400D2F83C14C3F86815D2F84014C3F86C1553
:108D7400D2F84424C3F87025FFF79CFF10B1384B98
:108D8400384A1A60FFF796FF18B1374BFB22C3F835
:108D94001825FFF78FFF48B13449354B0A681B6823
:108DA40022F00F0203F00F0313430B60FFF782FF5F
:108DB40018B1304B4FF400721A604FF08043D3F86F
:108DC4000024D20744BF6FF00102C3F800242A4AEA
:108DD400D2F8883043F47003C2F88830BFF34F8F61
:108DE400BFF36F8F4FF01023D3F80022002A03DB68
:108DF400D3F80432002B2FDA204B0122C3F80425C8
:108E0400D3F80024002AFBD04FF010221221C2F81C
:108E14000012D3F80024002AFBD04FF010231222B2
:108E2400C3F80422154B1A46D3F800140029FBD0CA
:108E34000021C3F80415D2F80034002BFBD0BFF393
:108E44004F8F0D490E4BCA6802F4E0621343CB60A6
:108E5400BFF34F8F00BFFDE70A4B0B4A1A6008BDF2
:108E64008C5600404881030000F00040E40E0040AE
:108E7400580200104096024000ED00E000E001407E
:108E84000400FA053C2200200090D003074B1B5C31
:108E94001F2B8ABF064A4FF0A04203F01F03D2F8EB
:108EA4000405D840C04300F0010070478606030063
:108EB40000030050074B1B5C1F2B86BF03F01F03EE
:108EC40005494FF0A041012202FA03F3C1F80C3521
:108ED400704700BF8606030000030050074B1B5C6D
:108EE4001F2B86BF03F01F0305494FF0A041012249
:108EF40002FA03F3C1F80835704700BF8606030081
:108F04000003005008B50020FFF7E8FF0120FFF739
:108F1400E5FF0220FFF7E2FF0320BDE80840FFF76A
:108F2400DDBF08B50020FFF7C5FF0120FFF7C2FF32
:108F34000220FFF7BFFF0320BDE80840FFF7BABFD8
:108F44000A4B185C1F288ABF094B4FF0A04300F05E
:108F54001F00D3F804250121814021EA02000A40C0
:108F6400C3F80805C3F80C25704700BF8606030044
:108F740000030050074B1B5C1F2B8ABF064A4FF0AF
:108F8400A04203F01F03D2F81005D840C04300F0FC
:108F94000100704782060300000300500B2809D02B
:108FA4000C2809D0182809D019280CBF03204FF029
:108FB400FF3070470020704701207047022070473F
:108FC400014B185C704700BF82060300C20710B54E
:108FD40004460CD54FF0A0430322C3F83427C3F84A
:108FE4003827C3F83C27C3F84027FFF78BFFA307B4
:108FF4000AD54FF0A0430C22C3F82C27C3F830271E
:10900400C3F86027C3F8642710BD000038B5074CC7
:10901400051E04F1080318BF1C4623682BB11A6807
:1090240022605B6828469847F7E738BD982A0020F5
:1090340020B9054B01225A70FFF7E8BF012802D17D
:10904400014A9070F8E77047902A002020B9034B3A
:1090540001225A70FFF7DABF704700BF902A002040
:1090640038B50B4C237883B90A486360A360236145
:10907400E36000F057F8054604F0A2FF08B900F0D9
:109084005DF801232370284638BD8525FBE700BF22
:10909400902A00203590020037B50B4C00230DF1C7
:1090A40007008DF80730FEF759FAE368013BE360E7
:1090B400E56815B900F054F8A5709DF80700FEF7AF
:1090C40071FA03B030BD00BF902A0020012813B507
:1090D40009D018B103281CD002B010BD0F4B0122D7
:1090E400C3F88020F8E70E4C00230DF107008DF83B
:1090F4000730FEF733FA23780BB9FFF7B1FFE368C3
:109104009DF807000133E3600123A370FEF74AFAD8
:10911400E2E700F013F8FFF7BFFFDDE700E100E04E
:10912400902A0020044A137923B901211060918008
:109134001846704785207047A42A0020074B1A68F8
:10914400D2075FBFC02283F8002301221A604FF0C8
:1091540080430122C3F81825704700BF00E100E0F6
:10916400044B01221A604FF08042D2F81834DB031A
:10917400FBD470470C000040154B07B51A687AB150
:1091840000221A601B680093009B4FF08043012269
:10919400C3F808230F4B587910B95A711B689847C4
:1091A4000D4B1A6882B100221A601B680193019B5F
:1091B4004FF080430222C3F80823064B1B680120AA
:1091C40003B05DF804EB184703B05DF804FB00BF7F
:1091D40000010040A42A00200401004000F1804066
:1091E40000F5C040002382B0036003680193019B33
:1091F40002B0704703681F2B83BF03F01F03036093
:1092040001484FF0A04070470003005007B501909B
:1092140001A8FFF7EFFF019B00EB8300D0F80027C4
:1092240022F44032C0F80027D0F8003743EA014363
:10923400C0F8003703B05DF804FB0000054B4FF0A5
:10924400FF32072843F8202084BF1B1883F85820D6
:10925400704700BFAC2A002010B5174C94F86A3050
:1092640043BB04F130033021FF22013911F0FF0127
:1092740003F8012BF9D1C8B2FFF7E0FF01310C2943
:10928400F9D1062200210D4805F0ABFB0C4BC0229E
:1092940083F8062340221A604FF4BE70FFF79EFF46
:1092A400084B4FF00042C3F80423012384F86A30CA
:1092B400002010BD0820FCE7AC2A0020102B002061
:1092C40000E100E000600040034B93F86A000030C6
:1092D40018BF0120704700BFAC2A0020F7B53B4EF1
:1092E4003318054693F93030002B6CDA8B78C3F3CE
:1092F4004003002B0BBF082400240C2008208442C8
:1093040002D1042003B0F0BD56F82470013743D1D4
:10931400701946F8242080F8304013B9331983F8C3
:1093240058508B785A0717D4D80737D501A8019518
:10933400FFF760FF019B00EB8300D0F8003723F0B8
:109344000203C0F800372248EA0805F007070123A2
:10935400BB40875C3B43835488780A7810F0020052
:1093640028D0A40004F1804404F5C0442D02D4F8AC
:10937400103523F44F3323F44073C4F8103512042A
:10938400D4F8103505F47C5502F4403215431D43DE
:10939400C4F810550020B5E70134B0E701A84A78B5
:1093A4000195FFF727FF019B03F5E073920040F856
:1093B4002320C8E7083C344494F8605045EA8212FC
:1093C40084F860209EE708209CE700BFAC2A0020B8
:1093D400102B002073B5224C2518064695F9302031
:1093E400072A19DD224492F858309B09032B0FD128
:1093F400019001A8FFF7FEFE019AD0F81035D34082
:10940400DB0707D402213046FFF700FF02B070BD2E
:10941400012BF7D00321F6E7D3B2072BF6D893003C
:1094240003F1804303F5C043D3F8100540F0010075
:10943400C3F8100502F14000800080B2FFF7CEFEB1
:109444000029E3D095F9303054F82330002BDDD0D7
:10945400012303FA02F2034BC3F80423D6E700BF47
:10946400AC2A00200060004007B5019001A8FFF776
:10947400C1FE019BD0F81005D84000F0010003B0F4
:109484005DF804FB2DE9F04F002489B0CDE90244D6
:10949400624D4FF48072012102F1804303F5C04311
:1094A40090B21B68012B06D1D5F804330B4202D0CD
:1094B400FFF794FE0C430432B2F5907F4FEA41016A
:1094C400EAD1574B1B68012B0ED14FF4BE70FFF746
:1094D40085FE4FF0A04344F00044D3F810350293C6
:1094E400504BD3F81035039314F0FF0F1AD04E4F9E
:1094F40000250126344210D0AB0003F1804303F56C
:10950400C043D3F81005D3F8101557F8253023B10C
:10951400C1F30141C0F3052098470135082D4FEAF6
:109524004606E7D1002C75DA0DF1100800230493E8
:10953400C8F804304FF0FF33CDE90633DFF8E8A074
:10954400DFF8E89000273D4619F9014B631C48D029
:10955400E4B2012324F0C00604F0070203FA02F285
:10956400F00808AB191811F8083C134239D00AEB7B
:109574000603A40993F930305AF823B0BBF1000F65
:1095840008D1032C2DD118F800C04CEA020C08F8BD
:1095940000C001E0032CF6D001A80196FFF72AFED3
:1095A400019B11F8181C03F5E07C114250F82C00C3
:1095B400C0F3014005D0022813D1032C0BD121465E
:1095C40004E003280DD1032C05D102213046FFF716
:1095D4001DFE0135EDB2BBF1000F02D0214630462D
:1095E400D8470137042FAFD1A5B14FF0A04302995A
:1095F400D3F8102503F540739142D3F8103502D106
:109604000399994206D002920393049A059B069209
:10961400079395E709B0BDE8F08F00BF00600040F4
:109624007C61004000030050AC2A00200C2B002079
:10963400014B1B68184700BF182B00200220FFF7BE
:109644007FBC00002DE9F04781460D46FFF7A6FCDC
:109654000328044604D8012D04D025B3022D2FD0AD
:10966400BDE8F087194D47003A18A918AE5C4A784E
:1096740052B1DFF86880164842464FF40041FDF7C6
:1096840017FF08B988F800903B192B449A78114BBE
:109694001A55002EE4D0104B1B68002BE0D0304646
:1096A400BDE8F04718470A48FDF748FF074B04EBAD
:1096B400440213449E78074B1B5DB342D0D1E8E7C4
:1096C400024B00EB40041C446678E2E7842B002044
:1096D400442B00209D2B0020982B0020202B0020C1
:1096E40002210078FFF7AEBF08B5094B1B7853B1D0
:1096F4000020FFF7F3FB0120FFF7F0FB0320BDE898
:109704000840FFF7EBBBBDE80840FFF7FBBB00BF19
:10971400212B0020F8B57B4C237805461BB1002390
:109724002370FFF7E1FF172D00F28880DFE805F0D2
:109734000C17174354657680888D888D959A9A9A6C
:109744009A9AC4C9D1D9E4E4FFF7CEFF6E48FDF775
:10975400F5FE6E4B002204461A702046F8BD002028
:10976400FFF794FBF8B10020FFF7B8FB022D0CBF04
:109774004FF4E1614FF47A61644B1D704FF4004083
:109784004FF4FA740025E0FB01454FF47A7200238C
:109794002046294604F04EFF002201465A48BDE8FF
:1097A400F840FDF785BEFFF785FB022D0CBFC821ED
:1097B4004FF4C871E0E70020FFF768FB40B10020D8
:1097C400FFF78CFB4FF44871504B03221A70D5E716
:1097D400FFF770FBC821F7E70020FFF757FB38B10C
:1097E4000020FFF77BFB4FF47A61484B0422EDE73E
:1097F400FFF760FB4FF4C871F7E70020FFF746FB63
:1098040048B10020FFF76AFB404B05221A7041F66D
:109814009A110022C2E7FFF74DFBF5E70020FFF79E
:109824008FFB3A4B06221A70002240F6CD41B5E771
:109834000020FFF73FFB354B07221A7000248CE70A
:1098440001202070FFF77CFBEEE701202070FFF77A
:1098540077FB00224FF48041A0E7FFF762FB2B4B1C
:109864000C22EAE72A482B4EFDF768FED5F11105D4
:1098740004461CD0D8B9012D13D0C8235D434FF43E
:1098840000474FF4FA7000214FF47A720023C7FBAB
:10989400050104F0CFFE224601461D48FDF708FEEF
:1098A40004460220FFF706FB0123337055E702202C
:1098B400FFF714FB0023F8E7FFF716FF134B122200
:1098C400BBE7FFF711FF0020FFF7F4FA0F4B132259
:1098D400B3E7FFF709FF0120FFF7ECFA0B4B142263
:1098E400ABE7FFF701FF0020FFF7E4FA0120FFF7E1
:1098F400E1FA064B1522A0E7FFF713FB034B1D709B
:109904009CE700BF942B0020642B00209C2B00209C
:10991400242B0020212B0020044B1B68DB0703D5DC
:10992400034B1878FFF7F6BE704700BF902B00205A
:109934009C2B0020002910B514BF03240024FFF73A
:109944003FFB1F288ABF0A4B4FF0A04300F01F00C3
:1099540003EB8000D0F8002722F44032C0F800273F
:10996400D0F8003743EA0443C0F80037002010BDA4
:1099740000030050032801D8FFF7FCBA0020704709
:10998400044B1B6813F0010301D0FFF7C3BE184654
:10999400704700BF902B002038B51C4B18601C4B3F
:1099A40010F00204054619601AD01A4B1A480E2208
:1099B4001A700F22DA7010229A7111225A7204213D
:1099C40040F26662FDF772FA044648B9FDF7C2FA3E
:1099D400044628B90146114A1148FDF757FD0446CB
:1099E400EB0711D50120FFF7F1FA6CB921460D4AB6
:1099F4000D48FDF74BFD044630B90C4A0C480121D3
:109A0400BDE83840FDF742BD204638BD902B00200C
:109A1400982B0020842B0020AC060300E59602005E
:109A2400D00603001D990200D406030041960200EB
:109A3400CC060300032813D8012A0BD1012908D12D
:109A440000F10E02D2B200EB40000C4B1A5400207D
:109A5400704700220129F6D04BB24BB1022901D044
:109A640007207047054B00EB400018444270EEE7B6
:109A7400024900EB400008448270E8E7842B002090
:109A8400032802D80121FFF755BF0620704708B507
:109A9400012202210020FFF7CDFF08B1072810D1D1
:109AA400072202210120FFF7C5FF08B1072808D1CA
:109AB40000210A220846FFF7BDFF10B1072808BF9E
:109AC400002008BD0388102B10B502D0112B1ED026
:109AD40010BD1A4C2168B1B901220846FFF7AAFF4C
:109AE40008B1072824D1072202210120FFF7A2FF91
:109AF40008B107281CD1042202210020FFF79AFF95
:109B040008B1072814D1236801332360E0E70B4A26
:109B14001368013B1360002BDAD1FFF7B8FF00286C
:109B2400D6D0074B1B68002BD2D0BDE81040184795
:109B3400034B1B68002BE6D09847E4E7A82B0020D2
:109B4400A42B002008B50020FFF79AFF08B10628CF
:109B540006D10120FFF794FF10B1062808BF0020AA
:109B640008BD00000D4B10B518600C4629B101204A
:109B7400FFF700FF40B102232370094B1B6853B960
:109B8400BDE81040FFF783BFFFF7F4FE08B10B23D5
:109B9400F2E72070F1E7002010BD00BFA42B0020E5
:109BA400A82B002076DF70477ADF70477CDF704790
:109BB4008FDF704790DF704733DF7047FDF7E0B900
:109BC40008B50020FFF7DCFE08B1FDF7D9F9FFF76F
:109BD400B9FF08B1FDF7D4F9FFF7EEFF18B1BDE8FE
:109BE4000840FDF7CDB908BD0388212B13B5044601
:109BF40047D005D8102B26D0112B12D002B010BD9F
:109C04003B2B46D0562B44D0232BF7D108220021DE
:109C1400684604F0E6FE00226946A088FFF7CAFF02
:109C24002AE01E4B1E481F49C01AC008000440F019
:109C34000300FCF7FDFE1C4B00221A701B4B4FF671
:109C4400FF721A80DAE7154B15481949C01AC00883
:109C5400000440F00300FCF7EBFE134B0122072045
:109C64001A70FFF78DFE08B1FDF78AF90F4BA18832
:109C74001048198001F08CFB0028BFD0FDF780F953
:109C8400BCE7002369468088ADF80030FFF790FFF9
:109C9400F2E71321A088FFF785FFEDE77CFD0200C2
:109CA400A4FD0200D8060300AC2B002046220020AD
:109CB400E6060300342E002070B504780546A4B9E6
:109CC4000A4EAA8A2B69944209D3134413F8013C1F
:109CD4000D2B0AD10648BDE8704004F013BE195D8F
:109CE400304604F00FFE0134EBE770BDD8FE0200ED
:109CF40001FF020008B503784BB9054B3B211888D6
:109D0400FFF750FF18B1BDE80840FDF739B908BDA9
:109D140046220020072808B513D00A280DD00428AD
:109D240019D10D4B13211888FFF73CFF30F00803BD
:109D340011D0BDE80840FDF723B9BDE80840FFF79E
:109D44003FBF054B1A884FF6FF739A4203D103486D
:109D540000F08DFEEAE708BD46220020C42B002057
:109D640008B598B1032815D10B4B0C480C49C01AFF
:109D7400C008000440F00300FCF75AFE0220FFF77D
:109D8400FFFD38B1BDE80840FDF7FAB8BDE808406A
:109D9400FFF716BF08BD00BF7CFD0200A4FD020052
:109DA4008507030038B5054D044645F001054FF419
:109DB4007A40A847013CFAD138BD00BF0007030030
:109DC400FDF7DEB8F0B5914DB3B000204FF400417B
:109DD4002870FCF769FC08B1FDF7D2F8FCF79AFB90
:109DE400FDF724FB08B1FDF7CBF889490320FFF701
:109DF400D3FD08B1FDF7C4F807A90020FFF7B2FEB0
:109E040008B1FDF7BDF89DF81C60FEF7F5FE08B13A
:109E1400FDF7B6F804F056F808B1FDF7B1F80023E1
:109E240007A90120079304F015F908B1FDF7A8F874
:109E340007A804F0BFF908B1FDF7A2F8112375488B
:109E44008DF8083004F022FE02AC82B2714920463B
:109E5400FFF7ACFE08B1FDF793F80021082207A82C
:109E640004F0BFFD6C494FF0C87307A8CDE9071390
:109E7400FFF79AFE08B1FDF783F80021674801F067
:109E840075F900210746654801F083F917B1384692
:109E9400FDF776F8AC22002107A804F0A2FD022306
:109EA4008DF81C3040F201635D4AADF81E30012389
:109EB400ADF82C300C928DF898304FF49672002344
:109EC400CDE9292307A9574B5748309300F012FCDA
:109ED40008B1FDF755F80121534800F008FC534B35
:109EE4005348019301A901F041FA08B1FDF748F87C
:109EF40000210422684604F074FD4E4B4E48009342
:109F0400694601F041FB08B1FDF73AF8402200210F
:109F140007A804F066FD494907A801F034F809A828
:109F2400474901F030F837A3D3E90023CDE90223F0
:109F3400444B049307A8012313948DF8583001F07F
:109F440021FC08B1FDF71CF81C220DEB02000021D6
:109F540004F047FD00234FF42032CDE90732ADF879
:109F64002A304FF470228DF82C30374B09920C9321
:109F74000322364B8DF8282007A80D9300F094FE99
:109F840008B1FCF7FDFF324B324C3349E41AE408C4
:109F9400240444F003042046FCF74AFD022E2BD18E
:109FA4002E492046FCF744FD01F0ECFC08B1FCF717
:109FB400E7FF0A22002107A804F013FD284F294CCB
:109FC400294EFCF7CBFB0028FBD12B78002BF8D0D3
:109FD400C820FFF7E7FE3946204604F0B3FC338877
:109FE400224A1548214601F045FBC820FFF7DAFE56
:109FF4006420FFF7D7FEE4E703210B4800F0F1FBF0
:10A00400D4E700BF5544332211000000AC2B0020DC
:10A01400199D0200060703005000A0001C2E00201A
:10A0240042220020659D0200C42B0020C19B020037
:10A03400342E0020BD9C0200482200200D0703009E
:10A0440021070300EFCDAB00F99C0200C59D02007F
:10A054007CFD0200A4FD02002C0703003D07030061
:10A064004A070300AD2B0020462200204022002096
:10A074000369C1688B429DBF8268D21802F1FF3226
:10A0840003F1FF3394BF501A581A70472DE9F04179
:10A09400D0E9027405463E1B406896422044884637
:10A0A400144404D904F074FCEC60BDE8F081324639
:10A0B400E41B04F06DFC224608EB06016868F1E736
:10A0C4002DE9F843C5680646894617464FF000084F
:10A0D4003469B3687068A54228BFE418013C621B68
:10A0E4005C1BBC4228BF3C46944228BF14464946E8
:10A0F4002844224604F04CFCB3682544AB4208BF14
:10A1040000253F1BA044A144F560E1D14046BDE8D1
:10A11400F883000010B5114C114AA2610223C4E96E
:10A124000433104BE361A2644FF400730E4A2362BC
:10A13400E264002310220D49A362E01D6362E3621E
:10A14400A3656365E365226504F07EFC0849204647
:10A1540004F07AFC2023A37110BD00BF402E002020
:10A1640097070300C82E0020B82E0020A007030084
:10A17400A4070300F8B5184C182300FB033503FBB0
:10A1840000402544C46A012C0F46164611D024B160
:10A19400022C1BD000242046F8BD2846FFF768FF98
:10A1A400B042F8D3324639462846FFF76FFF3446AB
:10A1B400F1E72846FFF75CFF8642344628BF044691
:10A1C400224639462846FFF761FFE4E72846BDE802
:10A1D400F840FFF775BF00BF402E0020FFF79ABF7D
:10A1E4006DDF704779DF70477DDF704764DF70474C
:10A1F4002DE9F74F0C9CBDF834B027880025804624
:10A204008A4691462E46B8F80020B2420BDC35B19E
:10A214002288013AD21B92B2FF2A39D8DA5500209B
:10A2240003B0BDE8F08FD8F8042052F8260001905E
:10A2340000220DF1030101A8FFF7D8FF0028EFD198
:10A244009DF803204A4521D12288002D14BF002007
:10A25400022002EB09010144594519DC3DB90132E0
:10A2640092B2228003F802A022880132228022883E
:10A274000DF103011A4401A8FFF7B8FF0028CFD15C
:10A2840021889DF803200A44228001250136BAE77B
:10A294000C20C5E72DE9F341089CBDF8245017466E
:10A2A400CDE9004502220646FFF7A2FF48B9102275
:10A2B40039463046CDE9084502B0BDE8F041FFF724
:10A2C40097BF02B0BDE8F0812DE9F04F0023168856
:10A2D400138090F82D3085B007460D46144653B3CD
:10A2E400082E01D80C2028E102A8FFF779FF0028E6
:10A2F40040F0238113880822CA54238801339BB277
:10A304001B222380CA542088013080B22080062278
:10A314000DF10901284404F03BFB23889DF8082033
:10A3240006339BB212F0FE0218BF01222380EA54C6
:10A33400238801332380BB78FBB123880433B342E1
:10A34400D0D802A8FFF74EFF002840F0F6802388FB
:10A354000322EA54238801339BB219222380EA544E
:10A364002388BDF8082001339BB2E9182380EA54FE
:10A37400120A4A70238802332380FA789AB1238818
:10A38400D91CB142AED80221E954238801339BB2CF
:10A3940001212380E95423880B449BB22380EA548F
:10A3A40023880B4423807A68AAB12388D91CB1423C
:10A3B40098D8022192F90020E954238801339BB2F2
:10A3C4000A212380E954238801339BB22380EA5471
:10A3D4002388013323803B89002B40F0A2803B8AF1
:10A3E4005BB1CDE900462B460722032107F110009B
:10A3F400FFF750FF002840F0A0803B8B5BB1CDE914
:10A4040000462B461522142107F11800FFF742FFDE
:10A41400002840F092803A6A002A40F09180D7F8F0
:10A424002480B8F1000F30D0B8F804302188981C8B
:10A434008A1C0244B2423FF655AFFE283FF652AFA3
:10A4440003336B54238801339BB2FF222380EA54E5
:10A45400238801339BB22380B8F80020EA54E9181A
:10A46400120A4A702088023080B22080B8F8042092
:10A474005AB1D8F8081000296CD0284404F088FA9E
:10A484002388B8F804201344238097F82C30002B39
:10A4940040F09B80387800284FD03B88012B59D05E
:10A4A400228802F1020CB4453FF61CAF012805D105
:10A4B4007B78023313449E42FFF414AF023EB61A73
:10A4C400B6B202A905EB0C00ADF80860FFF78CFEEC
:10A4D40098BB3978BDF80820022900F0BB807B784E
:10A4E400934202D3B24240F2B380012940F0B480D7
:10A4F4009BB29E42C0F0B080ADF808300821BDF890
:10A504000830FE2B3FF6EEAE22880133AB5422888E
:10A51400013292B22280A95422881344238000205D
:10A524000BE0CDE900462B460622022107F1080084
:10A53400FFF7B0FE00283FF452AF05B0BDE8F08F3E
:10A54400B4F800C00CF10603B3423FF6CBAE118859
:10A55400052901D80720F0E76FF4486E01EB0E03DC
:10A564009BB24FF27D3E7345F4D95388052BF1D944
:10A574006FF44860181880B27045EBD94FF6FF703D
:10A58400814203D0834201D09942E3D8052305F8E0
:10A594000C30238801339BB212212380E954238891
:10A5A40001339BB223801188E954E818090A4170E9
:10A5B400238802339BB223805288EA54E918120A92
:10A5C4004A7023880233238029E7BB6A002BC1D059
:10A5D4004FF000094FF00C0A4FF0160B97F82C308F
:10A5E4005FFA89F293427FF655AFB96A0AFB02F229
:10A5F40001EB0208B8F80430981CFE283FF672AE4E
:10A60400208803332B54238801339BB2238005F81D
:10A6140003B0238801339BB223808A5AEA54E91891
:10A62400120A4A702088023080B22080B8F80420D0
:10A634005AB1D8F8081000298CD0284404F0A8F99D
:10A644002388B8F804201344238009F10109C5E7DD
:10A65400092154E7B242FBD9ADF808604EE770B562
:10A66400C0B14AB116880024B44203D305196D78E9
:10A674009D4208D0A14201D800200BE0055D0135C0
:10A684002C44A4B2F0E7A142F6D9A31C1380005DC8
:10A69400013880B270BD13B50023ADF806301346FF
:10A6A4000DF106020446FFF7DAFF10B1BDF806000B
:10A6B400204402B010BD72DF704773DF704774DF4F
:10A6C400704738B5012204460D46B0F83812D0F868
:10A6D4003402FFF7E0FF00B1057004F13C0204F519
:10A6E4000D7104F15400BDE83840FFF7E4BF80F871
:10A6F40030107047F8B504460F4600296DD0002885
:10A704006BD091F87A301BB191F89830002B66D158
:10A7140007F178060FCE4FF0000C251D84F802C017
:10A724000FC50FCE0FC596E8070085E8070084F82B
:10A7340030C0D7F8A4306363D7F8A830A3634FF6CA
:10A74400FF7504F50D73C4F84432A4F84852072287
:10A75400614604F24A2004F044F923780BB984F8E2
:10A76400545094F82430002B14BFEE231F2304F11B
:10A774005501C4F83412A4F8383204F50E72384680
:10A78400FFF7A2FD40BB94F82430002B14BFEE2346
:10A794001F2304F24311C4F83C12A4F8403204F518
:10A7A400107207F13C00FFF78FFDA8B9A369A4F864
:10A7B40048304FF480720123A4F850206269206469
:10A7C4006264014684F83C3004F13C0204F1540014
:10A7D400FFF771FF00B92370F8BD0E20FCE70720D6
:10A7E400FAE7F8B5077804460D46002F00F0078114
:10A7F40000F24A26A17007220021304604F0F1F845
:10A80400E38813B1A378012B04D0E3794BB1A37887
:10A81400022B06D1636B9BB1012284F851220820DC
:10A824009847324604F5147112F8013F5BB98A4225
:10A83400FAD16A1E032A52D8DFE802F0070D111478
:10A8440084F85132EDE73B46F3E7A2791AB194F864
:10A85400242002B95BB9E2790AB1002B41D1237AF1
:10A86400002B40D1637A002B0CBF00250425636BB9
:10A87400A570002B39D0033D012D36D86279A2B3DF
:10A8840094F852228ABB84F85422012284F8532279
:10A894000720984704F13C0518220021284604F0BB
:10A8A400A0F8E26A0123511E994284F83C3001D990
:10A8B400042A1ED1D3B294F8242084F851301AB15A
:10A8C400CFB1A36A84F85230A178002384F85030C1
:10A8D40004291FD8DFE801F07B1126395D0000252B
:10A8E400C5E70225C3E70325C1E7002384F85332F3
:10A8F400D0E70027DFE70123E4E7C4F84432C4E9E2
:10A9040010630223012284F83C30802384F8312030
:10A91400A4F84830A378002B5CD1636B002B6AD178
:10A92400002067E00223002A84F8313014BF072393
:10A93400032384F83C302369A4F848300023C4F886
:10A944004432E36826646364E4E763696364A36987
:10A95400A4F8483012B1062384F83C306379B3B1CB
:10A9640094F852329BB994F8543283B1022384F898
:10A97400503004212046FFF7A4FE0028CAD1052345
:10A9840084F8313004F50D73C4F84432C2E703236C
:10A99400F6E7E3696364236AA4F8483012B1062336
:10A9A40084F83C30637983B194F852326BB994F8EB
:10A9B400543253B1022384F8503004212046FFF767
:10A9C40080FE0028A6D10623DAE70423D8E784F81A
:10A9D40031309FE72A46D4F8441204F15400FFF7BB
:10A9E4006AFE38B994F8301094F85400FFF765FE05
:10A9F400002892D0F8BD94F83100984790E70820D9
:10AA0400F8E70388112B10B50C460AD0262B1FD06B
:10AA1400102B05D1C37B012B02D18388A1F84832C6
:10AA240010BD0022838881F85222B1F848229A424C
:10AA3400F6D10B79002BF3D101212046FFF7D1FE8B
:10AA44000028EDD0A36B002BEAD0BDE810401847D6
:10AA5400037A013B012BE3D8897805230131B1FB4B
:10AA6400F3F303EB8303C91AC9B2E6E7704738B5B9
:10AA7400044690F85400FFF722FE012384F8523272
:10AA8400002384F8543284F8503006212046FFF71E
:10AA940018FE054638B9A1782046FFF7A2FE10B18A
:10AAA400A36B03B19847284638BD75DF704776DF3E
:10AAB40070477ADF70477BDF70470000034B1A88CA
:10AAC40082420CBF18460020704700BFE4300020CB
:10AAD400024B9B6903B11847704700BFC830002080
:10AAE40037B585B22846FFF7E9FF034670B1164C27
:10AAF400017A227B91420BD200F10A012846FFF72A
:10AB0400D4FFE8B1112801D0FFF7E2FF03B030BD54
:10AB1400237C0022027243B13B212846FFF7C7FF82
:10AB240030F0080301D0FFF7D3FF6369002BEDD0A9
:10AB340000228DF80420ADF8065001A89847E5E7F7
:10AB44001A7A01321A72E1E7C830002013B50B46B5
:10AB5400497A0F4C024669B9D4E901101C7A002CD9
:10AB640018BF01465868FCF7A3FC08B1FFF7B0FF13
:10AB740002B010BD002119726369002BF8D00121C5
:10AB8400ADF806008DF8041001A89847F0E700BF5F
:10AB9400C83000204B8802889A4213D842889A42CF
:10ABA40010D380888A8840F2F313984294BF031A22
:10ABB400C31A934206D800F2F310904234BF002027
:10ABC40001207047002070470388112B70B501469F
:10ABD40048D002D8102B1ED070BD122B52D0502B4F
:10ABE400FAD12F4BC288DB899A42F5D1038A022B12
:10ABF400F2D186883046FFF761FF05460028EBD086
:10AC040001F1120000F0BBF930BB6868FCF796FC58
:10AC14000028E1D009E0C37B012BDDD14FF6FF70A2
:10AC2400FFF74CFF054620B90420BDE87040FFF74C
:10AC34004FBF1C4A8E880680002303721368C5F830
:10AC44000A300A30536843601031FFF7A3FF144BF6
:10AC54006872DB89002BBFD129463046BDE87040BD
:10AC6400FFF774BF8088FFF729FF04460028B3D09C
:10AC74004068FCF763FC08B1FFF72AFF4FF6FF7347
:10AC84002380A9E786883046FFF718FF0546002889
:10AC9400A2D008310A30FFF77DFF6872DCE700BFFD
:10ACA400C8300020F8300020F8B5064648B3054601
:10ACB4000FCD154F3C460FC495E8070084E8070004
:10ACC4003068124B3B60B0B1FFF7F3FEC0B9316896
:10ACD4000A681A604A685A600D480E4A4FF6FF73B4
:10ACE40003800D4B40F8043F0021FCF7CFFB002804
:10ACF40018BF032004E01846FFF7DDFE0028EBD060
:10AD0400F8BD0E20FCE700BFC8300020F83000205A
:10AD1400E4300020E5AA020000310020F7B5174610
:10AD240001900E4691B1019C6CB100252C46294638
:10AD340001A8FDF720FA18B13946A8B2B04701348A
:10AD44000135142DF3D1204603B0F0BD0C46FAE7CB
:10AD540073B50191019C06466CB100252C46294629
:10AD640001A8FDF708FA18B106EB440301349D80ED
:10AD74000135142DF3D13046346002B070BD0000AB
:10AD84002DE9F04703888488112B8CB006463CD00B
:10AD94001A2B3FD0102B17D1274DAB68DB43009300
:10ADA40069686846FDF748FA009901A8FFF7D0FFE3
:10ADB4000DF108094FF00008019B984507D3132CA7
:10ADC40013D90420FCF7DCF80CB0BDE8F08739F89F
:10ADD40002AB00270137514605EB8700FDF7C1F9A7
:10ADE4001D2FF7D108F10108E6E721461348FDF7C6
:10ADF400A1F921461248FDF79DF9F37B012BE3D01D
:10AE040010482146FDF796F9DEE70C482146FDF788
:10AE1400A8F9D9E7057A0C482D09012D214606D950
:10AE2400FDF788F9022D21460848F0D0EAE7FDF73E
:10AE340098F921460548EAE720310020283100200E
:10AE4400243100202C310020303100203431002006
:10AE54001328014602D80248FDF78DB90020704737
:10AE64002431002010B50446FFF7F2FF38B1214623
:10AE74000348FDF780F9002814BF0220012010BD0B
:10AE84002C31002010B50446FFF7E2FF28B121461B
:10AE94000248BDE81040FDF76EB910BD3031002006
:10AEA40010B50446FFF7D4FF002814BF2046142031
:10AEB40010BD000070B50A4D064628460C46FDF745
:10AEC4005AF958B13046FFF7C3FF38B1A01D3146D7
:10AED40005EB8000BDE87040FDF74DB9002070BD62
:10AEE40020310020F8B50D4C054620460E46174685
:10AEF400FDF741F980B12846FFF7AAFF60B1B01D04
:10AF040004EB800029461FB1BDE8F840FDF712B9F3
:10AF1400BDE8F840FDF725B9F8BD00BF2031002099
:10AF2400F8B50A4C05460E46014620461746FDF77D
:10AF340022F948B1043504EB85043A46A068314649
:10AF4400BDE8F840FFF7EABEF8BD00BF203100209D
:10AF5400AADF7047002301380B70042806D8DFE805
:10AF640000F00306080A0C0011230B70704721231C
:10AF7400FBE73123F9E71223F7E72223F5E700780B
:10AF840000F00100704738B5044608460D4603F04A
:10AF94007DFD6560208038BDF0B58B7891B0002BC5
:10AFA4000C4608BF01238DF80E3005460B88ADF81A
:10AFB4000C30002116466846032203F012FD694650
:10AFC400607CFFF7C7FF0DF10101A07CFFF7C2FF12
:10AFD4009DF80230E27B62F3C303227C62F3041324
:10AFE400227B62F30003227D002A14BF0222012285
:10AFF40062F3420300211C2209A88DF8023003F0F9
:10B00400F0FC637B13F0300F15D002AF0322002154
:10B01400384603F0E6FC0DF10901E07CFFF79AFFE6
:10B0240011238DF808309DF80A300E97012262F33F
:10B0340042038DF80A30637B8DF824301422A37BFD
:10B044008DF82530002104A803F0CBFC03AB049356
:10B05400A388ADF81C30A368CDF814D01BB1E288E6
:10B06400ADF818200893A369002B2ED001AF03225A
:10B074000021384603F0B5FCA3691A88ADF82C20EA
:10B084005A88187BADF82E2039465A680A920D97D3
:10B09400FFF760FFA3690DF10501587BFFF75AFF25
:10B0A400A2699DF80630917A61F3C303D17A61F302
:10B0B4000413117A927B002A61F3000314BF022265
:10B0C400012262F342038DF80630E36903B10C9365
:10B0D400334604AA09A92846FFF73AFF11B0F0BD88
:10B0E40090DF7047A5DF7047B5DF70477FB5002359
:10B0F400ADF80810ADF80A106A4602A90646039393
:10B104000093ADF80430FFF7EBFF054600B3124B94
:10B11400124CE41AE408FDF7C3FD240444F00104CE
:10B12400034632460E492046FBF78FFCBDF800204B
:10B13400BDF8023052EA030103D00A492046FBF766
:10B1440084FCBDF804201AB107492046FBF774FCBF
:10B15400284604B070BD00BF7CFD0200BCFD0200A7
:10B16400AB070300F50703003408030078B14FF080
:10B1740017130360FB2303711723C380038141F674
:10B18400FB320023016143818281184670470E20FF
:10B19400704720B1172904D10180002070470E2088
:10B1A400704707207047000013B5034680880C469B
:10B1B400A0B91A88232A00F0A38011D8102A22D01B
:10B1C400112A51D0A37A4BB1E1880020FFF78AFFFE
:10B1D400002840F09B804FF48073638102B010BD5F
:10B1E4003A2A49D0552A5FD0242AEBD11A7A0B691E
:10B1F4004A73002BE6D04DF67A21ADF80400009195
:10B204008DF8042078E0DB7B0A790A73012B13D0D4
:10B21400022B14D0E18823898B4205D20020FFF74A
:10B2240061FF70B90123E372217B637B8B42C9D236
:10B234000020FFF75BFFC5E70B88E380EAE74B8854
:10B24400FBE7112802D10123A372EDE7FDF728FDE6
:10B25400374A384B38499B1ADB081B04024643F033
:10B264000100FBF7E9FBDFE71723CB800B8141F6F5
:10B27400FB3348818B81A5E75B89CA88934228BF49
:10B284001346172B0A6938BF17230B814AB1C97AB1
:10B2940039B140F677210091ADF804306946204673
:10B2A4009047002363818DE7DB88C988A072172B40
:10B2B40038BF17238B4228BF0B462381FFF714FFA7
:10B2C40060B1FDF7EDFC1A4A1A4B1C499B1ADB08C6
:10B2D4001B04024643F00100FBF7AEFBE37A002BAC
:10B2E4007FF470AF2369002B3FF46CAF40F67722F4
:10B2F40000922289ADF8042069462046984761E708
:10B30400197A237B994228BF194692E711283FF402
:10B3140065AFFDF7C5FC064A064B07499B1ADB08D7
:10B324001B04024643F00100FBF786FB56E700BF0F
:10B334007CFD0200BCFD02008A080300BB08030078
:10B34400B0DF704766DF7047034610B500214088C0
:10B35400FFF7F8FF024608B91A7210BD112801D18F
:10B364000122F9E75B68BDE81040184760B159B1A4
:10B374000378DE2B0AD00B684360DE2303704FF69C
:10B38400FF734380002070470E20704708207047E9
:10B3940028B10378DE2B04D14180002070470E20B1
:10B3A400704708207047F0B5054685B00C46F1B1EA
:10B3B400E8B10B78DE2B1AD182884B889A4204D1EB
:10B3C4000B7A13B10846FFF7BFFF2B88112B32D03D
:10B3D400512B0ED0012B0AD12B7A012B07D1A9882E
:10B3E4006288914203D123722046FFF7ADFF05B076
:10B3F400F0BDAE886388B342F9D1AF79022FF6D19C
:10B40400AD7B2B1F022BF2D800211022684603F0DB
:10B41400E8FA052D14BF4FF4C07300236946304683
:10B424008DF80070ADF80430FFF78AFF0028DED0F5
:10B4340063689847DBE76388AA889A4204BF4FF69B
:10B44400FF736380D3E7A8DF7047ADDF7047AEDFDB
:10B45400704762DF704770B505468AB00C46002914
:10B4640062D0002860D00388502B37D0572B72D07D
:10B47400102B59D181886069002601AA019600F039
:10B484002CF9082231460DEB020003F0AAFA02233C
:10B4940002AA218AA888CDF80CD00293FFF7D5FF21
:10B4A400002841D1A369002B3ED00398FFF767FD24
:10B4B400002839D0019B0BB101221A7018220021F7
:10B4C40004A803F08EFA02238DF81030AB88ADF88F
:10B4D4001830019B05940793A36923E08188606970
:10B4E40002AA00F0FAF81822002104A803F079FA5D
:10B4F400AB88ADF818302189EB88029A05949942FB
:10B50400079218D12E8A022E15D16AB105F11200C4
:10B51400FFF735FD029B48B101221A708DF81060C7
:10B52400A3690BB104A898470AB070BD187003232F
:10B534008DF81030F4E7A2899A42F5D1A369002B63
:10B54400F2D000228DF8102005F1120208922A8A06
:10B55400ADF82420E6E78188606902AA00F0BDF80E
:10B5640001460028E0D1029B1B78002BDCD0182276
:10B5740004A803F036FA01238DF81030AB88ADF837
:10B5840018300594029BA6E7F0B5384B8FB002AA99
:10B5940004460E4603F1100C174618685968154600
:10B5A40003C5083363452A46F7D1002C5BD0002E2F
:10B5B40059D03368A36121463846FFF74AFF002873
:10B5C4004FD12246012512F8023B8DF8063001A91D
:10B5D4002846ADF80450FFF736FF002841D1014654
:10B5E400202206A803F0FDF922460223ADF8183004
:10B5F40012F80C3B8DF81A30BDF824301C4E6088CC
:10B60400079603F4734343F440632B4306A9ADF850
:10B6140024308DF829508DF82A50FFF7BDFC00BB6B
:10B624000146202206A803F0DCF922460323ADF8E4
:10B63400183012F8043B8DF81A30BDF824306088B5
:10B64400079603F46F4343F480532B43ADF824303F
:10B6540006A940F201138DF82950ADF82A30FFF7FE
:10B664009BFC0FB0F0BD0E20FBE700BFF708030002
:10B6740014000100F0B50F4687B016461C46054677
:10B6840018B301AA1946406900F027F8D8B94FF653
:10B69400FF739C421BD0019BCBB11B78CBB1338889
:10B6A400142B18D80146102202A803F09AF9AB888B
:10B6B400ADF8083002A901232046CDE904678DF8CE
:10B6C4000A30FFF7C4FE07B0F0BD0E20FBE70520EB
:10B6D400F9E70820F7E70720F5E770B505461646B1
:10B6E4000AB90E2070BD002313600028F9D0036846
:10B6F400002BF6D0C38813F003040FD10846FFF7DC
:10B70400CFFBC0B214280BD02B7983420AD9EB8823
:10B714002A6800FB032333602046E3E70720E1E7C0
:10B724000520DFE70420DDE7A8DF7047F0B5074612
:10B7340089B014461E460D4611B90846FBF720FC95
:10B7440014B92046FBF71CFC20220021684603F0B4
:10B7540048F99DF80D300E9AADF8007043F00203DD
:10B764008DF80D30064BADF8044069461888ADF8E5
:10B77400064002958DF81160FFF70EFC09B0F0BD8C
:10B78400D031002030B587B041F60A030446564A4A
:10B79400ADF80C30012003A98DF80E00FFF7C4FFAB
:10B7A4000546002847D12288002A47D1228952B170
:10B7B4004E4B0093E16894F83C3042F62420FFF7A6
:10B7C400B5FF002845D1228A52B1494B00936169E3
:10B7D40094F83C3042F62520FFF7A8FF002838D122
:10B7E400228B4AB1434B0093E16994F83C3042F612
:10B7F4002720FFF79BFF60BB228C4AB13E4B00938E
:10B80400616A94F83C3042F62620FFF78FFF00BBB4
:10B81400228D4AB1394B0093E16A94F83C3042F6E8
:10B824002820FFF783FFA0B9236BA3B9616B69BB21
:10B83400A36B002B37D1284607B030BD304B0093A3
:10B84400616894F83C3042F62920FFF76FFF002826
:10B85400ACD00546EFE7D3E9001204918DF814202B
:10B864009B688DF815301A0A1B0C8DF81730254B80
:10B874008DF816200093082294F83C3004A942F66F
:10B884002320FFF753FF0028D0D0E2E71E4B0A79AC
:10B894000093096894F83C3042F62A20FFF746FFEB
:10B8A4000028C5D0D5E71A788DF810205A888DF86D
:10B8B4001120120A8DF812209A888DF81320120A8A
:10B8C4008DF81420DB888DF815301B0A8DF816309E
:10B8D4000E4B0093072294F83C3004A942F6502002
:10B8E400FFF724FFB5E700BFD0310020B0310020BE
:10B8F400C8310020A031002098310020D23100202E
:10B90400A8310020DA310020C0310020B8310020F5
:10B91400F8B5074D074E074600243378A34200DCF0
:10B92400F8BD55F8043B384698470134F5E700BFA5
:10B93400EC310020FB310020074B1B7810B5044686
:10B944004BB100F00BFB204600F008FD2046BDE89B
:10B95400104000F0A1BF10BDFA31002008B1FFF77C
:10B96400D7BF7047FFF7D4BFFFF7D2BFFFF7D0BFF1
:10B97400034B1B780BB100F08FBA0820704700BF4F
:10B98400FA31002070B5224B1B7888B0002B3DD0D3
:10B99400204E01234FF6FF70337001F09CF94FF6EF
:10B9A400FF739842054616D01E462846FFF7E0FF6F
:10B9B400044620B3FDF774F9174C184B0095E41AAC
:10B9C400E40824040346164A164944F00100FBF730
:10B9D40046F8032410E000241822214602A83470FB
:10B9E40002F0FFFF0C2302A88DF80830ADF80C50CC
:10B9F400ADF80A50FFF78CFF204608B070BD28460A
:10BA040001F069F9B0420546CFD1F5E70824F3E720
:10BA1400FA310020E8310020E4FD02007CFD020040
:10BA2400130A03006B0A03002DE9F04F87B0CDE938
:10BA34000023364B1B7882468946002B63D04FF691
:10BA4400FF7001F048F90423ADF80A300DF1100B32
:10BA540003AB002505935A460DF10A03062104465B
:10BA64000395049501F068F807284AD04FF6FF764D
:10BA7400B0464FF0FF37F0B1052825D04FF6FF73DD
:10BA84009C422ED1A0452AD0A6420CBF05200020FE
:10BA9400BAF1000F01D0AAF80080B9F1000F01D06B
:10BAA400C9F80050009B03B11E80019B03B11F60C5
:10BAB40007B0BDE8F08F039BAB4224BFA0461D46F0
:10BAC400BB423CBF26461F46204601F004F90DF157
