:1010000000000420751300005D1300005967000004
:10101000611300006313000065130000000000006E
:101020000000000000000000000000006713000046
:1010300069130000000000006B1300006D13000036
:101040005DAF00006F1300006DAF00006F13000074
:101050006F1300006F1300001DAC00006F13000041
:101060006F1300006F1300006F1300006F13000078
:101070006F1300006F1300006F1300006F13000068
:101080006F1300001D5800006F1300006F13000065
:101090006F1300006F1300006F1300006F13000048
:1010A0006F1300006F1300006F1300006F13000038
:1010B0006F1300006F13000000000000000000002C
:1010C0006F1300006F1300006F1300006F13000018
:1010D0006F1300006F1300006F13000025CD000098
:1010E0006F1300006F1300006F130000000000007A
:1010F000000000006F130000000000006F130000EC
:1011000000000000000000000000000000000000DF
:1011100000000000000000000000000000000000CF
:1011200000000000000000000000000000000000BF
:1011300000000000000000000000000000000000AF
:10114000000000000000000000000000000000009F
:10115000000000000000000000000000000000008F
:10116000000000000000000000000000000000007F
:10117000000000000000000000000000000000006F
:10118000000000000000000000000000000000005F
:10119000000000000000000000000000000000004F
:1011A000000000000000000000000000000000003F
:1011B000000000000000000000000000000000002F
:1011C000000000000000000000000000000000001F
:1011D000000000000000000000000000000000000F
:1011E00000000000000000000000000000000000FF
:1011F00000000000000000000000000000000000EF
:10120000354936480A1A02D0072291438D4634499F
:1012100034480A1A06D00722914381F30988022232
:1012200082F3148830483149314A00F044F831489B
:101230003149324A00F03FF831483249324A00F031
:101240003AF832483249334A00F035F832483349E7
:10125000334A00F030F833483349344A00F02BF871
:1012600033483449344A00F026F8344834490022DF
:1012700000F02CF833483449002200F027F83348B6
:101280003349091A082902DB002202604160314A11
:1012900090471F481F49884205D00268043003B4B4
:1012A000904703BCF7E700208646EC46002000216B
:1012B000294A9047FEE7884207D0521A05D00378A2
:1012C00001300B700131013AF9D17047884202D0E8
:1012D00002700130FAE770470000042000E00320AC
:1012E0000000042000000420F035010090010020DF
:1012F000B8020020D4130000D413000090ED0000C9
:10130000F03501009001002090010020F0F1000074
:10131000F0F10000F0F10000F0F10000F0F1000049
:10132000F0F10000F0F10000F0F10000F0350100F4
:1013300018370100B8020020B8020020B8020020CF
:101340002421002024210020282100202821002001
:10135000284100209D13000099D70000FEE7FEE71A
:10136000FEE7FEE7FEE7FEE7FEE7FEE7FEE7FEE755
:10137000704700BF1048804710484FF0070188436E
:1013800085460F4880470F48016841F470010160AD
:10139000BFF34F8FBFF36F8FFFF732BF0A480B4980
:1013A0000B4A884207D0521A05D0037801300B70DF
:1013B0000131013AF9D17047711300000000042097
:1013C00035DC000088ED00E068F000000800002037
:0413D0009001002068
:1013D400004870471C2100207047000007B5002218
:1013E40001A908F061FF30B9044A01981368013378
:1013F400136008F010FE03B05DF804FB3403002012
:101404000148FFF7EBBF00BF20EE00000148FFF7E3
:10141400E5BF00BF3CEE000030B585B00546019144
:10142400002401A9284608F093FE10B9204605B00F
:1014340030BD002203A9284608F036FF0028F0D169
:10144400039808F0E8FD0134EBE7000073B5836806
:10145400D3F854339B07054603D50022114607F001
:1014640005FC154C154A24F47F6428464FF4805635
:10147400082124F00F0406F045F923462846009677
:101484000F4A082106F03EF90E4B0F4A1B681C1B3D
:10149400642363432846CDE900461B0B082106F06C
:1014A40031F90A4B0A4A1B680821284602B0BDE8F4
:1014B400704006F027B900BF1747010024F200006E
:1014C40038F200002C03002065F2000034030020F1
:1014D40094F2000000238B540A460068194606F073
:1014E40011B900002DE9F0433C4D87B007460E4684
:1014F400DFF8F4801CE0DDF8089005940C2240230A
:101504000DEB02012B6048462346CDE9034408F065
:10151400A5FD0C220DEB020140460CF0BCFF9DF82A
:101524000C3003F00303012B0BD0022B2CD02C60C6
:10153400002202A9384608F0B7FE04460028DAD093
:1015440036E0BDF80C40C4F38314A4000C232246F7
:101554002349484608F082FD2A6804F10C039A42A4
:10156400E6D3029A1F4C009221681F4A1F482B6041
:1015740008F0EAFA90B9F6B123682A68029813448D
:10158400236008F048FDB3E7BDF80E40A409342CED
:1015940028BF3424033424F00304D7E776B904289D
:1015A4000CD1029808F037FD114A13680133136017
:1015B400104805F088FA07B0BDE8F083102806D17A
:1015C400029808F028FD0C4B01221A7090E70B4991
:1015D40040F23D1005F082F98AE700BF3003002095
:1015E400440300202C030020380300205000002076
:1015F40034030020F8020020A8030020ABF200000E
:10160400174A38B513780446CBB90378012B25D192
:10161400416879B91348144A0368156811602B446A
:1016240003601248FFF75EFF6069B8B1BDE8384057
:1016340008F0F1BC0E4A136801331360F4E7012B80
:101644000CD10378022B09D10A4B816823F47F6300
:1016540023F00F03994204BF0023137038BD00BF69
:10166400A80300202C0300203003002020EE0000FB
:1016740034030020174701000D4B1B7810B50C46AE
:10168400A3B9084608F0C3FC21460A48FFF7C4FE84
:10169400094A136818441060084805F00BFA01461B
:1016A40020B90448BDE81040FFF71CBF10BD00BFBF
:1016B400A803002020EE000034030020F8020020DC
:1016C40038B50B4C2378012B0D460FD0084608F093
:1016D4009EFC29460748FFF79FFE2378022B05D17D
:1016E40001210448BDE83840FFF7FCBE38BD00BF07
:1016F400A80300203CEE000070B5002286B01B4910
:101704001B4808F0E5F91B4B044650BB02221A7033
:10171400194B1A481A4E0125C3F884502946FFF77D
:10172400E1FE04F0C40343F0290303948DF80C3064
:10173400039B144A31680E4862F39F23124A0393B1
:10174400C2E9003494600C23009408F0FDF9336876
:101754000E480C332946336006B0BDE87040FFF7ED
:10176400C1BE01221A7006B070BD00BF841A010008
:1017740050000020A803002000E100E020EE00005B
:101784002C030020F0F10000380300203CEE0000A0
:1017940070B50E4601680446154621B9154921F471
:1017A4007F6121F00F012160134808F013FBF0B1B1
:1017B400216831600B7803F0030301F10C00012B65
:1017C400286003D0022B09D0052070BD0B88C3F319
:1017D40083139B00034423600020F6E74B889B0996
:1017E400342B28BF3423033323F00303F2E706200A
:1017F400EBE700BF17470100500000201FB5114B55
:10180400114C23F47F6323F00F03E360014603F6D6
:10181400FF7320460022236108F05AF9044668B990
:10182400019003AA02A901A8FFF7B2FF0028F8D08B
:10183400064B019A1A60064B00221A70204604B027
:1018440010BD00BF17470100500000202C030020EA
:10185400A80300202DE9F0418368D3F854339B0793
:1018640088B0044603D50022114607F0FFF900238F
:10187400CDE90233274E284D284F4FF0010803AA23
:1018840004A902A8FFF784FF0346002836D1DDE946
:101894000301CDF81A30ADF81E308B6805938B88A0
:1018A400ADF818300B78346003F00302012A07D036
:1018B400022A18D0394640F29D2005F00FF80FE0B7
:1018C4000A88D1F800C00095C3F3C2038DF81C3018
:1018D400014605ABC2F383124FEA9C2001F0B2F833
:1018E4004FF00008CBE74988C3F3C2038DF81C30DE
:1018F40005AA2B46890901F009F9F1E7B8F1000FAF
:1019040004D0074A0221204605F0FCFE08B0BDE8D9
:10191400F08100BFAC03002090010020ABF2000076
:1019240012F2000010B5084C084B094824F47F64F7
:10193400012224F00F041A702146002308F0C4F990
:10194400044B1C6010BD00BF17470100A803002012
:10195400500000202C03002008B58368D3F85433CA
:101964009B0703D50022114607F080F9BDE8084023
:10197400FFF7D8BFF0B595B008460D4616461C468D
:1019840008F045FB1A9A0D9200230C2205A928465B
:101994000A938DF82C300C93CDE9086408F05EFBB3
:1019A400079B0293069B039301238DF811309DF846
:1019B400143003F00302012A1DD1BDF81440059E22
:1019C400C3F3C203C4F383148DF81030A2000C23B4
:1019D4000EA9284608F042FBC6F3952608AB0093EF
:1019E400224602AB0EA9304601F02CF8284608F036
:1019F40012FB15B0F0BD022AF8D1BDF81640C3F3AE
:101A0400C203A4098DF810300C27082C264628BFE1
:101A140008263B4632460EA9284608F01FFBA41BA5
:101A240008AB02AA31460EA8374401F06FF8002C27
:101A3400EBD1DBE7014B01221A707047F103002060
:101A44007047000070B50F4D06460FCD88B06C4648
:101A54000FC495E80F00002E84E80F004FF01F0319
:101A6400094A0A48009308BF0022694608F034FF77
:101A740018B1074A432101F09DF9064B1E7008B0C6
:101A840070BD00BF28F40000391A0000A80100202E
:101A940054F40000B003002007B5044B0093044A3B
:101AA4004023FFF767FF03B05DF804FBB91A000099
:101AB400B103002038B50E4B0E4D002018700E48AF
:101AC40004782D5DD2B21C4675B1043009F072FF62
:101AD40018B10A4A532101F06DF9094B1A7812B171
:101AE4002378002BFBD038BD0C3009F0F9FCEFE76C
:101AF400F1030020A40E0020A801002054F40000EB
:101B0400B003002008B50848084A0378D35C3BB109
:101B1400043009F0F9FE0020BDE80840FFF792BF49
:101B24000C3009F087FCF6E7A8010020A40E002081
:101B340000230428CB604B6098BF044B044A98BF31
:101B440053F820308A600B60704700BF6CF70000C8
:101B540048F70000CB6800225A717047C368DB68FD
:101B640000225A717047CB6801225A717047C368CA
:101B7400DB6801225A7170470D4A8A6070B50D4ABC
:101B84000D4C0023121BCB604B600B6012091D46E9
:101B94009A4207D0E6683679FF2E05D0854202D1F5
:101BA400A3680B6070BD013501331034F0E700BF4A
:101BB40080F7000014F00000C4EF00002DE9F74F97
:101BC400164D174C52F8047C0193641B0646894653
:101BD400924624094FF00008444508D1114A3B4677
:101BE4000221304603B0BDE8F04F05F08BBDA96873
:101BF40038460CF0CEFCAB46103510B108F10108A4
:101C0400EAE7DDED017A17EE90CA53464A46594693
:101C1400304603B0BDE8F04F604700BFC4EF00009A
:101C240014F00000B8F80000014BFFF7C7BF00BF75
:101C340015220000014BFFF7C1BF00BF591B000074
:101C4400014BFFF7BBBF00BF6B1B0000014BFFF74D
:101C5400B5BF00BF4D200000037813F0040216D076
:101C640003F00303012B03D0022B09D0012070479A
:101C74000A6800880332C0F3831002440A60F5E75F
:101C84000B684288033303EB92130B60EEE71046B4
:101C9400704700002DE9F04F464C0F4687B00546CB
:101CA400C61C0020914603F0EDFA20683860D4E9A0
:101CB4000132134401331B1A04F21C4704F5836AEE
:101CC40004F21448B34217D30022B9F1000F6AD0CA
:101CD400052363F3070265F389122168A3680B40A7
:101CE40003330E44002044F82320266003F0DAFA7C
:101CF400012007B0BDE8F08F0121384604F0C4FE8E
:101D0400504604F0DAFE404604F0D7FE6068A3684B
:101D140002901840033004EB800002A90193FFF7FE
:101D24009BFF8346DDE90130BBF1000FF1D103EAEB
:101D3400000204EB8202411CD26803920B4004EBC4
:101D4400830302F00302D968012A00F1030302931A
:101D540021D0022A05D018494FF4BF7004F0BEFD0B
:101D640008E0BDF80E00800903304FEA114B03EB85
:101D740090000290404604F0A3FE08B1029B636009
:101D84005946384604F080FED4E9012313442268FE
:101D940001339B1A96E7BDF80C00C0F383104FEA99
:101DA400114B1844E5E7062363F3070265F39F52DA
:101DB40093E700BF8C050020C8F40000012907B593
:101DC400034604D08168D1F85413890707D500224B
:101DD4001146184603B05DF804EB06F047BF53689C
:101DE4000193054B00931368044A022105F08AFC11
:101DF40003B05DF804FB00BF31F5000027F50000D7
:101E04002DE9F3478368D3F85443C4F340040746E9
:101E140034B10022114602B0BDE8F04706F026BFF7
:101E2400144E154DDFF85880DFF85890DFF858A0AD
:101E3400AD1B2D09AC4202D102B0BDE8F087F268B7
:101E4400B3681179FF2907D10C4A0821384605F0F7
:101E540059FC01341036EDE75279002A14BF42468A
:101E64004A46CDE9002138465246082105F04AFC8D
:101E7400EFE700BFC4EF000014F0000057F50000C6
:101E840046F500004EF5000076F5000030B50A4B2B
:101E94000A4A0B49D21AD20800239A4201D10520DA
:101EA40006E031F823500468A54202D10360002003
:101EB40030BD0133F1E700BFACEE0000C4EF000019
:101EC400780000202DE9F84F0546002849D0264C1B
:101ED400FF230846A3600023C4F81834C4E9003380
:101EE400C4F8143484F8203400F06AFE1F48C4F89F
:101EF4000C5408F045F8814688B91D481D4E1E4C07
:101F0400DFF880A008F024FBA41BE4084D46A5429A
:101F140008D10023194A1A481946A3421BD148463E
:101F2400BDE8F88F4FF00008474606EBC50BBD42ED
:101F34000AD0142256F83710DBF800000CF004FA2B
:101F44000028C8BF08F101080137BC42EFD12AF8C4
:101F540025800135DBE720F8231042F8041B013308
:101F6400DBE74FF00709DAE78C05002014F00000E6
:101F74003CF70000ACEE0000C4EF000004010020B8
:101F84007A0000207800002007B5019031B9019A49
:101F9400064B53F8320003B05DF804FB01A8FFF7C9
:101FA40075FF0028F3D00020F5E700BFACEE000079
:101FB400002310B5CB604B60034B8B600C460121B2
:101FC400FFF7E2FF206010BD48F70000094B01391C
:101FD40003EBC000032909D8DFE801F00A02040674
:101FE400042070470079704740797047002070479B
:101FF40002207047ACEE000030B5114C00EB4000FD
:1020040054F821508240072383406A401A400D4B04
:102014006A40C2F3821044F8212003EB8101C2F329
:10202400C203834238BF0346C2F34220834202F014
:10203400070238BF03469A4238BF1A464A8030BD69
:1020440004010020780000202DE9F74F06461D46C4
:102054009046002A4FD0CB6828684B4993F80490E7
:1020640007220CF071F9D0B9B8F1010F07D1474A32
:102074000221304603B0BDE8F04F05F043BB444FA6
:1020840004460A2257F8041B68680CF05DF900281E
:1020940073D00134052CF4D16B683E4A13E0082256
:1020A4003D4928680CF050F958B9B8F1010F0446BD
:1020B4002AD00127394A3A4B9B1A4FEAD30A93464E
:1020C40045E02B68374A0221304603B0BDE8F04FA3
:1020D40005F018BB18F83530A3420FD2002128466A
:1020E400FFF752FF524603460221304605F00AFB31
:1020F4000135BD42EED103B0BDE8F08F224629463A
:102104004846FFF779FFF3E7244B254FDFF89CA0FF
:10211400FF1AFF08002503F10608EAE71846002124
:102124000193FFF731FF009920220CF00DF9019B78
:10213400014608B1013310E00BEBC3029279A242CD
:1021440015D3224619464846FFF756FF013747453F
:10215400D1D255F82730009300239A45DED155F8A3
:102164002730114A0221304605F0CCFAEEE7184632
:10217400FFF70AFF0D4A0346F4E7B8F1020FE4B291
:10218400C2D0022796E700BF10F6000017F6000041
:1021940058F7000082F600002EF60000ACEE0000B6
:1021A400C4EF000036F600006EF600004BF60000A7
:1021B40013460A46C168FFF747BF000013B504463B
:1021C4000191A3B162B9019A0F4B04EB44040720B7
:1021D40053F82230A0401840E040C0B202B010BD15
:1021E40001A8FFF753FE0028EDD00020F6E72AB936
:1021F400019A064B03EBC2039879EFE701A8FFF7B6
:1022040045FE0028F1D1F3E704010020ACEE000004
:10221400284B294A2DE9F04F9B1A4FEAD309CB6882
:102224005B7985B005460E461BB9244A022105F0A8
:1022340069FA234B234A244F0821284605F062FA01
:10224400224A0821284605F05DFA00244C4502D1B3
:1022540005B0BDE8F08FF36893F8048001231A46B3
:1022640021464046FFF7AAFF012221468346002368
:102274004046FFF7A3FF0428034628BF04235FFA60
:1022840083FA804601212046FFF77EFE57F82A3064
:1022940001930F4A0F4B57F82B100091D04598BF6C
:1022A400134602930C4A03460821284605F02AFAED
:1022B4000134CBE7C4EF0000ACEE0000A1F600004F
:1022C400B4F60000C0F6000058F70000DEF6000087
:1022D400982B01009FF600001BF7000013460A46E6
:1022E400C168FFF795BF0000034BD3E90030C31A60
:1022F40058425841704700BF8C0500202DE9F04F2B
:1023040085B0FFF7F1FF0646002840F01C818F4D91
:10231400C5F81804BFF34F8F6868AC68009020407C
:10232400033005EB80006946FFF796FC009B18B16B
:10233400D5F81824002A6CD0591C214005EB8101E2
:1023440004EA0302C9680291D91C023305EB820234
:10235400234005EB8303D268DB68039302F0030395
:10236400022B0192009169D1BDF8063078489DF89E
:1023740004604FEA931ABAF1A00FD14628BF4FF078
:10238400A00969F38F1309F10C01ADF8063007F0C9
:102394000FFEC6F3C2068046002800F0BB8007F09B
:1023A40036FE01A900230C22404607F043FE0099A3
:1023B40024EA01070137BF00B94538D95FFA89F922
:1023C40097B3FFB2A9EB0709214003315FFA89FBF8
:1023D400B946604F05EB81010C234A46404607F09D
:1023E40029FE37B109F10C035A463946404607F035
:1023F40021FE009B0AF1030A03EB9A030093D5F82C
:102404001834002B50D1D5F81044DFF85C9107271D
:102414006FE02A689A4204D86A60304605B0BDE885
:10242400F08F04EA03007BE74A49BB46D4E7214026
:1024340003310C234A4605EB8101D7E7012B69D10F
:10244400BDF804604248C6F38311062928BF06215B
:1024540061F3891603318900ADF8046007F0A8FD23
:10246400C6F3C2068046002854D007F0D0FD0023EE
:102474000C2201A9404607F0DDFD0027BDF8042029
:10248400C2F38312BB00974203F10C03B7D2009945
:102494004A1C21400331009205EB8101042240468D
:1024A40007F0C8FD0137E9E7404607F0B4FDFFF740
:1024B4001BFF80F00100C6B2AFE7E3685A79B2B1FE
:1024C4001B79BDF8081003EB430259F8211007FAF1
:1024D40002F3052E03EA010323FA02F308BF0326DD
:1024E400B34204D3236841461B6820469847E368F7
:1024F4001C68002CE1D1404607F08DFD204602F017
:10250400C1FED5F818340BB9009B6B60002002F0B3
:10251400C9FECCE7D5F8104474B90F4B5B88012B86
:10252400C5D90E4B0E480F49C01AC008000440F02C
:10253400020000F08FF8BAE7236820469B689847AA
:10254400E3681C68E8E7002667E700BF8C05002005
:1025540014F000009805002090000020ACEE00006C
:10256400DCEE000067F90000040100202DE9F74FBC
:10257400334C81468846164601A9012218461F4657
:10258400D4F808A0FFF786FB002845D0019D00235E
:10259400E81CBB4203EB000248D10021294804F0A7
:1025A40032FA80F3100B284B284A4FEA19469B1A3B
:1025B400B6EBD30F04D3264940F2A31004F08EF9EE
:1025C4006B1C03EA0A0304EB830346EA0B46DE6052
:1025D400D4F80C34AE1C984706EA0A0604EB8606C7
:1025E40005EA0A030333F06014F8232069F3C502F3
:1025F40004F8232034F8232067F3891224F82320D5
:1026040054F8232068F39F2244F8232002F0F802B0
:1026140042F0010204F8232094F820341BB1FFF7A0
:102624006DFE0028FBD103B0BDE8F08F0AEA020278
:1026340004EB820256F82310D1600133A9E700BFEE
:102644008C050020A8090020C4EF0000ACEE0000B7
:10265400C8F4000000231A46FFF788BF07B501231A
:10266400019201AAFFF782FF03B05DF804FB07B5EE
:10267400CDE9002302236A46FFF778FF03B05DF833
:1026840004FB1FB5CDE90123069B039301AA032391
:10269400FFF76CFF05B05DF804FB1FB5CDE900231F
:1026A400069B0293079B03936A460423FFF75EFF8E
:1026B40005B05DF804FB7FB5CDE90123089B0393C6
:1026C400099B04930A9B059301AA0523FFF74EFF78
:1026D40007B05DF804FB00001C4A2DE9F843D2F86A
:1026E4001034074688460024194689B9F9680C71E4
:1026F400A3B9C2F810740B60154B164DED1AED0812
:10270400002603F10709AE420DD12046BDE8F88347
:10271400C9680879A04212D00968E6E7DB681A683C
:102724000A601F60E8E719F83620FB684245314625
:1027340028BF42461879FFF75FFC0136E3E701340E
:102744000A2CD1D14FF0FF34DFE700BF8C05002005
:10275400ACEE0000C4EF0000094A38B50123D2F8FA
:10276400104482F820341D4604B938BDE3685D7115
:10277400236820465B689847E3681C68F4E700BF59
:102784008C05002010B588B00023CDE902330493F2
:10279400CDE900331E4B1F4A05931F4B06929B1A2B
:1027A4009B08079302AA6B4643F2274141F26E004D
:1027B40003F08DFEB0B905A902A803F081FE174B02
:1027C4005B88022B04460AD91548164B1649C01AD1
:1027D400C0080004224640F00300FFF73FFF2046F4
:1027E40008B010BD0A2810D105A902A803F064FEA0
:1027F4000A4B5B88022B0446F1D90948094B0B4963
:10280400C01AC00800042246E5E70324E7E700BF36
:102814006E10273404010020900100209000002055
:10282400DCEE0000ACEE000005F9000036F9000013
:1028340010B58368D3F854339B07044605D50022AA
:102844001146BDE8104006F011BAFFF79BFF30B9FE
:10285400044A08212046BDE8104004F053BF024A50
:102864000221F7E7D3F50000EBF5000000B589B0CD
:102874000023CDE905330793CDE9013305AA01AB64
:1028840043F2274141F26E0003F021FE90B9CDE9F5
:10289400030003A905A803F0C9FD40B90F48104A75
:1028A4000499121A0BF0F7FD05A803F0E3FD09B033
:1028B4005DF804FB0A280FD10A4B5B88012B09D968
:1028C40009480A4B0A49C01AC008000440F0020033
:1028D400FFF7C0FE0520EAE70320E8E70401002033
:1028E4009001002090000020DCEE0000ACEE00001F
:1028F400E0F8000010B58368D3F854339B0704460E
:1029040005D500221146BDE8104006F0AFB9FFF727
:10291400ADFF30B9044A08212046BDE8104004F058
:10292400F1BE024A0221F7E797F50000AFF5000077
:10293400037A052B10B50C460FD0437A23B1084A0D
:102944000849204606F0D0FE0749204606F0CCFE92
:102954002046BDE8104006F0B5BE002AF8D0F3E7E3
:10296400EBFB0000201401009E0F0100F0B5C388AA
:1029740085B004460D4633B1284A00922849294AB5
:10298400284606F0B1FE217A052945D0637A4BB179
:10299400A088FFF71BFB244B244953F8202028462A
:1029A40006F0A2FE224A23681168B3FBF1F1214B21
:1029B4001F68B1FBF7F34FF461664FF47A70B3FB11
:1029C400F6F206FB123607FB13134FF03C0C00FB28
:1029D40003F1B6FBFCF3B1FBF7FE0CFB136607FB3C
:1029E4001E11009641432846B1FBF7F1CDE901E100
:1029F400114906F079FE227A104BA08853F8226020
:102A04000021FFF7C1FA0E4903463246284605B0B5
:102A1400BDE8F04006F068BE05B0F0BDEBFB000079
:102A2400F8FB0000F0FB0000B8FB000020140100DC
:102A34004C0A0020480A002010FC000038FC00006A
:102A44002CFC00002DE9F04385B01F460C9D0023AB
:102A540006460C46904695F80C902B73294638464A
:102A6400FFF784FFB8F1060F09D8DFE808F0041275
:102A7400181F283340003146284606F035FE002250
:102A840029463846FFF754FF85F80C9005B0BDE899
:102A9400F08322683146284606F026FEEFE7D4E9A3
:102AA40000233146284606F01FFEE8E7A36800939A
:102AB4003146D4E90023284606F016FEDFE7E36832
:102AC4000193A36800933146D4E90023284606F015
:102AD4000BFED4E723690293E3680193A368009390
:102AE4003146D4E90023284606F0FEFDC7E76369B2
:102AF400039323690293E3680193A3680093314627
:102B0400D4E90023284606F0EFFDB8E708292DE9AB
:102B1400F84F80460E4617461C463AD8002593F8CF
:102B24000C901D7319461046FFF720FFDFF884A0B0
:102B3400DFF884B0AE422ED918F805205946204655
:102B440006F0D2FD0135082DF4D11849DFF86CB038
:102B5400204606F0C9FD4FF0000A564520D918F862
:102B64000A507E2D03D828460BF003FA00B92E250F
:102B74002A465946204606F0B7FD0AF1010ABAF181
:102B8400080FEAD1012221463846FFF7D1FE84F826
:102B94000C90BDE8F88F5146204606F0A5FDD1E71C
:102BA4000349204606F0A0FDE7E700BFE6FB00006E
:102BB400E4FB0000E2FB0000DCFB0000E8FB00009B
:102BC400084A10B50123084C13600021A04204D820
:102BD40001B11360054B186010BD40085B00012172
:102BE400F4E700BF4C0A002040420F00480A0020CE
:102BF4000C4A136813F0010311D111685360C1F337
:102C0400072118468B4205D105235360BFF34F8F2C
:102C140000207047936010610133D060F2E7062012
:102C2400704700BF90ED00E02DE9F0471B4F1F2ACD
:102C340005468846924699463E682BD9531E03EAB8
:102C440002041FFA89F214430B401C4322D120468C
:102C5400C6F3072602F016FBB44210D0BC603B69F1
:102C6400DB0701D50134F7E7BAFA8AF2C2F11E0292
:102C740049EA420242F00102C7F80C803A6100209E
:102C840002F010FBB44207D2BFF34F8F00202C7028
:102C9400BDE8F0870720FBE70420F9E790ED00E0AA
:102CA4002DE9F041234F244E07F17F0424F07F04E3
:102CB40004F180039E4286B0B84603D81F494320DE
:102CC40003F00CFE1E4B802221460DF11700FFF786
:102CD400ABFF1C4B05465B88D0B9022B14D91A4BA9
:102CE4001A481B49C01A1B4BC008DF1B000404F11F
:102CF4007F03A6EB080600930297019623468022E1
:102D040040F00300FFF7D7FC284606B0BDE8F08189
:102D1400002BF9D007F0A4FC0C4C0B4B0E49E41A21
:102D2400E408240403462A4644F00100FFF79FFC0C
:102D3400EAE700BF00E003200000042090FC00004C
:102D44000000291700010020ACEE0000BCEF0000D9
:102D5400F2FC000080FF032052FD000082B001233A
:102D64008DF807309DF80730114B1860596044F214
:102D7400010188429A6012D044F20201884206D1CD
:102D8400DA60DA6812889A61DA685268DA6172B6CF
:102D94009DF80730002BFBD162B602B070471A6170
:102DA4001A6992685A611A6912689A611A69ECE799
:102DB400500A002000B583B002900091019244F2C1
:102DC400010071466A4600F003F803B000BD00003C
:102DD4002DE9F043064685B00F46154672B6FFF757
:102DE400BBFCFFF78BFA0028FBD1DFF8C88044F264
:102DF40001029642B8F802301DD044F20202964213
:102E04003BD15BB1244B25486A682549C01AC008E8
:102E140000042B8840F00100FFF729FC214B1B68BC
:102E2400DB0700D500BE2A463946304605B0BDE86A
:102E3400F043FFF793BF002BF0D0174BD5F8089061
:102E4400164C4846E41AE40807F00AFC2B6802977B
:102E5400019324046B68009344F0010403464A463A
:102E640011492046FFF727FCB8F80230002BD5D0D3
:102E74000E492046FFF7EEFBD0E7002BCED0064BE1
:102E840006480B49C01AC00800043A4640F0010045
:102E9400FFF7E4FBC2E700BFACEE0000DCEE00008D
:102EA400B2FD0000F0ED00E0CCFD0000F2FD0000FA
:102EB40006FE00009000002040684B6898428CBFDA
:102EC400002001207047000037B505460C46124823
:102ED40001A903F023FDE8B14460057001A90E487F
:102EE40003F046FD044628B10C4802F085FC00209E
:102EF40003B030BD0A4B5B88012B09D909480A4B42
:102F04000A49C01AC008000440F00200FFF7A2FBFF
:102F14002046EDE70420EBE7C4010020D80100209F
:102F240094000020E4EE0000ACEE000087FF0000F7
:102F340038B5C36804461BB91149872003F0CEFC99
:102F4400104B1B7813B90025284638BD237E002B6F
:102F5400F9D0A36803B92376D4E903309847A3686A
:102F6400002BF0D0227E02F0FF05002AEBD062682D
:102F7400054813446360214607F0F4FAE4E700BF10
:102F840023FF0000740A002024FE00002DE9F3470B
:102F94000646A94D02F022FCA84BED1AED082D04BB
:102FA400002840F08E800021304602F01BFC48B31C
:102FB400A34C2368002B00F0AD80304602F017FCD0
:102FC40023685B68C01A20F07F40B0F5960F04D3E5
:102FD4009C494FF4887003F081FC23685B695B882B
:102FE400032B0AD9236898495869984BC01A80085A
:102FF400000440F00400FFF72DFB2068FFF798FF62
:103004000023236001A99248DFF83482914FDFF84E
:103014003C9203F0BDFC45F003050446002C40F04F
:1030240084808C4F894D864C384607F0C7FA0028B7
:1030340000F0EF80D0F8049023685B682268D2B176
:103044002268002A3AD0994538D223681B7E93B16E
:1030540023685B695B88032B09D923687E49586917
:10306400401B8008000440F00400FFF7F3FA2168D5
:10307400384607F077FA384607F090FA80464069F8
:103084004388032B08D9401B800800044A4673492F
:1030940040F00400FFF7E2FAD8F8042070484FF437
:1030A4009603002102F01EFB002840F0998023685B
:1030B40013B9304602F0FAFAC4F8008002B0BDE851
:1030C400F087684B5B88032B04D9674945F00400FB
:1030D400FFF7C0FA5A4A13682BB113685B68126889
:1030E40023F07F4353605B4807F068FA04460028E6
:1030F4003FF459AF6368B3F1807F06D22046FFF7EF
:1031040017FF204607F066FAF0E7636823F07F4371
:103114006360F6E7534B5B88012B7FF673AF53492B
:1031240045F00200FFF796FA6CE72378012B3CD0B8
:103134004BB1022B2FD10024384607F02FFA002878
:103144006FD00476F8E763681A7E22BB01221A76F0
:103154003046D3F804A002F04AFBAAEB0000B0F515
:10316400350F28BF6268616822BF536823F07F432C
:103174005360384607F0F6F9636858694288032AB1
:1031840009D9A0EB0900800800045A68384940F0C6
:103194000400FFF763FA01A92D4803F024FC01A9F8
:1031A4002B4803F0F5FB044638E7D8F80030616893
:1031B400994208BF0023384608BFC8F8003007F01A
:1031C40015FA636858694388032BE4D9A0EB090016
:1031D40080080004274940F00400FFF73BFADAE7CF
:1031E4000D2811D14046FFF7A3FED8F814004388F8
:1031F400032B7FF619AF401B800800041E4940F0E2
:103204000400FFF727FA0EE70E49C22003F066FB1D
:10321400EBE72368002B7FF451AF304602F054FAF9
:103224004CE7164B01221A700E4B5B88022BB2D965
:1032340013492846D1E700BFE4EE0000ACEE0000DD
:10324400D00A002023FF00003DFE0000780000208B
:10325400C401002024FE0000B5FE0000C6FE0000EC
:10326400D80100209400002030FE000049FE000038
:103274007EFE000095FE0000E0FE0000740A0020BF
:10328400A3FE000013B50E4B0E49186801900823E5
:1032940058220D4803F02FFB044668B90B4A0C482A
:1032A40001A902F073F9044630B90121084802F07B
:1032B40091FA084B01221A70204602B010BD00BFDB
:1032C4001EFE0000780A0020C4010020912F000097
:1032D400D8010020740A002070B50C461546064635
:1032E40020B90A4940F2EF1003F0F8FA35B94FF467
:1032F400F870064903F0F2FA072070BD621E3368C5
:1033040054425441DD609C600020F6E723FF000036
:1033140070B50D461646044620B90E4940F2FF101A
:1033240003F0DCFAB5F5350F10D2237E83B926619C
:10333400094802F05CFAA3682844606003B1A56000
:1033440021460020BDE87040FFF7BEBD072070BDD8
:103354000020FCE723FF0000D801002010B504463C
:1033640020B9064940F21A2003F0B8FA0023237664
:1033740021460120BDE81040FFF7A6BD23FF000051
:10338400014802F034BA00BFD8010020024B5B6848
:1033940003B11847704700BFD40A0020024B01460E
:1033A4005A681868104700BF280B00200378052BC3
:1033B4000CD1084AD2F88434D2F8802412F0FF0FDA
:1033C40004D1054ADBB2052B08BF1046034B1B682A
:1033D400184700BF00700240D0000100D40A00204A
:1033E400FFF7E4BF38B50D46044620B9064940F25C
:1033F400431003F073FA6378AB4283BFA07840199B
:103404000019002038BD00BFB9FF000038B50D46D3
:10341400044620B906494FF4887003F05FFA237A12
:10342400AB4283BF093405EB45056019002038BD64
:10343400B9FF000070B50D46044620B90D4940F2AD
:103444000F1003F04BFA636823B90A494FF48870EC
:1034540003F044FA63681B6823B9064940F211106B
:1034640003F03CFA6368294620461B68BDE87040B7
:10347400184700BF6C00010008B520B1044940F2B0
:103484007B2003F02BFA0348BDE80840FFF78EBF0A
:103494006C000100D400010010B5044620B90449B1
:1034A40040F2432003F01AFA2368186810BD00BFE5
:1034B4001800010000F00F0310F0800F10B51CB2CB
:1034C4000AD0082B04D909494FF4CC7003F006FA4A
:1034D400074800EBC40010BD082B04D903494FF47E
:1034E400CF7003F0FBF90348F3E700BF6C00010061
:1034F400E00A0020280B002070B50D460646FFF7B1
:10350400D9FF044605604DB9730604D105494FF44B
:10351400E17003F0E3F90023636070BD6B681B681E
:10352400FAE700BF6C00010001280AD030B102287C
:1035340009D0064940F2622003F0D0B90448FFF7ED
:1035440035BF0448FBE70448F9E700BF6C000100FD
:10355400C4000100C8000100CC00010038B5831E7E
:10356400DBB2062B98BF1A4A1A4C98BFD25C237858
:10357400A3F10203DBB288BF0022062B9ABF1449D1
:10358400CB5C00239342054603D0B2B1124807F046
:10359400E9F8022D14D0A5F10800424242412378F3
:1035A400022B0FD0A3F108014B424B41934202D0AE
:1035B40052B108F0BFFE257038BD07F00FF9E8E7F7
:1035C4000122ECE70123F1E708F0AAFEF3E700BFCC
:1035D400B2FF0000790B0020E00100202DE9F04F3C
:1035E40087B00026054689469246984602966B683F
:1035F40000225C682946012302A8A04740B98DF83F
:103604000600049004460746BE4203D805202AE07B
:103614000136ECE76B680DF10602D3F804B02946D5
:10362400012304A8D8476B680DF10702D3F804B04E
:103634002946012304A8D8479DF807304B459DF837
:10364400063015D1544511D1109A136088F8003012
:1036540088F801906A68023B5468294608F102021E
:1036640004A8A047002007B0BDE8F08F0134E4B2FD
:103674006A68023BD2F804B02946002204A8D8475D
:103684009DF806301F44BFE72DE9F341054607F0D6
:1036940011F820B92E4940F2313003F01FF92D48BA
:1036A40008F082FE0446002836D12B4B18702B4BB1
:1036B40018602B4B0146186048222A480AF014FF70
:1036C4004822214628480AF00FFF284B45BB284AC8
:1036D4001D72C3E90025002007F0A4F830B1852845
:1036E40004D01B4A40F25F31FFF764FBDFF88480AB
:1036F400002421464046FFF789FE651CEDB20746CB
:1037040018BB0B2301A91B488DF80430FFF792FE68
:10371400044608B108F0C0FC204602B0BDE8F081C0
:1037240095E8070083E807000028D4D1104A1A60FE
:10373400D1E741460078FFF7DFFEF1B23846FFF7E4
:1037440051FE01360028F4D1D3E700262C46F4E7D5
:103754006C000100E5330000790B0020700B0020A1
:10376400740B0020E00A0020280B0020D40A00205B
:10377400853B0000AC01010010B508F085FD08B9D7
:10378400082010BD08F088FD04460028F8D106483A
:1037940007F063F80028F4D0044A40F2C231FFF77E
:1037A40009FB2046EDE700BFC00001006C000100EA
:1037B40008F088BC08B508F079FD20B1044940F24E
:1037C400D13003F08BF8BDE8084009F0B3BB00BF6B
:1037D4006C00010008B508F05FFD20B90A494FF4F8
:1037E400767003F07BF84FF08043D3F838249207C7
:1037F40004D50648BDE80840FFF7D8BDD3F83824FF
:10380400D107F2D408BD00BF6C000100D50001004F
:1038140007B5822301A88DF80430FFF7C7FD03B074
:103824005DF804FB2DE9F341044620B93B4940F21D
:103834006A5003F053F8636823B9384940F26B5077
:1038440003F04CF863681B6823B9344940F26C50A8
:1038540003F044F823681B6823B1304940F26D50EB
:1038640003F03CF808F018FD30B12C4940F27150D7
:1038740003F034F8002617E008F006FD0028F9D11B
:10388400F3E70078FFF716FE036808F1010823B197
:10389400112026E04FF000083E465FFA88F12846E2
:1038A400FFF7A0FD0028ECD131462046FFF7AEFD1E
:1038B400771CFFB205460028ECD129462046FFF7C5
:1038C400A5FD6E1CF6B28046D0B9154D134E2B687B
:1038D400CBB92C600B2301A920468DF80430FFF7E7
:1038E400A9FD02B0BDE8F08121460078FFF704FE8F
:1038F400F9B24046FFF776FD01370028F4D1DCE742
:1039040000273546F4E7A34204D1314640F29750EC
:1039140002F0E4FF2B681D68D9E700BF6C000100CA
:10392400700B0020024B1878003018BF012070473C
:10393400780B0020030710B5044604D409F036F8C8
:10394400204609F0C9FB2046BDE8104009F070BBD1
:1039540009F038BB014B1868704700BF700B00209A
:103964002DE9F8430E4B1C6880460F46ACB194F821
:1039740008900026F5B2A94504D82046FFF78CFD2F
:103984000446F3E729462046FFF740FD0378434504
:1039940006F10106EED107B13D702046BDE8F8837B
:1039A400700B00201146FFF745BD00F00F03082BF4
:1039B40010B50C4608D8FFF77DFD006820B12146FC
:1039C400BDE81040FFF736BD102010BD38B5074BD9
:1039D4001C68054604B938BD29462046FFF72AFD70
:1039E4002046FFF759FD0446F4E700BF700B0020A2
:1039F40038B5084B1C6805460CB9062038BD294665
:103A04002046FFF717FD0628F8D12046FFF744FDAE
:103A14000446F1E7700B002038B504460D4608F063
:103A24000EFD48B1054B1B78022B05D129462046D3
:103A3400BDE8384008F010BD082038BD790B0020DF
:103A440038B504460D4608F0FAFC48B1054B1B781E
:103A5400022B05D129462046BDE8384008F082BD36
:103A6400082038BD790B002043689B6870B5054673
:103A74000E4614469BB92B7AB34204D20F4940F246
:103A8400F92002F02BFFB4B931462846FFF7BEFCFB
:103A940046780546E1B2B14205D3002002E09847DA
:103AA4000628E8D070BD2846FFF79CFC0078FFF795
:103AB40041FF0134EEE70720F4E700BF6C0001008A
:103AC4004368DB6870B504460D4603B19847237A12
:103AD400AB4204D20B494FF4467002F0FFFE294674
:103AE4002046FFF793FC467805460024E1B28E4257
:103AF40000D870BD2846FFF775FC007809F062FA1B
:103B04000134F3E76C00010043681B6903B11847F3
:103B140018467047F8B50D4B0D4E1C6804B9F8BD36
:103B2400277A0025E9B28F4204D82046FFF7B4FC77
:103B34000446F3E700222046FFF796FF20B1314602
:103B440040F26A7002F0CAFE0135EBE7700B002008
:103B54006C000100094B70B51C6804B970BD267A6D
:103B64000025E9B28E42204603D8FFF795FC0446AF
:103B7400F3E7FFF7A5FF0135F3E700BF700B002063
:103B840038B58C4B1B68054623B98B4940F2254058
:103B940002F0A4FE01F096FB052804D8864940F201
:103BA4002C4002F09BFE2C78092C20D023D8032C27
:103BB40000F0C08012D8012C00F0AA8040F291805D
:103BC4000320FFF7CBFC0220FFF7E0FB2846FFF7BA
:103BD400FDFE2846BDE83840FFF7E0BB052CF8D0D1
:103BE400C0F0B780062C00F0C380082C13D1204607
:103BF400FFF7CCFB99E0812C14D005D80F2CF6D01C
:103C0400802C4AD00A2CF1E7832C52D027D3842C61
:103C140058D0852CDDD0684940F22650BDE83840A4
:103C240002F05CBE6548FFF7B9FB6448FFF7CEFEBF
:103C34000D20FFF7ABFBFFF78DFF00F0F0FF604BAB
:103C44001B6853B95F4B187A00F0010008F0E4FADE
:103C54000120BDE83840FFF781BC0120F4E7FFF7FD
:103C640079FF09F03DF90020FFF778FC5648FFF78B
:103C7400ADFE5548FFF792FB0E20FFF787FB534B31
:103C84001B78023BDBB2062B3AD8514AD35C002B9B
:103C940036D0BDE8384006F0A1BD4C4B1B78062B4E
:103CA40005D0072B01D0052B2AD10220D1E708200B
:103CB400CFE7464B1B78032B22D109F05DF9F8B10D
:103CC4000420C6E7414B1B78032B05D109F054F9B6
:103CD40010B10420FFF742FC08F0F6FA80B1062088
:103CE400B7E73A4B1B78032B01D0082B02D1394894
:103CF400FFF746FF0020FFF749FB314B1C6804B96E
:103D040038BD20462946FFF795FB23685C68F6E733
:103D1400FFF720FF00F07AFF0220FFF71FFC204688
:103D2400FFF734FB2846FFF739FB2846BDE8384047
:103D3400FFF74CBE254B1B78082B06D10220FFF75A
:103D44000DFC08F001FB0320EAE70520FFF706FC61
:103D5400F9E70320FFF71AFB1F48FFF71FFB1E4874
:103D6400FFF734FE194B1B78062B9ED1072070E712
:103D7400A878FFF79FFB0368044623B90E4940F275
:103D8400025002F0ABFD636823B90B4940F20350C3
:103D940002F0A4FD63682068294698470028AFD044
:103DA400A8780207ACD00307AAD4BDE8384008F0CD
:103DB400BFBD00BF700B00206C000100D6000100E5
:103DC400740B0020D40A0020D7000100790B0020D6
:103DD400B2FF0000D8000100D9000100CA699A426C
:103DE40010B543600CD38C690460086FD21A184470
:103DF4001C440867101C8C61CA6118BF012010BDE7
:103E040001F1280202608B670020F8E7CA69436069
:103E14009A4227BF8A69026001F12802026026BF24
:103E24000B67CB618B6700207047000038B50D46E7
:103E3400044620B906494FF4887002F04FFD237AF6
:103E4400AB4283BF093405EB45056019002038BD3A
:103E5400F800010038B50D46044620B9064940F281
:103E6400431002F03BFD6378AB4283BFA078401956
:103E74000019002038BD00BFF800010008B5012179
:103E8400FFF7D4FF0121FFF7E5FF007808BD00002C
:103E94002DE9F8431746C94A99460B7A13700E4622
:103EA4000546904620B9C64940F20F3002F016FD8F
:103EB4002B68B3F5517F00F0C58200F2CF8040F249
:103EC4002632934200F0348262D840F21632934292
:103ED40000F0F08125D840F21332934200F0CF81F4
:103EE400B3F5457F0AD2002B00F0B38140F21232C1
:103EF400934200F0B98100202860B3E100F0CD8145
:103F040040F215329342F6D100240FB12B793B5580
:103F1400013402234C452B71C0F0CD8140F216339D
:103F24009EE140F21932934200F0DD8114D840F250
:103F34001732934200F0CA81B3F5467FDBD10024E7
:103F44000FB12B793B55013400234C452B71C0F044
:103F5400CB8140F2193383E1B3F5487F00F0DB8174
:103F640040F221329342C6D100240FB12B793B5544
:103F7400944B30461978FFF759FF934B013418607E
:103F84004C4503782B71C0F0D48140F2263367E1AD
:103F940040F23332934200F00982B3F54D7F38D2B8
:103FA400B3F54B7F00F0DF811CD840F227329342F7
:103FB40000F0CA81B3F54A7F9DD100240FB12B795B
:103FC4003B55814B327D1B681B789A4204F10104F6
:103FD40040F0E28102234C452B71C0F0C5814FF4BF
:103FE4004B733DE140F22D32934200F0C88140F220
:103FF4002E3293427FF47FAF00240FB12B793B55CF
:1040040001340023A1452B7100F2F0814FF44F736A
:1040140026E1B3F54F7F00F0E88106D8B3F54D7F74
:1040240000F0D08140F23532E3E740F2423293426D
:1040340000F0F08100F2FA8140F2413293427FF4C1
:104044005AAF00240FB12B793B55013424234C453E
:104054002B71C0F0E08140F2423301E140F256326C
:10406400934200F05A826AD8B3F5537F00F01D8260
:1040740032D840F24932934200F0FE8115D840F222
:104084004532934200F0EB81B3F5527F7FF433AFB6
:1040940000240FB12B793B55013424234C452B715B
:1040A400C0F0EB8140F24933DAE040F24A32934205
:1040B40000F0EE8140F24B3293427FF41CAF0024B7
:1040C4000FB12B793B550134B37D2B714C45C0F0B6
:1040D400ED814FF45373C3E040F25132934200F048
:1040E400038215D840F24F32934200F0EA81B3F5CF
:1040F400547F7FF400AF00240FB12B793B5501347A
:1041040002234C452B71C0F0F08140F25133A7E0FB
:1041140040F25232934200F0F38140F2553293421E
:104124007FF4E9AE00240FB12B793B5501342423ED
:104134004C452B71C0F0F28140F2563390E040F2CE
:104144007232934200F0378242D840F2593293429D
:1041540000F0FC8115D840F25732934200F0E98117
:10416400B3F5567F7FF4C7AE00240FB12B793B55CE
:104174000134B37D2B714C45C0F0E98140F25933D1
:104184006EE040F26D32934200F0088240F26E32EB
:1041940093427FF4B0AE00240FB12B793B550B4B07
:1041A4001978094B1868FFF755FE013403782B7111
:1041B4004C45C0F0018240F2723351E07C0B002088
:1041C4003A0101007B0B0020800B00207D0B0020B6
:1041D40040F28332934200F01382B3F5617F14D22C
:1041E40040F27732934203D0B3F55F7F7FF483AE1E
:1041F40000240FB12B793B5501344023A1452B7189
:1042040000F2FF8140F283332AE040F28932934284
:1042140000F00D8240F28E32934200F00882B3F532
:10422400617F7FF468AE00240FB12B793B55AB4B13
:10423400327D1B681B789A4204F1010440F0ED8141
:10424400336A4C451B782B71C0F0F28140F28933FC
:1042540006E008232B71B9F1000F05D140F21233A7
:104264002B600120BDE8F8830FB12B793B700B2341
:10427400B9F1010F2B710ED840F21333F0E700248B
:104284000FB12B793B550134337D2B714C4505D34C
:104294004FF44573E4E70124F2E700240FB12B79CE
:1042A4003B55013402234C452B71FFF42EAE40F2F2
:1042B4001533D5E700240FB12B793B550134022384
:1042C4004C452B7103D340F21733C9E700240FB1D7
:1042D4002B793B550134737E2B714C45FFF430AE82
:1042E4004FF44673BCE700240FB12B793B557C4B4C
:1042F400002201341A707A4B1A7898F800309A42E6
:1043040002D340F29933ABE70923A1452B7103D8BB
:104314004FF44873A4E700240FB12B793B550134C3
:1043240004234C452B71FFF420AE40F2213397E770
:1043340000240FB12B793B55013400234C452B71DC
:1043440003D340F227338BE700240FB12B793B557D
:10435400624B1B6801345B782B714C45FFF42EAE25
:104364004FF44A737CE700240FB12B793B55013499
:1043740002234C452B7103D340F22D3370E7002404
:104384000FB12B793B550134737E2B714C45FFF4EF
:1043940034AE40F22E3363E7B27D9A421FD10A2332
:1043A4004C452B7103D340F2333359E700240FB14A
:1043B4002B793B55013400234C452B7103D34FF427
:1043C4004D734DE700240FB12B793B550134002385
:1043D4004C452B71FFF411AE40F2353340E74149AF
:1043E40040F2393002F07AFA0BE600240FB12B794F
:1043F4003B553A4B327D1B681B789A4204F1010409
:1044040040F0BC8005234C452B71FFF41BAE40F2F9
:10441400413325E700240FB12B793B5501340023A8
:104424004C452B7103D340F2433319E700240FB1F9
:104434002B793B55013410234C452B7103D34FF496
:1044440051730DE700240FB12B793B550134012042
:104454004C45287104D340F245332B6002E7002415
:104464000FB12B793B55013405234C452B71FFF4D7
:1044740010AE4FF45273F3E600240FB12B793B5581
:10448400013401204C45287103D340F24A33E4E758
:1044940000240FB12B793B55013403234C452B7178
:1044A400FFF40EAE40F24B33DAE600240FB12B7961
:1044B4003B55013404234C452B7103D340F24F3355
:1044C400CEE600240FB12B793B55013424234C450F
:1044D4002B71FFF411AE4FF45473C1E6800B00202E
:1044E4007B0B00203A01010000240FB12B793B55CE
:1044F400013402234C452B7103D340F25233AFE60F
:1045040000240FB12B793B55013405234C452B7105
:10451400FFF409AE40F25533A2E600240FB12B7923
:104524003B55013406234C452B7103D340F25733DA
:1045340096E600240FB12B793B550134337D2B7162
:104544004C45FFF412AE4FF4567389E600240FB1C4
:104554002B793B5501343E4B1B685A783D4B1A70FE
:104564003D4B00221A703C4B1A783A4B1B789A4206
:104574000DD33A4A137801331370BCE6B27D9A42E4
:10458400E9D0374940F2623002F0A8F9E3E70723A3
:10459400A1452B7103D840F26D3361E600240FB1BD
:1045A4002B793B55013405234C452B71FFF4F4ADB5
:1045B40040F26E3354E600240FB12B793B55244B63
:1045C400327D1B681B789A4204F1010407D103234E
:1045D4004C452B71FFF40DAE40F2773340E6B27DCB
:1045E4009A4207D102234C452B71FFF402AE4FF4DB
:1045F4005F7335E61A494FF4607002F06FF9FCE519
:1046040000240FB12B793B55013400234C452B7109
:10461400FFF40AAE4FF4617322E6B27D9A4210D1E0
:1046240000234C452B7103D340F28E3318E600244B
:104634000FB12B793B550134074A137801331370BA
:1046440091E7074940F2923002F048F9F4E700BFDD
:10465400800B00207A0B00207D0B00207B0B0020B8
:104664003A01010010B5044618B906495F2002F06A
:1046740035F923681BB90349602002F02FF920683B
:104684000C3010BD3A0101000149522002F026B954
:104694003A01010070B50D46044608B9FFF7F4FF6E
:1046A400E36923B129462046BDE87040184770BD30
:1046B40010B5044608B9FFF7E7FF2046FFF7D2FF1D
:1046C4000023838283610362C0E91B33C0E91D3385
:1046D40000F12803836610BD10B5044660B908468E
:1046E400FFF7C0FF0378202B08D1811C07220C3070
:1046F40009F0D1FE204610BD0320FCE70620FAE7AE
:104704002DE9F0430E4689B0054620B9A94940F287
:10471400DD2002F0E3F826B9A64940F2DE2002F0DB
:10472400DDF833780E2B21D8DFE803F00B080B0BF0
:104734002010BE202008200B0B0B0B002846FFF78F
:10474400B7FF0024204609B0BDE8F08325B9994994
:104754004FF4E47002F0C2F87278D1094FEA5213B0
:104764003AD013F0030303D0012B25D00624E9E744
:1047740002F01F02012AF9D1B478062CF6D105A85B
:10478400039300F019FD03AB009307460346F27848
:1047940031792846FEF722FF0528D3D0039B3F2B0F
:1047A40003D98449C92002F099F8039A3946701C48
:1047B40000F050FA0446C5E70DB9FFF765FF284637
:1047C400FFF750FFB378212BD0D1B6F80720072A82
:1047D400CCD100F10C01EAE7012BC7D10DB9FFF7E9
:1047E40053FF2846FFF73EFFB378202B074632D00D
:1047F400222BBBD1B6F80730002BB7D1027DB6F817
:104804000330838202F0010203F001039A429CB256
:1048140097D0002C14BF022103212846FFF73AFF4A
:10482400002C8ED101212846FFF700FB2146FFF71B
:1048340011FB007808F03AFA2846FFF71FFB08F04E
:1048440035FA07F12803BC613C62C7E91B44C7E998
:104854001D44BB6676E7B6F80730072B86D10DB941
:10486400FFF712FF2846FFF7FDFEB3780370B6F892
:104874000730DBB2437000240230CDE90503204643
:10488400079400F0FFFC204605A9FFF7C5F804468D
:1048940030B9494B03A9CDE9033500F0C9F9044601
:1048A400002000F0FFFC4DE700212846FFF7BEFA88
:1048B4000021FFF7CFFAB37802789A423FF441AF70
:1048C4001B06F4780AD524B1032C3FF43AAF032431
:1048D40038E701212846FFF7DDFE33E7012C3FF4DA
:1048E40030AF002CF0D10DB9FFF7CEFE2846FFF70C
:1048F400B9FE04462846FFF7C1FA304BE769804603
:10490400CDE90534B7B9236FE766C4E91C73236A9C
:10491400002B64D004F1200292E8030004F1180390
:1049240083E80300276205A94046FFF789F8044697
:104934000021CFE7D4F87890A0694F4528BF4F46AF
:1049440004F128063A46314609F0A5FD236F3B449D
:104954006367A9EB0703E366236A00223E442267E8
:10496400A666002B3BD004F1200999E8030004F16A
:10497400180787E8030016462262E36EA06953B362
:10498400E269A16E9A421BD809F085FDE369E26EE3
:104994006367D21AE266A26E1A44A2660021284610
:1049A400FFF778FE236AD3B199E8030087E8030090
:1049B4002662E2E73A010100DD460000E13D000025
:1049C4001A4609F068FDE26EE36922679B1AE36107
:1049D400A3691344A361A369002BA4D100E0A361DC
:1049E4000024A5E77FB5144606460D46FFF73AFEB8
:1049F400838ADA0713D501213046FFF717FA00211D
:104A0400FFF728FAA30600780CBF0123002301A9AD
:104A1400CDE901540393FEF7FFFF04B070BD0820F5
:104A2400FBE708B5FFF71EFE406F08BD2DE9F34113
:104A3400074690460E4621B91E4940F21F4001F038
:104A44004DFF3846FFF70EFE838ADB0704462ED55A
:104A5400002000F017FCE56EB5B1454528BF45467A
:104A6400A16E2A46304609F016FDE36E65675B1BAE
:104A7400E366A36E2B44A3660024002000F012FC1E
:104A8400204602B0BDE8F081A36973B9C4E90668A1
:104A94003846FFF7F3F9084B6946CDE90034FEF7D1
:104AA400CFFF041E08BF9224E7E71124E5E708249A
:104AB400E6E700BF3A010100113E00000020704704
:104AC40010B5044620B9044940F2432001F006FF22
:104AD4002368186810BD00BF180001002DE9F04FCD
:104AE4004B6885B081460C4693465BB90868FFF76E
:104AF400E7FF38B9A5682DB9C9E90055284605B0BE
:104B0400BDE8F08FBBF1400F04D933494FF4CB70AB
:104B140001F0E4FE07F070FDE76800905F454FF098
:104B2400000A04F1100328BF5F465646012501938D
:104B3400002F2DD0A3686168BB42984628BFB846B1
:104B440051B3009B4246981909F0A5FC0023636009
:104B5400A368E268A3EB0803A2EB0802A360E26087
:104B6400A7EB0807464433B9BAF1000F03D0206815
:104B7400FFF7A6FF2060E368002B2BD0A368002B6F
:104B8400D6D12268B2B9626016B1B34588BF002598
:104B9400009BC9E90036B1E7002BD9D02168009AFF
:104BA4004B680198D3F804A032444346D0474FF0F1
:104BB400010ACDE7029321684B680022D3F80480F0
:104BC40002A80123C04708B92061B1E7A3680133F3
:104BD400A360F0E71D46ABE706020100084B1A7814
:104BE40082420CD0052818BF064A187018BF1378E3
:104BF40005481CBF23F002031370FEF7C1BF7047C2
:104C0400900B0020AC0B0020BC01010008B5002073
:104C1400FEF790FE8020BDE80840FEF78BBE08B585
:104C24000020FEF795FE8020BDE80840FEF790BE08
:104C340038B505460C4607F047FFA84205BFD4E93E
:104C44000001034B1020C3E9000108BF002038BD58
:104C5400B00B00207FB5C38893421D4628BF15467C
:104C640093420E46144620D9802007F0E3FBB4FBA0
:104C7400F0F303FB1040B0FA80F0400903900020E9
:104C8400CDE9016500F0FEFA01A98020FEF7C4FE1B
:104C9400044620B906498020FFF7CAFF04460020D5
:104CA40000F000FB204604B070BD0020E6E700BF22
:104CB400F00101002DE9F04F0C78062C87B0064670
:104CC4000D4600F03F8220D8022C51D003D8012C8D
:104CD4003CD0062453E0032C3CD0052CF9D10DF133
:104CE4000D00AD4D8DF80C4007F084FE00232B60C1
:104CF4009DF80D3003F01F03032B00F2C481DFE89D
:104D040013F042007201B90115010D2C00F0078265
:104D140011D80B2C00F0F8810C2CDAD19F4B1B78A6
:104D2400012B04D09E4940F2514001F0D7FD0020F0
:104D3400FFF754FF1CE00E2C00F0F981852CC8D13C
:104D4400964B1B78032BC4D1042000E00320FFF70B
:104D540045FFBEE7934801F0B3FE30B1924B012208
:104D64001A60BFF36F8FBFF34F8F8C4B1C780CB15D
:104D7400002404E08A4940F2374001F0AFFD2046A8
:104D840007B0BDE8F08F26B9854940F25D3001F0E7
:104D9400A5FD9DF80D30C3F34116002E40F0C680EA
:104DA400DB099DF80E1000F0B280062918D00829FE
:104DB40000F0A080002940F0B9807C4C02222046FB
:104DC40009F092FB237843F001022270784A1278AA
:104DD400910744BF43F003032370022273490FE099
:104DE4009DF81030022B11D0032B75D0012B40F00D
:104DF4009D80BDF81330002B00F0AC806D49122269
:104E04000DF10D00FFF726FF04463BE0BDF813301B
:104E1400002B00F09F80092B28BF09239846FEF73A
:104E240099FDDFF87CA104464FF009097CBB5F4C77
:104E340061494246204609F02EFB2671A4F80290EF
:104E4400FEF770FD18B1E37943F02003E371FEF738
:104E540081FD5A4BC3E90004C3F80880BDF8132050
:104E6400DA60002000F00EFA55498020FEF7E8FDD4
:104E7400044620B953498020FFF7DAFE0446002097
:104E840000F010FA062C51D0002C63D05AE063686D
:104E940023B9514640F2C62001F020FD63685B68E7
:104EA40023B9514640F2C72001F018FD00270197AD
:104EB40063680022D3F804B02146012301A8D8472F
:104EC40040B9237A20461E44FFF7FAFDB944F6B2EE
:104ED4000446ABE70137EBE7BDF81330002B39D0BC
:104EE400BDF811109DF80F0000F098F90146E8B1E3
:104EF400027885E7294A1278052A03D12B4A1370D0
:104F040001226BE7042A11D1284B1E70F8E70139FE
:104F140008290BD8DFE801F02B0A0E0A050A0A0A51
:104F240038001F4940F2813001F0D8FC03A8FEF795
:104F34005FFD9DE0BDF80F30012BF7D1FEF7F2FCC9
:104F440018B90F2407F0BDFD19E7194A137843F087
:104F5400020313702C68002C00F01D8107F0B4FDCF
:104F6400044600287FF404AF07F06AFD07E7BDF8A4
:104F74000F30012BDAD1FEF7D5FC0028E1D00C4A22
:104F8400137823F00203E4E7044B1B78043B012B62
:104F94001AD90824D6E700BFB00B0020900B0020DC
:104FA40006020100B80B00205C700240BC0B00201C
:104FB400AC0B0020DC010100BD010100940B0020BA
:104FC40060020100F00101009DF80F302BB9FEF7DB
:104FD400C1FD0420FFF702FEBCE7012B41D1FEF71F
:104FE40099FD0520F6E701A99DF81100FEF7B8FC2C
:104FF400074608B91024A5E703AA9DF80410FEF794
:10500400D1FC062804467FF43FAF9DF80D2012F032
:10501400600F97D1624B9DF8041018789DF80E30FC
:10502400D60915D073B10A2B8CD10528B1D13846D5
:10503400FEF76AFD5B49324608700DF10D00FFF77B
:1050440009FE15E00528A4D156490B800222F4E795
:105054000B2B7FF477AF05289BD1BDF80F30FF2BC6
:1050640001D907246EE79DF80F203846FEF7FCFCB3
:10507400044609E79DF81100020706D19DF80D309A
:1050840013F0600F09D006245CE703A9FEF78DFC3A
:10509400062804467FF4F8AEF0E79DF80E20404B56
:1050A4009DF811401B78012A1CD082B1032AEAD151
:1050B4002707E8D4BDF80F20002AE4D1052B02D03D
:1050C40026077FF466AF204607F032FC42E7052B43
:1050D40002D023077FF45DAF204607F047FC314937
:1050E4000880B3E72007CED4BDF80F20002ACAD128
:1050F400052B02D021077FF44CAF204607F056FC65
:10510400204607F0E9FF25E7254B1B78002B3FF4E9
:105114002FAE254940F24B4001F0E0FB28E64FF06A
:105124008043D3F83834DA070AD5022000E61C4B52
:105134001B78012B04D81C4940F2654001F0CEFBDA
:105144000120F5E5CB78032B3FF419AE8B785B0691
:1051540004D0154940F2744001F0C0FB134E33688B
:10516400E3B1002232607168E87898470446002869
:105174007FF4E8AE336823B1AB78002B7FF4F8AD4D
:10518400F2E60B4B1B68082B7FF4F2AD094B1B684E
:10519400002B3FF4EDAD07F091FCF0E50E24D1E6D1
:1051A400900B0020BC0B002006020100B00B002075
:1051B400300100103401001008B14023036001489D
:1051C400704700BFBC0B0020F8B5124B53F82050B9
:1051D4002B7813B9AE1C3046F8BD0020FFF7ECFF66
:1051E4000D4F0646013D002315F8012F5C1C2AB91A
:1051F4006400E4B244F440743480ECE71E2B03D919
:105204003946E62001F06AFBE3B22A7826F8132037
:10521400EAE700BF20030100C002010008B9FFF75C
:10522400D3BF052807D8054A105C20B1044B53F8B6
:105234002030002BF3D10020704700BF3803010059
:105244002003010072B6024A1368013313607047E9
:10525400FC0B0020034A1368013B136003B962B6D8
:10526400704700BFFC0B0020EFF30583C3F3080372
:105274002BB9EFF31480C04300F001007047012004
:105284007047000008B5FFF7EFFF012803D0044979
:10529400432001F023FBBDE80840FFF7D3BF00BF64
:1052A4003E03010008B5FFF7DFFF012803D00449DE
:1052B400512001F013FBBDE80840FFF7CBBF00BF4E
:1052C4003E030100EFF30583C3F308038BB1103BE6
:1052D4005AB2002AADBF02F1604303F00F03064A3D
:1052E40003F56143B4BFD05C93F800034009C0B236
:1052F40070470F20704700BF14ED00E08368D3F8B7
:1053040054339B0703D50022114603F0AFBCBFF30F
:105314004F8F0549054BCA6802F4E0621343CB6022
:10532400BFF34F8F00BFFDE700ED00E00400FA0576
:1053340070B58368D3F85443C4F3400415462CB1C4
:1053440000221146BDE8704003F090BC0139274BA0
:1053540001295B8819D051B102292AD0012B43D9E4
:105364002348244B2449C01AC008000407E0012B39
:105374003AD91F481F4B2149C01AC008000440F005
:105384000200BDE87040FDF765B9012B2CD9214618
:105394000A22686809F029F8164A154B18499B1A1D
:1053A400DB081B040246BDE8704043F00200FDF731
:1053B40055B9012B18D921460A22686809F015F855
:1053C400214606460A22A868094C09F00EF8094B42
:1053D4000C49E41AE40824040346324644F002006B
:1053E400BDE87040FDF743B970BD00BF90000020D8
:1053F400DCEE0000ACEE0000E50401009B040100BB
:10540400B0040100C904010070B58368D3F85443A3
:10541400C4F3400415462CB100221146BDE8704087
:1054240003F024BC0139264B01295B8819D051B102
:10543400022929D0002B41D02248234B2349C01AEA
:10544400C008000407E0002B38D01E481E4B20493A
:10545400C01AC008000440F00100BDE87040FDF728
:10546400F9B85BB321460A22686808F0BEFF164A01
:10547400144B18499B1ADB081B040246BDE8704014
:1054840043F00100FDF7EAB8C3B121460A22686877
:1054940008F0ABFF214606460A22A868094C08F02A
:1054A400A4FF094B0C49E41AE408240403463246D9
:1054B40044F00100BDE87040FDF7D9B870BD00BFED
:1054C40090000020DCEE0000ACEE00006D04010052
:1054D400290401003C040100530401001FB5836842
:1054E400D3F854339B0706D50022114605B05DF866
:1054F40004EB03F0BBBB064B064A0093D21ACDE97A
:1055040001220821044A02F0FDF805B05DF804FB0D
:1055140000100000183701009B0301008368D3F8D2
:1055240054339B0703D50022114603F09FBB024A64
:1055340045210320FDF73EBCD003010070B50C46A5
:105544001646054618B90549DF2001F0C7F92B684E
:10555400C3F844430EB1C3F8044370BD55070100BA
:1055640037B50C46054618B90749F02001F0B6F9DD
:105574002B68185928B100221A511B590193019B19
:10558400012003B030BD00BF550701002DE9F843E9
:105594000E461446054618B93849552001F09EF9BF
:1055A4001EB93649562001F099F91CB933495720E0
:1055B40001F094F96B79324A324F42F8234007EBF9
:1055C400C303DFF8E4801B7983B1B8F80230012B00
:1055D40009D92D482D4B2E49C01AC008000440F0AB
:1055E4000200FDF737F80820BDE8F8833488D5F8C1
:1055F4000090B4F5805F04D326494FF4BA7001F0EB
:105604006DF9C9F80845B67895F90440072E03D911
:1056140021496B2001F062F9002CB8BF1F4B2049CF
:10562400ACBF04F1604404F00F044FEA4616F6B22E
:10563400AABF04F561441E5584F8006395F904304B
:105644000122580903F01F0302FA03F341F8203042
:105654006B7907EBC30147F83350B8F802300A718D
:10566400022B09D90848094B0E49C01AC008000486
:1056740040F00300FCF7EEFF0020B5E755070100FA
:10568400080C0020000C0020E4EE0000ACEE00004A
:105694005606010078060100A506010014ED00E09D
:1056A40000E100E0D40601009400002010B5044697
:1056B40018B90449872001F011F9236801221A60FE
:1056C40010BD00BF5507010010B5044618B90449C0
:1056D4008D2001F003F9236801225A6010BD00BF38
:1056E400550701002DE9F341884614461E46074636
:1056F40018B93149AC2001F0F1F808F150029200D8
:105704003B6892B24FF4803505FA08F50021C3F8DE
:105714000853C3F84853995003EB88089A580192E8
:1057240024F07F44019AD8F84025C8F84045D3F8BE
:105734000435D31A23F07F43012B13D11F4B5B880D
:10574400032B09D91E481F4B1F49C01AC008000467
:1057540040F00400FCF77EFF1C4B4FF4046043F060
:10576400010398473968C1F84453D1F80435E01A65
:1057740020F07F4226F07F46000248BF42F07F427D
:105784007642964212DA022A10DC0C4A5288032A24
:105794000AD90C4A0A480E49801AC0080004224655
:1057A40040F00400FCF763FF0D2002E0C1F804534D
:1057B400002002B0BDE8F0815507010094000020EC
:1057C400E4EE0000ACEE0000E60601005006010025
:1057D400170701000A460221FFF7B0BE4FF4827199
:1057E400FFF7BEBE5031890089B2FFF7B9BE036826
:1057F400D3F804057047000090F9043001215A09D8
:1058040003F01F0301FA03F34032024941F8223046
:10581400704700BF00E100E0024B034A1B681068B8
:10582400184700BF080C0020000C002070B5064D7E
:105834000646002455F8043B0BB130469847013422
:10584400042CF7D170BD00BF180C0020033080B2C7
:1058540040F2FD33984230B51FD8124B1A783AB94A
:105864001C895D892C440444A4B2B4F5806F0AD326
:105874001A7DA2B99A8BDC8B2244024492B2B2F50F
:10588400806F0CD201220A801446142202FB0433D6
:105894005A8910445881002030BD0920FCE70720B4
:1058A400FAE700BF4C0C00200B4A0C4B5188142023
:1058B40000FB0131CB6833B9042049681070012220
:1058C400074804F001BA05230649137002238B80AC
:1058D400012200230968F3E7300C00204C0C00205F
:1058E40064000020040D002007B50023054900933F
:1058F400054A09680548082304F026F903B05DF851
:1059040004FB00BF040D0020C40701006400002054
:1059140007B50023009301460823034A034804F013
:1059240013F903B05DF804FBBC0701006400002018
:1059340013B500230C46009301460423074A084884
:1059440004F002F938B9074B142202FB0434012392
:10595400237402B010BD0E20FBE700BFB80701009E
:10596400640000204C0C002037B50A480A4B4268FA
:105974009C88196853880325033305709BB2002063
:1059840000909B0001EB8401044804F0DDF803B0AF
:1059940030BD00BF300C0020040D00206400002046
:1059A40010B50146044800F0B9FF1C22044600214A
:1059B40008F09AFD204610BDE801002068B1026895
:1059C400084B9A4209D14068074B984207D00133EB
:1059D40098420CBF01200320704703207047002029
:1059E400704700BFDEC0ADDEFE011EF14388033305
:1059F40000EB8303994209D382884FF6FF739A42DE
:105A040006D00088B0FA80F0400970470220704741
:105A1400012070472DE9F8430223DFF860800B80F2
:105A24000D46174600F5805600F108044FF00109B1
:105A3400B4420FD2236801330CD031462046FFF71D
:105A4400D5FF48B10FB187F8009002280BD14FF46D
:105A540080632B80BDE8F883A368D8F800209342C4
:105A640001D9C8F800302B886288033313442B8093
:105A74006388033304EB8304DAE700BF440C00209B
:105A8400154A142303FB002070B50B6844680D46C7
:105A940004F58056ABB15C88033403EB8404B44250
:105AA4000DD2236801330AD031462046FFF79EFF0A
:105AB40001280BD010F0FF0F05D00228EFD10020F1
:105AC40003E00834EBE72C60012070BD63880333E6
:105AD40004EB8304E3E700BF4C0C0020436873B578
:105AE40004460D466BB3244AD1688B4229D312690C
:105AF400934226D813F0030223D12049008909894F
:105B040088421ED12068996888421AD11C49486885
:105B1400834203D900F5805083420ED38A699342AD
:105B24000DD902F58052934209D201232B80002023
:105B3400B0FA80F0400902B070BD1346F6E70A20BF
:105B4400F6E700232B801E46019601A92888FFF75B
:105B540097FF30B92B8801339BB2012B2B80F3D9EB
:105B6400E9E7019B226899689142EED16360034B97
:105B74001B892381DFE700BF64000020300C002074
:105B84004C0C00202DE9F8431C461C4B1B780646A0
:105B94000F4615466BB372B36CB3DFF868804FF0F1
:105BA4001409A388012B01D90A2020E009FB03F37F
:105BB40018F803302BB92146A088FFF761FF20B9FC
:105BC4002060A3880133A380EBE723681EB1998882
:105BD40032889142EFD11FB119883A889142EAD1B3
:105BE4009A68C5E90023064B1B892B810020BDE878
:105BF400F8830220FBE70520F9E700BF280C00200A
:105C0400300C00204C0C002008B5074B191D588897
:105C1400FFF736FF18B1BDE80840FFF7A5BEBDE8A1
:105C24000840FFF741BE00BF300C00202DE9F04FC3
:105C3400A34FDFF8B49289B00646B8463B6853B91F
:105C44004946A04800F0A4FE386020B99E4940F2BD
:105C5400825000F043FED8F8005029784B1E052BE3
:105C640000F2FA80DFE813F006005E005E00EE004A
:105C7400EE005E0126B1954B00225A600124ECE04F
:105C84002B79032B1DD8DFE803F015022A35904940
:105C94000B78022B084619D00B7D022B4FF0010321
:105CA40016D114225343C2180020C8545068FFF779
:105CB4002FFE03E001232B71FFF716FE002800F0EE
:105CC400BC80824B00225A600E24C6E00023E8E721
:105CD4007E4A13700023536041F61D54BDE07D4994
:105CE4007D48002302222B718A800122096803F077
:105CF400EBFFE3E7774C00262E712068744DFFF725
:105D040007FE764BD4F800C05A8814235343EA188C
:105D1400EE5451682160A188C2F804C011810222A6
:105D2400A280CBE7B5F814A0AA7DDFF8A4B1AEB188
:105D3400022AEB8806D9142101FB0AB1DA1C08896E
:105D440002440A81142202FB0ABAC3F57F43BAF85B
:105D54000A20FD331344AAF80A308FE7142303FB07
:105D64000AB318895C6804EB8004062A68D8DFE863
:105D740002F0274D35431D59040041F61D54AA7DF8
:105D8400EB88022A06D9142101FB0AB1DA1C08891E
:105D940002440A81142202FB0ABAC3F57F43BAF80B
:105DA4000A20FD331344AAF80A3056E04C484D4902
:105DB40000234360AB690360FFF790FE002871D0B5
:105DC4000223AB75002300930423EA1821464248BA
:105DD40003F0BAFE002830D00E24D0E72B69002B44
:105DE40014BF03230123AB750023009305F10C02B8
:105DF400042304F10801EAE70123AB750022EB88D0
:105E040000929B002A6904F10C01E0E703290CBF0E
:105E140005230623AB7500230093042305F1080230
:105E2400E118D4E70623AB752E4B19882C4B586820
:105E3400FFF77EFD04460028A1D109B0BDE8F08F2C
:105E44000F249CE7002E7FF419AF2B79012B4DD042
:105E5400E3B1022B3FF440AF0F241422002103A826
:105E640008F042FB41F61D539C4208BF0024D8F8B9
:105E7400003004941A78023A042A00F20781DFE819
:105E840012F0E800F400200128012F0102232B71F5
:105E94000DF10A01EB68039303A8CDE90466FFF74B
:105EA4001DFE08B90A24D8E70498BDF80A108388AF
:105EB400EB8003882B81FFF73BFD044629E000BFFC
:105EC400480C0020E8010020CC070100280C002029
:105ED4004C0C0020040D002064000020300C002035
:105EE4000C0C00200C0D0020400C0020DFF810A248
:105EF40003AA53463146A81DFFF744FE044658B989
:105F0400BAF804100498FFF713FD04460A2C3FF472
:105F1400E3AE002CA1D190E708223146504608F0A8
:105F2400E3FAF3E7002E7FF4A9AE6F4B1A7BAAB114
:105F34001E731A78013A062A8ED801A151F822F06C
:105F4400EB5F0000116000002F600000356000006E
:105F54005D5E00003B6000004D6000001A78072A77
:105F6400E7D801A151F822F08D5F0000375F0000EF
:105F7400375F0000B35F0000C75F0000E75F000009
:105F8400E75F0000AF5F00001A89584901321A81A7
:105F940000225A801A730A78B2FA82F252099A726B
:105FA4000A7DB2FA82F25209DA72012207E05049FC
:105FB40058688A884088033202448A8002221A7010
:105FC400B7E74A4C5A884A49142505FB0242086837
:105FD400546850608888108102228A800C600622EE
:105FE400EDE70722EBE79A7A32B9DA7A8AB9002226
:105FF4001A705A805A606FE63C4900229A72CA6845
:10600400002AF2D1097C0029EFD05A80FFF7FCFD69
:1060140053E70022DA72354A116A0029E7D192F86F
:106024002420002AE3D00122EFE7FFF79DFC44E798
:10603400FFF73AFC41E72D4A5B88142101FB032357
:106044005868FFF765FC38E700225A60FFF74CFCFC
:1060540033E701228DF80C201A89ADF818209A88AC
:10606400DB68ADF81A20059310E002228DF80C20AD
:106074001A89ADF818209A88ADF81A20DA689B7D41
:1060840005929A1F534253418DF81C3003A8FFF721
:10609400CDFB002349461748C8F8003000F0A3FCA4
:1060A400154B1B6823B9154940F27A2000F016FC01
:1060B4000121114800F0F3FC00283FF4BEAE002695
:1060C400BCE503228DF80C20DA88ADF818201A8973
:1060D400C6E70422DB888DF80C20ADF81830D5E72C
:1060E40005238DF80C30D1E7300C00204C0C002037
:1060F400040D0020E8010020000D0020CC07010061
:10610400100D00204068FFF791BD000008B5012183
:10611400044800F0AEFC18B9BDE80840FFF786BD9E
:1061240008BD00BF000D00202DE9F3419846354B12
:106134001B7806460D46002B5BD000295BD00988EE
:106144004FF6FF73994258D06B88002B55D06B687B
:106154009B0754D14AB92F890DF102013846FFF744
:1061640075FB30B102B0BDE8F08113885788ADF8F3
:10617400023001A8FFF714FC044658B9BDF80230F8
:10618400214A142101FB032358890338C01B588179
:106194000820E7E700238375BDF8023083826B682B
:1061A400036180F800800121184800F06DFC2B8801
:1061B4002381B8F1030F6B88A38004BF0423A37564
:1061C4004FF0000508BF3368E06008BFA361E780B3
:1061D400658101A90E4800F0CBFB36B1E36833605A
:1061E4000C4B75601B89B5723381FFF78FFF00205C
:1061F400B8E70220B6E70520B4E70420B2E703209D
:10620400B0E700BF280C00204C0C0020440C0020F8
:10621400E8010020300C00202DE9F04F14228BB04F
:1062240000210DEB020008F05FF9764A137803F0C1
:10623400FF01CDE901123BB105A8FFF7F7FA0027EA
:1062440038460BB0BDE8F08F029B181D00F032FCFD
:106254000028F4D140F6F8734FF080521B685C1CA0
:1062640008BF694B694C08BF1B6811695269581C07
:1062740008BF02FB01F323610022A3F540536449E4
:10628400E360204603F024FC039407460028D7D19A
:106294001C238C225F496048DFF88891DFF88881ED
:1062A40000F029FB3D46BA464FF0030B3C46039BE6
:1062B400DE68564430463146FFF780FB01284DD056
:1062C40042B2002A36D0032822D106F5805208684B
:1062D400013040F08A8004318A42F8D1D9F8002094
:1062E4003AB902220123C9F80060A9F804200193F5
:1062F4000CE014226243022008EB020108F80200B9
:10630400464A4E60548001340881A4B245F0010528
:106314000AF5805ABAF5405FC9D1BBF1010F98BFA5
:106324000025EDB2022D03D0062D35D0002D3CD131
:106334000B2785E71421614308EB010008F80120CD
:1063440001F1100208314660424441443046FFF7EF
:1063540061FB45F002050134A4B2D9E7019B63B1A6
:106364001422624308EB0201022008F802000134FF
:10637400D9F800204A600881A4B200222849C9F84B
:1063840000603046FFF746FBB9F80420022A0CBF30
:10639400042208221543BBE7029A0123137005A8BF
:1063A40000235360FFF742FA4AE704A8FFF7F8FA1C
:1063B400C8B10123013D03700A2D09D8DFE805F0B7
:1063C40006080608070807080F110F0000230371C9
:1063D40004A9114800F0CCFAFFF798FE30E7032334
:1063E400F5E70223F3E708272AE70BF1FF321FFA48
:1063F40082FB1422624308EB02014E60032108F879
:106404000210A8E7280C00201410001064000020DB
:10641400841A0100740C0020E8010020300C0020D4
:10642400080D0020040D00204C0C002073B50D460F
:106434000446C8B1C1B10DF10601FFF74FFBA8B185
:106444000B4BBDF806006668142202FB00300121E4
:106454000C3000F019FB63682E600C336B60012371
:10646400A372002002B070BD0520FBE70A20F9E703
:106474004C0C002013B50446A8B10DF10601FFF73A
:106484002DFB90B10B4ABDF80630142101FB032308
:10649400DA6862B1A27A52B1DA680020013ADA60AD
:1064A400A07202B010BD0520FBE70A20F9E7062020
:1064B400F7E700BF4C0C002002230022FFF734BE94
:1064C40018B103230022FFF72FBE0520704707B53C
:1064D400ADF80600ADF804100DF1060001A9FFF7B0
:1064E40051FB03B05DF804FB0B0710B5044607D558
:1064F40007F008FD20B12046BDE8104007F03EBD7E
:10650400204610BD2DE9F04F87B08A461546029308
:10651400064618B9012007B0BDE8F08F0029F9D06C
:10652400029B002B00F0118102F004030C4604933B
:10653400B046294618F8010BFFF7D6FFC7B23F2F24
:1065440022D00ADCCFB12A2F36D0294614F8010B09
:10655400FFF7CAFF87421FD0DCE75B2F7CD05C2F9C
:10656400F3D1EB07F1D429467078FFF7BDFFC7B22A
:10657400002FEAD006F10208E7E7E906207838D5CB
:106584002F2836D10020C6E72378002BC2D02F2B2A
:1065940004D1AA07BED401344646C9E72E2BFAD14A
:1065A400049B002BF7D05445B4D0AB07F3D514F8B3
:1065B400013C2F2BEFD1ADE770782946FFF794FF0C
:1065C400C1B22A2919D023782E2B09D1049B3BB1BF
:1065D40054459FD0AF0703D514F8013C2F2B99D015
:1065E40079B9AE07CED5ED06CCD42F21204607F0DD
:1065F4009BFE003018BF01208DE7294618F8010FD3
:10660400DCE72F2901D1A8071FD4029B25F0040938
:106614005F1E05F0020AA34629469BF80000FFF717
:1066240063FFC6B20134002E3FF474AF3B464A46C2
:1066340059464046FFF766FF01287FF46CAF2F2EC2
:10664400E9D1BAF1000FE6D064E7204607F06CFE0A
:1066540004460028A0D15DE7207800283FF45AAF13
:106664002F2802D1A9073FF555AF2946FFF73CFF74
:106674008346B8F1000F3FF44DAF7378212B01D05E
:106684005E2B25D1023601230122019305EA020380
:106694004FF0000903933746294617F8010B05927A
:1066A400FFF722FFC3B25D2B059A14D112BB019BE5
:1066B4004B453FF42FAF002F3FF42CAF7A1C04D18D
:1066C40023785B2B7FF426AF47460134B84663E753
:1066D40046460023D8E72F2BF2D05C2B07D1039A30
:1066E40042B929467078FFF7FFFEB71CC3B2002BEE
:1066F4003FF410AF3A782D2A21D1294678780593B2
:10670400FFF7F2FEC0B2059BC8B15D2817D05C2824
:1067140007F102060BD1039A4AB92946B878FFF764
:10672400E3FEC0B200283FF4F5AE059BFE1C9B457A
:1067340003DB8345D8BF4FF001090022ABE73E4697
:106744009B4508BF4FF00109F7E70320E3E6402328
:10675400FFF7D8BE1EF0040F1CBFEFF309800AE058
:10676400EFF308800549064A884201D8904202D8CE
:106774008D464FF00000034B184700000000042032
:1067840000E00320B1670000BFF34F8F0549064BBB
:10679400CA6802F4E0621343CB60BFF34F8F00BFBB
:1067A400FDE700BF00ED00E00400FA052DE9F74F16
:1067B4000646FBF7D1FFFBF7A1FD0028FBD1394CBE
:1067C400394A3A4B3A4D9F6A6B88A41AE408240468
:1067D40044F00104002E5ED0D3B1B269354920469D
:1067E400FBF73CFF6B889BB1F3680193B36800939C
:1067F4003149D6E900232046FBF74FFF6B883BB1B4
:10680400F36900932D49D6E904232046FBF739FFA9
:10681400264BDB6A980705D56B881BB128492046AF
:10682400FBF718FFDFF8ACA0DFF8ACB04FF00008BE
:106834004FF0010909FA08F33B4208D05AF828201E
:106844002AB16B881BB159462046FBF707FF08F1B4
:106854000108B8F11A0FEDD1390607D56B882BB1B1
:10686400124B18495A6B2046FBF7F8FE3A0407D539
:106874006B882BB10D4B14499A6B2046FBF7EEFE47
:10688400124B1B68DB0700D500BE3046FFF77CFFC8
:1068940003B0BDE8F08F002BBAD00D492046FBF7BA
:1068A400D9FEB5E76CEF0000ACEE000000ED00E0AF
:1068B400D8000020290801003E08010073080100E7
:1068C400CE0801001D0901003D090100F0ED00E0C2
:1068D4009B080100580901001209010007B5ADF831
:1068E400000001916A46002144F20200FCF770FAAC
:1068F40003B05DF804FB10B561B1B2FBF3F403FB24
:106904001424A4B244B9C0E9001484608281C38110
:10691400204610BD0E20FCE70920FAE737B550E801
:10692400013F9DB2C48925448489A54228BF2D1BFB
:106934000489A54202BFBFF32F8F002207E0C5EAF6
:10694400030540E80154002CE9D14FF001028DF811
:1069540003200193019B9DF803200B6002F0FF03C9
:1069640022B10B880068184403B030BD1846FBE719
:106974000A884B889A4209D150E8012FC2EA0242A0
:1069840040E80123002BF7D1012070470020704715
:1069940037B550E8023F1FFAA3F5C488A54202BFE9
:1069A400BFF32F8F00220DE0C48925448489A542BA
:1069B40028BF2D1BC3EA054540E80254002CE8D14A
:1069C4004FF001028DF803200193019B9DF80320F1
:1069D4000B6002F0FF0322B14B880068184403B037
:1069E40030BD1846FBE70A884B889A4209D150E823
:1069F400022FC2EA224240E80223002BF7D10120F1
:106A040070470020704750E8002F0B4640E8003CD8
:106A14009CF0000FF7D11046704750E8002F42EA6F
:106A2400010340E8003C9CF0000FF6D1104670478B
:106A340050E8003F43EA010240E8002C9CF0000FBC
:106A4400F6D11046704750E8002F02EA010340E8EF
:106A5400003C9CF0000FF6D11046704750E8003F10
:106A640003EA010240E8002C9CF0000FF6D1104626
:106A7400704750E8002F02EB010340E8003C9CF013
:106A8400000FF6D11046704750E8003F03EB0102B7
:106A940040E8002C9CF0000FF6D11046704750E8F7
:106AA400003FA3EB010240E8002C9CF0000FF6D15C
:106AB400104670470121FFF7B0BF0121FFF7B8BFAF
:106AC4000021FFF7C0BF0021FFF7C8BF2DE9F04741
:106AD4008368D3F85443C4F3400488B0074634B100
