:020000022000DC
:1060000000000420756302005D6302005F6302000C
:106010006163020063630200656302000000000028
:1060200000000000000000000000000067630200A4
:1060300069630200000000006B6302006D630200F0
:10604000658202006F6302001D8702006F63020019
:106050006F6302006F630200718502006F630200CC
:106060006F6302006F6302006F6302006F630200E0
:106070006F6302006F6302006F6302006F630200D0
:106080006F630200397102006F6302006F630200E8
:10609000D57102006F630200A1A502006F630200C8
:1060A0006F6302006F6302006F6302006F630200A0
:1060B0006F6302006F630200000000000000000038
:1060C0006F6302006F6302006F6302006F63020080
:1060D0006F6302006F6302006F6302006F63020070
:1060E0006F6302006F6302006F6302000000000034
:1060F000000000006F630200000000006F630200F8
:10610000000000000000000000000000000000008F
:10611000000000000000000000000000000000007F
:10612000000000000000000000000000000000006F
:10613000000000000000000000000000000000005F
:10614000000000000000000000000000000000004F
:10615000000000000000000000000000000000003F
:10616000000000000000000000000000000000002F
:10617000000000000000000000000000000000001F
:10618000000000000000000000000000000000000F
:1061900000000000000000000000000000000000FF
:1061A00000000000000000000000000000000000EF
:1061B00000000000000000000000000000000000DF
:1061C00000000000000000000000000000000000CF
:1061D00000000000000000000000000000000000BF
:1061E00000000000000000000000000000000000AF
:1061F000000000000000000000000000000000009F
:10620000354936480A1A02D0072291438D4634494F
:1062100034480A1A06D00722914381F309880222E2
:1062200082F3148830483149314A00F044F831484B
:106230003149324A00F03FF831483249324A00F0E1
:106240003AF832483249334A00F035F83248334997
:10625000334A00F030F833483349344A00F02BF821
:1062600033483449344A00F026F83448344900228F
:1062700000F02CF833483449002200F027F8334866
:106280003349091A082902DB002202604160314AC1
:1062900090471F481F49884205D00268043003B464
:1062A000904703BCF7E700208646EC46002000211B
:1062B000294A9047FEE7884207D0521A05D0037852
:1062C00001300B700131013AF9D17047884202D098
:1062D00002700130FAE770470000042000E003205C
:1062E00000000420000004201CBA0200701D0020E1
:1062F00078200020D4630200D4630200CAAA0200FE
:106300001CBA0200701D0020701D0020C0AB0200EE
:10631000C0AB0200C0AB0200C0AB0200C0AB0200C9
:10632000C0AB0200C0AB0200C0AB02001CBA02004E
:1063300024BD020078200020782000207820002052
:10634000A42D0020A42D0020A42D0020A42D002089
:10635000A42D00209D6302005D930200FEE7FEE78E
:10636000FEE7FEE7FEE7FEE7FEE7FEE7FEE7FEE705
:10637000704700BF1048804710484FF0070188431E
:1063800085460F4880470F48016841F4700101605D
:10639000BFF34F8FBFF36F8FFFF732BF0A480B4930
:1063A0000B4A884207D0521A05D0037801300B708F
:1063B0000131013AF9D170477163020000000420F5
:1063C000B17D020088ED00E0C0AB0200701D00202E
:0463D000701D00201C
:1063D400F0B595B01C46164608460D4601F028FC5B
:1063E4001A9B0D93CDE9086400242346082205A9CD
:1063F40028460A948DF82C400C9401F036FC079B37
:106404000293069B03939DF814308DF8114003F01A
:106414000302012A1DD1BDF81440059EC3F3C20333
:10642400C4F383148DF81030A20008230EA9284663
:1064340001F01BFCC6F3952608AB0093224602AB81
:106444000EA9304600F0D6FB284601F0F5FB15B046
:10645400F0BD022AF8D1BDF81640C3F3C203A40963
:106464008DF810300827082C264628BF08263B46FE
:1064740032460EA9284601F0F8FBA41B08AB02AA79
:1064840031460EA8374400F019FC002CEBD1DBE7B1
:10649400014B01221A707047B92000207047000098
:1064A40070B50E4D06460FCD88B06C460FC495E806
:1064B4000F00002E84E80F004FF00603084A094835
:1064C400009308BF0022694601F062FE08B100F0A3
:1064D40083FD054B1E7008B070BD00BFC0AB020049
:1064E40095640200701D00207820002007B5044B3D
:1064F4000093044A4023FFF76BFF03B05DF804FBED
:106504000D6502007920002038B50D4B0D4D00209B
:1065140018700D4804782D5DD2B21C4665B1043064
:1065240002F05CFD08B100F057FD084B1A7812B177
:106534002378002BFBD038BD0C3002F037FBF1E799
:10654400B9200020E8270020701D002078200020BA
:1065540008B50848084A0378D35C3BB1043002F01C
:10656400E7FC0020BDE80840FFF79ABF0C3002F0BA
:10657400C7FAF6E7701D0020E82700200120FFF786
:106584008FBF000008B5FFF7F9FF0421034800F0AE
:106594009FFA034B01225A7108BD00BFB0AB020041
:1065A400841D0020037813F0040216D003F00303C3
:1065B400012B03D0022B09D0012070470A68008800
:1065C4000232C0F3831002440A60F5E70B68428884
:1065D400023303EB92130B60EEE7104670470000A2
:1065E4002DE9F04F87B000230446851C0DF1070008
:1065F4000F4690468DF8073000F0DCFF45480668EA
:106604003E60D0E90132134401339B1B824600F201
:106614001C4600F5836900F21447AB421BD30022E9
:10662400B8F1000F70D0052363F3070264F38912F5
:10663400DAF80010DAF808309DF807000B4003334D
:106644000D444AF82320CAF8005000F0D7FF012077
:1066540007B0BDE8F08F0121304601F02CF8484620
:1066640001F03FF8384601F03CF8DAF80400DAF8B3
:1066740008B0029000EA0B0003300AEB800002A984
:10668400FFF790FF029B50BB0BEA03020AEB820266
:1066940003F1020CD2680392013303EA0B0B0AEBF9
:1066A4008B0B02F00302012ACDF808C0DBF80C10B2
:1066B40022D0022A16D08346384601F015F810B1CC
:1066C400029BCAF804305946304600F0F4FFDAE978
:1066D40001231344DAF8002001339B1A9DE70BEAE7
:1066E4000300C9E7BDF80E309B0903334FEA114B91
:1066F4000CEB93030293DFE7BDF80C30C3F3831371
:106704004FEA114B6344F5E7062363F3070264F38E
:106714009F528DE78C2100200B4B0C48FF2210B5B3
:106724009A600022C3F81824C3E90022C3F8142491
:1067340083F8202401F035FA044610B9044801F026
:10674400DDFA204610BD00BF8C21002084AB02007E
:1067540000AC020030B50A4C71B10A4A0A49121B56
:10676400D20800239A4201D1002030BD31F82350D1
:10677400854202D00133F5E7034654F83300F4E7C9
:106784000CAB020084AB0200701D0020094B0139E0
:1067940003EBC000032909D8DFE801F00A0204066C
:1067A4000420704700797047407970470020704793
:1067B400022070470CAB0200034BD3E90030C31A2C
:1067C40058425841704700BF8C2100202DE9F04306
:1067D40087B0FFF7F1FF0646002840F0FB807E4DAE
:1067E400C5F81804BFF34F8F6868AC680290204066
:1067F400033005EB800002A9FFF7D4FE029B18B119
:10680400D5F81824002A5FD004EA0302991C013346
:1068140005EB8202234005EB8303D268DB68049313
:1068240002F00303022B0392029162D1BDF80E30F1
:106834006A484FEA9318B8F1500FC14628BF4FF089
:10684400500969F38F1309F10801ADF80E3001F016
:10685400C0F90746002800F0A88001F0E9F903A96F
:1068640000230822384601F0F6F9029924EA0106C9
:106874000136B600B14535D95FFA89F97EB3F6B26F
:10688400A9EB0609214003315FFA89F4B146544E5D
:1068940005EB810108234A46384601F0DCF936B19C
:1068A40009F1080322463146384601F0D4F9029B27
:1068B40008F1030803EB98030293D5F81834002B6E
:1068C4004BD1D5F810445BE02A689A4204D86A6038
:1068D400304607B0BDE8F08304EA030088E7404986
:1068E4003446D7E72140033108234A4605EB8101AA
:1068F400DAE7012B59D1BDF80C303848C3F38311C2
:10690400062928BF062161F3891302318900ADF8F5
:106914000C3001F05EF90746002846D001F088F9F2
:106924000023082203A9384601F095F90026BDF892
:106934000C20C2F38312B300964203F10803BCD2C5
:1069440002994A1C21400331029205EB8101042281
:10695400384601F080F90136E9E7384601F06CF970
:10696400FFF72AFF80F00100C6B2B1E7E3685B7964
:1069740023B1236839461B6820469847E3681C689E
:10698400002CF3D1384601F057F90DF107008DF8CA
:10699400074000F00FFED5F818340BB9029B6B606A
:1069A4009DF8070000F02AFEDAE7D5F8104454B940
:1069B4000C4B0D480D49C01AC008000440F00200F9
:1069C40000F06EF8CCE7236820469B689847E3689C
:1069D4001C68ECE700267BE78C21002084AB0200D6
:1069E400982100200CAB020034AB02000CAC020076
:1069F4002DE9F74F284C80460F46924601A9012203
:106A040018469B46D4F80890FFF7EAFD80B3019D31
:106A14000026A91C5E4506EB010233D100211F4864
:106A240000F01EFE80F310006A1C02EA090204EB67
:106A34008202000405EA0903033340EA1840D060E7
:106A440014F8232068F3C50204F8232034F8232023
:106A540066F3891224F8232054F8232067F39F2235
:106A640044F8232002F0F80242F0010204F8232043
:106A740094F820341BB1FFF7A9FE0028FBD103B022
:106A8400BDE8F08F09EA020204EB82025AF82630CC
:106A9400D3600136BEE700BF8C210020A82500206A
:106AA40000231A46FFF7A4BF07B50123019201AAE8
:106AB400FFF79EFF03B05DF804FB07B5CDE90023A3
:106AC40002236A46FFF794FF03B05DF804FB00005D
:106AD40030B50F49D1F81024002314463CB9C468DA
:106AE400237152B9C1F810042260184630BDE4681D
:106AF40025799D4206D02468F0E7D26811682160A8
:106B04001060F2E701330A2BE7D14FF0FF33ECE7D3
:106B14008C210020094A38B50123D2F8104482F8A8
:106B240020341D4604B938BDE3685D7123682046EE
:106B34005B689847E3681C68F4E700BF8C21002079
:106B4400037A052B10B50C460FD0437A23B1084ABB
:106B54000849204600F02BFE0749204600F027FE96
:106B64002046BDE8104000F017BE002AF8D0F3E735
:106B740057AC02005CAC02007CAC0200C38873B565
:106B840004460D4633B1144A00921449144A284667
:106B940000F00DFE217A05291CD0637A4BB1A08840
:106BA400FFF7F4FD0F4B104953F82020284600F05E
:106BB400FEFD227A0D4BA08853F822600021FFF7D6
:106BC400C9FD0B4903463246284602B0BDE8704071
:106BD40000F0EDBD02B070BD57AC020067AC02001E
:106BE4005FAC020024AC02005CAC02008CAC02007E
:106BF4007FAC02002DE9F04385B01F460C9D0023B5
:106C040006460C46904695F80C902B732946384658
:106C1400FFF7B4FFB8F1060F09D8DFE808F0041253
:106C2400181F283340003146284600F0C0FD0022DA
:106C340029463846FFF784FF85F80C9005B0BDE877
:106C4400F08322683146284600F0B1FDEFE7D4E92D
:106C540000233146284600F0AAFDE8E7A368009324
:106C64003146D4E90023284600F0A1FDDFE7E368BC
:106C74000193A36800933146D4E90023284600F029
:106C840096FDD4E723690293E3680193A368009314
:106C94003146D4E90023284600F089FDC7E763693B
:106CA400039323690293E3680193A3680093314635
:106CB400D4E90023284600F07AFDB8E708292DE935
:106CC400F84F80460E4617461C463AD8002593F8DE
:106CD4000C901D7319461046FFF750FFDFF884A08F
:106CE400DFF884B0AE422ED918F805205946204664
:106CF40000F05DFD0135082DF4D11849DFF86CB0C2
:106D0400204600F054FD4FF0000A564520D918F8EB
:106D14000A507E2D03D8284603F0E2FD00B92E2543
:106D24002A465946204600F042FD0AF1010ABAF10A
:106D3400080FEAD1012221463846FFF701FF84F803
:106D44000C90BDE8F88F5146204600F030FDD1E7A5
:106D54000349204600F02BFDE7E700BF52AC0200D8
:106D640050AC02004EAC020048AC020054AC02002D
:106D74002DE9F04F394E87B04FF00009384B1B789E
:106D84005FFA89F5AB4202D807B0BDE8F08F354B06
:106D9400D3F800A01AF835000124D6E9001EA0F1AA
:106DA4002002C0F1200304FA02F224FA03F313438D
:106DB40004FA00FC009301EA0C030293009B0EEA20
:106DC40003030393DDE9022313430AEBC50B41D00C
:106DD400009B21EA0C012EEA0303C6E9001301F02B
:106DE400B7FB1AF835502049A5F12002C5F120035C
:106DF40004FA02F224FA03F31343D1E900C2AC40CB
:106E0400134004EA0C0105930024C3B2CDE9003415
:106E1400009A0491C5F12003A5F1200122FA03F39D
:106E240002FA01F848EA03081346AB401F46DDE9BD
:106E34000434444508BFBB420CD1DBF804304BB1E9
:106E44009BF801104A1E51425141081A41424141E6
:106E54002846984709F1010990E700BF78260020E9
:106E64004826002080260020702600202DE9F041CD
:106E74008046204800F08EFBD0BB0125A8F12004F9
:106E8400C8F1200325FA03F305FA04F41C431A4B52
:106E9400D3E9001205FA08F501EA050602EA040737
:106EA40056EA07001E461DD1404601F051FB134B24
:106EB400D3E9001288B129432243C3E90012D6E979
:106EC40000231C430E4B0B4819681543C6E90054B4
:106ED4000022BDE8F04100F017BB21EA050122EAD7
:106EE4000402EAE721EA050522EA0404C3E900549E
:106EF400BDE8F0815026002078260020702600206E
:106F04004C260020042A2DE9F34105460C4616467A
:106F14003AD901F04DFAD8B11C4B1D491D601D4BE7
:106F2400DFF884801C701C4B00221E600023C1E922
:106F340000231A49C1E90023013CE4B200260327D7
:106F4400FF2C0CD1164A1748002100F0CBFA03E0BD
:106F540001F0F6F90028DFD002B0BDE8F08123B2D9
:106F640005EBC30201A992788DF8052015F83300CA
:106F74008DF8066042468DF8047001F023FA013C56
:106F8400E4B20028DCD0E7E70720E5E7802600200C
:106F940070260020482600204C2600207826002059
:106FA400756D0200ECAC0200716E020070B5084D04
:106FB400084E00242B789C4201D3002070BD336816
:106FC400012113F8340001F079FA0134F2E700BF2B
:106FD40048260020802600201FB50021039001AA26
:106FE40044F20100CDE9011100F004F805B05DF8A8
:106FF40004FB000010B572B6FFF78CFDFFF7E6FB4B
:107004000028FBD1104B114C1149E41AE408240464
:1070140044F00100FFF744FD0E4B1B68DB0700D56D
:1070240000BE0D4944F00200FFF73AFDBFF34F8F55
:107034000A490B4BCA6802F4E0621343CB60BFF306
:107044004F8F00BFFDE700BF0CAB020034AB020062
:10705400F0AC0200F0ED00E0FCAC020000ED00E05A
:107064000400FA05094A537891780133DBB2994256
:1070740008BF0023117899421FBF0370507818236A
:1070840003FB002014BF0430002070478426002036
:1070940073B5054600240DF107000E468DF8074030
:1070A40000F088FA0DF10600FFF7DCFF90B10670DE
:1070B400094B9DF8062045605A709DF8070000F0C2
:1070C4009DFA24B9054B4FF48012C3F800212046E1
:1070D40002B070BD0424F0E78426002000E100E043
:1070E400024B4FF43C6043F00103184710AD02001B
:1070F40038B50C4B0C4C4FF40032C3F880200125FA
:107104004FF48033C4F84833C4F808336560FFF79C
:10711400E7FF064BA56000241C60FFF7E1FF044B6A
:107124001C7038BD00E100E000100140A0270020E1
:1071340091270020F8B51F4B1F491B680025C1F893
:107144004051C1F84451C1F84851C1F84C51C1F8FB
:107154000051C1F804514BB3D1F8044517490968EB
:10716400641A24F07F442F461A68A24209D8A41A4C
:1071740015441A7CDE691AB11F74D3E905209047BF
:10718400AEB90F4A0F4B11781B788B4205D10133EE
:10719400DBB2022B08BF0023137012780A4B43F8AA
:1071A40022500A4B4FF48012C3F80021F8BD334635
:1071B400DAE700BFA427002000100140A027002028
:1071C4009D2700209C2700209427002000E100E058
:1071D4002DE9F04FA04AA14913780978A04D9942AE
:1071E40085B03CD00133DBB2022B08BF00231370FF
:1071F4009C4912789C4B0F6853F822003B1823F0EB
:107204007F4300220B602B6816461446944613B93C
:1072140042B12B6006E0196881420ED902B12B609D
:10722400091A19604FF001082B68DFF844A2019392
:107234000027BEB9DFF840B266E0401A0C44D968B2
:10724400C3F800C0D3F81CE031B13A1922F07F42F0
:10725400C3E90121DE611E4601227346D7E70026F9
:10726400B046E1E73446F6697E4A63681268DFF89F
:107274000CC2A068991A21F07F41614500F2A580F3
:1072840001442160012222742A680023C4E90133E5
:10729400E361002A40F0A2802C60CAE75A1C9BF8E4
:1072A4000210D2B291428BF8002004BF00228BF866
:1072B4000020182202FB03B31A799C68022A1CD00E
:1072C400032A12D0012A1FD1207CE8B9D3E9031282
:1072D400A2605A69E2609A69644BA2611B78002B30
:1072E4000CBF0B4603466360BEE700222B681146C1
:1072F400002B66D142B12B6006E029680A46894614
:10730400002A59D1002323749BF800309BF80120F4
:107314009A42C3D12B682FB9019A9A4202D1B8F18B
:10732400000F43D0002B73D0D3F800A0504D4D4B29
:10733400D5F804751C68DFF848813E1B98F80030C6
:1073440026F07F4603369BB94FF48033C5F84433A7
:10735400C5F80433474B4FF400324FF00109C3F82A
:1073640080211A60C5F80090FFF7BAFE88F80090F3
:10737400B2452CBF5444A41924F07F44C5F84045B9
:10738400D5F80435DB1B23F07F43E41B033324F0DF
:107394007F44A3420AD9D5F80435C5F84035FFF730
:1073A4009FFE344B4FF40032C3F800212F4B0022D0
:1073B4001A7005B0BDE8F08F94422CD09146D26982
:1073C4009EE719740122DB6992E7D31A23F07F4305
:1073D400834234BFC31A0023236053E72168136830
:1073E400994213D8591A1160E26155E7091AD8690C
:1073F4001A4638B1034618688842F7D3401A186011
:10740400184613462160E061DC6112E71346F2E797
:10741400FFF76EFECAE74C4511D1CB692B6073B9F7
:10742400DFF840E00120CDE90212CAF80800CEF8E6
:1074340000300E4B1870FFF753FEDDE9021213689B
:10744400D269C9F81C2012B11068034413602B6878
:10745400994218BF012755E79C2700209D2700204B
:10746400A4270020A0270020942700209027002094
:107474000010014000E100E084260020FEFF7F00B0
:107484009127002008B5FFF733FE104B00200B2294
:1074940018809A700E4B18600E4B18700E4B1870B3
:1074A4000E4B4FF48012C021C3F8802183F81413CB
:1074B4001A6002F18042A2F56F22C2F8080583F82F
:1074C4001113074BD2F804251A6008BD8426002046
:1074D400A42700209C2700209D27002000E100E035
:1074E400A0270020074B9B784BB132B128B1036829
:1074F400187C20B959745A617047072070470820D6
:10750400704700BF842600202DE9F7431E4FBB7847
:1075140005460E469046A3B398B304292FD9436970
:107524007BB3437C0024012B0DF107000CBF89467B
:10753400A1468DF8074000F03DF80DF10600FFF775
:1075440091FDD0B101230370104B4560D3F804358D
:10755400C0E90498C0E902369DF806307B709DF8B6
:10756400070000F04BF824B9094B4FF48012C3F81C
:107574000021204603B0BDE8F0830424EFE707248C
:10758400F7E70824F5E700BF842600200010014037
:1075940000E100E0064A92783AB130B1426922B182
:1075A400002202740221FFF773BD0820704700BF58
:1075B4008426002070B5EFF3108672B60C4A9468E6
:1075C40001239CB993600B4B0B4DD3F880102940D9
:1075D4001160C3F88050D3F8841051604FF0FF322B
:1075E400C3F88420047006B962B670BD0370FAE76C
:1075F400A827002000E100E0FC06FFBD084B9A68C4
:1076040010B55AB150B9EFF3108172B6054A1C682F
:1076140014605C685460986001B962B610BD00BF24
:10762400A827002000E100E001F01F024B0901211E
:10763400914000EB830000F01DB801F01F0301220C
:107644009A404B0900EB8300D14300F029B84B0961
:1076540001F01F0150F82300C84000F001007047FA
:1076640050E8002F0B4640E8003C9CF0000FF7D197
:107674001046704750E8003F43EA010240E8002CFE
:107684009CF0000FF6D11046704750E8002F02EA34
:10769400010340E8003C9CF0000FF6D1104670470F
:1076A40050E8003F03EA010240E8002C9CF0000F80
:1076B400F6D11046704750E8003F03EB010240E862
:1076C400002C9CF0000FF6D11046704750E8003FA4
:1076D400A3EB010240E8002C9CF0000FF6D1104609
:1076E40070470121FFF7C6BF0021FFF7CEBF10B5D9
:1076F40090B1D0E9012301689B1ADBB20A60013B17
:10770400DBB2FF2B026802D10020107110BD11689A
:107714004C1C14600B70F2E70E20F7E737B50546F2
:1077240000240DF107008DF80740FFF743FF2A6896
:107734006B68116899420ED9481E106011F8014C0B
:10774400EB68298A01FB0434AB6811791B1ADBB29C
:10775400994238BF13719DF80700FFF74FFF204689
:1077640003B030BD37B5054600230DF107000C46C4
:107774008DF80730FFF71EFF2A681368591C116043
:10778400E968641A298AB4FBF1F41C709DF80700B7
:10779400FFF734FF03B030BD826810B504462AB148
:1077A40043690168006998470023A36010BD0EB4C3
:1077B40003B5039921B104AB01AA019300F074F855
:1077C40002B05DF804EB03B070470A2938B50446EB
:1077D4000D4602D10D21FFF7F8FFA3682268591C5A
:1077E400A160D554D4E901329A4204D32046BDE8BD
:1077F4003840FFF7D1BF38BD2DE9F84F9946DDE990
:107804000A431746824688460A460126BA420FD2E0
:107814004E4538BF4E4613F0010B01D164B9002424
:107824000125B9F1010F1AD909F1FF397D43F8E7B0
:10783400B2FBF7F20136E9E79B070ED5B9F1000F69
:107844000CBF30252025A642EAD2013C29465046E9
:10785400FFF7BBFF002CF6D1E1E72025F3E7B8FBE7
:10786400F5F39F42E2D9DFF83C90B8FBF5F35046BC
:1078740019F8031005FB1388FFF7A7FFB5FBF7F30F
:10788400BD4207D2BBF1000F02D00CB1A64203D314
:10789400BDE8F88F1D46E8E720215046013CFFF77C
:1078A40094FFF2E716AD02002DE9F74F054617469F
:1078B4008846002900F0318118F8011B49B92B7B57
:1078C400002B00F02A81284603B0BDE8F04FFFF7F3
:1078D40063BF252940F0C080002698F800302D2B86
:1078E400424608F1010823D0302B24D02B2B25D07D
:1078F40000242A2B02F1010123D13B681A1D1B68C5
:107904003A601C440A4613782E2B26D101324FF0DC
:10791400000A104610F8011BA1F1300CBCF1090F4C
:107924001DD80A2303FB0A13A3F1300A0246F0E729
:1079340046F00106D1E746F00206CEE746F004061B
:10794400CBE711F8013CA3F130000928DBD80A2267
:1079540002FB0434303C0A46CBE74FF0000A12F82D
:10796400011B01F0FB0068289046F8D069290ED06D
:107974004AD8582964D006D825296DD098F8003003
:10798400002B99D19BE7632962D06429F6D13A6828
:10799400D2F80090111D89EAE9723960A2EBE9720C
:1079A4004FF0010B092A5BDCD34538BFD3462CB119
:1079B400B9F1000F01DB710700D5013CB20702D514
:1079C400BAF1000F04D0F30702D4002C4ED10024E6
:1079D400B9F1000F52DAC9F100092D212846FFF749
:1079E400F4FE06F00302022A05D1BAF1000F02D117
:1079F400002C47D10024CDE9004653460A224946CB
:107A04002846FFF7F9FEB9E773294CD014D870293A
:107A1400B4D13B681A1D3A60302128461C68FFF730
:107A2400D4FE78212846FFF7D0FE00220823CDE9B2
:107A3400003221461022E3E775292BD078299DD105
:107A440039680A1D3A60CDE900465346102228E001
:107A54003B681A1D19783A602846FFF7B6FE8DE791
:107A64000A230BF1010BB2FBF3F29BE7A345AFD260
:107A740020212846013CFFF7A8FEA6E77007B0D5F1
:107A84002B21ABE7A345B6D230212846013CFFF7B2
:107A94009CFEADE73968CDE900460A1D3A605346BD
:107AA4000A220968ACE73B681A1D3A60F107D3F86B
:107AB400009020D4B9F1000F25D0484602F0D3FF3E
:107AC4000646B44200D9C4B909F1FF3920E028467A
:107AD4000136FFF77AFE19F806100029F7D1A642FD
:107AE400BFF44CAF002C3FF449AF20212846013CA1
:107AF400FFF76BFEF3E70026EDE720212846013C63
:107B0400FFF763FEDDE74E46DBE72846FFF75DFE41
:107B140019F8011F0029F8D130E703B0BDE8F08F50
:107B24002DE9F047B0F806904479D2F800A09DF80A
:107B3400208009FB04F4043C06460AEB0300A0423F
:107B44000F4688BFA4EB030A191DC2F800A0B1FBBD
:107B5400F9F509FB15114DB9A9EB0104544528BFEA
:107B64005446BAF1000F04D1BDE8F0873668013DF0
:107B7400F1E704317B1970182246B8F1000F0ED0DA
:107B840001461846AAEB040A02F0EAFED145254450
:107B940036684C464FF0000128BF5446E1E71946C9
:107BA400F0E7FFF7A4BDF8B546790146721E054615
:107BB400002393422D6803D30024A64202D8F8BDC3
:107BC4000133F6E70F682846FFF7CCFD0134394648
:107BD400F3E72DE9F843068ACD1C0746FFF79EFD1F
:107BE400043E35440446B5FBF6F5F0B14FF480731A
:107BF400EDB28380C680013D076081464FF00008E6
:107C0400A84512D23846FFF789FD064648B1637984
:107C14000133637108F10108C9F800000760814667
:107C2400EEE72046FFF7BFFF34462046BDE8F88361
:107C340001210430FFF73FBD10B501210446043093
:107C4400FFF744FD10F0FF0F04D12046BDE81040BB
:107C5400FFF7A9BF10BD1FB503920022009203AA2B
:107C6400FFF75EFF05B05DF804FB1FB50392012228
:107C7400009203AAFFF754FF05B05DF804FB41DF4F
:107C840070470000064B10B500241C70054B1C60A7
:107C9400BFF35F8F0449054800F039F8204610BD52
:107CA400BC270020C027002028AD0200B4270020F4
:107CB40007B500230DF107008DF80730FFF77AFCB4
:107CC400F1EE103A23F09F03E1EE103ABFF35F8F19
:107CD400094B4022C3F884219DF80700FFF78EFC6E
:107CE40002F042FC20B1FFF7CAFF03B05DF804FBC9
:107CF40020BF40BF20BFF8E700E100E08368002216
:107D04005A609A60C3E90422DA601A6070470B680B
:107D14004A684360934208BF0023016008BF436080
:107D24007047436843B10268916852680B449342B8
:107D3400436004BF002343607047000010B50D4941
:107D4400A1F59472914201D800200FE08B1ADB1048
:107D540003EBD3735B1002EBC30452F8333083425A
:107D640005D802D204F10802ECE7606810BD214690
:107D7400E8E700BF78AE020008B5FFF7DFFF024B6B
:107D8400002808BF184608BD3DAD0200054B1B681E
:107D9400082B01BF044B1868B0FA80F0400918BFE3
:107DA40000207047300100103401001008B54FF076
:107DB40080430022C3F80C21C3F81021C3F83825EE
:107DC4004FF0805203F54043D2F80414C3F8201551
:107DD400D2F80814C3F82415D2F80C14C3F82815E3
:107DE400D2F81014C3F82C15D2F81414C3F83015B3
:107DF400D2F81814C3F83415D2F81C14C3F840157B
:107E0400D2F82014C3F84415D2F82414C3F8481542
:107E1400D2F82814C3F84C15D2F82C14C3F8501512
:107E2400D2F83014C3F85415D2F83414C3F86015DA
:107E3400D2F83814C3F86415D2F83C14C3F86815A2
:107E4400D2F84014C3F86C15D2F84424C3F8702552
:107E5400FFF79CFF10B1384B384A1A60FFF796FFC2
:107E640018B1374BFB22C3F81825FFF78FFF48B131
:107E74003449354B0A681B6822F00F0203F00F03E4
:107E840013430B60FFF782FF18B1304B4FF40072BD
:107E94001A604FF08043D3F80024D20744BF6FF038
:107EA4000102C3F800242A4AD2F8883043F470034C
:107EB400C2F88830BFF34F8FBFF36F8F4FF010239A
:107EC400D3F80022002A03DBD3F80432002B2FDA84
:107ED400204B0122C3F80425D3F80024002AFBD048
:107EE4004FF010221221C2F80012D3F80024002A05
:107EF400FBD04FF010231222C3F80422154B1A466C
:107F0400D3F800140029FBD00021C3F80415D2F8DB
:107F14000034002BFBD0BFF34F8F0D490E4BCA68C2
:107F240002F4E0621343CB60BFF34F8F00BFFDE761
:107F34000A4B0B4A1A6008BD8C5600404881030066
:107F440000F00040E40E0040580200104096024049
:107F540000ED00E000E001400400FA058C1D002063
:107F64000090D003074B1B5C1F2B86BF03F01F033D
:107F740005494FF0A041012202FA03F3C1F80C3580
:107F8400704700BF32B2020000030050074B1B5C75
:107F94001F2B86BF03F01F0305494FF0A0410122A8
:107FA40002FA03F3C1F80835704700BF32B2020089
:107FB4000003005008B50020FFF7E8FF0120FFF799
:107FC400E5FF0220FFF7E2FF0320BDE80840FFF7CA
:107FD400DDBFC20710B504460CD54FF0A043032201
:107FE400C3F83427C3F83827C3F83C27C3F840271D
:107FF400FFF7E0FFA3070AD54FF0A0430C22C3F814
:108004002C27C3F83027C3F86027C3F8642710BDB2
:1080140038B5074C051E04F1080318BF1C46236835
:108024002BB11A6822605B6828469847F7E738BD89
:10803400CC27002020B9054B01225A70FFF7E8BF76
:10804400012802D1014A9070F8E77047C427002044
:1080540020B9034B01225A70FFF7DABF704700BF03
:10806400C427002038B50B4C237883B90A486360D1
:10807400A3602361E36000F0C9F8054602F074FAD6
:1080840008B900F0CFF801232370284638BD8525B0
:10809400FBE700BFC42700203980020037B50B4C32
:1080A40000230DF107008DF80730FFF783FAE3682A
:1080B400013BE360E56815B900F0C6F8A5709DF8CA
:1080C4000700FFF79BFA03B030BD00BFC4270020B0
:1080D400012813B509D018B103281CD002B010BD73
:1080E4000F4B0122C3F88020F8E70E4C00230DF15A
:1080F40007008DF80730FFF75DFA23780BB9FFF717
:10810400B1FFE3689DF807000133E3600123A37026
:10811400FFF774FAE2E700F085F8FFF7BFFFDDE749
:1081240000E100E0C42700201FB503788DF800307B
:108134004368019383688DF80830C3680393054A44
:10814400054B684653F8213052F82110984705B082
:108154005DF804FBD8270020E02700201FB5037832
:108164008DF800304368019383688DF80830C36844
:108174000393054A054B684653F8213052F8211001
:10818400984705B05DF804FBD8270020E0270020BD
:10819400F0B5194B0678DFF870E043F82620174B4A
:1081A40094460A6943F826204B7F0EF806300C46A5
:1081B40007460FCC89B06D460FC594E80F0085E8DB
:1081C4000F001EF80630049653B1BCF1000F0C4AA0
:1081D400694608BF0022381D00F0CEFD09B0F0BD8D
:1081E400BCF1000F074A694608BF002207F10C00E2
:1081F40000F0B2FBF2E700BFE0270020D827002000
:108204002D81020061810200E8270020044A1379CD
:1082140023B901211060918018467047852070476A
:10822400EC270020074B1A68D2075FBFC02283F8EF
:10823400002301221A604FF080430122C3F818255D
:10824400704700BF00E100E0044B01221A604FF0C8
:108254008042D2F81834DB03FBD470470C00004092
:10826400154B07B51A687AB100221A601B6800938F
:10827400009B4FF080430122C3F808230F4B587929
:1082840010B95A711B6898470D4B1A6882B10022C5
:108294001A601B680193019B4FF080430222C3F8CC
:1082A4000823064B1B68012003B05DF804EB184754
:1082B40003B05DF804FB00BF00010040EC27002080
:1082C4000401004000F1804000F5C040002382B06A
:1082D400036003680193019B02B0704703681F2B7E
:1082E40083BF03F01F03036001484FF0A0407047B1
:1082F4000003005007B5019001A8FFF7EFFF019BB1
:1083040000EB8300D0F8002722F44032C0F80027A5
:10831400D0F8003743EA0143C0F8003703B05DF8F2
:1083240004FB0000054B4FF0FF32072843F82020E0
:1083340084BF1B1883F85820704700BFF42700201F
:1083440010B5174C94F86A3043BB04F13003302164
:10835400FF22013911F0FF0103F8012BF9D1C8B252
:10836400FFF7E0FF01310C29F9D1062200210D4865
:1083740002F01FFB0C4BC02283F8062340221A6034
:108384004FF4BE70FFF79EFF084B4FF00042C3F856
:108394000423012384F86A30002010BD0820FCE780
:1083A400F42700205828002000E100E0006000408D
:1083B400034B93F86A00003018BF0120704700BFD8
:1083C400F4270020F7B53B4E3318054693F93030B7
:1083D400002B6CDA8B78C3F34003002B0BBF08240B
:1083E40000240C200820844202D1042003B0F0BDF4
:1083F40056F82470013743D1701946F8242080F8C8
:10840400304013B9331983F858508B785A0717D46E
:10841400D80737D501A80195FFF760FF019B00EB52
:108424008300D0F8003723F00203C0F80037224855
:10843400EA0805F007070123BB40875C3B438354EC
:1084440088780A7810F0020028D0A40004F180444F
:1084540004F5C0442D02D4F8103523F44F3323F42B
:108464004073C4F810351204D4F8103505F47C5563
:1084740002F4403215431D43C4F810550020B5E7FB
:108484000134B0E701A84A780195FFF727FF019B63
:1084940003F5E073920040F82320C8E7083C344415
:1084A40094F8605045EA821284F860209EE7082020
:1084B4009CE700BFF42700205828002073B5224C05
:1084C4002518064695F93020072A19DD224492F82A
:1084D40058309B09032B0FD1019001A8FFF7FEFE32
:1084E400019AD0F81035D340DB0707D40221304677
:1084F400FFF700FF02B070BD012BF7D00321F6E7B0
:10850400D3B2072BF6D8930003F1804303F5C0439D
:10851400D3F8100540F00100C3F8100502F1400043
:10852400800080B2FFF7CEFE0029E3D095F9303009
:1085340054F82330002BDDD0012303FA02F2034B5D
:10854400C3F80423D6E700BFF427002000600040EE
:1085540007B5019001A8FFF7C1FE019BD0F81005F3
:10856400D84000F0010003B05DF804FB2DE9F04FA2
:10857400002489B0CDE90244624D4FF48072012198
:1085840002F1804303F5C04390B21B68012B06D16E
:10859400D5F804330B4202D0FFF794FE0C430432A7
:1085A400B2F5907F4FEA4101EAD1574B1B68012B8A
:1085B4000ED14FF4BE70FFF785FE4FF0A04344F098
:1085C4000044D3F810350293504BD3F8103503937D
:1085D40014F0FF0F1AD04E4F00250126344210D05C
:1085E400AB0003F1804303F5C043D3F81005D3F87F
:1085F400101557F8253023B1C1F30141C0F305200C
:1086040098470135082D4FEA4606E7D1002C75DA64
:108614000DF1100800230493C8F804304FF0FF3321
:10862400CDE90633DFF8E8A0DFF8E89000273D46FF
:1086340019F9014B631C48D0E4B2012324F0C006AD
:1086440004F0070203FA02F2F00808AB191811F853
:10865400083C134239D00AEB0603A40993F93030DD
:108664005AF823B0BBF1000F08D1032C2DD118F810
:1086740000C04CEA020C08F800C001E0032CF6D05C
:1086840001A80196FFF72AFE019B11F8181C03F5B7
:10869400E07C114250F82C00C0F3014005D00228C0
:1086A40013D1032C0BD1214604E003280DD1032C54
:1086B40005D102213046FFF71DFE0135EDB2BBF1B5
:1086C400000F02D021463046D8470137042FAFD1DE
:1086D400A5B14FF0A0430299D3F8102503F54073D8
:1086E4009142D3F8103502D10399994206D00292EF
:1086F4000393049A059B0692079395E709B0BDE896
:10870400F08F00BF006000407C6100400003005017
:10871400F427002054280020014B1B68184700BF91
:10872400602800200E4B984237B50D4602D0002039
:1087340003B030BD00230DF107008DF80730FEF7BC
:1087440039FF084B1C7914B901221D601A719DF878
:108754000700FEF753FF002CE9D01120E8E700BF23
:108764000020004060280020034B984201BF034BC7
:1087740000221A601A71704700200040602800200F
:108784000023435082B043580193019B02B07047C9
:108794000A4610B54FF48E71FFF7F2FF136A916821
:1087A400C95C136A01331362C0F81C1510BD8B69D0
:1087B4000A4610B54FF4847123B9FFF7E1FFD0F8EE
:1087C400183510BDFFF7DCFF536AD168D0F81805DF
:1087D400C854536A01335362F3E700001FB5012301
:1087E4008DF80030044BCDE90110D3E9001268463E
:1087F400904705B05DF804FB6828002030B54C4A6A
:10880400D2F8043313F4007F85B015464FD0D2F864
:108814002431002B4BD04FF492711046FFF7B0FF78
:108824004FF40173C2F80833424B93F8291009B985
:10883400012151603E4902228DF80020D1F88024A4
:10884400C1F8802403929A690292DA6801920022A4
:10885400C3E906226846D3E9001290473448D0F8A9
:108864001C315BB133490A6A4B699A420A464BD2BE
:1088740091F82830002B47D1FFF78AFF2C4AD2F811
:10888400443193B14FF4A2711046FFF779FF294B9D
:1088940093F8291009B1012111609A692AB10022C3
:1088A4009A61586AD968FFF799FF05B030BDD5F8C9
:1088B40004335B07D2D5D5F80831002BCED01D4C3C
:1088C4001B482146FFF773FF636AA2699A42234655
:1088D400C4D1E269E1684AB12369E3600023606AB4
:1088E400A261E3616362FFF779FFB7E794F8292097
:1088F4000AB901226A600E4A4FF40170C2F80803F3
:1089040000229A61586AEEE74FF48E710848FFF727
:1089140037FF51690029B1D00023029191688DF885
:108924000030019153616846D2E900139847A5E7E6
:1089340000200040682800201F2886BF00F01F0088
:10894400044B4FF0A04300F5E070022243F82020CE
:10895400704700BF000300502DE9F843624F0479CB
:1089640091462C2202FB0472064692F82A200D46F8
:10897400002A40F0B3805D490068FFF7D3FE8046CB
:10898400002840F0AE8029684A1C10D01F2987BFF8
:1089940001F01F03564A0B464FF0A04201209840B5
:1089A40003F5E073C2F80805032042F82300686861
:1089B400431C0DD01F288BBF00F01F0303464C4AF5
:1089C4004FF0A04203F5E0734FF0000C42F823C0CF
:1089D4003368AA6995F814C0C3F824256A7DBCF1EC
:1089E400010F4CEA0202C3F86C25C3F81405C3F85E
:1089F4000C152BD1A968481C0DD01F298BBF01F081
:108A04001F020A463A484FF0A04002F5E0724FF0C8
:108A1400000C40F822C0E868421C13D01F2887BF0E
:108A240000F01F0C324A84464FF0A0424FF0010E72
:108A34000EFA0CFE0CF5E07CC2F808E54FF0030ECC
:108A440042F82CE0C3F80805C3F810152C2363433F
:108A5400FA18C2F804902A69FA50B9F1000F2AD022
:108A64004FF48E7130682D7FFFF78AFE30684FF423
:108A7400A271FFF785FE32681E4BC2F80433120B55
:108A840051B20029A8BF01F160404FEA4513BABFB3
:108A9400194802F00F0500F56140DBB2B4BF43553D
:108AA40080F8003302F01F02012303FA02F249099D
:108AB400124B43F8212033680422C3F800252C23E9
:108AC40003FB04730022C3E9062283F829205A61B8
:108AD400012283F82A204046BDE8F8834FF00808B5
:108AE400F9E74FF01108F6E7682800200188020032
:108AF400000300508000020014ED00E000E100E0FB
:108B04002DE9F04103680479254D0022C3F80025BE
:108B14002C2202FB04520646526872B1214AC3F861
:108B24000823190B4AB20120520901F01F0100FA6F
:108B340001F120321C4840F82210D3F80C05D3F878
:108B44001485D3F80815D3F810754FF0FF3290420E
:108B5400C3F81425C3F80C25C3F80825C3F8102559
:108B640001D0FFF7E9FEB8F1FF3F02D04046FFF71E
:108B7400E3FE7A1C02D03846FFF7DEFE4B1C02D01F
:108B84000846FFF7D9FE3068FFF7EEFD2C2303FB00
:108B94000454002384F82A306360BDE8F08100BFE8
:108BA400682800208402020000E100E02DE9F84377
:108BB400224F06794FF02C0909FB0674804665693B
:108BC400002D37D16261A16025624FF48E71006877
:108BD40084F82850FFF7D4FDD8F8000001238360FF
:108BE4002146FFF7D5FD6368A1462BBBD8F800509A
:108BF400226A63699A4212D3D8F80030D3F81C2150
:108C0400002AFBD00122DA6000202C2303FB067625
:108C140000237361BDE8F88394F8283043B9D5F88C
:108C24001C31002BF8D049462846FFF7B1FDDFE799
:108C34000F20EAE71120EDE72846EBE7682800203B
:108C44000023435082B043580193019B02B0704704
:108C54001FB501238DF80030044BCDE90110D3E991
:108C640000126846904705B05DF804FB9428002084
:108C74007FB5374AD2F82461002E48D010464FF40D
:108C84009271FFF7DDFF02238DF80030D2F88034B3
:108C9400C2F880340393D2F83C3502932D4BDA6842
:108CA40001920022C3E906226846D3E900129047E4
:108CB400274AD2F844317BB14FF4A2711046FFF732
:108CC400BFFF244B996939B10021C3E90611D96862
:108CD400D2F83C05FFF7BCFF1D4AD2F82031A3B1FE
:108CE4004FF490711046FFF7ABFF1A4B596961B10D
:108CF400D2F84C150291002299688DF80020019158
:108D04005A616846D3E90012904704B070BDD2F8A6
:108D14001031002BCCD04FF488711046FFF790FF30
:108D24000C4BD2F83C0599698842C1D1DC69D968F9
:108D340064B1D2F8005225F02005C2F800521A6935
:108D44009C61DA60DE61FFF783FFB1E79C61FAE7BB
:108D540000200040942800201F2886BF00F01F0038
:108D6400044B4FF0A04300F5E070022243F82020AA
:108D7400704700BF000300502DE9F843664F0679A1
:108D84009146242202FB0672044692F820200D46E6
:108D9400002A40F0BB8061490068FFF7C3FC8046AD
:108DA400002840F0B6802868421C10D01F2887BFD6
:108DB40000F01F035A4A03464FF0A0420121994094
:108DC40003F5E073C2F80815032142F8231069681B
:108DD4004B1C0DD01F298BBF01F01F030B46504ABB
:108DE4004FF0A04203F5E0734FF0000C42F823C0AB
:108DF4002368AA6995F814C0C3F824256A7DBCF1D8
:108E0400010F4CEA0202C3F86C25C3F80C05C3F841
:108E140014152BD1A968481C0DD01F298BBF01F054
:108E24001F020A463E484FF0A04002F5E0724FF0A0
:108E3400000C40F822C0E868421C13D01F2887BFEA
:108E440000F01F0C364A84464FF0A0424FF0010E4A
:108E54000EFA0CFE0CF5E07CC2F808E54FF0030EA8
:108E640042F82CE0C3F80805C3F810152423734313
:108E7400FA18C2F804902A69FA50B9F1000F34D0F4
:108E84004FF4887120682D7FFFF7DAFE4FF490715C
:108E94002068FFF7D5FE4FF492712068FFF7D0FEEB
:108EA40020684FF4A271FFF7CBFE22681D4BC2F875
:108EB4000433120B51B20029A8BF01F160404FEAFC
:108EC4004513BABF184802F00F0500F56140DBB244
:108ED400B4BF435580F8003302F01F02012303FAA4
:108EE40002F24909114B43F8212023680822C3F8F0
:108EF4000025242303FB06730022C3E906225A61DA
:108F0400012283F820204046BDE8F8834FF008088A
:108F1400F9E74FF01108F6E794280020758C020059
:108F2400000300501003020014ED00E000E100E033
:108F34002DE9F04103680479254D0022C3F800258A
:108F4400242202FB04520646526872B1214AC3F835
:108F54000823190B4AB20120520901F01F0100FA3B
:108F640001F120321C4840F82210D3F80C05D3F844
:108F74001485D3F80815D3F810754FF0FF329042DA
:108F8400C3F80C25C3F81425C3F80825C3F8102525
:108F940001D0FFF7E1FEB8F1FF3F02D04046FFF7F2
:108FA400DBFE7A1C02D03846FFF7D6FE4B1C02D0FB
:108FB4000846FFF7D1FE3068FFF7D6FB242303FBF6
:108FC4000454002384F820306360BDE8F08100BFBE
:108FD400942800201003020000E100E001F0604347
:108FE400B3F1005F2DE9F041074632D11C4B0679FD
:108FF400242505FB063598466C6964BB6A61A96043
:1090040000684FF49071FFF71BFE4FF4AC713868A1
:10901400FFF716FE3B686A69A968C3F84415C3F8EC
:10902400482501229A606A68BAB9D3F82011D3F8A6
:10903400582149B9002AF8D00F20242303FB0686BF
:1090440000237361BDE8F081002A14BF0F200020C3
:10905400F3E71020F6E71120F4E72046F2E700BF1B
:1090640094280020032813D8012A0BD1012908D100
:1090740000F10E02D2B200EB40000C4B1A54002057
:10908400704700220129F6D04BB24BB1022901D01E
:1090940007207047054B00EB400018444270EEE790
:1090A400024900EB400008448270E8E7B828002039
:1090B40008B5012202210020FFF7D4FF08B10728D8
:1090C40010D1072202210120FFF7CCFF08B10728A5
:1090D40008D100210A220846FFF7C4FF10B107286F
:1090E40008BF002008BD00000388102B10B502D073
:1090F400112B1ED010BD1A4C2168B1B901220846AB
:10910400FFF7B0FF08B1072824D10722022101206C
:10911400FFF7A8FF08B107281CD104220221002070
:10912400FFF7A0FF08B1072814D123680133236097
:10913400E0E70B4A1368013B1360002BDAD1FFF719
:10914400B7FF0028D6D0074B1B68002BD2D0BDE850
:1091540010401847034B1B68002BE6D09847E4E700
:10916400C8280020C428002075DF704776DF7047C8
:109174008FDF70470146014801F04AB8CC2800202F
:1091840008B5074800F02CFF08B1FDF725FF0120C2
:10919400FEF7FCFE0020BDE80840FEF7E3BE00BF7A
:1091A400F028002003881F2B13B5044641D005D8AE
:1091B400102B11D0112B2FD002B010BD3B2B42D05D
:1091C400562B40D0212BF7D1002301A98088ADF87C
:1091D4000430FFF7CDFF31E01D4B1E481E49C01A75
:1091E400C008000440F00300FDF75AFC0022A188E7
:1091F4001A4801F025F908B1FDF7EEFEA1881848D8
:1092040000F0B0FB08B1FDF7E7FE0120FEF7AAFE6F
:109214000020FEF7BBFECFE70D4B0E481149C01AE4
:10922400C008000440F00300FDF73AFCFFF7A8FF74
:10923400C2E700F108018088FFF796FF0028BBD041
:10924400FDF7CAFEB8E71321A088FFF78FFFF5E703
:109254000CAB020034AB020058B20200CC28002050
:10926400981D002063B202000378062B03D14068E6
:1092740008B1FDF7B1BE70470B2810B50C4609D1F3
:109284000D4801F0B1F848B143F20202904212D005
:10929400082810D0BDE81040FDF79EBE0748084BD3
:1092A4000849C01AC0080004224640F00300BDE883
:1092B4001040FDF7F9BB10BDCC28002034AB0200F0
:1092C4000CAB020071B2020070B50D78012D064698
:1092D4000C4602D0022D1ED070BD0A1D19484988C3
:1092E40001F0AEF8184B194862881949C01AC00831
:1092F400000440F00300FDF7D7FBFDF757FE08B16B
:10930400FDF76AFE304601F043F80028E4D0BDE8DA
:109314007040FDF761BE0C4B0C480A790D49C01A28
:10932400C008000440F00300FDF7BEFB2379284683
:109334001BB1BDE87040FEF715BEBDE87040FEF7F6
:1093440025BE00BFCC2800200CAB020034AB0200C9
:1093540088B20200BBB202001FB54FF400410020E6
:10936400FDF7DAF908B1FDF737FEFDF70BF9FEF763
:1093740089F808B1FDF730FE0120FEF72AFE40F21D
:10938400666201213648FDF7BDFD08B1FDF724FEF4
:10939400FEF778FC08B1FDF71FFE01F0A7F808B14D
:1093A400FDF71AFE002369460120009301F026F917
:1093B40008B1FDF711FE684601F0D0F908B1FDF7D8
:1093C4000BFE10220021684601F0F3FA0123254A1E
:1093D40025488DF8043069468DF80C3000F0B0FD56
:1093E40008B1FDF7F9FD002201211F4800F08FFDAF
:1093F40008B1FDF7F1FD1D4A1B48002100F059FD9D
:1094040008B1FDF7E9FD0021194800F049FC08B155
:10941400FDF7E2FD174800F06BFA08B1FDF7DCFD3B
:10942400154B16480093694600F04AFF08B1FDF752
:10943400D3FD134B13481449C01AC008000440F06C
:109444000300FDF72DFBFFF79BFE0020FEF78AFDCE
:10945400FDF7BCF90028FBD1FEF72AFCF8E700BFB2
:10946400901D00206D920200F0280020E1B202005D
:10947400DC28002079910200CD920200CC28002043
:109484000CAB020034AB0200EFB2020070B5C0B105
:109494004AB116880024B44203D305196D789D425D
:1094A40008D0A14201D800200BE0055D01352C4411
:1094B400A4B2F0E7A142F6D9A31C1380005D0138E1
:1094C40080B270BDF7B500230746ADF806301446E8
:1094D40012B9002003B0F0BD09230DF10602FFF715
:1094E400D5FFBDF806500646002DF2D00028F0D076
:1094F400204601F0B8FAB0420246EAD17919204672
:1095040001F0F3F9B0FA80F04009E3E773B5019193
:10951400019C06466CB100252C46294601A8FEF79D
:1095240096F818B106EB440301349D800135142DDF
:10953400F3D13046346002B070BD00002DE9F0472D
:1095440003888488112B8CB006463CD01A2B3FD05C
:10955400102B17D1274DAB68DB430093696868462D
:10956400FEF79EF8009901A8FFF7D0FF0DF1080956
:109574004FF00008019B984507D3132C13D90420FE
:10958400FDF72AFD0CB0BDE8F08739F802AB0027DF
:109594000137514605EB8700FEF74FF81D2FF7D131
:1095A40008F10108E6E721461348FEF73DF8214695
:1095B4001248FEF739F8F37B012BE3D0104821461B
:1095C400FEF732F8DEE70C482146FEF736F8D9E715
:1095D400057A0C482D09012D214606D9FEF724F8F9
:1095E400022D21460848F0D0EAE7FEF726F8214686
:1095F4000548EAE758290020602900205C2900205A
:1096040064290020682900206C2900209BDF704712
:109614009DDF70479EDF704730B50B4B19680B4BCD
:109624000022914201D1002009E09D788478A5426E
:1096340006D11D880488A54202D1054B186830BDA7
:1096440001320433EDE700BFD8290020E02C0020CC
:10965400D029002070B590F8C63216467622A0B004
:1096640002FB03000D46FFF7D7FF044660B17C22DE
:10967400002101A801F09DF901238DF80430ADF813
:109684000660029501A8A04720B070BD2DE9F74FF0
:109694008B4690F8C61201927623804601FB0300A4
:1096A4000091FFF7B9FF814670B3194E3568052D57
:1096B4002AD8184C0099019A4FEAC51A04EB0A07F4
:1096C400762303FB01817A80381D1A4601F048F99C
:1096D400BBF1000F14BF0023022304F80A300E4B21
:1096E400C7F87C901A680135954235601D460BD148
:1096F4000027E36F204698472B6801379F4204F107
:109704008004F6D30023336003B0BDE8F08F00BFBC
:10971400DC2C0020DC290020D829002037B590F863
:10972400C53290F8C6220C46C3B1013B7621DBB2A8
:109734005143122505FB031303445B8A01339BB297
:10974400ADF80430762303FB020201A91389ADF8B6
:1097540006302046FFF75CFF03B030BD762303FBE1
:109764000203DB88ECE7000038B54FF433720D4692
:109774000021044601F01DF9114AA4F8CA5200233D
:109784001360104A84F8C9321268226084F8C63221
:1097940084F8C532224601212846FFF737FF1128F5
:1097A40006D020B9012384F8C73284F8C80238BD32
:1097B400012284F8C72284F8C8221846F7E700BFBC
:1097C400DC2C0020E02C002070B50C4690F8C92257
:1097D400174901320968D2B28A42034680F8C92285
:1097E4004FF0000521D290F8C61280F8C55201311D
:1097F400C9B280F8C612762011FB00F00D4E1A187B
:1098040056F821101950012115712046FFF7FEFE6C
:10981400014648B183F8C75222461846FFF71AFF9B
:10982400054B03221A705C8070BD80F8C752F7E7BD
:10983400D8290020E02C0020DC2900202DE9F34762
:1098440090F8C65290F8C542762315FB03F54619E5
:10985400122796F804E017FB045304F1010C0A33B1
:10986400F445034411D000F11C0A06F122080EF15C
:10987400FF39AA44E5B2AE450BD9A1451D891AD1D9
:1098840033899D4226D100231DE01B893089834200
:1098940005D101230B70002002B0BDE8F08701332D
:1098A400ADF80430ADF8060000230B70104601A992
:1098B400FFF7B0FEF0E707FB04F3013538F803C007
:1098C40065450DD1534490F8C552013580F8C55211
:1098D4000134CFE70135ADF80450ADF80630E3E7C5
:1098E4000CF1FF3CADF80450ADF806C0DCE7000015
:1098F40058B1074A00231360064A01211170064A31
:109904001360064A1060184670470E20704700BF67
:10991400D8290020D4290020DC2C0020D0290020C4
:1099240010B5044680B10C4B1B787BB1FFF774FE75
:1099340070B90A4A1368052B0CD80949246841F800
:1099440023400133136010BD0E20FCE70820FAE722
:109954000020F8E70420F6E7D4290020D8290020C5
:10996400E02C002050B1084A12784AB1074A126824
:1099740032B190F8C7322BB9FFF7F6BE0E2070470C
:109984000820704711207047D4290020D8290020CE
:109994002DE9F7430C460546C8B1C1B1974B1B7876
:1099A400ABB10388302B35D014D8112B00F01581BE
:1099B40094F8C8325BB12B88303B1F2B07D8B4F81E
:1099C400CA32A988994202D12046FFF7CDFE03B0DE
:1099D400BDE8F083322B3FD0332BE9D18288B1F834
:1099E400CA329342E4D1C68891F8C6C291F8C572CE
:1099F400002E00F0BC80762101FB0C4C7B1C9CF8F3
:109A0400041000268B428DF8076000F0E08084F893
:109A1400C5329DE08388B1F8CA229A42C8D1C6886B
:109A24008EB991F8C632762101FB03430169C3F86C
:109A3400061020461146FFF771FE01460028B7D0F4
:109A440084F8C7624CE000212046FFF71FFEA98876
:109A54002046FFF7B9FEABE78288B1F8CA329A42D2
:109A6400A6D1C388002B6FD191F8C662762316FB6A
:109A740003F701EB0709837A99F804603344062B52
:109A840038DC89F8043006EBC60307EB430305F121
:109A94000C0C2344002299F8040086420CF10A0CB1
:109AA40003F112033DD31223013E03FB064694F84F
:109AB400C632762202FB03433E441B89728A9A42D1
:109AC40042D2062840D0A98884F8C5022046FFF770
:109AD40025FE014600283FF46BAF002384F8C7320B
:109AE400AA882046FFF7B6FD454B03221A70AA88C0
:109AF4005A805DE7062389F80430424A424BA3EBBF
:109B040002084FEAD8084FEA084848F00208CA5B3E
:109B14003E494046FCF7C8FF3D494046FCF7C0FFBC
:109B2400B1E76046A3F1080150F80AED43F808ECE8
:109B3400D0F804E043F804EC0089088101365A8027
:109B44009A80DA801A81A6E7002684F8C562AA887A
:109B54000DF107012046FFF771FE014600287FF44E
:109B64006FAF9DF80730002B3FF422AF32E076232D
:109B740003FB0CF1122303FB0713B0F80AE02344A0
:109B84007645BFF438AFC189A1F52451082908D816
:109B9400DFE801F014170507070707071A00818992
:109BA4009982998A39B1D98A29B1198B19B1598BFA
:109BB40000297FF420AF01360630E1E78189D9829C
:109BC400EFE781891983ECE781895983E9E7012368
:109BD4008DF80730AA88012136E78288B1F8CA32A5
:109BE4009A427FF4E5AE002381F8C73281F8C83287
:109BF4004FF6FF73A1F8CA32DAE600BFD429002079
:109C0400DC2900200CAB02003CAB02000FB30200C5
:109C140055B3020090DF7047A5DF7047B5DF70478A
:109C24007FB50023ADF80810ADF80A106A4602A902
:109C3400064603930093ADF80430FFF7EBFF0546A7
:109C440000B3124B124CE41AE408FEF795F824040E
:109C540044F00104034632460E492046FCF72DFF2A
:109C6400BDF80020BDF8023052EA030103D00A49CE
:109C74002046FCF722FFBDF804201AB1074920460C
:109C8400FCF712FF284604B070BD00BF0CAB020005
:109C94005CAB0200BBB3020005B4020044B4020092
:109CA40078B14FF0171303601B2303711723C3808C
:109CB400038141F61B3200230161438182811846EE
:109CC40070470E207047000013B5034680880C4689
:109CD400A0B91A88232A00F0A38011D8102A22D010
:109CE400112A51D0A37A4BB1E1880020FFF794FFE9
:109CF400002840F09B804FF48073638102B010BD54
:109D04003A2A49D0552A5FD0242AEBD11A7A0B6912
:109D14004A73002BE6D04DF67A21ADF80400009189
:109D24008DF8042078E0DB7B0A790A73012B13D0C9
:109D3400022B14D0E18823898B4205D20020FFF73F
:109D44006BFF70B90123E372217B637B8B42C9D221
:109D54000020FFF765FFC5E70B88E380EAE74B883F
:109D6400FBE7112802D10123A372EDE7FEF704F803
:109D7400374A384B38499B1ADB081B04024643F028
:109D84000100FCF791FEDFE71723CB800B8141F63E
:109D94001B3348818B81A5E75B89CA88934228BF1E
:109DA4001346172B0A6938BF17230B814AB1C97AA6
:109DB40039B140F677210091ADF804306946204668
:109DC4009047002363818DE7DB88C988A072172B35
:109DD40038BF17238B4228BF0B462381FFF71EFF92
:109DE40060B1FDF7C9FF1A4A1A4B1C499B1ADB08DC
:109DF4001B04024643F00100FCF756FEE37A002BF5
:109E04007FF470AF2369002B3FF46CAF40F67722E8
:109E140000922289ADF8042069462046984761E7FC
:109E2400197A237B994228BF194692E711283FF4F7
:109E340065AFFDF7A1FF064A064B07499B1ADB08ED
:109E44001B04024643F00100FCF72EFE56E700BF58
:109E54000CAB02005CAB02009AB40200CBB402006B
:109E64008ADF70478BDF70478CDF704770B590F8DE
:109E7400233086B004460D46CBB190F82C60FFF732
:109E8400F1FF1422002101A800F093FD334604F1F0
:109E9400240204F12E01A81CFFF7E6FF06238DF827
:109EA4000430029018B1E36B0BB101A8984706B0D7
:109EB40070BD70B51546044618B312B319BB1046ED
:109EC40000F0D1FD0138C0B21F281ED894F82060DC
:109ED4000EB1042014E02946204600F09DFD78B11F
:109EE40094F820305A1C84F82020284604EB4314AC
:109EF40000F0B9FD29460246204600F031FD304607
:109F040070BD0E20FCE70720FAE70C20F8E768B1E3
:109F1400CB060DD011F0010116BF012380F82110EA
:109F240080F8213080F82220002070470E207047EE
:109F34000720704790F82E00C0F3C000704700005F
:109F440038B50D460446002843D0C26300212322BD
:109F540000F02FFD65B32B7984F823302B7B84F834
:109F64002C302B68D3B104F12E0203F10C0153F809
:109F7400040B42F8040B8B42F9D11B881380AA68A6
:109F84000AB31068516804F1240303C304F14003C5
:109F940023661F23A4F86430002038BDE28DA38615
:109FA40002F0E30242F48272E2850B4A2263E6E79E
:109FB400E38DA58603F0E30343F48273E385064B44
:109FC400236384F82350054A4FF0C873C4E9092376
:109FD400DCE70E20E1E700BFA000500006001800F7
:109FE40010B5044686B048B31422002101A800F03D
:109FF400E0FCFFF737FF2046FFF79CFF30B1E36B2F
:10A0040023B101228DF8042001A8984704F16001CE
:10A0140004F12E00FFF724FF044630F008000BD0B3
:10A02400074B08480849C01AC008000440F0010062
:10A034002246FCF739FD204606B010BD0E20FBE792
:10A044000CAB02004CAB020007B502002DE9F04F47
:10A05400054689B035F8083B1B2B07460C4600F033
:10A06400848005D8102B00F0978009B0BDE8F08FEC
:10A074001D2B17D0202BF8D11422002103A800F0A7
:10A0840098FCE26B002AF0D02868696805238DF8F3
:10A094000C3004AB03C32E34297A0794197003A837
:10A0A4009047E2E71422002103A800F082FC04F1A7
:10A0B4002E0320460793FFF73DFF04F1600906468F
:10A0C40078B102238DF80C3003A8E36B049598470C
:10A0D40049460020FFF7C4FE29462046FFF7C6FE86
:10A0E400C3E794F8213094F822A09BB394F820B0ED
:10A0F400BB8CA04604EB4B1BD84517D1002301228F
:10A104000495BAF1000F28D09A422AD100238DF881
:10A114000C3029462046FFF7A9FEE36B0BB103A8D8
:10A12400984749460020FFF79BFE9EE742461946A2
:10A13400386A0193FFF7C6F908F12008019B00284B
:10A14400DAD09DF8143043F001038DF8143006463C
:10A154000123D4E703460246D2E716B18DF80CA0DA
:10A16400D7E703238DF80C30D7E71422002103A886
:10A1740000F01FFC3A7A012A7FF477AFE36B002BDF
:10A184003FF473AF04212E348DF80C1007948DF82E
:10A19400102003A8984768E71422002103A800F0C0
:10A1A40008FC07238DF80C30BB88ADF8143004F19B
:10A1B4002E030793E36B0495002BEAD155E7A1DF47
:10A1C4007047A3DF704762DF7047000070B50D4A27
:10A1D4000D4D12682B6893420ED00C4914245C4335
:10A1E4000E19085BB27842B9B188FFF7E8FF18B9D5
:10A1F400013303F007032B6070BD08342144FFF7DB
:10A20400E0FFF4E79C2D0020982D0020F82C00207E
:10A214002DE9FF470B780246002B3DD18C8841F293
:10A224002350844238D18C79107B844234D101206C
:10A234008DF8040091F808804888BDF80C70BDF8CA
:10A244000A50BDF80840ADF806001E469C46184664
:10A2540041F2245941F2255A804520D8BCF1000F1F
:10A2640001D0ADF80C700EB1ADF80A500BB1ADF8D9
:10A27400084011884FF6FF73994209D053683BB9DF
:10A2840053882BB90298BDF80C30C2F80200D38071
:10A29400936801A91046984704B0BDE8F087B1F867
:10A2A4000EE0CE4507D0D64502D1CF8A4FF0010C3F
:10A2B40001301231D0E70123CD8A0C8B1E46F7E71B
:10A2C400F0B5174A87B002AC03460E4602F1100CF3
:10A2D400274610685168254603C5083262452C4656
:10A2E400F7D1D3B1CEB13268BAB14FF6FF700021C5
:10A2F400C3E900019A6003F10C013846FFF763FFDC
:10A3040048B91B7B8DF8063001A841F22353ADF800
:10A314000430FFF705FB07B0F0BD0E20FBE700BFDC
:10A3240034B502001FB50B4641B338B30288382A4E
:10A3340026D0392A0BD0112A20D181881A8891423B
:10A3440002BF4FF6FF710022C3E9001216E009882C
:10A3540082888A4212D1448999888C420ED1C1895B
:10A3640001290BD10221ADF80620027C8DF80410DE
:10A374008DF8082001A99A681846904704B010BDCA
:10A384000A8883889A42F9D1FFF720FFF6E7000094
:10A3940038B508B305884FF6FF739D421ED0104AA6
:10A3A400448811680F484B1C03F007031360142200
:10A3B4004A4383180221D981111D01445C8119612A
:10A3C4000024012185529C81197219715C71997064
:10A3D400FFF7FCFE204638BD0E20FCE70820FAE714
:10A3E4009C2D0020F82C0020F8B500B307884FF608
:10A3F400FF739F421DD0104A104D1468C088631C1F
:10A4040003F00703136014226243AB18012658813A
:10A41400101D28441861002402201872DE819C81DA
:10A4240019719E70AF52FFF7D1FE2046F8BD0E2081
:10A43400FCE70820FAE700BF9C2D0020F82C002040
:10A4440040B1018022B11368C0F802309388C38000
:10A45400002070470E20704710DF704713B5044684
:10A4640009496846FDF753FC019808B902B010BDCC
:10A47400D0E900312046984718B16846FDF751FCF1
:10A48400F2E71120F2E700BF54B5020013B5044609
:10A4940007496846FDF73BFC019B0BB902B010BDB0
:10A4A4002046D3E9002190476846FDF73AFCF3E7DC
:10A4B4006CB502000B4991F816335A09EC23134189
:10A4C400DB0706D5084B9A683AB94FF480030B6052
:10A4D400704742F20200FCF77FBD1A6842F4800222
:10A4E4001A60704700E100E0A8270020F7B5194F73
:10A4F4003C7864BB184E012520463570FFF7AEFF4B
:10A50400112821D02046FFF7C1FF144B8DF80340DA
:10A51400186801900DF10300FDF74CF8104901A8EB
:10A52400FFF79AFF0446B0FA80F0400938709DF8AE
:10A534000300FDF763F83CB90A4B34701C70FFF755
:10A54400B9FF2846FFF7A2FF204603B0F0BD082458
:10A55400FAE700BFA12D0020A02D00204EB5020077
:10A56400F96F0200A22D0020014B1878704700BF3C
:10A57400A12D002007B508496846FDF7C8FB019BDB
:10A5840013B903B05DF804FBD3E900209047684693
:10A59400FDF7C7FBF3E700BF60B50200FFF7EABFB2
:10A5A40060DF704769DF704761DF704730B5114B7A
:10A5B4001B7891B0E3B1104D34240DF1020103A8CE
:10A5C400ADF80240FFF7F0FF70B9294601A8FDF786
:10A5D4009EFB029B002BF0D003A8D3E900219047F7
:10A5E40001A8FDF79EFBF4E7052801D0FCF7F4FC75
:10A5F40011B030BDA32D0020ACB7020030B5054624
:10A6040085B00C46002900F097804C4B0B600C225F
:10A61400002101A800F0CDF901238DF8063022684D
:10A624008DF80450062301A92020ADF80830FFF767
:10A63400B9FF60B1FDF7A0FB414A424B42499B1A66
:10A64400DB081B04024643F00100FCF72DFA0C2240
:10A65400002101A800F0ADF900238DF8053022682F
:10A6640040F2011301A94020ADF80630FFF79AFF2C
:10A6740060B1FDF781FB324A324B34499B1ADB0847
:10A684001B04024643F00100FCF70EFA0C220021E1
:10A6940001A800F08EF90A2322688DF8043001A97C
:10A6A4000120FFF77FFF60B1FDF766FB244A254BCD
:10A6B40027499B1ADB081B04024643F00100FCF700
:10A6C400F3F90C22002101A800F073F9F8232268A1
:10A6D400019301A9A120FFF765FF60B1FDF74CFBD1
:10A6E400174A184B1B499B1ADB081B04024643F00C
:10A6F4000100FCF7D9F90C22002101A800F059F956
:10A704009DF8043022686FF3000301A9A0208DF89E
:10A714000430FFF747FF68B1FDF72EFB084A094BE9
:10A724000D499B1ADB081B04024643F00100FCF7A9
:10A73400BBF9002005B030BD0E20FBE7701D0020E2
:10A744000CAB02006CAB020080B50200C6B502007F
:10A7540012B602005EB60200AFB60200F8B50646B5
:10A764000768FFF71DFF3368BB4205461DD9194B27
:10A77400194C1A49E41AE408240444F0020420465B
:10A78400FCF78EF9336816493A462046FCF795F9EA
:10A794004FF080533268D3F80C3112499B0203F115
:10A7A40000539A1A2046FCF77FF925B90E4B012273
:10A7B4001A702846F8BD2846FDF7DEFA054A064B0E
:10A7C4000A499B1ADB081B04024643F00100FCF70C
:10A7D4006BF9EEE70CAB02006CAB020002B70200AF
:10A7E40031B7020062B70200A32D00208CB702002B
:10A7F4004BDF70471FB50D4C01A8FFF7F9FF70B987
:10A80400214602A8FDF783FA039B002BF4D001989C
:10A81400D3E90021904702A8FDF783FAF4E705285D
:10A8240001D0FCF7D9FB04B010BD00BFC4B70200CF
:10A834007F2805D8034B185C034B5B5C18407047BA
:10A8440000207047DCB702005CB80200A0F161038D
:10A85400192B98BF20387047A0F14103192B98BFDA
:10A86400203070477F2805D8034B185C034B5B5C92
:10A874001840704700207047DCB702005CB8020043
:10A88400A0F16103192B98BF20387047A0F1410350
:10A89400192B98BF203070477F299ABF017001207F
:10A8A4006FF02E0070475AB10A787F2A0AD800B197
:10A8B4000260002119605960501A18BF01207047C6
:10A8C400002070476FF02E007047000008B5034B5E
:10A8D4005B689B681B68984708BD00BF6420002024
:10A8E40008B50921FFF7F2FF08BD002A36D070B47D
:10A8F40013460F2A1AD940EA010212F0030F01D0BD
:10A904005A1E15E004680A689442F9D1043B041DF8
:10A914000A1D114620460434043206680D68AE420E
:10A92400EED120461146043B042BF2D85A1E10D017
:10A9340004780B789C420CD1431C4C1C02441846EE
:10A944002146934205D00133013406780D78AE4296
:10A95400F5D000780B78C01A70BC7047002070479F
:10A96400844640EA010313F0030F18D18446202AD9
:10A974000BD32DE9F007B1E8F807A0E8F807A2F136
:10A984002002202AF7D2BDE8F007042A07D351F8A1
:10A99400043B40F8043BA2F10402042AF7D2002A43
:10A9A40005D011F8013B00F8013B013AF9D16046AA
:10A9B40070478446002A2DD010F0030F04D000F80D
:10A9C400011B013A26D0F7E7C9B241EA012141EA65
:10A9D4000141202A12D3A2F120022DE9F0030B46F3
:10A9E4000C460D460E460F4688468946A0E8FA03F3
:10A9F400203AFBD2BDE8F00320320BD0042A05D361
:10AA040040F8041B043A05D0042AF9D200F8011BCB
:10AA1400013AFBD16046704710F0030F19D111F0D1
:10AA2400030F16D12DE970004FF001364FF080333B
:10AA340050F8044B51F8045BAC4205D1A4EB060575
:10AA440025EA04051D40F3D0A0F10400A1F104019E
:10AA540070BC10F8012B11F8013BD21A01D1002B64
:10AA6400F7D11046704700F1010110F0030F11D027
:10AA740010F8012B002A23D010F0030F0AD010F88D
:10AA8400012B002A1CD010F0030F03D010F8012B67
:10AA9400002A15D02DE970004FF001324FF08033B9
:10AAA40050F8044BA4EB020525EA04051D4000D12F
:10AAB400F6E7A0F1040070BC10F8012B002AFBD1CA
:06AAC400A0EB0100704749
:08AACC005580020000000000AB
:10AAD4004195020000000000ED900200000000001B
:10AAE40095990200981D0020CD9C0200DC280020CE
:10AAF40051A00200F028002029A30200CC28002045
:08AB0400A9910200000000000D
:10AB0C003CB202000000000042B202000000000053
:10AB1C0049B20200000000004DB20200000000002B
:10AB2C0052B20200000000001DAC02000000030342
:10AB3C00AFB302000000030344B50200000003039E
:10AB4C002BB502000000030336B202000000000027
:10AB5C00FAB402000000030378B5020000000303FE
:10AB6C00B8B7020000000303D0B7020000000303D3
:08AB7C0034AD020000000000EE
:10AB8400BC200020842100208C210020C42000202F
:04AB940018000000A5
:08AB9800D5800200000000005E
:10ABA000B1A5020000000000F9A7020000000000AB
:10ABB000E0AB020000000000ECAB0200841D0020AE
:10ABC000FFFFFFFFFFFFFFFFFFFFFFFFFFFFFFFF95
:10ABD00000000000000000000000D6010601000097
:10ABE000F164020055650200A1640200756172748F
:10ABF0005F6C6F675F6261636B656E64000000008D
:10AC0000B02500207F000000302600204261636BE9
:10AC1000656E647320666C7573686564006170703E
:10AC20000000000057AC0200A0AC02005FAC0200C4
:10AC3000A8AC0200B0AC0200B8AC0200C0AC02008C
:10AC4000C8AC0200D0AC02002025303278002020B1
:10AC500020007C002563001B5B306D002573001B0A
:10AC60005B313B33316D0025734C6F677320647229
:10AC70006F70706564202825642925730D0A003CD7
:10AC800025733E2025733A200000000000000000DC
:10AC9000F6AC0200D8AC0200E0AC0200E5AC020069
:10ACA0001B5B313B33306D001B5B313B33326D003E
:10ACB0001B5B313B33336D001B5B313B33346D0029
:10ACC0001B5B313B33356D001B5B313B33366D0015
:10ACD0001B5B313B33376D007761726E696E6700C5
:10ACE000696E666F0064656275670000502600201B
:10ACF000466174616C206572726F7200537973746F
:10AD0000656D20726573657400000000000000002E
:10AD10000338FDD87047303132333435363738395F
:10AD200041424344454600000CAB02000CAB02001C
:10AD3000040000007077725F6D676D7400556E6B74
:10AD40006E6F776E206572726F7220636F6465003C
:10AD50000000000078AE02000100000084AE020096
:10AD600002000000A2AE020003000000C3AE020019
:10AD700004000000D6AE020005000000E7AE0200AD
:10AD800006000000FBAE02000700000013AF020047
:10AD9000080000002BAF02000900000043AF0200D2
:10ADA0000A0000005CAF02000B00000074AF02005C
:10ADB0000C0000008BAF02000D0000009FAF0200EE
:10ADC0000E000000B1AF02000F000000C0AF020093
:10ADD00010000000D4AF020011000000EBAF020031
:10ADE00012000000FAAF0200130000000FB00200D2
:10ADF0008000000023B002008100000044B0020087
:10AE00008200000060B00200830000007CB00200FD
:10AE1000840000009AB0020085000000BBB0020070
:10AE200086000000E0B0020090000000F7B00200D1
:10AE30009100000015B102009200000033B1020041
:10AE40000082000048B102000182000066B10200E9
:10AE50000282000082B10200008400009EB1020064
:10AE600001840000C2B1020002840000ECB10200C3
:10AE70000384000011B202004E52465F5355434313
:10AE8000455353004E52465F4552524F525F535600
:10AE9000435F48414E444C45525F4D495353494EE0
:10AEA00047004E52465F4552524F525F534F4654F1
:10AEB0004445564943455F4E4F545F454E41424CD1
:10AEC0004544004E52465F4552524F525F494E54E0
:10AED00045524E414C004E52465F4552524F525FD2
:10AEE0004E4F5F4D454D004E52465F4552524F52B8
:10AEF0005F4E4F545F464F554E44004E52465F459D
:10AF000052524F525F4E4F545F535550504F525410
:10AF10004544004E52465F4552524F525F494E568D
:10AF2000414C49445F504152414D004E52465F45AD
:10AF300052524F525F494E56414C49445F5354411F
:10AF40005445004E52465F4552524F525F494E564D
:10AF5000414C49445F4C454E475448004E52465F71
:10AF60004552524F525F494E56414C49445F464C00
:10AF7000414753004E52465F4552524F525F494E31
:10AF800056414C49445F44415441004E52465F454E
:10AF900052524F525F444154415F53495A45004E0B
:10AFA00052465F4552524F525F54494D454F55549A
:10AFB000004E52465F4552524F525F4E554C4C0028
:10AFC0004E52465F4552524F525F464F524249449D
:10AFD00044454E004E52465F4552524F525F494ED5
:10AFE00056414C49445F41444452004E52465F45ED
:10AFF00052524F525F42555359004E52465F45528E
:10B00000524F525F434F4E4E5F434F554E54004E8A
:10B0100052465F4552524F525F5245534F5552432D
:10B020004553004E52465F4552524F525F4D4F447A
:10B03000554C455F4E4F545F494E495449414C4928
:10B040005A4544004E52465F4552524F525F4D554D
:10B050005445585F494E49545F4641494C45440068
:10B060004E52465F4552524F525F4D555445585FC0
:10B070004C4F434B5F4641494C4544004E52465F5E
:10B080004552524F525F4D555445585F554E4C4FA7
:10B09000434B5F4641494C4544004E52465F455242
:10B0A000524F525F4D555445585F434F4E445F4990
:10B0B0004E49545F4641494C4544004E52465F4517
:10B0C00052524F525F4D4F44554C455F414C524593
:10B0D0004144595F494E495449414C495A454400FD
:10B0E0004E52465F4552524F525F53544F52414762
:10B0F000455F46554C4C004E52465F4552524F52AA
:10B100005F4150495F4E4F545F494D504C454D454E
:10B110004E544544004E52465F4552524F525F4690
:10B120004541545552455F4E4F545F454E41424C48
:10B130004544004E52465F4552524F525F494F5F61
:10B1400050454E44494E47004E52465F4552524F7D
:10B15000525F4452565F5457495F4552525F4F56B3
:10B16000455252554E004E52465F4552524F525F25
:10B170004452565F5457495F4552525F414E4143D6
:10B180004B004E52465F4552524F525F4452565FFB
:10B190005457495F4552525F444E41434B004E5213
:10B1A000465F4552524F525F424C455F49505350A3
:10B1B0005F52585F504B545F5452554E4341544573
:10B1C00044004E52465F4552524F525F424C455FDB
:10B1D000495053505F4348414E4E454C5F414C529D
:10B1E000454144595F455849535453004E52465FB8
:10B1F0004552524F525F424C455F495053505F4C4D
:10B20000494E4B5F444953434F4E4E45435445448A
:10B21000004E52465F4552524F525F424C455F4985
:10B220005053505F504545525F52454A454354453F
:10B2300044000D0E0F10636C6F636B00434C4F4363
:10B240004B004750494F544500505253005541520E
:10B250005400554152544500436F6E6E65637465EA
:10B26000642E00446973636F6E6E65637465642E4B
:10B27000004C4253207772697465204C454420731A
:10B2800074617465202564004C45442042757474D3
:10B290006F6E207365727669636520646973636F8E
:10B2A0007665726564206F6E20636F6E6E5F686195
:10B2B0006E646C6520307825782E00427574746F4A
:10B2C0006E207374617465206368616E67656420C5
:10B2D0006F6E207065657220746F20307825782E2F
:10B2E000004E6F726469635F426C696E6B790042F5
:10B2F0006C696E6B792043454E5452414C20657801
:10B30000616D706C6520737461727465642E004E9B
:10B310006F7420656E6F7567682073706163652058
:10B32000666F7220636861726163746572697374B9
:10B33000696373206173736F6369617465642077F7
:10B34000697468207365727669636520307825308A
:10B350003458202100496E63726561736520424C48
:10B36000455F474154545F44425F4D41585F4348F5
:10B3700041525320746F2062652061626C652074B5
:10B380006F2073746F7265206D6F726520636861E2
:10B3900072616374657269737469637320666F7236
:10B3A0002065616368207365727669636521006258
:10B3B0006C655F64625F646973630073645F626C91
:10B3C000655F6761705F646174615F6C656E67740F
:10B3D000685F7570646174652829202872657175CD
:10B3E00065737429206F6E20636F6E6E6563746978
:10B3F0006F6E20307825782072657475726E656482
:10B400002025732E0054686520726571756573740C
:10B4100065642054582F5258207061636B65742006
:10B420006C656E67746820697320746F6F206C6F31
:10B430006E672062792025752F2575206F637465EE
:10B4400074732E0054686520726571756573746538
:10B450006420636F6D62696E6174696F6E206F66E0
:10B4600020545820616E64205258207061636B65CF
:10B4700074206C656E6774687320697320746F6FD5
:10B48000206C6F6E67206279202575206D6963726C
:10B490006F7365636F6E64732E0073645F626C65B7
:10B4A0005F67617474635F65786368616E67655F29
:10B4B0006D74755F72657175657374282920726586
:10B4C0007475726E65642025732E0073645F626C00
:10B4D000655F67617474735F65786368616E6765E3
:10B4E0005F6D74755F7265706C7928292072657460
:10B4F00075726E65642025732E006E72665F626CD5
:10B50000655F676174740073645F626C655F676137
:10B51000705F7363616E5F737461727420726574BF
:10B5200075726E6564203078257800626C655F7393
:10B5300063616E0023D1BCEA5F782315DEEF12123F
:10B5400000000000626C655F6C62735F6300010065
:10B550000007000098AB020098AB02000800000052
:10B56000A0AB0200B0AB02000800000098AB0200E4
:10B57000A0AB0200080000006E72665F7364680092
:10B5800073645F626C655F6366675F7365742829C7
:10B590002072657475726E65642025732077686506
:10B5A0006E20617474656D7074696E6720746F20AD
:10B5B00073657420424C455F434F4E4E5F43464790
:10B5C0005F4741502E0073645F626C655F6366671E
:10B5D0005F73657428292072657475726E656420C6
:10B5E0002573207768656E20617474656D70746969
:10B5F0006E6720746F2073657420424C455F47412D
:10B60000505F4346475F524F4C455F434F554E5442
:10B610002E0073645F626C655F6366675F73657459
:10B6200028292072657475726E65642025732077F1
:10B6300068656E20617474656D7074696E672074DE
:10B640006F2073657420424C455F434F4D4D4F4E04
:10B650005F4346475F56535F555549442E00736418
:10B660005F626C655F6366675F736574282920722B
:10B67000657475726E6564202573207768656E2029
:10B68000617474656D7074696E6720746F20736582
:10B690007420424C455F47415454535F4346475FD3
:10B6A000415454525F5441425F53495A452E0073EE
:10B6B000645F626C655F6366675F736574282920E9
:10B6C00072657475726E6564202573207768656E87
:10B6D00020617474656D7074696E6720746F207377
:10B6E000657420424C455F47415454535F4346477D
:10B6F0005F534552564943455F4348414E47454491
:10B700002E00496E73756666696369656E742052B2
:10B71000414D20616C6C6F636174656420666F726B
:10B720002074686520536F66744465766963652E7E
:10B73000004368616E6765207468652052414D2042
:10B740007374617274206C6F636174696F6E2066CC
:10B75000726F6D203078257820746F2030782578CE
:10B760002E004D6178696D756D2052414D207369D1
:10B770007A6520666F72206170706C6963617469AC
:10B780006F6E20697320307825782E0073645F62B5
:10B790006C655F656E61626C6528292072657475E1
:10B7A000726E65642025732E00000000D4AA02008A
:10B7B0000CAB0200080000006E72665F7364685F85
:10B7C000626C6500CCAA0200D4AA02000800000046
:10B7D0006E72665F7364685F736F63002020202061
:10B7E00020202020206828282828202020202020F1
:10B7F0002020202020202020202020204810101051
:10B800001010101010101010101010108484848468
:10B81000848484848484101010101010108181811D
:10B820008181810101010101010101010101010188
:10B83000010101010101011010101010108282821B
:10B840008282820202020202020202020202020258
:10B850000202020202020210101010200007032050
:10B8600004170201085710408000000010BA0200BF
:10B87000D4B80200E8B9020053756E004D6F6E0037
:10B880005475650057656400546875004672690018
:10B8900053617400000000004A616E00466562005A
:10B8A0004D617200417072004D6179004A756E0001
:10B8B0004A756C0041756700536570004F637400F2
:10B8C0004E6F76004465630000000000414D00505B
:10B8D0004D0000000CBA020008BA020008BA0200CB
:10B8E00008BA020008BA020008BA020008BA020048
:10B8F00008BA020008BA020008BA0200FFFFFFFF00
:10B90000FFFFFFFFFFFFFFFFFFFF000048B902003E
:10B9100078B8020084B9020098B80200CCB80200DE
:10B920002CB90200DCB9020038B90200256D2F25C0
:10B93000642F2579000000002561202562202565FF
:10B94000202554202559000053756E646179004DFF
:10B950006F6E646179005475657364617900576531
:10B96000646E65736461790054687572736461799B
:10B97000004672696461790053617475726461791B
:10B98000000000004A616E7561727900466562725E
:10B9900075617279004D6172636800417072696C03
:10B9A000004D6179004A756E65004A756C790041F9
:10B9B00075677573740053657074656D62657200A8
:10B9C0004F63746F626572004E6F76656D6265726B
:10B9D00000446563656D62657200000025483A2584
:10B9E0004D3A25530000000035A8020051A802007E
:10B9F0005DA8020069A8020085A8020091A80200C3
:10BA00009DA80200ABA80200000000002E0000006C
:0CBA100043000000504F53495800000054
:10BA1C00000000000020004000000000002000405A
:10BA2C000000000000000000FF0000000090D003A8
:10BA3C000B0003007D9202000000000000000000DB
:10BA4C0000000000000000000000000000000000EA
:10BA5C0000000000000000000000000000000000DA
:10BA6C0000000000000000000000000000000000CA
:10BA7C0000000000000000000000000000000000BA
:10BD0C000000FFFF6CB802006CB802006CB80200B7
:08BD1C006CB802006CB80200D3
:040000032000637501
:00000001FF
