:1000000000000420750300005D0300005F03000092
:1000100061030000630300006503000000000000AE
:10002000000000000000000000000000810500004A
:100030006903000000000000A10500006D0300003E
:10004000491900006F0300006F0300006F030000F8
:100050006F0300006F0300000D1A00006F03000023
:100060006F0300006F0300006F0300006F030000C8
:100070006F0300006F0300006F0300006F030000B8
:100080006F030000A10600006F0300006F03000073
:100090006F0300006F0300006F0300006F03000098
:1000A0006F0300006F0300006F0300006F03000088
:1000B0006F0300006F03000000000000000000005C
:1000C0006F0300006F0300006F0300006F03000068
:1000D0006F0300006F0300006F0300006F03000058
:1000E0006F0300006F0300006F03000000000000BA
:1000F000000000006F030000000000006F0300001C
:1001000000000000000000000000000000000000EF
:1001100000000000000000000000000000000000DF
:1001200000000000000000000000000000000000CF
:1001300000000000000000000000000000000000BF
:1001400000000000000000000000000000000000AF
:10015000000000000000000000000000000000009F
:10016000000000000000000000000000000000008F
:10017000000000000000000000000000000000007F
:10018000000000000000000000000000000000006F
:10019000000000000000000000000000000000005F
:1001A000000000000000000000000000000000004F
:1001B000000000000000000000000000000000003F
:1001C000000000000000000000000000000000002F
:1001D000000000000000000000000000000000001F
:1001E000000000000000000000000000000000000F
:1001F00000000000000000000000000000000000FF
:10020000354936480A1A02D0072291438D463449AF
:1002100034480A1A06D00722914381F30988022242
:1002200082F3148830483149314A00F044F83148AB
:100230003149324A00F03FF831483249324A00F041
:100240003AF832483249334A00F035F832483349F7
:10025000334A00F030F833483349344A00F02BF881
:1002600033483449344A00F026F8344834490022EF
:1002700000F02CF833483449002200F027F83348C6
:100280003349091A082902DB002202604160314A21
:1002900090471F481F49884205D00268043003B4C4
:1002A000904703BCF7E700208646EC46002000217B
:1002B000294A9047FEE7884207D0521A05D00378B2
:1002C00001300B700131013AF9D17047884202D0F8
:1002D00002700130FAE770470000042000E00320BC
:1002E0000000042000000420001F00000000002087
:1002F00004000020D4030000D4030000E01E00002E
:10030000001F00000000002000000020E01E000090
:10031000E01E0000E01E0000E01E0000E01E0000E5
:10032000E01E0000E01E0000E01E0000001F0000B4
:10033000041F00000400002004000020040000202E
:10034000CC110020CC110020CC110020CC110020B9
:10035000CC3100209D030000D11B0000FEE7FEE72A
:10036000FEE7FEE7FEE7FEE7FEE7FEE7FEE7FEE765
:10037000704700BF1048804710484FF0070188437E
:1003800085460F4880470F48016841F470010160BD
:10039000BFF34F8FBFF36F8FFFF732BF0A480B4990
:1003A0000B4A884207D0521A05D0037801300B70EF
:1003B0000131013AF9D170477103000000000420B7
:1003C000711C000088ED00E0E01E0000000000202D
:0403D0000000002009
:1003D400074B1B5C1F2B86BF03F01F0305494FF01F
:1003E400A041012202FA03F3C1F80835704700BFA7
:1003F400E01E00000003005008B50020FFF7E8FFEE
:100404000120FFF7E5FF0220FFF7E2FF0320BDE82C
:100414000840FFF7DDBF00000A4B185C1F288ABFA5
:10042400094B4FF0A04300F01F00D3F8042501212D
:10043400814021EA02000A40C3F80805C3F80C25EC
:10044400704700BFE01E000000030050C20710B553
:1004540004460CD54FF0A0430322C3F83427C3F855
:100464003827C3F83C27C3F84027FFF7C5FFA30785
:100474000AD54FF0A0430C22C3F82C27C3F8302729
:10048400C3F86027C3F8642710BD000038B54307DC
:1004940004461CBF20F00704083400F06BFD0C4B2D
:1004A4001A681AB90B4A22F007021A600A490A6844
:1004B40040F6F7701444844208D8A24206D21D685C
:1004C4000C60154400F0E4FD284638BD0025F9E72A
:1004D400040000201000002008100020704700F1E4
:1004E40008034FF0FF324360C0E902230361002395
:1004F4000360704700230361704743684B609A6848
:100504008A609A68516099600368086101330360E6
:1005140070470A68531C30B50AD103695A684A60A7
:1005240091608B605960036808610133036030BDDA
:1005340000F108035C6825689542EFD82346F9E783
:10054400D0E9011203698A6051605968814208BF89
:100554005A60002202611A68013A1A6018687047EA
:100564000548006880F3088862B661B6BFF34F8F10
:10057400BFF36F8F00DF00BF00000000064B196857
:100584000868B0E8F04F80F30988BFF36F8F4FF02D
:10059400000080F31188704720100020EFF30980D9
:1005A400BFF36F8F144B1A681EF0100F08BF20EDB5
:1005B400108A20E9F04F10604DF8043D4FF04000E0
:1005C40080F31188BFF34F8FBFF36F8F00F026FEC7
:1005D4004FF0000080F3118808BC19680868B0E87F
:1005E400F04F1EF0100F08BFB0EC108A80F309889A
:1005F400BFF36F8F704700BF20100020402383F3A8
:100604001188FEE74FF0807340E90213054B40F870
:100614000C3C6FF0020340F8202C40F8243C443892
:10062400704700BF010600000F4C08B5E02384F8B2
:10063400223000F06FF80D4B00221A60D4F8883095
:100644000B4A43F47003C4F88830536843F04043C2
:100654005360236943F010032361FFF781FF4023B4
:1006640083F31188FEE700BF00ED00E00C100020CA
:1006740030EF00E0402383F31188024A136801330A
:10068400136070470C100020034A1368013B136089
:100694000BB983F3118870470C10002073B51A4B03
:1006A40000221A601B680193019BEFF3118640231B
:1006B40083F31188154BD3F80445C3F8002103F5DF
:1006C40080731B680093009B00F05CFC201A20F0F0
:1006D4007F4424F0010020B100F080FE022818BFFE
:1006E4000124002514F1FF3409D225B1084B4FF041
:1006F40080525A6040BF86F3118802B070BD00F08A
:100704004FFC0543EEE700BF4011014000100140DB
:1007140000ED00E008B5002001F0BAF80A4B0B49DF
:100724001F22C3F808250122C3F804230A601A60B3
:100734000222C3F84423064BE02283F811234FF42A
:1007440000321A6008BD00BF0010014008100140CB
:1007540000E100E07FB5054672B6264ED6F80445A2
:1007640000F022FE3346002841D0234EAE4228BF7B
:100774002E46321922F07F420121C3F80813C3F830
:1007840040251E4A002111601168019101994FF41E
:100794008031C3F80413BFF34F8F3DB1184920BF14
:1007A400D1F80051D1F804012843F8D04FF4803136
:1007B400C3F808130021116012680392039A114AC6
:1007C400116012680292029A0122C3F80423D3F83A
:1007D40004351B1B23F07F40B042094B4FF4003219
:1007E40028BF3046C3F8802108B100F0D1FB62B6BF
:1007F40004B070BD00100140FDFFFF004011014036
:1008040000E100E00011014010B50446FFF732FF9B
:10081400A46BFFF739FFB4FA84F0400910BD70B53A
:100824001546026C866B044642B905689DB940685A
:1008340000F0E4FD65600136A66370BD6DB98068A3
:1008440001F0F0FAA368226C13446268A360934237
:1008540001D32368A3600020EDE7C06801F0E2FA49
:10086400236CE26821685B421A448A42E2603EBF1C
:1008740062689B18E360022DEDD10EB1013EEAE7F8
:100884003046D8E7034610B41A6C084662B1D968FA
:100894005C681144A142D96024BF1968D960D96841
:1008A4005DF8044B01F0BEBA5DF8044B704770B5B7
:1008B4000446FFF7DFFE94F8455004F124066DB2B8
:1008C400002D14DCFF2384F84530FFF7DDFEFFF72D
:1008D400D1FE94F8445004F110066DB2002D12DCE0
:1008E400FF2384F84430BDE87040FFF7CDBE636A4F
:1008F400002BE7D0304600F0E3FC08B100F04EFDD9
:10090400013D6DB2DCE72369002BE9D0304600F0ED
:10091400D7FC08B100F042FD013D6DB2DEE70000F6
:1009240038B504460D46FFF7A5FED4E90F3022681A
:10093400A2604343D1181B1A13446160E360002191
:10094400FF23A16384F8443084F845309DB92369BA
:100954006BB104F1100000F0B3FC40B10A4B4FF04E
:1009640080525A6040BFBFF34F8FBFF36F8FFFF7C2
:100974008BFE012038BD04F11000FFF7B0FD04F137
:100984002400FFF7ACFDF2E700ED00E070B5064689
:10099400484348300D46FFF779FD044648B155B148
:1009A40000F148032360C4E90F6501212046FFF7E5
:1009B400B7FF204670BD0346F4E700002DE9FF476A
:1009C4000026DFF8F490019204468A461F46B0469A
:1009D400FFF750FEA26BE36B9A4201D3022F1AD1A8
:1009E4003A4651462046FFF71AFF636A1BB104F1E9
:1009F400240000F065FC40B12F4B4FF080525A6048
:100A040040BFBFF34F8FBFF36F8FFFF73DFE012051
:100A140004B0BDE8F087019D1DB9FFF735FE002045
:100A2400F6E716B902A800F085FCFFF72DFE00F0EA
:100A3400A1FAFFF71FFE94F84430FF2B08BF84F897
:100A4400448094F84530FF2B08BF84F84580FFF7B5
:100A54001BFE01A902A800F079FC30BBFFF70AFED7
:100A6400A26BE36B9A420ED1FFF70EFE019904F1DB
:100A7400100000F001FC2046FFF719FF00F008FB0E
:100A840048B10126A4E7FFF7FFFD2046FFF70FFF5B
:100A940000F0FEFAF5E74FF08053C9F8043040BF88
:100AA400BFF34F8FBFF36F8FEBE72046FFF7FFFED7
:100AB40000F0EEFAB3E700BF00ED00E0F8B505463C
:100AC4001746EFF31186402282F31188806BEA6B9C
:100AD400904201D3022B1ED195F845401A4664B2C8
:100AE4002846FFF79CFE631C10D16B6A0BB90120EA
:100AF40009E005F1240000F0E3FB0028F7D0002F03
:100B0400F5D00120386086F31188F8BD013464B251
:100B140085F84540EBE70020F5E700002DE9F043B8
:100B240085B00026DFF8E4900192044688463746F3
:100B3400FFF7A0FDA56BDDB141462046013DFFF75F
:100B4400A1FEA56323696BB104F1100000F0B8FBAA
:100B540040B12E4B4FF080525A6040BFBFF34F8FCD
:100B6400BFF36F8FFFF790FD012005B0BDE8F08360
:100B7400019D1DB9FFF788FD0020F6E716B902A80C
:100B840000F0D8FBFFF780FD00F0F4F9FFF772FDE9
:100B940094F84430FF2B08BF84F8447094F845302F
:100BA400FF2B08BF84F84570FFF76EFD01A902A86A
:100BB40000F0CCFBF8B92046FFF726FEA8B1019956
:100BC40004F1240000F058FB2046FFF770FE00F00B
:100BD4005FFA40B94FF08053C9F8043040BFBFF307
:100BE4004F8FBFF36F8F0126A2E72046FFF75FFE0A
:100BF40000F04EFAF7E72046FFF759FE00F048FAF6
:100C04002046FFF701FE0028EDD0B5E700ED00E037
:100C1400054B1A6812B19A682AB9012243F83210B6
:100C240003EBC203586070471010002070B50446EF
:100C34000D461646FFF71EFD94F84430FF2B04BF03
:100C4400002384F8443094F84530FF2B04BF00237C
:100C540084F84530FFF718FDA36B2BB932462946BB
:100C640004F1240000F018FB2046BDE87040FFF7B3
:100C74001EBE0000094B0A4A1B681268D06A58B9A4
:100C8400084A1268012A08D8012B06D8064B1868AE
:100C9400064B1B68C01A7047002070477C10002068
:100CA400201000202C100020AC100020F410002094
:100CB400064A13681968064B19B94FF0FF321A60D7
:100CC40070471268D268D2685268F8E7241000208E
:100CD400AC100020F8B51B4B1B4E1C680546306851
:100CE40004300F46FFF72CFC334640B93168174EE9
:100CF400C96A32680120884022EA000232606A1C14
:100D040007D137B1196812480431BDE8F840FFF73C
:100D1400F4BB1A686419546007D30E4A1068196842
:100D2400BDE8F8400431FFF7F4BB0B4A10681968BA
:100D34000431FFF7EEFB094B1A68A24288BF1C601E
:100D4400F8BD00BFF4100020201000207C1000200B
:100D5400CC1000202810002024100020AC1000200B
:100D64002DE9F84F9600814630460D469A46FFF726
:100D74008DFB0746002800F09E804820FFF786FB85
:100D84000446002800F0948007633246A5213846C3
:100D940001F071F8D4F830B06B1E04F1340203355D
:100DA40013F8011F02F8011B09B1AB42F8D10A9DE7
:100DB400022D28BF02254FF00008271DE562C4E973
:100DC4000E58384684F83780043EFFF793FBC5F18C
:100DD400030504F118005E44FFF78CFBC4F840805F
:100DE4002461A561646284F844805246494626F031
:100DF4000700FFF707FC0B9B206003B11C60FFF7A3
:100E040039FC344B344E1A68DFF8008101321A6021
:100E14003268002A52D134601B68012B1FD12F483D
:100E2400DFF8EC902E4DFFF75AFB2E48FFF757FBE7
:100E34002D48FFF754FB4846FFF751FB2846FFF7C0
:100E44004EFB2A48FFF74BFB2948FFF748FB29488C
:100E5400FFF745FB284BC3F80090284B1D60284A38
:100E640028491368086801331360E26A012505FA0A
:100E740002F303430B60194B142000FB0230394684
:100E8400FFF73BFBFFF700FCD8F800306BB1336889
:100E9400DA6AE36A9A4208D21B4B4FF080525A60D6
:100EA40040BFBFF34F8FBFF36F8F2846BDE8F88F65
:100EB4003846FFF713FB4FF0FF35F6E7D8F800305C
:100EC400002BCCD13368DA6AE36A9A4298BF346063
:100ED400C5E700BF68100020201000202C1000205F
:100EE400941000204010002054100020B410002062
:100EF400E0100020CC100020241000202810002036
:100F0400781000207C10002000ED00E0C8100020C4
:100F14008010002013B5114B019300240094234644
:100F24003C220F490F48FFF71BFF012813D100F0A3
:100F3400E7FA01280FD1402383F311880A4B4FF0BD
:100F4400FF321A60094B1860094B1C6002B0BDE8FF
:100F54001040FFF769BB02B010BD00BFA81000200D
:100F6400E41E00009D110000AC100020C8100020F9
:100F7400F4100020024A136801331360704700BF65
:100F840074100020014B1868704700BFF410002053
:100F9400024A136818441060704700BFF410002020
:100FA4002DE9F84F2F4B1B68002B54D12E4B1D6895
:100FB40001351D605DB92D4A2D4B1168186810600C
:100FC4002C4A1960136801331360FFF771FE2A4F2E
:100FD4003B68AB424FF0000607D9284B1B68002B37
:100FE4000CBF30460120BDE8F88FDFF880A0DFF8A1
:100FF4009890DFF898B0DAF800301B681BB94FF00E
:10100400FF333B60E9E7DAF80030DB68DC686368EB
:101014009D42F6D304F104084046FFF791FAA36A0F
:101024001BB104F11800FFF78BFAE26AD9F800103B
:101034000123934014200B4300FB02B04146C9F83E
:101044000030FFF75AFA0E4BE26A1B68DB6A9A42D9
:1010540028BF0126CFE70B4A13680133136000262B
:10106400BBE700BF74100020F410002024100020FF
:1010740028100020B0100020AC100020F810002030
:1010840020100020701000207C1000202C10002064
:101094002DE9F843FFF7EEFA2A4B1A68013A1A6071
:1010A4001C682CB10024FFF7EFFA2046BDE8F88352
:1010B400254B1B68002BF5D0244D254EDFF8A4806A
:1010C4001FE0EB68DC6804F1040904F11800FFF781
:1010D40037FA4846FFF734FAE26A3168012707FA1B
:1010E40002F314200B4300FB028049463360FFF7F0
:1010F40004FA184BE26A1B68DB6A9A4201D3164B66
:101104001F602B68002BDCD10CB1FFF7D1FD134D10
:101114002C6844B1104E0127FFF742FF00B137603D
:10112400013CF9D12C600C4B1B68002BBAD00C4B42
:101134004FF080525A6040BFBFF34F8FBFF36F8FA1
:101144000124B0E77410002068100020B4100020BF
:101154007C10002020100020F810002070100020C7
:1011640000ED00E02C10002008B548B9094B4FF001
:1011740080525A6040BFBFF34F8FBFF36F8F08BDDB
:10118400FFF7F8FE0021FFF7A5FDFFF781FF002818
:10119400ECD0F4E700ED00E0F8B51B4C1B4F1C4EFF
:1011A4002368DBB91B4B1B68012B08D91A4B4FF082
:1011B40080525A6040BFBFF34F8FBFF36F8FFFF76A
:1011C40059FD0128EBD9FFF7D5FEFFF753FD0128A0
:1011D40001D9FFF7BFFAFFF75BFFE0E7FFF74AFA31
:1011E400FB68DD68281DFFF7ABF93368013B33600A
:1011F4002368013B2360FFF747FA286BFFF76EF97A
:101204002846FFF76BF9CBE76C100020E0100020B4
:10121400681000202C10002000ED00E0114B1A682B
:10122400114B30B512B101221A6030BD1A600F4B58
:101234000F491B68B3FA83F3C3F11F03142000FBA7
:1012440003F28C18083265686D6865600A4495423B
:1012540004BF6A68626000FB03135B68DA68054BCD
:10126400E2E700BF74100020F81000207C1000207A
:101274002C1000202010002010B5064B0C461968D5
:101284001831FFF746F920460121BDE81040FFF769
:1012940021BD00BF2010002038B5084B0D46196849
:1012A40014461831FFF729F9002C21460CBF2846B3
:1012B4004FF0FF30BDE83840FFF70CBD2010002090
:1012C40038B5C368DC6804F118052846FFF738F917
:1012D400124B1B68F3B9251D2846FFF731F9104955
:1012E400E26A08680123934003430B600D4B14200A
:1012F400294600FB0230FFF700F90B4BE26A1B683A
:10130400DB6A9A4285BF094B012000201860FFF771
:10131400CFFC38BD29460648EDE700BF7410002015
:101324007C1000202C10002020100020F810002039
:10133400B4100020034B1B680360034B1B6843601D
:10134400704700BFB0100020F410002070B50C46A8
:101354000546FFF78FF90F4B196823685A1C10D004
:101364000D482E6800686A68864201D08A420FD907
:10137400881A83420AD95B1A134423602846FFF76C
:10138400D9FF0024FFF780F9204670BD00232360B5
:101394000124F7E7F4100020B0100020014B0122D3
:1013A4001A607047F8100020084B186860B9084BA1
:1013B4001B6853B9074B1868074B1B68013B9842DD
:1013C40014BF01200220704700207047B410002091
:1013D400F8100020CC10002068100020054B1B687A
:1013E40033B1054B1B68002B0CBF02200020704753
:1013F40001207047C810002074100020F8B504467E
:1014040008B90020F8BDC36BC16A826B013B9142ED
:10141400C363F6D0002BF4D1051D2846FFF790F8DE
:10142400104E114A50B9E76A1421794373582BB905
:1014340013680120B84023EA00031360A36BE3623E
:10144400C3F10301A1611168012404FA03F0084304
:101454001060142000FB03602946FFF74EF8204675
:10146400D0E700BF2C1000207C100020F8B50F4CF2
:10147400FFF700F92568ADB90D4F0E4E3846FFF75A
:101484002EF83046FFF72BF80B4B1F600B4B2A4608
:10149400102120201E60FFF779FA206010B108495E
:1014A400FFF7B6FBBDE8F840FFF7EEB830110020B7
:1014B4000411002018110020FC100020001100204D
:1014C400E91E0000914208B5416000610AD8D21AB1
:1014D40083699A420DD2084B011D1868FFF719F869
:1014E400002008BD9A4201D2994202D2011D034B49
:1014F400F3E70120F5E700BF00110020FC100020F5
:1015040007B5FFF7B3FF084B186848B1074B0193C1
:10151400022300935022002305490648FFF720FCCC
:1015240003B05DF804FB00BF30110020341100202B
:10153400EE1E00001D1600002DE9F0418046282013
:101544000F4616461D46FEF7A1FF044658B1FFF7A5
:101554008DFF069BC4F80080C4E9067625626362A9
:10156400201DFEF7C7FF2046BDE8F0817FB50F4C74
:101574000546206816461A4680B10529CDE90016AD
:1015840002950DDCFFF72AFF0023022808BF089A02
:10159400206818BF1A466946FFF710FA04B070BDF8
:1015A40000236946FFF78AFAF8E700BF30110020EC
:1015B4002DE9F341164D4FF000082B681A6832B933
:1015C400144A11682960136002B0BDE8F081DB6839
:1015D400DC681E68271D3846FEF7B2FF636A2046A2
:1015E4009847E369012BE8D1A36933449E4206D2AC
:1015F4006360246139462868FEF78BFFDDE700232A
:10160400CDF80080324619462046FFF7AFFFD4E7F5
:10161400FC100020001100202DE9F04F5C4D89B032
:10162400A9464FF0000A2A681368002B42D0D268FA
:10163400D2F800B0574C0393FFF79CFCFFF7A2FCD1
:101644002268554E039B90428046274634D2FFF7CA
:10165400AFFFC4F80080FFF71BFD4FF0010B002221
:1016640004A93068FFF75AFA0028DCD0049B0698D6
:10167400002B60DB069C6369002B63D1FFF782FCBF
:101684003B689842024603D20390FFF791FF039A06
:10169400049B3A60092BE2D80BFA03F313F40478A1
:1016A4006ED113F0C70F51D19B06D8D52046FEF753
:1016B40015FFD4E79B46BDE720600BB3834538D8BC
:1016C400FFF7E6FCD9F80030DB68DC68201DFEF784
:1016D40037FFE369012B0FD1A1695B4642465944A8
:1016E4002046FFF7EFFE38B10023CDF800A05A469C
:1016F40019462046FFF73AFF636A20469847ACE74D
:10170400264B1B681A68B2FA82F25209ABEB080145
:101714003068FFF78BFAFFF7BBFC00289DD1204B04
:101724004FF080525A6040BFBFF34F8FBFF36F8FAB
:1017340093E70022EAE7059B07999847049B002B4F
:101744008DDB97E7201DFEF7FBFE97E7A169059B5C
:1017540020461944FFF7B6FE002880D0636A20466D
:101764009847E369012B7FF47AAFA2690599CDF814
:1017740000800A44434641462046FFF7F7FE6EE7E1
:101784000599A161134611442046FFF79BFE66E7C5
:10179400FC1000202C11002030110020001100202A
:1017A40000ED00E01FB50021039001AA44F20100FE
:1017B400CDE9011100F004F805B05DF804FB000068
:1017C40072B6094B1B68DB0700D500BEBFF34F8F11
:1017D4000649074BCA6802F4E0621343CB60BFF3C7
:1017E4004F8F00BFFDE700BFF0ED00E000ED00E02B
:1017F4000400FA0572B6024A136801331360704795
:1018040038110020034A1368013B136003B962B620
:10181400704700BF38110020FFF7ECBFFFF7F2BF9D
:1018240038B5074C051E04F1080318BF1C4623688D
:101834002BB11A6822605B6828469847F7E738BDE1
:101844004411002020B9054B01225A70FFF7E8BF6C
:10185400012802D1014A9070F8E770473C1100203A
:1018640038B5094C23786BB908486360A3602361D9
:10187400E36000F037F8054600F040F801232370D8
:10188400284638BD8525FBE73C1100204918000097
:1018940038B5134CA378054603F0FF0073B115B1B6
:1018A4006B68012098470020FFF7B6FFE368013317
:1018B400E3600020BDE83840FFF7B0BFFFF7ACFF9E
:1018C40025B1226913463BB92A602561E368002BE0
:1018D400ECD100F025F8E9E79D42F7D01B68F2E768
:1018E4003C110020044A137923B90121106091802E
:1018F400184670478520704750110020074B1A681E
:10190400D2075FBFC02283F8002301221A604FF080
:1019140080430122C3F81825704700BF00E100E0AE
:10192400074B00221A6082B01B680193019B4FF0A1
:1019340080430222C3F8042301229A6002B0704754
:1019440004010040154B07B51A687AB100221A60E9
:101954001B680093009B4FF080430122C3F80823C7
:101964000F4B587910B95A711B6898470D4B1A6878
:1019740082B100221A601B680193019B4FF08043DF
:101984000222C3F80823064B1B68012003B05DF84C
:1019940004EB184703B05DF804FB00BF00010040EE
:1019A400501100200401004000F1804000F5C040C7
:1019B400002382B0036003680193019B02B0704767
:1019C40003681F2B83BF03F01F03036001484FF01C
:1019D400A04070470003005007B5019001A8FFF72D
:1019E400EFFF019B00EB8300D0F8002722F4403284
:1019F400C0F80027D0F8003743EA0143C0F80037A5
:101A040003B05DF804FB00002DE9F04F002489B019
:101A1400CDE90244624D4FF48072012102F180430A
:101A240003F5C04390B21B68012B06D1D5F80433EB
:101A34000B4202D0FFF7B8FF0C430432B2F5907F9B
:101A44004FEA4101EAD1574B1B68012B0ED14FF4E9
:101A5400BE70FFF7A9FF4FF0A04344F00044D3F851
:101A640010350293504BD3F81035039314F0FF0F45
:101A74001AD04E4F01260025264210D0AB0003F1A8
:101A8400804303F5C043D3F81005D3F8101557F875
:101A9400253023B1C1F30141C0F305209847013536
:101AA400082D4FEA4606E7D1002C75DA0DF110082F
:101AB40000230493C8F804304FF0FF33CDE9063314
:101AC400DFF8E8A0DFF8E89000252F4619F9014B6C
:101AD400631C48D0E4B2012324F0C00604F00702DA
:101AE40003FA02F2F00808AB191811F8083C134283
:101AF40039D00AEB0603A40993F930305AF823B01D
:101B0400BBF1000F08D1032C2DD118F800C04CEA0A
:101B1400020C08F800C001E0032CF6D001A80196DD
:101B2400FFF74EFF019B11F8181C03F5E07C1142EE
:101B340050F82C00C0F3014005D0022813D1032C27
:101B44000BD1214604E003280DD1032C05D1022139
:101B54003046FFF741FF0135EDB2BBF1000F02D073
:101B640021463046D8470137042FAFD1A5B14FF0F5
:101B7400A0430299D3F8102503F540739142D3F89A
:101B8400103502D10399994206D002920393049A24
:101B9400059B0692079395E709B0BDE8F08F00BF57
:101BA400006000407C610040000300505811002098
:101BB400B81100200120FEF72FBC08B50020FEF765
:101BC4002BFCC820FFF7D0FAF8E7000013B5FFF7A5
:101BD40047FE08B1FFF7E6FD0120FEF737FC144B82
:101BE4000193022300934FF4827200231149124897
:101BF400FFF7B6F8114B009301224FF47A710023DA
:101C04000F48FFF799FC0F4B04461860FFF7BAF929
:101C140000230246009301212046FFF7A7FC0A4A4D
:101C2400136943F004031361FFF774F9FEE700BF7F
:101C3400C4110020F61E0000BF1B0000B91B0000E9
:101C4400FB1E0000C811002000ED00E0054B1B68DE
:101C5400082B01BF044B1868B0FA80F0400918BF84
:101C640000207047300100103401001008B54FF017
:101C740080430022C3F80C21C3F81021C3F838258F
:101C84004FF0805203F54043D2F80414C3F82015F2
:101C9400D2F80814C3F82415D2F80C14C3F8281584
:101CA400D2F81014C3F82C15D2F81414C3F8301554
:101CB400D2F81814C3F83415D2F81C14C3F840151C
:101CC400D2F82014C3F84415D2F82414C3F84815E4
:101CD400D2F82814C3F84C15D2F82C14C3F85015B4
:101CE400D2F83014C3F85415D2F83414C3F860157C
:101CF400D2F83814C3F86415D2F83C14C3F8681544
:101D0400D2F84014C3F86C15D2F84424C3F87025F3
:101D1400FFF79CFF10B1384B384A1A60FFF796FF63
:101D240018B1374BFB22C3F81825FFF78FFF48B1D2
:101D34003449354B0A681B6822F00F0203F00F0385
:101D440013430B60FFF782FF18B1304B4FF400725E
:101D54001A604FF08043D3F80024D20744BF6FF0D9
:101D64000102C3F800242A4AD2F8883043F47003ED
:101D7400C2F88830BFF34F8FBFF36F8F4FF010233B
:101D8400D3F80022002A03DBD3F80432002B2FDA25
:101D9400204B0122C3F80425D3F80024002AFBD0E9
:101DA4004FF010221221C2F80012D3F80024002AA6
:101DB400FBD04FF010231222C3F80422154B1A460D
:101DC400D3F800140029FBD00021C3F80415D2F87D
:101DD4000034002BFBD0BFF34F8F0D490E4BCA6864
:101DE40002F4E0621343CB60BFF34F8F00BFFDE703
:101DF4000A4B0B4A1A6008BD8C5600404881030008
:101E040000F00040E40E00405802001040960240EA
:101E140000ED00E000E001400400FA0500000020AD
:101E24000090D003844640EA010313F0030F18D155
:101E34008446202A0BD32DE9F007B1E8F807A0E87F
:101E4400F807A2F12002202AF7D2BDE8F007042AFD
:101E540007D351F8043B40F8043BA2F10402042ADE
:101E6400F7D2002A05D011F8013B00F8013B013AF2
:101E7400F9D1604670478446002A2DD010F0030F34
:101E840004D000F8011B013A26D0F7E7C9B241EAB1
:101E9400012141EA0141202A12D3A2F120022DE9B5
:101EA400F0030B460C460D460E460F4688468946FF
:101EB400A0E8FA03203AFBD2BDE8F00320320BD0AD
:101EC400042A05D340F8041B043A05D0042AF9D2A5
:0C1ED40000F8011B013AFBD1604670478A
:101EE0000D0E0F1049444C4500546D725100546D55
:101EF0007220537663004C454430004C4544310019
:041F00000090D0037A
:040000030000037581
:00000001FF
